{
  "address": "0x2633F9Fe97ab4B5437F20eCEe511B587b7BC5cC6",
  "abi": [
    {
      "inputs": [
        {
          "internalType": "address",
          "name": "_orgManagerAddr",
          "type": "address"
        }
      ],
      "stateMutability": "nonpayable",
      "type": "constructor"
    },
    {
      "anonymous": false,
      "inputs": [
        {
          "indexed": true,
          "internalType": "uint256",
          "name": "challengeId",
          "type": "uint256"
        },
        {
          "indexed": false,
          "internalType": "string",
          "name": "description",
          "type": "string"
        }
      ],
      "name": "ChallengeCreated",
      "type": "event"
    },
    {
      "anonymous": false,
      "inputs": [
        {
          "indexed": true,
          "internalType": "uint256",
          "name": "challengeId",
          "type": "uint256"
        },
        {
          "indexed": true,
          "internalType": "address",
          "name": "user",
          "type": "address"
        }
      ],
      "name": "RewardClaimed",
      "type": "event"
    },
    {
      "inputs": [],
      "name": "challengeCount",
      "outputs": [
        {
          "internalType": "uint256",
          "name": "",
          "type": "uint256"
        }
      ],
      "stateMutability": "view",
      "type": "function"
    },
    {
      "inputs": [
        {
          "internalType": "uint256",
          "name": "",
          "type": "uint256"
        }
      ],
      "name": "challengeIds",
      "outputs": [
        {
          "internalType": "uint256",
          "name": "",
          "type": "uint256"
        }
      ],
      "stateMutability": "view",
      "type": "function"
    },
    {
      "inputs": [
        {
          "internalType": "uint256",
          "name": "",
          "type": "uint256"
        }
      ],
      "name": "challenges",
      "outputs": [
        {
          "internalType": "uint256",
          "name": "id",
          "type": "uint256"
        },
        {
          "internalType": "string",
          "name": "description",
          "type": "string"
        },
        {
          "internalType": "bytes32",
          "name": "validatorUID",
          "type": "bytes32"
        },
        {
          "internalType": "address",
          "name": "validatorAddr",
          "type": "address"
        },
        {
          "internalType": "uint256",
          "name": "validationId",
          "type": "uint256"
        },
        {
          "internalType": "uint256",
          "name": "prizeAmount",
          "type": "uint256"
        },
        {
          "internalType": "uint256",
          "name": "startTime",
          "type": "uint256"
        },
        {
          "internalType": "uint256",
          "name": "endTime",
          "type": "uint256"
        },
        {
          "internalType": "uint256",
          "name": "maxWinners",
          "type": "uint256"
        },
        {
          "internalType": "bool",
          "name": "active",
          "type": "bool"
        },
        {
          "internalType": "uint256",
          "name": "winnerCount",
          "type": "uint256"
        },
        {
          "internalType": "uint256",
          "name": "orgId",
          "type": "uint256"
        },
        {
          "internalType": "bool",
          "name": "exists",
          "type": "bool"
        }
      ],
      "stateMutability": "view",
      "type": "function"
    },
    {
      "inputs": [
        {
          "internalType": "uint256",
          "name": "_challengeId",
          "type": "uint256"
        },
        {
          "internalType": "bytes",
          "name": "params",
          "type": "bytes"
        }
      ],
      "name": "claimReward",
      "outputs": [],
      "stateMutability": "nonpayable",
      "type": "function"
    },
    {
      "inputs": [
        {
          "internalType": "uint256",
          "name": "_orgId",
          "type": "uint256"
        },
        {
          "internalType": "string",
          "name": "_description",
          "type": "string"
        },
        {
          "internalType": "uint256",
          "name": "_prizeAmount",
          "type": "uint256"
        },
        {
          "internalType": "uint256",
          "name": "_startTime",
          "type": "uint256"
        },
        {
          "internalType": "uint256",
          "name": "_endTime",
          "type": "uint256"
        },
        {
          "internalType": "uint256",
          "name": "_maxWinners",
          "type": "uint256"
        }
      ],
      "name": "createChallenge",
      "outputs": [],
      "stateMutability": "nonpayable",
      "type": "function"
    },
    {
      "inputs": [
        {
          "internalType": "uint256",
          "name": "_orgId",
          "type": "uint256"
        }
      ],
      "name": "getChallengesByOrg",
      "outputs": [
        {
          "internalType": "uint256[]",
          "name": "",
          "type": "uint256[]"
        }
      ],
      "stateMutability": "view",
      "type": "function"
    },
    {
      "inputs": [
        {
          "internalType": "uint256",
          "name": "_challengeId",
          "type": "uint256"
        }
      ],
      "name": "getOrganizationId",
      "outputs": [
        {
          "internalType": "uint256",
          "name": "",
          "type": "uint256"
        }
      ],
      "stateMutability": "view",
      "type": "function"
    },
    {
      "inputs": [
        {
          "internalType": "uint256[]",
          "name": "ids",
          "type": "uint256[]"
        }
      ],
      "name": "listChallengesDetails",
      "outputs": [
        {
          "internalType": "uint256[]",
          "name": "retChallengeIds",
          "type": "uint256[]"
        },
        {
          "internalType": "string[]",
          "name": "descriptions",
          "type": "string[]"
        },
        {
          "internalType": "uint256[]",
          "name": "prizeAmounts",
          "type": "uint256[]"
        },
        {
          "internalType": "uint256[]",
          "name": "startTimes",
          "type": "uint256[]"
        },
        {
          "internalType": "uint256[]",
          "name": "endTimes",
          "type": "uint256[]"
        },
        {
          "internalType": "uint256[]",
          "name": "maxWinners",
          "type": "uint256[]"
        },
        {
          "internalType": "bool[]",
          "name": "actives",
          "type": "bool[]"
        },
        {
          "internalType": "uint256[]",
          "name": "winnerCounts",
          "type": "uint256[]"
        },
        {
          "internalType": "bytes32[]",
          "name": "validatorUID",
          "type": "bytes32[]"
        }
      ],
      "stateMutability": "view",
      "type": "function"
    },
    {
      "inputs": [
        {
          "internalType": "uint256",
          "name": "",
          "type": "uint256"
        },
        {
          "internalType": "uint256",
          "name": "",
          "type": "uint256"
        }
      ],
      "name": "orgChallenges",
      "outputs": [
        {
          "internalType": "uint256",
          "name": "",
          "type": "uint256"
        }
      ],
      "stateMutability": "view",
      "type": "function"
    },
    {
      "inputs": [],
      "name": "orgManager",
      "outputs": [
        {
          "internalType": "contract IOrganizationManager",
          "name": "",
          "type": "address"
        }
      ],
      "stateMutability": "view",
      "type": "function"
    },
    {
      "inputs": [
        {
          "internalType": "uint256",
          "name": "_challengeId",
          "type": "uint256"
        },
        {
          "internalType": "address",
          "name": "_validatorAddr",
          "type": "address"
        },
        {
          "internalType": "bytes32",
          "name": "_validatorUID",
          "type": "bytes32"
        },
        {
          "internalType": "uint256",
          "name": "_validationId",
          "type": "uint256"
        }
      ],
      "name": "setChallengeValidator",
      "outputs": [],
      "stateMutability": "nonpayable",
      "type": "function"
    },
    {
      "inputs": [
        {
          "internalType": "uint256",
          "name": "_orgId",
          "type": "uint256"
        }
      ],
      "name": "tokensAvailable",
      "outputs": [
        {
          "internalType": "uint256",
          "name": "",
          "type": "uint256"
        }
      ],
      "stateMutability": "view",
      "type": "function"
    }
  ],
  "transactionHash": "0x90a4c7be9ceb62ece1c444eeccb3ae3ee1a6ab06a8b6f97022c9e4b2850d2792",
  "args": [
    "0x3D62f41b126c7722b2019a0c66Cd2540136CcEA4"
  ],
  "numDeployments": 2,
  "solcInputHash": "31ca34f69de545882ca9564f4519173c",
  "bytecode": "0x608060405234801561001057600080fd5b50604051611c7e380380611c7e83398101604081905261002f91610054565b600480546001600160a01b0319166001600160a01b0392909216919091179055610084565b60006020828403121561006657600080fd5b81516001600160a01b038116811461007d57600080fd5b9392505050565b611beb806100936000396000f3fe608060405234801561001057600080fd5b50600436106100b45760003560e01c80638f1d3776116100715780638f1d3776146101b057806398ba6219146101dc578063a2f05725146101ef578063a4e99579146101f8578063e2ee160c1461020b578063e4cf539f1461023357600080fd5b806323e144e4146100b957806323f6bfb2146100ef5780636328393e14610102578063754685c51461015257806375f5e661146101655780637d96da0014610185575b600080fd5b6100dc6100c7366004611461565b6000908152600160205260409020600b015490565b6040519081526020015b60405180910390f35b6100dc6100fd366004611461565b610246565b61015061011036600461148f565b6000938452600160205260409093206003810180546001600160a01b0319166001600160a01b039490941693909317909255600482019290925560020155565b005b6101506101603660046114cc565b610267565b610178610173366004611461565b61087c565b6040516100e69190611582565b600454610198906001600160a01b031681565b6040516001600160a01b0390911681526020016100e6565b6101c36101be366004611461565b6108de565b6040516100e69d9c9b9a999897969594939291906115e2565b6100dc6101ea366004611461565b6109db565b6100dc60005481565b6100dc610206366004611660565b610b87565b61021e610219366004611682565b610bb8565b6040516100e699989796959493929190611728565b610150610241366004611845565b6110af565b6002818154811061025657600080fd5b600091825260209091200154905081565b6000838152600160205260409081902060048054600b8301549351637cfedceb60e11b81529182019390935290916001600160a01b03169063f9fdb9d690602401602060405180830381865afa1580156102c5573d6000803e3d6000fd5b505050506040513d601f19601f820116820180604052508101906102e99190611922565b156103a05760048054600b8301546040516306652f0360e11b8152928301523360248301526001600160a01b031690630cca5e0690604401602060405180830381865afa15801561033e573d6000803e3d6000fd5b505050506040513d601f19601f820116820180604052508101906103629190611922565b6103a05760405162461bcd60e51b815260206004820152600a6024820152692737ba1030903ab9b2b960b11b60448201526064015b60405180910390fd5b600d81015460ff166103ef5760405162461bcd60e51b815260206004820152601860248201527710da185b1b195b99d948191bd95cc81b9bdd08195e1a5cdd60421b6044820152606401610397565b600981015460ff1661043a5760405162461bcd60e51b81526020600482015260146024820152734368616c6c656e6765206e6f742061637469766560601b6044820152606401610397565b80600601544210156104865760405162461bcd60e51b815260206004820152601560248201527410da185b1b195b99d9481b9bdd081cdd185c9d1959605a1b6044820152606401610397565b80600701544211156104cc5760405162461bcd60e51b815260206004820152600f60248201526e10da185b1b195b99d948195b991959608a1b6044820152606401610397565b806008015481600a0154106105195760405162461bcd60e51b815260206004820152601360248201527213585e081dda5b9b995c9cc81c995858da1959606a1b6044820152606401610397565b336000908152600c8201602052604090205460ff161561056d5760405162461bcd60e51b815260206004820152600f60248201526e105b1c9958591e4818db185a5b5959608a1b6044820152606401610397565b60038101546001600160a01b031615610641576003810154600480830154604051631df7cc5d60e31b81526001600160a01b0390931692839263efbe62e8926105bc9290918991899101611944565b6020604051808303816000875af11580156105db573d6000803e3d6000fd5b505050506040513d601f19601f820116820180604052508101906105ff9190611922565b61063f5760405162461bcd60e51b815260206004820152601160248201527015985b1a59185d1a5bdb8819985a5b1959607a1b6044820152606401610397565b505b600581015460048054600b840154604051631bc7046d60e01b8152928301526000916001600160a01b0390911690631bc7046d90602401602060405180830381865afa158015610695573d6000803e3d6000fd5b505050506040513d601f19601f820116820180604052508101906106b9919061197a565b6040516370a0823160e01b815230600482015290915082906001600160a01b038316906370a0823190602401602060405180830381865afa158015610702573d6000803e3d6000fd5b505050506040513d601f19601f820116820180604052508101906107269190611997565b10156107885760405162461bcd60e51b815260206004820152602b60248201527f4e6f7420656e6f75676820746f6b656e7320696e20746865206368616c6c656e60448201526a19d94818dbdb9d1c9858dd60aa1b6064820152608401610397565b336000908152600c840160205260408120805460ff19166001179055600a84018054916107b4836119c6565b9190505550826008015483600a0154106107d55760098301805460ff191690555b60405163a9059cbb60e01b8152336004820152602481018390526001600160a01b0382169063a9059cbb906044016020604051808303816000875af1158015610822573d6000803e3d6000fd5b505050506040513d601f19601f820116820180604052508101906108469190611922565b50604051339087907f5dd59f4285b36241394b73f8f7ae03d0290b030a86803cf2562ecf33eeb617bd90600090a3505050505050565b6000818152600360209081526040918290208054835181840281018401909452808452606093928301828280156108d257602002820191906000526020600020905b8154815260200190600101908083116108be575b50505050509050919050565b6001602081905260009182526040909120805491810180546108ff906119df565b80601f016020809104026020016040519081016040528092919081815260200182805461092b906119df565b80156109785780601f1061094d57610100808354040283529160200191610978565b820191906000526020600020905b81548152906001019060200180831161095b57829003601f168201915b50505060028401546003850154600486015460058701546006880154600789015460088a015460098b0154600a8c0154600b8d0154600d909d01549b9c989b6001600160a01b039098169a50959850939692959194909360ff908116939192168d565b600480546040516332878d4d60e01b815291820183905260009182916001600160a01b0316906332878d4d90602401602060405180830381865afa158015610a27573d6000803e3d6000fd5b505050506040513d601f19601f82011682018060405250810190610a4b9190611997565b9050610a7d6040518060400160405280600e81526020016d2a37b5b2b7103130b630b731b29d60911b815250826113eb565b60008381526003602090815260408083208151808301909252601882527f4f7267616e697a6174696f6e206368616c6c656e6765733a0000000000000000928201929092528154610ace91906113eb565b60005b8154811015610b64576000828281548110610aee57610aee611a19565b60009182526020808320909101548083526001909152604090912060098101549192509060ff1615610b4f57600081600a01548260080154610b309190611a2f565b8260050154610b3f9190611a48565b9050610b4b8187611a5f565b9550505b50508080610b5c906119c6565b915050610ad1565b5081831015610b74576000610b7e565b610b7e8284611a2f565b95945050505050565b60036020528160005260406000208181548110610ba357600080fd5b90600052602060002001600091509150505481565b6060808080808080808089806001600160401b03811115610bdb57610bdb61182f565b604051908082528060200260200182016040528015610c04578160200160208202803683370190505b509950806001600160401b03811115610c1f57610c1f61182f565b604051908082528060200260200182016040528015610c5257816020015b6060815260200190600190039081610c3d5790505b509850806001600160401b03811115610c6d57610c6d61182f565b604051908082528060200260200182016040528015610c96578160200160208202803683370190505b509750806001600160401b03811115610cb157610cb161182f565b604051908082528060200260200182016040528015610cda578160200160208202803683370190505b509650806001600160401b03811115610cf557610cf561182f565b604051908082528060200260200182016040528015610d1e578160200160208202803683370190505b509550806001600160401b03811115610d3957610d3961182f565b604051908082528060200260200182016040528015610d62578160200160208202803683370190505b509450806001600160401b03811115610d7d57610d7d61182f565b604051908082528060200260200182016040528015610da6578160200160208202803683370190505b509350806001600160401b03811115610dc157610dc161182f565b604051908082528060200260200182016040528015610dea578160200160208202803683370190505b509250806001600160401b03811115610e0557610e0561182f565b604051908082528060200260200182016040528015610e2e578160200160208202803683370190505b50915060005b818110156110a0576000600160008f8f85818110610e5457610e54611a19565b60209081029290920135835250810191909152604001600020600d81015490915060ff16610ebf5760405162461bcd60e51b815260206004820152601860248201527710da185b1b195b99d948191bd95cc81b9bdd08195e1a5cdd60421b6044820152606401610397565b80600001548c8381518110610ed657610ed6611a19565b602002602001018181525050806001018054610ef1906119df565b80601f0160208091040260200160405190810160405280929190818152602001828054610f1d906119df565b8015610f6a5780601f10610f3f57610100808354040283529160200191610f6a565b820191906000526020600020905b815481529060010190602001808311610f4d57829003601f168201915b50505050508b8381518110610f8157610f81611a19565b602002602001018190525080600501548a8381518110610fa357610fa3611a19565b6020026020010181815250508060060154898381518110610fc657610fc6611a19565b6020026020010181815250508060070154888381518110610fe957610fe9611a19565b602002602001018181525050806008015487838151811061100c5761100c611a19565b60209081029190910101526009810154865160ff9091169087908490811061103657611036611a19565b60200260200101901515908115158152505080600a015485838151811061105f5761105f611a19565b602002602001018181525050806002015484838151811061108257611082611a19565b60209081029190910101525080611098816119c6565b915050610e34565b50509295985092959850929598565b6004805460405163146a291160e01b815291820188905233602483015287916001600160a01b039091169063146a291190604401602060405180830381865afa158015611100573d6000803e3d6000fd5b505050506040513d601f19601f820116820180604052508101906111249190611922565b61115f5760405162461bcd60e51b815260206004820152600c60248201526b2737ba1030b71030b236b4b760a11b6044820152606401610397565b6004805460405163146a291160e01b81529182018990523360248301526001600160a01b03169063146a291190604401602060405180830381865afa1580156111ac573d6000803e3d6000fd5b505050506040513d601f19601f820116820180604052508101906111d09190611922565b61120b5760405162461bcd60e51b815260206004820152600c60248201526b2737ba1030b71030b236b4b760a11b6044820152606401610397565b82841061124f5760405162461bcd60e51b8152602060048201526012602482015271496e76616c69642074696d652072616e676560701b6044820152606401610397565b600061125b8387611a48565b600480546040516329ec0ab960e21b81529182018b9052306024830152604482018390529192506001600160a01b039091169063a7b02ae490606401600060405180830381600087803b1580156112b157600080fd5b505af11580156112c5573d6000803e3d6000fd5b505060008054909250905081806112db836119c6565b90915550600081815260016020819052604090912082815591925081016113028a82611ac1565b50600581018890556000600a8201819055600682018890556007820187905560088201869055600b82018b9055600982018054600160ff199182168117909255600d840180549091168217905560028084018390558c8352600360209081526040808520805480860182559086529185209091018690558154928301825592527f405787fa12a823e0f2b7631cc41b3ba8828b3321ca811111fa75cd3aa3bb5ace018390555182907f9b29fc75376595e5ccc1cabb6212af1078e7cdea701adc8029ccc6ed8ab6e07b906113d7908c90611b80565b60405180910390a250505050505050505050565b6114308282604051602401611401929190611b93565b60408051601f198184030181529190526020810180516001600160e01b0316632d839cb360e21b179052611434565b5050565b61143d81611440565b50565b60006a636f6e736f6c652e6c6f679050600080835160208501845afa505050565b60006020828403121561147357600080fd5b5035919050565b6001600160a01b038116811461143d57600080fd5b600080600080608085870312156114a557600080fd5b8435935060208501356114b78161147a565b93969395505050506040820135916060013590565b6000806000604084860312156114e157600080fd5b8335925060208401356001600160401b03808211156114ff57600080fd5b818601915086601f83011261151357600080fd5b81358181111561152257600080fd5b87602082850101111561153457600080fd5b6020830194508093505050509250925092565b600081518084526020808501945080840160005b838110156115775781518752958201959082019060010161155b565b509495945050505050565b6020815260006115956020830184611547565b9392505050565b6000815180845260005b818110156115c2576020818501810151868301820152016115a6565b506000602082860101526020601f19601f83011685010191505092915050565b8d81526101a0602082015260006115fd6101a083018f61159c565b604083019d909d52506001600160a01b039a909a1660608b015260808a019890985260a089019690965260c088019490945260e0870192909252610100860152151561012085015261014084015261016083015215156101809091015292915050565b6000806040838503121561167357600080fd5b50508035926020909101359150565b6000806020838503121561169557600080fd5b82356001600160401b03808211156116ac57600080fd5b818501915085601f8301126116c057600080fd5b8135818111156116cf57600080fd5b8660208260051b85010111156116e457600080fd5b60209290920196919550909350505050565b600081518084526020808501945080840160005b8381101561157757815115158752958201959082019060010161170a565b600061012080835261173c8184018d611547565b9050602083820381850152818c518084528284019150828160051b850101838f0160005b8381101561178e57601f1987840301855261177c83835161159c565b94860194925090850190600101611760565b505086810360408801526117a2818f611547565b94505050505082810360608401526117ba818a611547565b905082810360808401526117ce8189611547565b905082810360a08401526117e28188611547565b905082810360c08401526117f681876116f6565b905082810360e084015261180a8186611547565b905082810361010084015261181f8185611547565b9c9b505050505050505050505050565b634e487b7160e01b600052604160045260246000fd5b60008060008060008060c0878903121561185e57600080fd5b8635955060208701356001600160401b038082111561187c57600080fd5b818901915089601f83011261189057600080fd5b8135818111156118a2576118a261182f565b604051601f8201601f19908116603f011681019083821181831017156118ca576118ca61182f565b816040528281528c60208487010111156118e357600080fd5b8260208601602083013760009281016020019290925250979a9799505050506040860135956060810135956080820135955060a0909101359350915050565b60006020828403121561193457600080fd5b8151801515811461159557600080fd5b83815260406020820152816040820152818360608301376000818301606090810191909152601f909201601f1916010192915050565b60006020828403121561198c57600080fd5b81516115958161147a565b6000602082840312156119a957600080fd5b5051919050565b634e487b7160e01b600052601160045260246000fd5b6000600182016119d8576119d86119b0565b5060010190565b600181811c908216806119f357607f821691505b602082108103611a1357634e487b7160e01b600052602260045260246000fd5b50919050565b634e487b7160e01b600052603260045260246000fd5b81810381811115611a4257611a426119b0565b92915050565b8082028115828204841417611a4257611a426119b0565b80820180821115611a4257611a426119b0565b601f821115611abc57600081815260208120601f850160051c81016020861015611a995750805b601f850160051c820191505b81811015611ab857828155600101611aa5565b5050505b505050565b81516001600160401b03811115611ada57611ada61182f565b611aee81611ae884546119df565b84611a72565b602080601f831160018114611b235760008415611b0b5750858301515b600019600386901b1c1916600185901b178555611ab8565b600085815260208120601f198616915b82811015611b5257888601518255948401946001909101908401611b33565b5085821015611b705787850151600019600388901b60f8161c191681555b5050505050600190811b01905550565b602081526000611595602083018461159c565b604081526000611ba6604083018561159c565b9050826020830152939250505056fea26469706673582212208b284f6aba70b9342f34224081f15e027aa37161bc0e7a09f4f211a7cab036c164736f6c63430008140033",
  "devdoc": {
    "kind": "dev",
    "methods": {
      "listChallengesDetails(uint256[])": {
        "params": {
          "ids": "Lista de IDs de los desafos"
        },
        "returns": {
          "actives": "Lista de estados de los desafos (activos o inactivos)",
          "descriptions": "Lista de descripciones de los desafos",
          "endTimes": "Lista de tiempos de finalizacin de los desafos",
          "maxWinners": "Lista de mximos ganadores permitidos de los desafos",
          "prizeAmounts": "Lista de montos de premios de los desafos",
          "retChallengeIds": "Lista de IDs de los desafos",
          "startTimes": "Lista de tiempos de inicio de los desafos",
          "winnerCounts": "Lista de conteos de ganadores actuales de los desafos"
        }
      }
    },
    "version": 1
  },
  "userdoc": {
    "kind": "user",
    "methods": {
      "claimReward(uint256,bytes)": {
        "notice": "Reclama un premio de un desafo"
      },
      "listChallengesDetails(uint256[])": {
        "notice": "Obtiene los detalles de mltiples desafos"
      },
      "tokensAvailable(uint256)": {
        "notice": "Calcula la cantidad de tokens disponibles para crear desafos (en unidades base)"
      }
    },
    "version": 1
  },
  "storageLayout": {
    "storage": [
      {
        "astId": 2506,
        "contract": "contracts/Challenges/ChallengeManager.sol:ChallengeManager",
        "label": "challengeCount",
        "offset": 0,
        "slot": "0",
        "type": "t_uint256"
      },
      {
        "astId": 2511,
        "contract": "contracts/Challenges/ChallengeManager.sol:ChallengeManager",
        "label": "challenges",
        "offset": 0,
        "slot": "1",
        "type": "t_mapping(t_uint256,t_struct(Challenge)2504_storage)"
      },
      {
        "astId": 2514,
        "contract": "contracts/Challenges/ChallengeManager.sol:ChallengeManager",
        "label": "challengeIds",
        "offset": 0,
        "slot": "2",
        "type": "t_array(t_uint256)dyn_storage"
      },
      {
        "astId": 2519,
        "contract": "contracts/Challenges/ChallengeManager.sol:ChallengeManager",
        "label": "orgChallenges",
        "offset": 0,
        "slot": "3",
        "type": "t_mapping(t_uint256,t_array(t_uint256)dyn_storage)"
      },
      {
        "astId": 2522,
        "contract": "contracts/Challenges/ChallengeManager.sol:ChallengeManager",
        "label": "orgManager",
        "offset": 0,
        "slot": "4",
        "type": "t_contract(IOrganizationManager)3712"
      }
    ],
    "types": {
      "t_address": {
        "encoding": "inplace",
        "label": "address",
        "numberOfBytes": "20"
      },
      "t_array(t_uint256)dyn_storage": {
        "base": "t_uint256",
        "encoding": "dynamic_array",
        "label": "uint256[]",
        "numberOfBytes": "32"
      },
      "t_bool": {
        "encoding": "inplace",
        "label": "bool",
        "numberOfBytes": "1"
      },
      "t_bytes32": {
        "encoding": "inplace",
        "label": "bytes32",
        "numberOfBytes": "32"
      },
      "t_contract(IOrganizationManager)3712": {
        "encoding": "inplace",
        "label": "contract IOrganizationManager",
        "numberOfBytes": "20"
      },
      "t_mapping(t_address,t_bool)": {
        "encoding": "mapping",
        "key": "t_address",
        "label": "mapping(address => bool)",
        "numberOfBytes": "32",
        "value": "t_bool"
      },
      "t_mapping(t_uint256,t_array(t_uint256)dyn_storage)": {
        "encoding": "mapping",
        "key": "t_uint256",
        "label": "mapping(uint256 => uint256[])",
        "numberOfBytes": "32",
        "value": "t_array(t_uint256)dyn_storage"
      },
      "t_mapping(t_uint256,t_struct(Challenge)2504_storage)": {
        "encoding": "mapping",
        "key": "t_uint256",
        "label": "mapping(uint256 => struct ChallengeManager.Challenge)",
        "numberOfBytes": "32",
        "value": "t_struct(Challenge)2504_storage"
      },
      "t_string_storage": {
        "encoding": "bytes",
        "label": "string",
        "numberOfBytes": "32"
      },
      "t_struct(Challenge)2504_storage": {
        "encoding": "inplace",
        "label": "struct ChallengeManager.Challenge",
        "members": [
          {
            "astId": 2475,
            "contract": "contracts/Challenges/ChallengeManager.sol:ChallengeManager",
            "label": "id",
            "offset": 0,
            "slot": "0",
            "type": "t_uint256"
          },
          {
            "astId": 2477,
            "contract": "contracts/Challenges/ChallengeManager.sol:ChallengeManager",
            "label": "description",
            "offset": 0,
            "slot": "1",
            "type": "t_string_storage"
          },
          {
            "astId": 2479,
            "contract": "contracts/Challenges/ChallengeManager.sol:ChallengeManager",
            "label": "validatorUID",
            "offset": 0,
            "slot": "2",
            "type": "t_bytes32"
          },
          {
            "astId": 2481,
            "contract": "contracts/Challenges/ChallengeManager.sol:ChallengeManager",
            "label": "validatorAddr",
            "offset": 0,
            "slot": "3",
            "type": "t_address"
          },
          {
            "astId": 2483,
            "contract": "contracts/Challenges/ChallengeManager.sol:ChallengeManager",
            "label": "validationId",
            "offset": 0,
            "slot": "4",
            "type": "t_uint256"
          },
          {
            "astId": 2485,
            "contract": "contracts/Challenges/ChallengeManager.sol:ChallengeManager",
            "label": "prizeAmount",
            "offset": 0,
            "slot": "5",
            "type": "t_uint256"
          },
          {
            "astId": 2487,
            "contract": "contracts/Challenges/ChallengeManager.sol:ChallengeManager",
            "label": "startTime",
            "offset": 0,
            "slot": "6",
            "type": "t_uint256"
          },
          {
            "astId": 2489,
            "contract": "contracts/Challenges/ChallengeManager.sol:ChallengeManager",
            "label": "endTime",
            "offset": 0,
            "slot": "7",
            "type": "t_uint256"
          },
          {
            "astId": 2491,
            "contract": "contracts/Challenges/ChallengeManager.sol:ChallengeManager",
            "label": "maxWinners",
            "offset": 0,
            "slot": "8",
            "type": "t_uint256"
          },
          {
            "astId": 2493,
            "contract": "contracts/Challenges/ChallengeManager.sol:ChallengeManager",
            "label": "active",
            "offset": 0,
            "slot": "9",
            "type": "t_bool"
          },
          {
            "astId": 2495,
            "contract": "contracts/Challenges/ChallengeManager.sol:ChallengeManager",
            "label": "winnerCount",
            "offset": 0,
            "slot": "10",
            "type": "t_uint256"
          },
          {
            "astId": 2497,
            "contract": "contracts/Challenges/ChallengeManager.sol:ChallengeManager",
            "label": "orgId",
            "offset": 0,
            "slot": "11",
            "type": "t_uint256"
          },
          {
            "astId": 2501,
            "contract": "contracts/Challenges/ChallengeManager.sol:ChallengeManager",
            "label": "winners",
            "offset": 0,
            "slot": "12",
            "type": "t_mapping(t_address,t_bool)"
          },
          {
            "astId": 2503,
            "contract": "contracts/Challenges/ChallengeManager.sol:ChallengeManager",
            "label": "exists",
            "offset": 0,
            "slot": "13",
            "type": "t_bool"
          }
        ],
        "numberOfBytes": "448"
      },
      "t_uint256": {
        "encoding": "inplace",
        "label": "uint256",
        "numberOfBytes": "32"
      }
    }
  }
}