{
  "address": "0x73C6A6c5B6302a97Ef51977484E09c674Fa33078",
  "abi": [
    {
      "inputs": [
        {
          "internalType": "address",
          "name": "_orgManagerAddr",
          "type": "address"
        }
      ],
      "stateMutability": "nonpayable",
      "type": "constructor"
    },
    {
      "anonymous": false,
      "inputs": [
        {
          "indexed": true,
          "internalType": "uint256",
          "name": "challengeId",
          "type": "uint256"
        },
        {
          "indexed": false,
          "internalType": "string",
          "name": "description",
          "type": "string"
        },
        {
          "indexed": false,
          "internalType": "uint256",
          "name": "startTime",
          "type": "uint256"
        },
        {
          "indexed": false,
          "internalType": "uint256",
          "name": "endTime",
          "type": "uint256"
        },
        {
          "indexed": false,
          "internalType": "uint256",
          "name": "maxWinners",
          "type": "uint256"
        },
        {
          "indexed": false,
          "internalType": "uint256",
          "name": "orgId",
          "type": "uint256"
        },
        {
          "indexed": false,
          "internalType": "uint256",
          "name": "prizeAmount",
          "type": "uint256"
        },
        {
          "indexed": false,
          "internalType": "bool",
          "name": "active",
          "type": "bool"
        }
      ],
      "name": "ChallengeCreated",
      "type": "event"
    },
    {
      "anonymous": false,
      "inputs": [
        {
          "indexed": true,
          "internalType": "uint256",
          "name": "challengeId",
          "type": "uint256"
        },
        {
          "indexed": false,
          "internalType": "bool",
          "name": "isActive",
          "type": "bool"
        }
      ],
      "name": "IsActiveChanged",
      "type": "event"
    },
    {
      "anonymous": false,
      "inputs": [
        {
          "indexed": true,
          "internalType": "uint256",
          "name": "challengeId",
          "type": "uint256"
        },
        {
          "indexed": true,
          "internalType": "address",
          "name": "user",
          "type": "address"
        },
        {
          "indexed": false,
          "internalType": "uint256",
          "name": "claimTime",
          "type": "uint256"
        },
        {
          "indexed": false,
          "internalType": "uint256",
          "name": "prizeAmountInBaseUnits",
          "type": "uint256"
        }
      ],
      "name": "RewardClaimed",
      "type": "event"
    },
    {
      "anonymous": false,
      "inputs": [
        {
          "indexed": true,
          "internalType": "uint256",
          "name": "challengeId",
          "type": "uint256"
        },
        {
          "indexed": false,
          "internalType": "bytes32",
          "name": "validatorUID",
          "type": "bytes32"
        },
        {
          "indexed": false,
          "internalType": "address",
          "name": "validatorAddr",
          "type": "address"
        },
        {
          "indexed": false,
          "internalType": "uint256",
          "name": "validationId",
          "type": "uint256"
        }
      ],
      "name": "ValidatorChanged",
      "type": "event"
    },
    {
      "inputs": [],
      "name": "challengeCount",
      "outputs": [
        {
          "internalType": "uint256",
          "name": "",
          "type": "uint256"
        }
      ],
      "stateMutability": "view",
      "type": "function"
    },
    {
      "inputs": [
        {
          "internalType": "uint256",
          "name": "",
          "type": "uint256"
        }
      ],
      "name": "challengeIds",
      "outputs": [
        {
          "internalType": "uint256",
          "name": "",
          "type": "uint256"
        }
      ],
      "stateMutability": "view",
      "type": "function"
    },
    {
      "inputs": [
        {
          "internalType": "uint256",
          "name": "",
          "type": "uint256"
        }
      ],
      "name": "challenges",
      "outputs": [
        {
          "internalType": "uint256",
          "name": "id",
          "type": "uint256"
        },
        {
          "internalType": "string",
          "name": "description",
          "type": "string"
        },
        {
          "internalType": "bytes32",
          "name": "validatorUID",
          "type": "bytes32"
        },
        {
          "internalType": "address",
          "name": "validatorAddr",
          "type": "address"
        },
        {
          "internalType": "uint256",
          "name": "validationId",
          "type": "uint256"
        },
        {
          "internalType": "uint256",
          "name": "prizeAmount",
          "type": "uint256"
        },
        {
          "internalType": "uint256",
          "name": "startTime",
          "type": "uint256"
        },
        {
          "internalType": "uint256",
          "name": "endTime",
          "type": "uint256"
        },
        {
          "internalType": "uint256",
          "name": "maxWinners",
          "type": "uint256"
        },
        {
          "internalType": "bool",
          "name": "active",
          "type": "bool"
        },
        {
          "internalType": "uint256",
          "name": "winnerCount",
          "type": "uint256"
        },
        {
          "internalType": "uint256",
          "name": "orgId",
          "type": "uint256"
        },
        {
          "internalType": "bool",
          "name": "exists",
          "type": "bool"
        }
      ],
      "stateMutability": "view",
      "type": "function"
    },
    {
      "inputs": [
        {
          "internalType": "uint256",
          "name": "_challengeId",
          "type": "uint256"
        },
        {
          "internalType": "bytes",
          "name": "params",
          "type": "bytes"
        }
      ],
      "name": "claimReward",
      "outputs": [],
      "stateMutability": "nonpayable",
      "type": "function"
    },
    {
      "inputs": [
        {
          "internalType": "uint256",
          "name": "_orgId",
          "type": "uint256"
        },
        {
          "internalType": "string",
          "name": "_description",
          "type": "string"
        },
        {
          "internalType": "uint256",
          "name": "_prizeAmount",
          "type": "uint256"
        },
        {
          "internalType": "uint256",
          "name": "_startTime",
          "type": "uint256"
        },
        {
          "internalType": "uint256",
          "name": "_endTime",
          "type": "uint256"
        },
        {
          "internalType": "uint256",
          "name": "_maxWinners",
          "type": "uint256"
        }
      ],
      "name": "createChallenge",
      "outputs": [
        {
          "internalType": "uint256",
          "name": "",
          "type": "uint256"
        }
      ],
      "stateMutability": "nonpayable",
      "type": "function"
    },
    {
      "inputs": [
        {
          "internalType": "uint256",
          "name": "_orgId",
          "type": "uint256"
        },
        {
          "internalType": "string",
          "name": "_description",
          "type": "string"
        },
        {
          "internalType": "uint256",
          "name": "_prizeAmount",
          "type": "uint256"
        },
        {
          "internalType": "uint256",
          "name": "_startTime",
          "type": "uint256"
        },
        {
          "internalType": "uint256",
          "name": "_endTime",
          "type": "uint256"
        },
        {
          "internalType": "uint256",
          "name": "_maxWinners",
          "type": "uint256"
        },
        {
          "internalType": "bytes32",
          "name": "_validatorUID",
          "type": "bytes32"
        },
        {
          "internalType": "address",
          "name": "_validatorAddress",
          "type": "address"
        },
        {
          "internalType": "bytes",
          "name": "validatorParams",
          "type": "bytes"
        }
      ],
      "name": "createChallengeWithValidator",
      "outputs": [],
      "stateMutability": "nonpayable",
      "type": "function"
    },
    {
      "inputs": [
        {
          "internalType": "uint256",
          "name": "_orgId",
          "type": "uint256"
        }
      ],
      "name": "getChallengesByOrg",
      "outputs": [
        {
          "internalType": "uint256[]",
          "name": "",
          "type": "uint256[]"
        }
      ],
      "stateMutability": "view",
      "type": "function"
    },
    {
      "inputs": [
        {
          "internalType": "uint256",
          "name": "_challengeId",
          "type": "uint256"
        }
      ],
      "name": "getOrganizationId",
      "outputs": [
        {
          "internalType": "uint256",
          "name": "",
          "type": "uint256"
        }
      ],
      "stateMutability": "view",
      "type": "function"
    },
    {
      "inputs": [
        {
          "internalType": "uint256[]",
          "name": "ids",
          "type": "uint256[]"
        }
      ],
      "name": "listChallengesDetails",
      "outputs": [
        {
          "internalType": "uint256[]",
          "name": "retChallengeIds",
          "type": "uint256[]"
        },
        {
          "internalType": "string[]",
          "name": "descriptions",
          "type": "string[]"
        },
        {
          "internalType": "uint256[]",
          "name": "prizeAmounts",
          "type": "uint256[]"
        },
        {
          "internalType": "uint256[]",
          "name": "startTimes",
          "type": "uint256[]"
        },
        {
          "internalType": "uint256[]",
          "name": "endTimes",
          "type": "uint256[]"
        },
        {
          "internalType": "uint256[]",
          "name": "maxWinners",
          "type": "uint256[]"
        },
        {
          "internalType": "bool[]",
          "name": "actives",
          "type": "bool[]"
        },
        {
          "internalType": "uint256[]",
          "name": "winnerCounts",
          "type": "uint256[]"
        },
        {
          "internalType": "bytes32[]",
          "name": "validatorUID",
          "type": "bytes32[]"
        }
      ],
      "stateMutability": "view",
      "type": "function"
    },
    {
      "inputs": [
        {
          "internalType": "uint256",
          "name": "",
          "type": "uint256"
        },
        {
          "internalType": "uint256",
          "name": "",
          "type": "uint256"
        }
      ],
      "name": "orgChallenges",
      "outputs": [
        {
          "internalType": "uint256",
          "name": "",
          "type": "uint256"
        }
      ],
      "stateMutability": "view",
      "type": "function"
    },
    {
      "inputs": [],
      "name": "orgManager",
      "outputs": [
        {
          "internalType": "contract IOrganizationManager",
          "name": "",
          "type": "address"
        }
      ],
      "stateMutability": "view",
      "type": "function"
    },
    {
      "inputs": [
        {
          "internalType": "uint256",
          "name": "_challengeId",
          "type": "uint256"
        },
        {
          "internalType": "address",
          "name": "_validatorAddr",
          "type": "address"
        },
        {
          "internalType": "bytes32",
          "name": "_validatorUID",
          "type": "bytes32"
        },
        {
          "internalType": "uint256",
          "name": "_validationId",
          "type": "uint256"
        }
      ],
      "name": "setChallengeValidator",
      "outputs": [],
      "stateMutability": "nonpayable",
      "type": "function"
    },
    {
      "inputs": [
        {
          "internalType": "uint256",
          "name": "_orgId",
          "type": "uint256"
        }
      ],
      "name": "tokensAvailable",
      "outputs": [
        {
          "internalType": "uint256",
          "name": "",
          "type": "uint256"
        }
      ],
      "stateMutability": "view",
      "type": "function"
    },
    {
      "inputs": [
        {
          "internalType": "bytes32",
          "name": "",
          "type": "bytes32"
        },
        {
          "internalType": "uint256",
          "name": "",
          "type": "uint256"
        }
      ],
      "name": "validationChallenge",
      "outputs": [
        {
          "internalType": "uint256",
          "name": "",
          "type": "uint256"
        }
      ],
      "stateMutability": "view",
      "type": "function"
    },
    {
      "inputs": [
        {
          "internalType": "bytes32",
          "name": "_validatorUID",
          "type": "bytes32"
        },
        {
          "internalType": "uint256",
          "name": "_validationId",
          "type": "uint256"
        },
        {
          "internalType": "address",
          "name": "_claimer",
          "type": "address"
        }
      ],
      "name": "validatorClaimCallback",
      "outputs": [],
      "stateMutability": "nonpayable",
      "type": "function"
    }
  ],
  "transactionHash": "0x205a69f6a741664edf6b4b7e4866663744af26539a2175941ca3e91640ab0062",
  "args": [
    "0x44fbD88018fa0Ee4e45cCf1AD92eAFA4D695318F"
  ],
  "numDeployments": 2,
  "solcInputHash": "d9392d1df9407e1acd45ca5ff3d8e6e1",
  "bytecode": "0x608060405234801561001057600080fd5b50604051611fb8380380611fb883398101604081905261002f91610054565b600580546001600160a01b0319166001600160a01b0392909216919091179055610084565b60006020828403121561006657600080fd5b81516001600160a01b038116811461007d57600080fd5b9392505050565b611f25806100936000396000f3fe608060405234801561001057600080fd5b50600436106100f55760003560e01c80637d96da0011610097578063a2f0572511610066578063a2f0572514610246578063a4e995791461024f578063e2ee160c14610262578063e4cf539f1461028a57600080fd5b80637d96da00146101b157806381e3479b146101dc5780638f1d37761461020757806398ba62191461023357600080fd5b806368f820ce116100d357806368f820ce1461015857806369453cfe1461016b578063754685c51461017e57806375f5e6611461019157600080fd5b806323e144e4146100fa57806323f6bfb2146101305780636328393e14610143575b600080fd5b61011d610108366004611654565b6000908152600160205260409020600b015490565b6040519081526020015b60405180910390f35b61011d61013e366004611654565b61029d565b610156610151366004611682565b6102be565b005b6101566101663660046116bf565b610359565b6101566101793660046117e2565b610465565b61015661018c36600461189e565b610641565b6101a461019f366004611654565b61078d565b6040516101279190611924565b6005546101c4906001600160a01b031681565b6040516001600160a01b039091168152602001610127565b61011d6101ea36600461193e565b600460209081526000928352604080842090915290825290205481565b61021a610215366004611654565b6107ef565b6040516101279d9c9b9a999897969594939291906119a6565b61011d610241366004611654565b6108ec565b61011d60005481565b61011d61025d36600461193e565b610960565b610275610270366004611a24565b610991565b60405161012799989796959493929190611aca565b61011d610298366004611bd1565b610e8d565b600281815481106102ad57600080fd5b600091825260209091200154905081565b60008481526001602090815260408083206003810180546001600160a01b0319166001600160a01b0389169081179091556004808301879055600283018890558786528452828520868652845293829020889055815186815292830193909352810183905285907f7399b51a39abc8b75e873eaa435ea8e9e1260d6561ccd6c0b6dd6cd79e8f0f759060600160405180910390a25050505050565b60008381526004602090815260408083208584528252808320548084526001909252909120600d81015460ff166103d35760405162461bcd60e51b815260206004820152601960248201527821b430b63632b733b2903237b2b9903737ba1032bc34b9ba1760391b60448201526064015b60405180910390fd5b60038101546001600160a01b0316331461044a5760405162461bcd60e51b815260206004820152603260248201527f546865206368616c6c656e676527732076616c696461746f72206973206e6f74604482015271103a34329032bc3832b1ba32b21037b7329760711b60648201526084016103ca565b6104548184611158565b61045e81846112e3565b5050505050565b60055460405163146a291160e01b8152600481018c90523360248201526001600160a01b039091169063146a291190604401602060405180830381865afa1580156104b4573d6000803e3d6000fd5b505050506040513d601f19601f820116820180604052508101906104d89190611c3a565b6105135760405162461bcd60e51b815260206004820152600c60248201526b2737ba1030b71030b236b4b760a11b60448201526064016103ca565b61053660405180604001604052806002815260200161413160f01b8152506115a8565b60006105468b8b8b8b8b8b610e8d565b9050806001600160a01b038516156106105761057b60405180604001604052806002815260200161209960f11b8152506115a8565b60405163180775bf60e21b815285906001600160a01b0382169063601dd6fc906105ad90859089908990600401611c5c565b600060405180830381600087803b1580156105c757600080fd5b505af11580156105db573d6000803e3d6000fd5b5050505061060260405180604001604052806002815260200161413360f01b8152506115a8565b61060e838789856102be565b505b61063360405180604001604052806002815260200161104d60f21b8152506115a8565b505050505050505050505050565b6000838152600160205260409020600d81015460ff1661069f5760405162461bcd60e51b815260206004820152601960248201527821b430b63632b733b2903237b2b9903737ba1032bc34b9ba1760391b60448201526064016103ca565b6106a98133611158565b60038101546001600160a01b03161561077d576003810154600480830154604051631df7cc5d60e31b81526001600160a01b0390931692839263efbe62e8926106f89290918991899101611c5c565b6020604051808303816000875af1158015610717573d6000803e3d6000fd5b505050506040513d601f19601f8201168201806040525081019061073b9190611c3a565b61077b5760405162461bcd60e51b815260206004820152601160248201527015985b1a59185d1a5bdb8819985a5b1959607a1b60448201526064016103ca565b505b61078781336112e3565b50505050565b6000818152600360209081526040918290208054835181840281018401909452808452606093928301828280156107e357602002820191906000526020600020905b8154815260200190600101908083116107cf575b50505050509050919050565b60016020819052600091825260409091208054918101805461081090611c92565b80601f016020809104026020016040519081016040528092919081815260200182805461083c90611c92565b80156108895780601f1061085e57610100808354040283529160200191610889565b820191906000526020600020905b81548152906001019060200180831161086c57829003601f168201915b50505060028401546003850154600486015460058701546006880154600789015460088a015460098b0154600a8c0154600b8d0154600d909d01549b9c989b6001600160a01b039098169a50959850939692959194909360ff908116939192168d565b6005546040516332878d4d60e01b8152600481018390526000916001600160a01b0316906332878d4d90602401602060405180830381865afa158015610936573d6000803e3d6000fd5b505050506040513d601f19601f8201168201806040525081019061095a9190611ccc565b92915050565b6003602052816000526040600020818154811061097c57600080fd5b90600052602060002001600091509150505481565b6060808080808080808089806001600160401b038111156109b4576109b46116f8565b6040519080825280602002602001820160405280156109dd578160200160208202803683370190505b509950806001600160401b038111156109f8576109f86116f8565b604051908082528060200260200182016040528015610a2b57816020015b6060815260200190600190039081610a165790505b509850806001600160401b03811115610a4657610a466116f8565b604051908082528060200260200182016040528015610a6f578160200160208202803683370190505b509750806001600160401b03811115610a8a57610a8a6116f8565b604051908082528060200260200182016040528015610ab3578160200160208202803683370190505b509650806001600160401b03811115610ace57610ace6116f8565b604051908082528060200260200182016040528015610af7578160200160208202803683370190505b509550806001600160401b03811115610b1257610b126116f8565b604051908082528060200260200182016040528015610b3b578160200160208202803683370190505b509450806001600160401b03811115610b5657610b566116f8565b604051908082528060200260200182016040528015610b7f578160200160208202803683370190505b509350806001600160401b03811115610b9a57610b9a6116f8565b604051908082528060200260200182016040528015610bc3578160200160208202803683370190505b509250806001600160401b03811115610bde57610bde6116f8565b604051908082528060200260200182016040528015610c07578160200160208202803683370190505b50915060005b81811015610e7e576000600160008f8f85818110610c2d57610c2d611ce5565b60209081029290920135835250810191909152604001600020600d81015490915060ff16610c9d5760405162461bcd60e51b815260206004820152601860248201527f4368616c6c656e676520646f6573206e6f74206578697374000000000000000060448201526064016103ca565b80600001548c8381518110610cb457610cb4611ce5565b602002602001018181525050806001018054610ccf90611c92565b80601f0160208091040260200160405190810160405280929190818152602001828054610cfb90611c92565b8015610d485780601f10610d1d57610100808354040283529160200191610d48565b820191906000526020600020905b815481529060010190602001808311610d2b57829003601f168201915b50505050508b8381518110610d5f57610d5f611ce5565b602002602001018190525080600501548a8381518110610d8157610d81611ce5565b6020026020010181815250508060060154898381518110610da457610da4611ce5565b6020026020010181815250508060070154888381518110610dc757610dc7611ce5565b6020026020010181815250508060080154878381518110610dea57610dea611ce5565b60209081029190910101526009810154865160ff90911690879084908110610e1457610e14611ce5565b60200260200101901515908115158152505080600a0154858381518110610e3d57610e3d611ce5565b6020026020010181815250508060020154848381518110610e6057610e60611ce5565b60209081029190910101525080610e7681611d11565b915050610c0d565b50509295985092959850929598565b60055460405163146a291160e01b8152600481018890523360248201526000916001600160a01b03169063146a291190604401602060405180830381865afa158015610edd573d6000803e3d6000fd5b505050506040513d601f19601f82011682018060405250810190610f019190611c3a565b610f3c5760405162461bcd60e51b815260206004820152600c60248201526b2737ba1030b71030b236b4b760a11b60448201526064016103ca565b828410610f805760405162461bcd60e51b8152602060048201526012602482015271496e76616c69642074696d652072616e676560701b60448201526064016103ca565b6000610f8c8387611d2a565b6005546040516329ec0ab960e21b8152600481018b9052306024820152604481018390529192506001600160a01b03169063a7b02ae490606401600060405180830381600087803b158015610fe057600080fd5b505af1158015610ff4573d6000803e3d6000fd5b5050600080549092509050818061100a83611d11565b90915550600081815260016020819052604090912082815591925081016110318a82611d90565b50878160050181905550600081600a01819055508681600601819055508581600701819055508481600801819055508981600b018190555060018160090160006101000a81548160ff021916908315150217905550600181600d0160006101000a81548160ff021916908315150217905550600360008b81526020019081526020016000208290806001815401808255809150506001900390600052602060002001600090919091909150556002829080600181540180825580915050600190039060005260206000200160009091909190915055817faa95e6e18276b1e77945cab171060087b94864e7c8f65cfa93deb48b1678c7338a8989898f8e60016040516111439796959493929190611e4f565b60405180910390a25098975050505050505050565b600982015460ff166111a35760405162461bcd60e51b81526020600482015260146024820152734368616c6c656e6765206e6f742061637469766560601b60448201526064016103ca565b81600601544210156111ef5760405162461bcd60e51b815260206004820152601560248201527410da185b1b195b99d9481b9bdd081cdd185c9d1959605a1b60448201526064016103ca565b81600701544211156112355760405162461bcd60e51b815260206004820152600f60248201526e10da185b1b195b99d948195b991959608a1b60448201526064016103ca565b816008015482600a0154106112825760405162461bcd60e51b815260206004820152601360248201527213585e081dda5b9b995c9cc81c995858da1959606a1b60448201526064016103ca565b6001600160a01b0381166000908152600c8301602052604090205460ff16156112df5760405162461bcd60e51b815260206004820152600f60248201526e105b1c9958591e4818db185a5b5959608a1b60448201526064016103ca565b5050565b6113136040518060400160405280600e81526020016d1d1c985b9cd9995c94995dd85c9960921b815250826115ee565b6005828101549054600b840154604051631bc7046d60e01b815260048101919091526000916001600160a01b031690631bc7046d90602401602060405180830381865afa158015611368573d6000803e3d6000fd5b505050506040513d601f19601f8201168201806040525081019061138c9190611e95565b6040516370a0823160e01b815230600482015290915082906001600160a01b038316906370a0823190602401602060405180830381865afa1580156113d5573d6000803e3d6000fd5b505050506040513d601f19601f820116820180604052508101906113f99190611ccc565b101561145b5760405162461bcd60e51b815260206004820152602b60248201527f4e6f7420656e6f75676820746f6b656e7320696e20746865206368616c6c656e60448201526a19d94818dbdb9d1c9858dd60aa1b60648201526084016103ca565b6001600160a01b0383166000908152600c850160205260408120805460ff19166001179055600a850180549161149083611d11565b9190505550836008015484600a0154106114e75760098401805460ff191690558354604051600081527fd13a933347a72c17db89e63d2a422c2d03d25e31688c83c3596aeffd78d2196f9060200160405180910390a25b60405163a9059cbb60e01b81526001600160a01b0384811660048301526024820184905282169063a9059cbb906044016020604051808303816000875af1158015611536573d6000803e3d6000fd5b505050506040513d601f19601f8201168201806040525081019061155a9190611c3a565b50835460408051428152602081018590526001600160a01b03861692917ffc6ecd966b430510beae9124efe7dd517ed5286d7ed0ae258f8556c7a9765a44910160405180910390a350505050565b6115eb816040516024016115bc9190611eb2565b60408051601f198184030181529190526020810180516001600160e01b031663104c13eb60e21b17905261162f565b50565b6112df8282604051602401611604929190611ec5565b60408051601f198184030181529190526020810180516001600160e01b031663319af33360e01b1790525b6115eb8160006a636f6e736f6c652e6c6f679050600080835160208501845afa505050565b60006020828403121561166657600080fd5b5035919050565b6001600160a01b03811681146115eb57600080fd5b6000806000806080858703121561169857600080fd5b8435935060208501356116aa8161166d565b93969395505050506040820135916060013590565b6000806000606084860312156116d457600080fd5b833592506020840135915060408401356116ed8161166d565b809150509250925092565b634e487b7160e01b600052604160045260246000fd5b600082601f83011261171f57600080fd5b81356001600160401b0380821115611739576117396116f8565b604051601f8301601f19908116603f01168101908282118183101715611761576117616116f8565b8160405283815286602085880101111561177a57600080fd5b836020870160208301376000602085830101528094505050505092915050565b60008083601f8401126117ac57600080fd5b5081356001600160401b038111156117c357600080fd5b6020830191508360208285010111156117db57600080fd5b9250929050565b6000806000806000806000806000806101208b8d03121561180257600080fd5b8a35995060208b01356001600160401b038082111561182057600080fd5b61182c8e838f0161170e565b9a5060408d0135995060608d0135985060808d0135975060a08d0135965060c08d0135955060e08d013591506118618261166d565b9093506101008c0135908082111561187857600080fd5b506118858d828e0161179a565b915080935050809150509295989b9194979a5092959850565b6000806000604084860312156118b357600080fd5b8335925060208401356001600160401b038111156118d057600080fd5b6118dc8682870161179a565b9497909650939450505050565b600081518084526020808501945080840160005b83811015611919578151875295820195908201906001016118fd565b509495945050505050565b60208152600061193760208301846118e9565b9392505050565b6000806040838503121561195157600080fd5b50508035926020909101359150565b6000815180845260005b818110156119865760208185018101518683018201520161196a565b506000602082860101526020601f19601f83011685010191505092915050565b8d81526101a0602082015260006119c16101a083018f611960565b604083019d909d52506001600160a01b039a909a1660608b015260808a019890985260a089019690965260c088019490945260e0870192909252610100860152151561012085015261014084015261016083015215156101809091015292915050565b60008060208385031215611a3757600080fd5b82356001600160401b0380821115611a4e57600080fd5b818501915085601f830112611a6257600080fd5b813581811115611a7157600080fd5b8660208260051b8501011115611a8657600080fd5b60209290920196919550909350505050565b600081518084526020808501945080840160005b83811015611919578151151587529582019590820190600101611aac565b6000610120808352611ade8184018d6118e9565b9050602083820381850152818c518084528284019150828160051b850101838f0160005b83811015611b3057601f19878403018552611b1e838351611960565b94860194925090850190600101611b02565b50508681036040880152611b44818f6118e9565b9450505050508281036060840152611b5c818a6118e9565b90508281036080840152611b7081896118e9565b905082810360a0840152611b8481886118e9565b905082810360c0840152611b988187611a98565b905082810360e0840152611bac81866118e9565b9050828103610100840152611bc181856118e9565b9c9b505050505050505050505050565b60008060008060008060c08789031215611bea57600080fd5b8635955060208701356001600160401b03811115611c0757600080fd5b611c1389828a0161170e565b96999698505050506040850135946060810135946080820135945060a09091013592509050565b600060208284031215611c4c57600080fd5b8151801515811461193757600080fd5b83815260406020820152816040820152818360608301376000818301606090810191909152601f909201601f1916010192915050565b600181811c90821680611ca657607f821691505b602082108103611cc657634e487b7160e01b600052602260045260246000fd5b50919050565b600060208284031215611cde57600080fd5b5051919050565b634e487b7160e01b600052603260045260246000fd5b634e487b7160e01b600052601160045260246000fd5b600060018201611d2357611d23611cfb565b5060010190565b808202811582820484141761095a5761095a611cfb565b601f821115611d8b57600081815260208120601f850160051c81016020861015611d685750805b601f850160051c820191505b81811015611d8757828155600101611d74565b5050505b505050565b81516001600160401b03811115611da957611da96116f8565b611dbd81611db78454611c92565b84611d41565b602080601f831160018114611df25760008415611dda5750858301515b600019600386901b1c1916600185901b178555611d87565b600085815260208120601f198616915b82811015611e2157888601518255948401946001909101908401611e02565b5085821015611e3f5787850151600019600388901b60f8161c191681555b5050505050600190811b01905550565b60e081526000611e6260e083018a611960565b60208301989098525060408101959095526060850193909352608084019190915260a0830152151560c090910152919050565b600060208284031215611ea757600080fd5b81516119378161166d565b6020815260006119376020830184611960565b604081526000611ed86040830185611960565b905060018060a01b0383166020830152939250505056fea2646970667358221220abc09b4868d606219d09c5ee5f3278c54a372375481be7c7cd413c489744a71064736f6c63430008140033",
  "devdoc": {
    "kind": "dev",
    "methods": {
      "listChallengesDetails(uint256[])": {
        "params": {
          "ids": "Lista de IDs de los desafos"
        },
        "returns": {
          "actives": "Lista de estados de los desafos (activos o inactivos)",
          "descriptions": "Lista de descripciones de los desafos",
          "endTimes": "Lista de tiempos de finalizacin de los desafos",
          "maxWinners": "Lista de mximos ganadores permitidos de los desafos",
          "prizeAmounts": "Lista de montos de premios de los desafos",
          "retChallengeIds": "Lista de IDs de los desafos",
          "startTimes": "Lista de tiempos de inicio de los desafos",
          "winnerCounts": "Lista de conteos de ganadores actuales de los desafos"
        }
      }
    },
    "version": 1
  },
  "userdoc": {
    "kind": "user",
    "methods": {
      "claimReward(uint256,bytes)": {
        "notice": "Reclama un premio de un desafo"
      },
      "listChallengesDetails(uint256[])": {
        "notice": "Obtiene los detalles de mltiples desafos"
      },
      "tokensAvailable(uint256)": {
        "notice": "Calcula la cantidad de tokens disponibles para crear desafos (en unidades base)"
      },
      "validatorClaimCallback(bytes32,uint256,address)": {
        "notice": "Permite que un validador reclame un desafo"
      }
    },
    "version": 1
  },
  "storageLayout": {
    "storage": [
      {
        "astId": 11994,
        "contract": "contracts/Challenges/ChallengeManager.sol:ChallengeManager",
        "label": "challengeCount",
        "offset": 0,
        "slot": "0",
        "type": "t_uint256"
      },
      {
        "astId": 11999,
        "contract": "contracts/Challenges/ChallengeManager.sol:ChallengeManager",
        "label": "challenges",
        "offset": 0,
        "slot": "1",
        "type": "t_mapping(t_uint256,t_struct(Challenge)11992_storage)"
      },
      {
        "astId": 12002,
        "contract": "contracts/Challenges/ChallengeManager.sol:ChallengeManager",
        "label": "challengeIds",
        "offset": 0,
        "slot": "2",
        "type": "t_array(t_uint256)dyn_storage"
      },
      {
        "astId": 12007,
        "contract": "contracts/Challenges/ChallengeManager.sol:ChallengeManager",
        "label": "orgChallenges",
        "offset": 0,
        "slot": "3",
        "type": "t_mapping(t_uint256,t_array(t_uint256)dyn_storage)"
      },
      {
        "astId": 12013,
        "contract": "contracts/Challenges/ChallengeManager.sol:ChallengeManager",
        "label": "validationChallenge",
        "offset": 0,
        "slot": "4",
        "type": "t_mapping(t_bytes32,t_mapping(t_uint256,t_uint256))"
      },
      {
        "astId": 12016,
        "contract": "contracts/Challenges/ChallengeManager.sol:ChallengeManager",
        "label": "orgManager",
        "offset": 0,
        "slot": "5",
        "type": "t_contract(IOrganizationManager)13437"
      }
    ],
    "types": {
      "t_address": {
        "encoding": "inplace",
        "label": "address",
        "numberOfBytes": "20"
      },
      "t_array(t_uint256)dyn_storage": {
        "base": "t_uint256",
        "encoding": "dynamic_array",
        "label": "uint256[]",
        "numberOfBytes": "32"
      },
      "t_bool": {
        "encoding": "inplace",
        "label": "bool",
        "numberOfBytes": "1"
      },
      "t_bytes32": {
        "encoding": "inplace",
        "label": "bytes32",
        "numberOfBytes": "32"
      },
      "t_contract(IOrganizationManager)13437": {
        "encoding": "inplace",
        "label": "contract IOrganizationManager",
        "numberOfBytes": "20"
      },
      "t_mapping(t_address,t_bool)": {
        "encoding": "mapping",
        "key": "t_address",
        "label": "mapping(address => bool)",
        "numberOfBytes": "32",
        "value": "t_bool"
      },
      "t_mapping(t_bytes32,t_mapping(t_uint256,t_uint256))": {
        "encoding": "mapping",
        "key": "t_bytes32",
        "label": "mapping(bytes32 => mapping(uint256 => uint256))",
        "numberOfBytes": "32",
        "value": "t_mapping(t_uint256,t_uint256)"
      },
      "t_mapping(t_uint256,t_array(t_uint256)dyn_storage)": {
        "encoding": "mapping",
        "key": "t_uint256",
        "label": "mapping(uint256 => uint256[])",
        "numberOfBytes": "32",
        "value": "t_array(t_uint256)dyn_storage"
      },
      "t_mapping(t_uint256,t_struct(Challenge)11992_storage)": {
        "encoding": "mapping",
        "key": "t_uint256",
        "label": "mapping(uint256 => struct ChallengeManager.Challenge)",
        "numberOfBytes": "32",
        "value": "t_struct(Challenge)11992_storage"
      },
      "t_mapping(t_uint256,t_uint256)": {
        "encoding": "mapping",
        "key": "t_uint256",
        "label": "mapping(uint256 => uint256)",
        "numberOfBytes": "32",
        "value": "t_uint256"
      },
      "t_string_storage": {
        "encoding": "bytes",
        "label": "string",
        "numberOfBytes": "32"
      },
      "t_struct(Challenge)11992_storage": {
        "encoding": "inplace",
        "label": "struct ChallengeManager.Challenge",
        "members": [
          {
            "astId": 11963,
            "contract": "contracts/Challenges/ChallengeManager.sol:ChallengeManager",
            "label": "id",
            "offset": 0,
            "slot": "0",
            "type": "t_uint256"
          },
          {
            "astId": 11965,
            "contract": "contracts/Challenges/ChallengeManager.sol:ChallengeManager",
            "label": "description",
            "offset": 0,
            "slot": "1",
            "type": "t_string_storage"
          },
          {
            "astId": 11967,
            "contract": "contracts/Challenges/ChallengeManager.sol:ChallengeManager",
            "label": "validatorUID",
            "offset": 0,
            "slot": "2",
            "type": "t_bytes32"
          },
          {
            "astId": 11969,
            "contract": "contracts/Challenges/ChallengeManager.sol:ChallengeManager",
            "label": "validatorAddr",
            "offset": 0,
            "slot": "3",
            "type": "t_address"
          },
          {
            "astId": 11971,
            "contract": "contracts/Challenges/ChallengeManager.sol:ChallengeManager",
            "label": "validationId",
            "offset": 0,
            "slot": "4",
            "type": "t_uint256"
          },
          {
            "astId": 11973,
            "contract": "contracts/Challenges/ChallengeManager.sol:ChallengeManager",
            "label": "prizeAmount",
            "offset": 0,
            "slot": "5",
            "type": "t_uint256"
          },
          {
            "astId": 11975,
            "contract": "contracts/Challenges/ChallengeManager.sol:ChallengeManager",
            "label": "startTime",
            "offset": 0,
            "slot": "6",
            "type": "t_uint256"
          },
          {
            "astId": 11977,
            "contract": "contracts/Challenges/ChallengeManager.sol:ChallengeManager",
            "label": "endTime",
            "offset": 0,
            "slot": "7",
            "type": "t_uint256"
          },
          {
            "astId": 11979,
            "contract": "contracts/Challenges/ChallengeManager.sol:ChallengeManager",
            "label": "maxWinners",
            "offset": 0,
            "slot": "8",
            "type": "t_uint256"
          },
          {
            "astId": 11981,
            "contract": "contracts/Challenges/ChallengeManager.sol:ChallengeManager",
            "label": "active",
            "offset": 0,
            "slot": "9",
            "type": "t_bool"
          },
          {
            "astId": 11983,
            "contract": "contracts/Challenges/ChallengeManager.sol:ChallengeManager",
            "label": "winnerCount",
            "offset": 0,
            "slot": "10",
            "type": "t_uint256"
          },
          {
            "astId": 11985,
            "contract": "contracts/Challenges/ChallengeManager.sol:ChallengeManager",
            "label": "orgId",
            "offset": 0,
            "slot": "11",
            "type": "t_uint256"
          },
          {
            "astId": 11989,
            "contract": "contracts/Challenges/ChallengeManager.sol:ChallengeManager",
            "label": "winners",
            "offset": 0,
            "slot": "12",
            "type": "t_mapping(t_address,t_bool)"
          },
          {
            "astId": 11991,
            "contract": "contracts/Challenges/ChallengeManager.sol:ChallengeManager",
            "label": "exists",
            "offset": 0,
            "slot": "13",
            "type": "t_bool"
          }
        ],
        "numberOfBytes": "448"
      },
      "t_uint256": {
        "encoding": "inplace",
        "label": "uint256",
        "numberOfBytes": "32"
      }
    }
  }
}