{
  "address": "0xF6EF10c9b2aE603b6a5a6D06bB3479c774F4E816",
  "abi": [
    {
      "inputs": [
        {
          "internalType": "address",
          "name": "_orgManagerAddr",
          "type": "address"
        }
      ],
      "stateMutability": "nonpayable",
      "type": "constructor"
    },
    {
      "anonymous": false,
      "inputs": [
        {
          "indexed": true,
          "internalType": "uint256",
          "name": "challengeId",
          "type": "uint256"
        },
        {
          "indexed": false,
          "internalType": "string",
          "name": "description",
          "type": "string"
        },
        {
          "indexed": false,
          "internalType": "uint256",
          "name": "startTime",
          "type": "uint256"
        },
        {
          "indexed": false,
          "internalType": "uint256",
          "name": "endTime",
          "type": "uint256"
        },
        {
          "indexed": false,
          "internalType": "uint256",
          "name": "maxWinners",
          "type": "uint256"
        },
        {
          "indexed": false,
          "internalType": "uint256",
          "name": "orgId",
          "type": "uint256"
        },
        {
          "indexed": false,
          "internalType": "uint256",
          "name": "prizeAmount",
          "type": "uint256"
        }
      ],
      "name": "ChallengeCreated",
      "type": "event"
    },
    {
      "anonymous": false,
      "inputs": [
        {
          "indexed": true,
          "internalType": "uint256",
          "name": "challengeId",
          "type": "uint256"
        },
        {
          "indexed": true,
          "internalType": "address",
          "name": "user",
          "type": "address"
        },
        {
          "indexed": false,
          "internalType": "uint256",
          "name": "claimTime",
          "type": "uint256"
        },
        {
          "indexed": false,
          "internalType": "uint256",
          "name": "prizeAmountInBaseUnits",
          "type": "uint256"
        }
      ],
      "name": "RewardClaimed",
      "type": "event"
    },
    {
      "inputs": [],
      "name": "challengeCount",
      "outputs": [
        {
          "internalType": "uint256",
          "name": "",
          "type": "uint256"
        }
      ],
      "stateMutability": "view",
      "type": "function"
    },
    {
      "inputs": [
        {
          "internalType": "uint256",
          "name": "",
          "type": "uint256"
        }
      ],
      "name": "challengeIds",
      "outputs": [
        {
          "internalType": "uint256",
          "name": "",
          "type": "uint256"
        }
      ],
      "stateMutability": "view",
      "type": "function"
    },
    {
      "inputs": [
        {
          "internalType": "uint256",
          "name": "",
          "type": "uint256"
        }
      ],
      "name": "challenges",
      "outputs": [
        {
          "internalType": "uint256",
          "name": "id",
          "type": "uint256"
        },
        {
          "internalType": "string",
          "name": "description",
          "type": "string"
        },
        {
          "internalType": "bytes32",
          "name": "validatorUID",
          "type": "bytes32"
        },
        {
          "internalType": "address",
          "name": "validatorAddr",
          "type": "address"
        },
        {
          "internalType": "uint256",
          "name": "validationId",
          "type": "uint256"
        },
        {
          "internalType": "uint256",
          "name": "prizeAmount",
          "type": "uint256"
        },
        {
          "internalType": "uint256",
          "name": "startTime",
          "type": "uint256"
        },
        {
          "internalType": "uint256",
          "name": "endTime",
          "type": "uint256"
        },
        {
          "internalType": "uint256",
          "name": "maxWinners",
          "type": "uint256"
        },
        {
          "internalType": "bool",
          "name": "active",
          "type": "bool"
        },
        {
          "internalType": "uint256",
          "name": "winnerCount",
          "type": "uint256"
        },
        {
          "internalType": "uint256",
          "name": "orgId",
          "type": "uint256"
        },
        {
          "internalType": "bool",
          "name": "exists",
          "type": "bool"
        }
      ],
      "stateMutability": "view",
      "type": "function"
    },
    {
      "inputs": [
        {
          "internalType": "uint256",
          "name": "_challengeId",
          "type": "uint256"
        },
        {
          "internalType": "bytes",
          "name": "params",
          "type": "bytes"
        }
      ],
      "name": "claimReward",
      "outputs": [],
      "stateMutability": "nonpayable",
      "type": "function"
    },
    {
      "inputs": [
        {
          "internalType": "uint256",
          "name": "_orgId",
          "type": "uint256"
        },
        {
          "internalType": "string",
          "name": "_description",
          "type": "string"
        },
        {
          "internalType": "uint256",
          "name": "_prizeAmount",
          "type": "uint256"
        },
        {
          "internalType": "uint256",
          "name": "_startTime",
          "type": "uint256"
        },
        {
          "internalType": "uint256",
          "name": "_endTime",
          "type": "uint256"
        },
        {
          "internalType": "uint256",
          "name": "_maxWinners",
          "type": "uint256"
        }
      ],
      "name": "createChallenge",
      "outputs": [
        {
          "internalType": "uint256",
          "name": "",
          "type": "uint256"
        }
      ],
      "stateMutability": "nonpayable",
      "type": "function"
    },
    {
      "inputs": [
        {
          "internalType": "uint256",
          "name": "_orgId",
          "type": "uint256"
        },
        {
          "internalType": "string",
          "name": "_description",
          "type": "string"
        },
        {
          "internalType": "uint256",
          "name": "_prizeAmount",
          "type": "uint256"
        },
        {
          "internalType": "uint256",
          "name": "_startTime",
          "type": "uint256"
        },
        {
          "internalType": "uint256",
          "name": "_endTime",
          "type": "uint256"
        },
        {
          "internalType": "uint256",
          "name": "_maxWinners",
          "type": "uint256"
        },
        {
          "internalType": "bytes32",
          "name": "_validatorUID",
          "type": "bytes32"
        },
        {
          "internalType": "address",
          "name": "_validatorAddress",
          "type": "address"
        },
        {
          "internalType": "bytes",
          "name": "validatorParams",
          "type": "bytes"
        }
      ],
      "name": "createChallengeWithValidator",
      "outputs": [],
      "stateMutability": "nonpayable",
      "type": "function"
    },
    {
      "inputs": [
        {
          "internalType": "uint256",
          "name": "_orgId",
          "type": "uint256"
        }
      ],
      "name": "getChallengesByOrg",
      "outputs": [
        {
          "internalType": "uint256[]",
          "name": "",
          "type": "uint256[]"
        }
      ],
      "stateMutability": "view",
      "type": "function"
    },
    {
      "inputs": [
        {
          "internalType": "uint256",
          "name": "_challengeId",
          "type": "uint256"
        }
      ],
      "name": "getOrganizationId",
      "outputs": [
        {
          "internalType": "uint256",
          "name": "",
          "type": "uint256"
        }
      ],
      "stateMutability": "view",
      "type": "function"
    },
    {
      "inputs": [
        {
          "internalType": "uint256[]",
          "name": "ids",
          "type": "uint256[]"
        }
      ],
      "name": "listChallengesDetails",
      "outputs": [
        {
          "internalType": "uint256[]",
          "name": "retChallengeIds",
          "type": "uint256[]"
        },
        {
          "internalType": "string[]",
          "name": "descriptions",
          "type": "string[]"
        },
        {
          "internalType": "uint256[]",
          "name": "prizeAmounts",
          "type": "uint256[]"
        },
        {
          "internalType": "uint256[]",
          "name": "startTimes",
          "type": "uint256[]"
        },
        {
          "internalType": "uint256[]",
          "name": "endTimes",
          "type": "uint256[]"
        },
        {
          "internalType": "uint256[]",
          "name": "maxWinners",
          "type": "uint256[]"
        },
        {
          "internalType": "bool[]",
          "name": "actives",
          "type": "bool[]"
        },
        {
          "internalType": "uint256[]",
          "name": "winnerCounts",
          "type": "uint256[]"
        },
        {
          "internalType": "bytes32[]",
          "name": "validatorUID",
          "type": "bytes32[]"
        }
      ],
      "stateMutability": "view",
      "type": "function"
    },
    {
      "inputs": [
        {
          "internalType": "uint256",
          "name": "",
          "type": "uint256"
        },
        {
          "internalType": "uint256",
          "name": "",
          "type": "uint256"
        }
      ],
      "name": "orgChallenges",
      "outputs": [
        {
          "internalType": "uint256",
          "name": "",
          "type": "uint256"
        }
      ],
      "stateMutability": "view",
      "type": "function"
    },
    {
      "inputs": [],
      "name": "orgManager",
      "outputs": [
        {
          "internalType": "contract IOrganizationManager",
          "name": "",
          "type": "address"
        }
      ],
      "stateMutability": "view",
      "type": "function"
    },
    {
      "inputs": [
        {
          "internalType": "uint256",
          "name": "_challengeId",
          "type": "uint256"
        },
        {
          "internalType": "address",
          "name": "_validatorAddr",
          "type": "address"
        },
        {
          "internalType": "bytes32",
          "name": "_validatorUID",
          "type": "bytes32"
        },
        {
          "internalType": "uint256",
          "name": "_validationId",
          "type": "uint256"
        }
      ],
      "name": "setChallengeValidator",
      "outputs": [],
      "stateMutability": "nonpayable",
      "type": "function"
    },
    {
      "inputs": [
        {
          "internalType": "uint256",
          "name": "_orgId",
          "type": "uint256"
        }
      ],
      "name": "tokensAvailable",
      "outputs": [
        {
          "internalType": "uint256",
          "name": "",
          "type": "uint256"
        }
      ],
      "stateMutability": "view",
      "type": "function"
    },
    {
      "inputs": [
        {
          "internalType": "bytes32",
          "name": "",
          "type": "bytes32"
        },
        {
          "internalType": "uint256",
          "name": "",
          "type": "uint256"
        }
      ],
      "name": "validationChallenge",
      "outputs": [
        {
          "internalType": "uint256",
          "name": "",
          "type": "uint256"
        }
      ],
      "stateMutability": "view",
      "type": "function"
    },
    {
      "inputs": [
        {
          "internalType": "bytes32",
          "name": "_validatorUID",
          "type": "bytes32"
        },
        {
          "internalType": "uint256",
          "name": "_validationId",
          "type": "uint256"
        },
        {
          "internalType": "address",
          "name": "_claimer",
          "type": "address"
        }
      ],
      "name": "validatorClaimCallback",
      "outputs": [],
      "stateMutability": "nonpayable",
      "type": "function"
    }
  ],
  "transactionHash": "0xfc9cc11b2705e58c76c91ed29621115f23b475e19c4b16166e233258a63dfd95",
  "args": [
    "0xd6DFF585b2C99605dCc787F8974e8a674AFfE768"
  ],
  "numDeployments": 3,
  "solcInputHash": "6a7a04fc73320e906a291255894636d2",
  "bytecode": "0x608060405234801561001057600080fd5b506040516200210d3803806200210d83398101604081905261003191610056565b600580546001600160a01b0319166001600160a01b0392909216919091179055610086565b60006020828403121561006857600080fd5b81516001600160a01b038116811461007f57600080fd5b9392505050565b61207780620000966000396000f3fe608060405234801561001057600080fd5b50600436106100f55760003560e01c80637d96da0011610097578063a2f0572511610066578063a2f0572514610246578063a4e995791461024f578063e2ee160c14610262578063e4cf539f1461028a57600080fd5b80637d96da00146101b157806381e3479b146101dc5780638f1d37761461020757806398ba62191461023357600080fd5b806368f820ce116100d357806368f820ce1461015857806369453cfe1461016b578063754685c51461017e57806375f5e6611461019157600080fd5b806323e144e4146100fa57806323f6bfb2146101305780636328393e14610143575b600080fd5b61011d610108366004611762565b6000908152600160205260409020600b015490565b6040519081526020015b60405180910390f35b61011d61013e366004611762565b61029d565b610156610151366004611790565b6102be565b005b6101566101663660046117cd565b610315565b6101566101793660046118f0565b610421565b61015661018c3660046119ac565b6105fd565b6101a461019f366004611762565b610749565b6040516101279190611a32565b6005546101c4906001600160a01b031681565b6040516001600160a01b039091168152602001610127565b61011d6101ea366004611a4c565b600460209081526000928352604080842090915290825290205481565b61021a610215366004611762565b6107ab565b6040516101279d9c9b9a99989796959493929190611ab4565b61011d610241366004611762565b6108a8565b61011d60005481565b61011d61025d366004611a4c565b610a56565b610275610270366004611b32565b610a87565b60405161012799989796959493929190611bd8565b61011d610298366004611cdf565b610f83565b600281815481106102ad57600080fd5b600091825260209091200154905081565b60008481526001602090815260408083206003810180546001600160a01b0319166001600160a01b039890981697909717909655600480870185905560029096018590559382529384528281209181529252902055565b60008381526004602090815260408083208584528252808320548084526001909252909120600d81015460ff1661038f5760405162461bcd60e51b815260206004820152601960248201527821b430b63632b733b2903237b2b9903737ba1032bc34b9ba1760391b60448201526064015b60405180910390fd5b60038101546001600160a01b031633146104065760405162461bcd60e51b815260206004820152603260248201527f546865206368616c6c656e676527732076616c696461746f72206973206e6f74604482015271103a34329032bc3832b1ba32b21037b7329760711b6064820152608401610386565b6104108184611257565b61041a81846113e2565b5050505050565b60055460405163146a291160e01b8152600481018c90523360248201526001600160a01b039091169063146a291190604401602060405180830381865afa158015610470573d6000803e3d6000fd5b505050506040513d601f19601f820116820180604052508101906104949190611d48565b6104cf5760405162461bcd60e51b815260206004820152600c60248201526b2737ba1030b71030b236b4b760a11b6044820152606401610386565b6104f260405180604001604052806002815260200161413160f01b815250611671565b60006105028b8b8b8b8b8b610f83565b9050806001600160a01b038516156105cc5761053760405180604001604052806002815260200161209960f11b815250611671565b60405163180775bf60e21b815285906001600160a01b0382169063601dd6fc9061056990859089908990600401611d6a565b600060405180830381600087803b15801561058357600080fd5b505af1158015610597573d6000803e3d6000fd5b505050506105be60405180604001604052806002815260200161413360f01b815250611671565b6105ca838789856102be565b505b6105ef60405180604001604052806002815260200161104d60f21b815250611671565b505050505050505050505050565b6000838152600160205260409020600d81015460ff1661065b5760405162461bcd60e51b815260206004820152601960248201527821b430b63632b733b2903237b2b9903737ba1032bc34b9ba1760391b6044820152606401610386565b6106658133611257565b60038101546001600160a01b031615610739576003810154600480830154604051631df7cc5d60e31b81526001600160a01b0390931692839263efbe62e8926106b49290918991899101611d6a565b6020604051808303816000875af11580156106d3573d6000803e3d6000fd5b505050506040513d601f19601f820116820180604052508101906106f79190611d48565b6107375760405162461bcd60e51b815260206004820152601160248201527015985b1a59185d1a5bdb8819985a5b1959607a1b6044820152606401610386565b505b61074381336113e2565b50505050565b60008181526003602090815260409182902080548351818402810184019094528084526060939283018282801561079f57602002820191906000526020600020905b81548152602001906001019080831161078b575b50505050509050919050565b6001602081905260009182526040909120805491810180546107cc90611da0565b80601f01602080910402602001604051908101604052809291908181526020018280546107f890611da0565b80156108455780601f1061081a57610100808354040283529160200191610845565b820191906000526020600020905b81548152906001019060200180831161082857829003601f168201915b50505060028401546003850154600486015460058701546006880154600789015460088a015460098b0154600a8c0154600b8d0154600d909d01549b9c989b6001600160a01b039098169a50959850939692959194909360ff908116939192168d565b6005546040516332878d4d60e01b81526004810183905260009182916001600160a01b03909116906332878d4d90602401602060405180830381865afa1580156108f6573d6000803e3d6000fd5b505050506040513d601f19601f8201168201806040525081019061091a9190611dda565b905061094c6040518060400160405280600e81526020016d2a37b5b2b7103130b630b731b29d60911b815250826116b7565b60008381526003602090815260408083208151808301909252601882527f4f7267616e697a6174696f6e206368616c6c656e6765733a000000000000000092820192909252815461099d91906116b7565b60005b8154811015610a335760008282815481106109bd576109bd611df3565b60009182526020808320909101548083526001909152604090912060098101549192509060ff1615610a1e57600081600a015482600801546109ff9190611e1f565b8260050154610a0e9190611e38565b9050610a1a8187611e4f565b9550505b50508080610a2b90611e62565b9150506109a0565b5081831015610a43576000610a4d565b610a4d8284611e1f565b95945050505050565b60036020528160005260406000208181548110610a7257600080fd5b90600052602060002001600091509150505481565b6060808080808080808089806001600160401b03811115610aaa57610aaa611806565b604051908082528060200260200182016040528015610ad3578160200160208202803683370190505b509950806001600160401b03811115610aee57610aee611806565b604051908082528060200260200182016040528015610b2157816020015b6060815260200190600190039081610b0c5790505b509850806001600160401b03811115610b3c57610b3c611806565b604051908082528060200260200182016040528015610b65578160200160208202803683370190505b509750806001600160401b03811115610b8057610b80611806565b604051908082528060200260200182016040528015610ba9578160200160208202803683370190505b509650806001600160401b03811115610bc457610bc4611806565b604051908082528060200260200182016040528015610bed578160200160208202803683370190505b509550806001600160401b03811115610c0857610c08611806565b604051908082528060200260200182016040528015610c31578160200160208202803683370190505b509450806001600160401b03811115610c4c57610c4c611806565b604051908082528060200260200182016040528015610c75578160200160208202803683370190505b509350806001600160401b03811115610c9057610c90611806565b604051908082528060200260200182016040528015610cb9578160200160208202803683370190505b509250806001600160401b03811115610cd457610cd4611806565b604051908082528060200260200182016040528015610cfd578160200160208202803683370190505b50915060005b81811015610f74576000600160008f8f85818110610d2357610d23611df3565b60209081029290920135835250810191909152604001600020600d81015490915060ff16610d935760405162461bcd60e51b815260206004820152601860248201527f4368616c6c656e676520646f6573206e6f7420657869737400000000000000006044820152606401610386565b80600001548c8381518110610daa57610daa611df3565b602002602001018181525050806001018054610dc590611da0565b80601f0160208091040260200160405190810160405280929190818152602001828054610df190611da0565b8015610e3e5780601f10610e1357610100808354040283529160200191610e3e565b820191906000526020600020905b815481529060010190602001808311610e2157829003601f168201915b50505050508b8381518110610e5557610e55611df3565b602002602001018190525080600501548a8381518110610e7757610e77611df3565b6020026020010181815250508060060154898381518110610e9a57610e9a611df3565b6020026020010181815250508060070154888381518110610ebd57610ebd611df3565b6020026020010181815250508060080154878381518110610ee057610ee0611df3565b60209081029190910101526009810154865160ff90911690879084908110610f0a57610f0a611df3565b60200260200101901515908115158152505080600a0154858381518110610f3357610f33611df3565b6020026020010181815250508060020154848381518110610f5657610f56611df3565b60209081029190910101525080610f6c81611e62565b915050610d03565b50509295985092959850929598565b60055460405163146a291160e01b8152600481018890523360248201526000916001600160a01b03169063146a291190604401602060405180830381865afa158015610fd3573d6000803e3d6000fd5b505050506040513d601f19601f82011682018060405250810190610ff79190611d48565b6110325760405162461bcd60e51b815260206004820152600c60248201526b2737ba1030b71030b236b4b760a11b6044820152606401610386565b8284106110765760405162461bcd60e51b8152602060048201526012602482015271496e76616c69642074696d652072616e676560701b6044820152606401610386565b60006110828387611e38565b6005546040516329ec0ab960e21b8152600481018b9052306024820152604481018390529192506001600160a01b03169063a7b02ae490606401600060405180830381600087803b1580156110d657600080fd5b505af11580156110ea573d6000803e3d6000fd5b5050600080549092509050818061110083611e62565b90915550600081815260016020819052604090912082815591925081016111278a82611eca565b50878160050181905550600081600a01819055508681600601819055508581600701819055508481600801819055508981600b018190555060018160090160006101000a81548160ff021916908315150217905550600181600d0160006101000a81548160ff0219169083151502179055506000801b8160020181905550600360008b81526020019081526020016000208290806001815401808255809150506001900390600052602060002001600090919091909150556002829080600181540180825580915050600190039060005260206000200160009091909190915055817ffc1b82067db1978983b5a9c44d7e5969b0c7f2b284c70ad8ce6e7abd927875e58a8989898f8e60405161124296959493929190611f89565b60405180910390a25098975050505050505050565b600982015460ff166112a25760405162461bcd60e51b81526020600482015260146024820152734368616c6c656e6765206e6f742061637469766560601b6044820152606401610386565b81600601544210156112ee5760405162461bcd60e51b815260206004820152601560248201527410da185b1b195b99d9481b9bdd081cdd185c9d1959605a1b6044820152606401610386565b81600701544211156113345760405162461bcd60e51b815260206004820152600f60248201526e10da185b1b195b99d948195b991959608a1b6044820152606401610386565b816008015482600a0154106113815760405162461bcd60e51b815260206004820152601360248201527213585e081dda5b9b995c9cc81c995858da1959606a1b6044820152606401610386565b6001600160a01b0381166000908152600c8301602052604090205460ff16156113de5760405162461bcd60e51b815260206004820152600f60248201526e105b1c9958591e4818db185a5b5959608a1b6044820152606401610386565b5050565b6114126040518060400160405280600e81526020016d1d1c985b9cd9995c94995dd85c9960921b815250826116fc565b6005828101549054600b840154604051631bc7046d60e01b815260048101919091526000916001600160a01b031690631bc7046d90602401602060405180830381865afa158015611467573d6000803e3d6000fd5b505050506040513d601f19601f8201168201806040525081019061148b9190611fc5565b6040516370a0823160e01b815230600482015290915082906001600160a01b038316906370a0823190602401602060405180830381865afa1580156114d4573d6000803e3d6000fd5b505050506040513d601f19601f820116820180604052508101906114f89190611dda565b101561155a5760405162461bcd60e51b815260206004820152602b60248201527f4e6f7420656e6f75676820746f6b656e7320696e20746865206368616c6c656e60448201526a19d94818dbdb9d1c9858dd60aa1b6064820152608401610386565b6001600160a01b0383166000908152600c850160205260408120805460ff19166001179055600a850180549161158f83611e62565b9190505550836008015484600a0154106115b05760098401805460ff191690555b60405163a9059cbb60e01b81526001600160a01b0384811660048301526024820184905282169063a9059cbb906044016020604051808303816000875af11580156115ff573d6000803e3d6000fd5b505050506040513d601f19601f820116820180604052508101906116239190611d48565b50835460408051428152602081018590526001600160a01b03861692917ffc6ecd966b430510beae9124efe7dd517ed5286d7ed0ae258f8556c7a9765a44910160405180910390a350505050565b6116b4816040516024016116859190611fe2565b60408051601f198184030181529190526020810180516001600160e01b031663104c13eb60e21b17905261173d565b50565b6113de82826040516024016116cd929190611ff5565b60408051601f198184030181529190526020810180516001600160e01b0316632d839cb360e21b17905261173d565b6113de8282604051602401611712929190612017565b60408051601f198184030181529190526020810180516001600160e01b031663319af33360e01b1790525b6116b48160006a636f6e736f6c652e6c6f679050600080835160208501845afa505050565b60006020828403121561177457600080fd5b5035919050565b6001600160a01b03811681146116b457600080fd5b600080600080608085870312156117a657600080fd5b8435935060208501356117b88161177b565b93969395505050506040820135916060013590565b6000806000606084860312156117e257600080fd5b833592506020840135915060408401356117fb8161177b565b809150509250925092565b634e487b7160e01b600052604160045260246000fd5b600082601f83011261182d57600080fd5b81356001600160401b038082111561184757611847611806565b604051601f8301601f19908116603f0116810190828211818310171561186f5761186f611806565b8160405283815286602085880101111561188857600080fd5b836020870160208301376000602085830101528094505050505092915050565b60008083601f8401126118ba57600080fd5b5081356001600160401b038111156118d157600080fd5b6020830191508360208285010111156118e957600080fd5b9250929050565b6000806000806000806000806000806101208b8d03121561191057600080fd5b8a35995060208b01356001600160401b038082111561192e57600080fd5b61193a8e838f0161181c565b9a5060408d0135995060608d0135985060808d0135975060a08d0135965060c08d0135955060e08d0135915061196f8261177b565b9093506101008c0135908082111561198657600080fd5b506119938d828e016118a8565b915080935050809150509295989b9194979a5092959850565b6000806000604084860312156119c157600080fd5b8335925060208401356001600160401b038111156119de57600080fd5b6119ea868287016118a8565b9497909650939450505050565b600081518084526020808501945080840160005b83811015611a2757815187529582019590820190600101611a0b565b509495945050505050565b602081526000611a4560208301846119f7565b9392505050565b60008060408385031215611a5f57600080fd5b50508035926020909101359150565b6000815180845260005b81811015611a9457602081850181015186830182015201611a78565b506000602082860101526020601f19601f83011685010191505092915050565b8d81526101a060208201526000611acf6101a083018f611a6e565b604083019d909d52506001600160a01b039a909a1660608b015260808a019890985260a089019690965260c088019490945260e0870192909252610100860152151561012085015261014084015261016083015215156101809091015292915050565b60008060208385031215611b4557600080fd5b82356001600160401b0380821115611b5c57600080fd5b818501915085601f830112611b7057600080fd5b813581811115611b7f57600080fd5b8660208260051b8501011115611b9457600080fd5b60209290920196919550909350505050565b600081518084526020808501945080840160005b83811015611a27578151151587529582019590820190600101611bba565b6000610120808352611bec8184018d6119f7565b9050602083820381850152818c518084528284019150828160051b850101838f0160005b83811015611c3e57601f19878403018552611c2c838351611a6e565b94860194925090850190600101611c10565b50508681036040880152611c52818f6119f7565b9450505050508281036060840152611c6a818a6119f7565b90508281036080840152611c7e81896119f7565b905082810360a0840152611c9281886119f7565b905082810360c0840152611ca68187611ba6565b905082810360e0840152611cba81866119f7565b9050828103610100840152611ccf81856119f7565b9c9b505050505050505050505050565b60008060008060008060c08789031215611cf857600080fd5b8635955060208701356001600160401b03811115611d1557600080fd5b611d2189828a0161181c565b96999698505050506040850135946060810135946080820135945060a09091013592509050565b600060208284031215611d5a57600080fd5b81518015158114611a4557600080fd5b83815260406020820152816040820152818360608301376000818301606090810191909152601f909201601f1916010192915050565b600181811c90821680611db457607f821691505b602082108103611dd457634e487b7160e01b600052602260045260246000fd5b50919050565b600060208284031215611dec57600080fd5b5051919050565b634e487b7160e01b600052603260045260246000fd5b634e487b7160e01b600052601160045260246000fd5b81810381811115611e3257611e32611e09565b92915050565b8082028115828204841417611e3257611e32611e09565b80820180821115611e3257611e32611e09565b600060018201611e7457611e74611e09565b5060010190565b601f821115611ec557600081815260208120601f850160051c81016020861015611ea25750805b601f850160051c820191505b81811015611ec157828155600101611eae565b5050505b505050565b81516001600160401b03811115611ee357611ee3611806565b611ef781611ef18454611da0565b84611e7b565b602080601f831160018114611f2c5760008415611f145750858301515b600019600386901b1c1916600185901b178555611ec1565b600085815260208120601f198616915b82811015611f5b57888601518255948401946001909101908401611f3c565b5085821015611f795787850151600019600388901b60f8161c191681555b5050505050600190811b01905550565b60c081526000611f9c60c0830189611a6e565b60208301979097525060408101949094526060840192909252608083015260a090910152919050565b600060208284031215611fd757600080fd5b8151611a458161177b565b602081526000611a456020830184611a6e565b6040815260006120086040830185611a6e565b90508260208301529392505050565b60408152600061202a6040830185611a6e565b905060018060a01b0383166020830152939250505056fea2646970667358221220e4df8d7df223303353aefe1b451ea3f9c71287bcc49ca3794e44abb723c64a3a64736f6c63430008140033",
  "devdoc": {
    "kind": "dev",
    "methods": {
      "listChallengesDetails(uint256[])": {
        "params": {
          "ids": "Lista de IDs de los desafos"
        },
        "returns": {
          "actives": "Lista de estados de los desafos (activos o inactivos)",
          "descriptions": "Lista de descripciones de los desafos",
          "endTimes": "Lista de tiempos de finalizacin de los desafos",
          "maxWinners": "Lista de mximos ganadores permitidos de los desafos",
          "prizeAmounts": "Lista de montos de premios de los desafos",
          "retChallengeIds": "Lista de IDs de los desafos",
          "startTimes": "Lista de tiempos de inicio de los desafos",
          "winnerCounts": "Lista de conteos de ganadores actuales de los desafos"
        }
      }
    },
    "version": 1
  },
  "userdoc": {
    "kind": "user",
    "methods": {
      "claimReward(uint256,bytes)": {
        "notice": "Reclama un premio de un desafo"
      },
      "listChallengesDetails(uint256[])": {
        "notice": "Obtiene los detalles de mltiples desafos"
      },
      "tokensAvailable(uint256)": {
        "notice": "Calcula la cantidad de tokens disponibles para crear desafos (en unidades base)"
      },
      "validatorClaimCallback(bytes32,uint256,address)": {
        "notice": "Permite que un validador reclame un desafo"
      }
    },
    "version": 1
  },
  "storageLayout": {
    "storage": [
      {
        "astId": 7266,
        "contract": "contracts/Challenges/ChallengeManager.sol:ChallengeManager",
        "label": "challengeCount",
        "offset": 0,
        "slot": "0",
        "type": "t_uint256"
      },
      {
        "astId": 7271,
        "contract": "contracts/Challenges/ChallengeManager.sol:ChallengeManager",
        "label": "challenges",
        "offset": 0,
        "slot": "1",
        "type": "t_mapping(t_uint256,t_struct(Challenge)7264_storage)"
      },
      {
        "astId": 7274,
        "contract": "contracts/Challenges/ChallengeManager.sol:ChallengeManager",
        "label": "challengeIds",
        "offset": 0,
        "slot": "2",
        "type": "t_array(t_uint256)dyn_storage"
      },
      {
        "astId": 7279,
        "contract": "contracts/Challenges/ChallengeManager.sol:ChallengeManager",
        "label": "orgChallenges",
        "offset": 0,
        "slot": "3",
        "type": "t_mapping(t_uint256,t_array(t_uint256)dyn_storage)"
      },
      {
        "astId": 7285,
        "contract": "contracts/Challenges/ChallengeManager.sol:ChallengeManager",
        "label": "validationChallenge",
        "offset": 0,
        "slot": "4",
        "type": "t_mapping(t_bytes32,t_mapping(t_uint256,t_uint256))"
      },
      {
        "astId": 7288,
        "contract": "contracts/Challenges/ChallengeManager.sol:ChallengeManager",
        "label": "orgManager",
        "offset": 0,
        "slot": "5",
        "type": "t_contract(IOrganizationManager)8338"
      }
    ],
    "types": {
      "t_address": {
        "encoding": "inplace",
        "label": "address",
        "numberOfBytes": "20"
      },
      "t_array(t_uint256)dyn_storage": {
        "base": "t_uint256",
        "encoding": "dynamic_array",
        "label": "uint256[]",
        "numberOfBytes": "32"
      },
      "t_bool": {
        "encoding": "inplace",
        "label": "bool",
        "numberOfBytes": "1"
      },
      "t_bytes32": {
        "encoding": "inplace",
        "label": "bytes32",
        "numberOfBytes": "32"
      },
      "t_contract(IOrganizationManager)8338": {
        "encoding": "inplace",
        "label": "contract IOrganizationManager",
        "numberOfBytes": "20"
      },
      "t_mapping(t_address,t_bool)": {
        "encoding": "mapping",
        "key": "t_address",
        "label": "mapping(address => bool)",
        "numberOfBytes": "32",
        "value": "t_bool"
      },
      "t_mapping(t_bytes32,t_mapping(t_uint256,t_uint256))": {
        "encoding": "mapping",
        "key": "t_bytes32",
        "label": "mapping(bytes32 => mapping(uint256 => uint256))",
        "numberOfBytes": "32",
        "value": "t_mapping(t_uint256,t_uint256)"
      },
      "t_mapping(t_uint256,t_array(t_uint256)dyn_storage)": {
        "encoding": "mapping",
        "key": "t_uint256",
        "label": "mapping(uint256 => uint256[])",
        "numberOfBytes": "32",
        "value": "t_array(t_uint256)dyn_storage"
      },
      "t_mapping(t_uint256,t_struct(Challenge)7264_storage)": {
        "encoding": "mapping",
        "key": "t_uint256",
        "label": "mapping(uint256 => struct ChallengeManager.Challenge)",
        "numberOfBytes": "32",
        "value": "t_struct(Challenge)7264_storage"
      },
      "t_mapping(t_uint256,t_uint256)": {
        "encoding": "mapping",
        "key": "t_uint256",
        "label": "mapping(uint256 => uint256)",
        "numberOfBytes": "32",
        "value": "t_uint256"
      },
      "t_string_storage": {
        "encoding": "bytes",
        "label": "string",
        "numberOfBytes": "32"
      },
      "t_struct(Challenge)7264_storage": {
        "encoding": "inplace",
        "label": "struct ChallengeManager.Challenge",
        "members": [
          {
            "astId": 7235,
            "contract": "contracts/Challenges/ChallengeManager.sol:ChallengeManager",
            "label": "id",
            "offset": 0,
            "slot": "0",
            "type": "t_uint256"
          },
          {
            "astId": 7237,
            "contract": "contracts/Challenges/ChallengeManager.sol:ChallengeManager",
            "label": "description",
            "offset": 0,
            "slot": "1",
            "type": "t_string_storage"
          },
          {
            "astId": 7239,
            "contract": "contracts/Challenges/ChallengeManager.sol:ChallengeManager",
            "label": "validatorUID",
            "offset": 0,
            "slot": "2",
            "type": "t_bytes32"
          },
          {
            "astId": 7241,
            "contract": "contracts/Challenges/ChallengeManager.sol:ChallengeManager",
            "label": "validatorAddr",
            "offset": 0,
            "slot": "3",
            "type": "t_address"
          },
          {
            "astId": 7243,
            "contract": "contracts/Challenges/ChallengeManager.sol:ChallengeManager",
            "label": "validationId",
            "offset": 0,
            "slot": "4",
            "type": "t_uint256"
          },
          {
            "astId": 7245,
            "contract": "contracts/Challenges/ChallengeManager.sol:ChallengeManager",
            "label": "prizeAmount",
            "offset": 0,
            "slot": "5",
            "type": "t_uint256"
          },
          {
            "astId": 7247,
            "contract": "contracts/Challenges/ChallengeManager.sol:ChallengeManager",
            "label": "startTime",
            "offset": 0,
            "slot": "6",
            "type": "t_uint256"
          },
          {
            "astId": 7249,
            "contract": "contracts/Challenges/ChallengeManager.sol:ChallengeManager",
            "label": "endTime",
            "offset": 0,
            "slot": "7",
            "type": "t_uint256"
          },
          {
            "astId": 7251,
            "contract": "contracts/Challenges/ChallengeManager.sol:ChallengeManager",
            "label": "maxWinners",
            "offset": 0,
            "slot": "8",
            "type": "t_uint256"
          },
          {
            "astId": 7253,
            "contract": "contracts/Challenges/ChallengeManager.sol:ChallengeManager",
            "label": "active",
            "offset": 0,
            "slot": "9",
            "type": "t_bool"
          },
          {
            "astId": 7255,
            "contract": "contracts/Challenges/ChallengeManager.sol:ChallengeManager",
            "label": "winnerCount",
            "offset": 0,
            "slot": "10",
            "type": "t_uint256"
          },
          {
            "astId": 7257,
            "contract": "contracts/Challenges/ChallengeManager.sol:ChallengeManager",
            "label": "orgId",
            "offset": 0,
            "slot": "11",
            "type": "t_uint256"
          },
          {
            "astId": 7261,
            "contract": "contracts/Challenges/ChallengeManager.sol:ChallengeManager",
            "label": "winners",
            "offset": 0,
            "slot": "12",
            "type": "t_mapping(t_address,t_bool)"
          },
          {
            "astId": 7263,
            "contract": "contracts/Challenges/ChallengeManager.sol:ChallengeManager",
            "label": "exists",
            "offset": 0,
            "slot": "13",
            "type": "t_bool"
          }
        ],
        "numberOfBytes": "448"
      },
      "t_uint256": {
        "encoding": "inplace",
        "label": "uint256",
        "numberOfBytes": "32"
      }
    }
  }
}