{
  "address": "0x8F2468BA4d45160802Db71fA6aCfcD7d583578BA",
  "abi": [
    {
      "inputs": [
        {
          "internalType": "address",
          "name": "_orgManagerAddr",
          "type": "address"
        }
      ],
      "stateMutability": "nonpayable",
      "type": "constructor"
    },
    {
      "anonymous": false,
      "inputs": [
        {
          "indexed": true,
          "internalType": "uint256",
          "name": "challengeId",
          "type": "uint256"
        },
        {
          "indexed": false,
          "internalType": "string",
          "name": "description",
          "type": "string"
        }
      ],
      "name": "ChallengeCreated",
      "type": "event"
    },
    {
      "anonymous": false,
      "inputs": [
        {
          "indexed": true,
          "internalType": "uint256",
          "name": "challengeId",
          "type": "uint256"
        },
        {
          "indexed": true,
          "internalType": "address",
          "name": "user",
          "type": "address"
        }
      ],
      "name": "RewardClaimed",
      "type": "event"
    },
    {
      "inputs": [],
      "name": "challengeCount",
      "outputs": [
        {
          "internalType": "uint256",
          "name": "",
          "type": "uint256"
        }
      ],
      "stateMutability": "view",
      "type": "function"
    },
    {
      "inputs": [
        {
          "internalType": "uint256",
          "name": "",
          "type": "uint256"
        }
      ],
      "name": "challengeIds",
      "outputs": [
        {
          "internalType": "uint256",
          "name": "",
          "type": "uint256"
        }
      ],
      "stateMutability": "view",
      "type": "function"
    },
    {
      "inputs": [
        {
          "internalType": "uint256",
          "name": "",
          "type": "uint256"
        }
      ],
      "name": "challenges",
      "outputs": [
        {
          "internalType": "uint256",
          "name": "id",
          "type": "uint256"
        },
        {
          "internalType": "string",
          "name": "description",
          "type": "string"
        },
        {
          "internalType": "bytes32",
          "name": "validatorUID",
          "type": "bytes32"
        },
        {
          "internalType": "address",
          "name": "validatorAddr",
          "type": "address"
        },
        {
          "internalType": "uint256",
          "name": "validationId",
          "type": "uint256"
        },
        {
          "internalType": "uint256",
          "name": "prizeAmount",
          "type": "uint256"
        },
        {
          "internalType": "uint256",
          "name": "startTime",
          "type": "uint256"
        },
        {
          "internalType": "uint256",
          "name": "endTime",
          "type": "uint256"
        },
        {
          "internalType": "uint256",
          "name": "maxWinners",
          "type": "uint256"
        },
        {
          "internalType": "bool",
          "name": "active",
          "type": "bool"
        },
        {
          "internalType": "uint256",
          "name": "winnerCount",
          "type": "uint256"
        },
        {
          "internalType": "uint256",
          "name": "orgId",
          "type": "uint256"
        },
        {
          "internalType": "bool",
          "name": "exists",
          "type": "bool"
        }
      ],
      "stateMutability": "view",
      "type": "function"
    },
    {
      "inputs": [
        {
          "internalType": "uint256",
          "name": "_challengeId",
          "type": "uint256"
        },
        {
          "internalType": "bytes",
          "name": "params",
          "type": "bytes"
        }
      ],
      "name": "claimReward",
      "outputs": [],
      "stateMutability": "nonpayable",
      "type": "function"
    },
    {
      "inputs": [
        {
          "internalType": "uint256",
          "name": "_orgId",
          "type": "uint256"
        },
        {
          "internalType": "string",
          "name": "_description",
          "type": "string"
        },
        {
          "internalType": "uint256",
          "name": "_prizeAmount",
          "type": "uint256"
        },
        {
          "internalType": "uint256",
          "name": "_startTime",
          "type": "uint256"
        },
        {
          "internalType": "uint256",
          "name": "_endTime",
          "type": "uint256"
        },
        {
          "internalType": "uint256",
          "name": "_maxWinners",
          "type": "uint256"
        }
      ],
      "name": "createChallenge",
      "outputs": [],
      "stateMutability": "nonpayable",
      "type": "function"
    },
    {
      "inputs": [
        {
          "internalType": "uint256",
          "name": "_orgId",
          "type": "uint256"
        }
      ],
      "name": "getChallengesByOrg",
      "outputs": [
        {
          "internalType": "uint256[]",
          "name": "",
          "type": "uint256[]"
        }
      ],
      "stateMutability": "view",
      "type": "function"
    },
    {
      "inputs": [
        {
          "internalType": "uint256",
          "name": "_challengeId",
          "type": "uint256"
        }
      ],
      "name": "getOrganizationId",
      "outputs": [
        {
          "internalType": "uint256",
          "name": "",
          "type": "uint256"
        }
      ],
      "stateMutability": "view",
      "type": "function"
    },
    {
      "inputs": [
        {
          "internalType": "uint256[]",
          "name": "ids",
          "type": "uint256[]"
        }
      ],
      "name": "listChallengesDetails",
      "outputs": [
        {
          "internalType": "uint256[]",
          "name": "retChallengeIds",
          "type": "uint256[]"
        },
        {
          "internalType": "string[]",
          "name": "descriptions",
          "type": "string[]"
        },
        {
          "internalType": "uint256[]",
          "name": "prizeAmounts",
          "type": "uint256[]"
        },
        {
          "internalType": "uint256[]",
          "name": "startTimes",
          "type": "uint256[]"
        },
        {
          "internalType": "uint256[]",
          "name": "endTimes",
          "type": "uint256[]"
        },
        {
          "internalType": "uint256[]",
          "name": "maxWinners",
          "type": "uint256[]"
        },
        {
          "internalType": "bool[]",
          "name": "actives",
          "type": "bool[]"
        },
        {
          "internalType": "uint256[]",
          "name": "winnerCounts",
          "type": "uint256[]"
        },
        {
          "internalType": "bytes32[]",
          "name": "validatorUID",
          "type": "bytes32[]"
        }
      ],
      "stateMutability": "view",
      "type": "function"
    },
    {
      "inputs": [
        {
          "internalType": "uint256",
          "name": "",
          "type": "uint256"
        },
        {
          "internalType": "uint256",
          "name": "",
          "type": "uint256"
        }
      ],
      "name": "orgChallenges",
      "outputs": [
        {
          "internalType": "uint256",
          "name": "",
          "type": "uint256"
        }
      ],
      "stateMutability": "view",
      "type": "function"
    },
    {
      "inputs": [],
      "name": "orgManager",
      "outputs": [
        {
          "internalType": "contract IOrganizationManager",
          "name": "",
          "type": "address"
        }
      ],
      "stateMutability": "view",
      "type": "function"
    },
    {
      "inputs": [
        {
          "internalType": "uint256",
          "name": "_challengeId",
          "type": "uint256"
        },
        {
          "internalType": "address",
          "name": "_validatorAddr",
          "type": "address"
        },
        {
          "internalType": "bytes32",
          "name": "_validatorUID",
          "type": "bytes32"
        },
        {
          "internalType": "uint256",
          "name": "_validationId",
          "type": "uint256"
        }
      ],
      "name": "setChallengeValidator",
      "outputs": [],
      "stateMutability": "nonpayable",
      "type": "function"
    },
    {
      "inputs": [
        {
          "internalType": "uint256",
          "name": "_orgId",
          "type": "uint256"
        }
      ],
      "name": "tokensAvailable",
      "outputs": [
        {
          "internalType": "uint256",
          "name": "",
          "type": "uint256"
        }
      ],
      "stateMutability": "view",
      "type": "function"
    }
  ],
  "transactionHash": "0x2f3bdc59449bdc3a61e2d25e5582c816e7378472af49fca2d0045e45fa3f3dc3",
  "args": [
    "0x3E02c8f6066e0A046EE9772ffd6E359dAD0745fB"
  ],
  "numDeployments": 1,
  "solcInputHash": "2c923584b09c25d8082f9fac83f4c8db",
  "bytecode": "0x608060405234801561001057600080fd5b50604051611c0b380380611c0b83398101604081905261002f91610054565b600480546001600160a01b0319166001600160a01b0392909216919091179055610084565b60006020828403121561006657600080fd5b81516001600160a01b038116811461007d57600080fd5b9392505050565b611b78806100936000396000f3fe608060405234801561001057600080fd5b50600436106100b45760003560e01c80638f1d3776116100715780638f1d3776146101b057806398ba6219146101dc578063a2f05725146101ef578063a4e99579146101f8578063e2ee160c1461020b578063e4cf539f1461023357600080fd5b806323e144e4146100b957806323f6bfb2146100ef5780636328393e14610102578063754685c51461015257806375f5e661146101655780637d96da0014610185575b600080fd5b6100dc6100c73660046113ee565b6000908152600160205260409020600b015490565b6040519081526020015b60405180910390f35b6100dc6100fd3660046113ee565b610246565b61015061011036600461141c565b6000938452600160205260409093206003810180546001600160a01b0319166001600160a01b039490941693909317909255600482019290925560020155565b005b610150610160366004611459565b610267565b6101786101733660046113ee565b610809565b6040516100e6919061150f565b600454610198906001600160a01b031681565b6040516001600160a01b0390911681526020016100e6565b6101c36101be3660046113ee565b61086b565b6040516100e69d9c9b9a9998979695949392919061156f565b6100dc6101ea3660046113ee565b610968565b6100dc60005481565b6100dc6102063660046115ed565b610b14565b61021e61021936600461160f565b610b45565b6040516100e6999897969594939291906116b5565b6101506102413660046117d2565b61103c565b6002818154811061025657600080fd5b600091825260209091200154905081565b6000838152600160205260409081902060048054600b83015493516306652f0360e11b81529182019390935233602482015290916001600160a01b031690630cca5e0690604401602060405180830381865afa1580156102cb573d6000803e3d6000fd5b505050506040513d601f19601f820116820180604052508101906102ef91906118af565b61032d5760405162461bcd60e51b815260206004820152600a6024820152692737ba1030903ab9b2b960b11b60448201526064015b60405180910390fd5b600d81015460ff1661037c5760405162461bcd60e51b815260206004820152601860248201527710da185b1b195b99d948191bd95cc81b9bdd08195e1a5cdd60421b6044820152606401610324565b600981015460ff166103c75760405162461bcd60e51b81526020600482015260146024820152734368616c6c656e6765206e6f742061637469766560601b6044820152606401610324565b80600601544210156104135760405162461bcd60e51b815260206004820152601560248201527410da185b1b195b99d9481b9bdd081cdd185c9d1959605a1b6044820152606401610324565b80600701544211156104595760405162461bcd60e51b815260206004820152600f60248201526e10da185b1b195b99d948195b991959608a1b6044820152606401610324565b806008015481600a0154106104a65760405162461bcd60e51b815260206004820152601360248201527213585e081dda5b9b995c9cc81c995858da1959606a1b6044820152606401610324565b336000908152600c8201602052604090205460ff16156104fa5760405162461bcd60e51b815260206004820152600f60248201526e105b1c9958591e4818db185a5b5959608a1b6044820152606401610324565b60038101546001600160a01b0316156105ce576003810154600480830154604051631df7cc5d60e31b81526001600160a01b0390931692839263efbe62e89261054992909189918991016118d1565b6020604051808303816000875af1158015610568573d6000803e3d6000fd5b505050506040513d601f19601f8201168201806040525081019061058c91906118af565b6105cc5760405162461bcd60e51b815260206004820152601160248201527015985b1a59185d1a5bdb8819985a5b1959607a1b6044820152606401610324565b505b600581015460048054600b840154604051631bc7046d60e01b8152928301526000916001600160a01b0390911690631bc7046d90602401602060405180830381865afa158015610622573d6000803e3d6000fd5b505050506040513d601f19601f820116820180604052508101906106469190611907565b6040516370a0823160e01b815230600482015290915082906001600160a01b038316906370a0823190602401602060405180830381865afa15801561068f573d6000803e3d6000fd5b505050506040513d601f19601f820116820180604052508101906106b39190611924565b10156107155760405162461bcd60e51b815260206004820152602b60248201527f4e6f7420656e6f75676820746f6b656e7320696e20746865206368616c6c656e60448201526a19d94818dbdb9d1c9858dd60aa1b6064820152608401610324565b336000908152600c840160205260408120805460ff19166001179055600a840180549161074183611953565b9190505550826008015483600a0154106107625760098301805460ff191690555b60405163a9059cbb60e01b8152336004820152602481018390526001600160a01b0382169063a9059cbb906044016020604051808303816000875af11580156107af573d6000803e3d6000fd5b505050506040513d601f19601f820116820180604052508101906107d391906118af565b50604051339087907f5dd59f4285b36241394b73f8f7ae03d0290b030a86803cf2562ecf33eeb617bd90600090a3505050505050565b60008181526003602090815260409182902080548351818402810184019094528084526060939283018282801561085f57602002820191906000526020600020905b81548152602001906001019080831161084b575b50505050509050919050565b60016020819052600091825260409091208054918101805461088c9061196c565b80601f01602080910402602001604051908101604052809291908181526020018280546108b89061196c565b80156109055780601f106108da57610100808354040283529160200191610905565b820191906000526020600020905b8154815290600101906020018083116108e857829003601f168201915b50505060028401546003850154600486015460058701546006880154600789015460088a015460098b0154600a8c0154600b8d0154600d909d01549b9c989b6001600160a01b039098169a50959850939692959194909360ff908116939192168d565b600480546040516332878d4d60e01b815291820183905260009182916001600160a01b0316906332878d4d90602401602060405180830381865afa1580156109b4573d6000803e3d6000fd5b505050506040513d601f19601f820116820180604052508101906109d89190611924565b9050610a0a6040518060400160405280600e81526020016d2a37b5b2b7103130b630b731b29d60911b81525082611378565b60008381526003602090815260408083208151808301909252601882527f4f7267616e697a6174696f6e206368616c6c656e6765733a0000000000000000928201929092528154610a5b9190611378565b60005b8154811015610af1576000828281548110610a7b57610a7b6119a6565b60009182526020808320909101548083526001909152604090912060098101549192509060ff1615610adc57600081600a01548260080154610abd91906119bc565b8260050154610acc91906119d5565b9050610ad881876119ec565b9550505b50508080610ae990611953565b915050610a5e565b5081831015610b01576000610b0b565b610b0b82846119bc565b95945050505050565b60036020528160005260406000208181548110610b3057600080fd5b90600052602060002001600091509150505481565b6060808080808080808089806001600160401b03811115610b6857610b686117bc565b604051908082528060200260200182016040528015610b91578160200160208202803683370190505b509950806001600160401b03811115610bac57610bac6117bc565b604051908082528060200260200182016040528015610bdf57816020015b6060815260200190600190039081610bca5790505b509850806001600160401b03811115610bfa57610bfa6117bc565b604051908082528060200260200182016040528015610c23578160200160208202803683370190505b509750806001600160401b03811115610c3e57610c3e6117bc565b604051908082528060200260200182016040528015610c67578160200160208202803683370190505b509650806001600160401b03811115610c8257610c826117bc565b604051908082528060200260200182016040528015610cab578160200160208202803683370190505b509550806001600160401b03811115610cc657610cc66117bc565b604051908082528060200260200182016040528015610cef578160200160208202803683370190505b509450806001600160401b03811115610d0a57610d0a6117bc565b604051908082528060200260200182016040528015610d33578160200160208202803683370190505b509350806001600160401b03811115610d4e57610d4e6117bc565b604051908082528060200260200182016040528015610d77578160200160208202803683370190505b509250806001600160401b03811115610d9257610d926117bc565b604051908082528060200260200182016040528015610dbb578160200160208202803683370190505b50915060005b8181101561102d576000600160008f8f85818110610de157610de16119a6565b60209081029290920135835250810191909152604001600020600d81015490915060ff16610e4c5760405162461bcd60e51b815260206004820152601860248201527710da185b1b195b99d948191bd95cc81b9bdd08195e1a5cdd60421b6044820152606401610324565b80600001548c8381518110610e6357610e636119a6565b602002602001018181525050806001018054610e7e9061196c565b80601f0160208091040260200160405190810160405280929190818152602001828054610eaa9061196c565b8015610ef75780601f10610ecc57610100808354040283529160200191610ef7565b820191906000526020600020905b815481529060010190602001808311610eda57829003601f168201915b50505050508b8381518110610f0e57610f0e6119a6565b602002602001018190525080600501548a8381518110610f3057610f306119a6565b6020026020010181815250508060060154898381518110610f5357610f536119a6565b6020026020010181815250508060070154888381518110610f7657610f766119a6565b6020026020010181815250508060080154878381518110610f9957610f996119a6565b60209081029190910101526009810154865160ff90911690879084908110610fc357610fc36119a6565b60200260200101901515908115158152505080600a0154858381518110610fec57610fec6119a6565b602002602001018181525050806002015484838151811061100f5761100f6119a6565b6020908102919091010152508061102581611953565b915050610dc1565b50509295985092959850929598565b6004805460405163146a291160e01b815291820188905233602483015287916001600160a01b039091169063146a291190604401602060405180830381865afa15801561108d573d6000803e3d6000fd5b505050506040513d601f19601f820116820180604052508101906110b191906118af565b6110ec5760405162461bcd60e51b815260206004820152600c60248201526b2737ba1030b71030b236b4b760a11b6044820152606401610324565b6004805460405163146a291160e01b81529182018990523360248301526001600160a01b03169063146a291190604401602060405180830381865afa158015611139573d6000803e3d6000fd5b505050506040513d601f19601f8201168201806040525081019061115d91906118af565b6111985760405162461bcd60e51b815260206004820152600c60248201526b2737ba1030b71030b236b4b760a11b6044820152606401610324565b8284106111dc5760405162461bcd60e51b8152602060048201526012602482015271496e76616c69642074696d652072616e676560701b6044820152606401610324565b60006111e883876119d5565b600480546040516329ec0ab960e21b81529182018b9052306024830152604482018390529192506001600160a01b039091169063a7b02ae490606401600060405180830381600087803b15801561123e57600080fd5b505af1158015611252573d6000803e3d6000fd5b5050600080549092509050818061126883611953565b909155506000818152600160208190526040909120828155919250810161128f8a82611a4e565b50600581018890556000600a8201819055600682018890556007820187905560088201869055600b82018b9055600982018054600160ff199182168117909255600d840180549091168217905560028084018390558c8352600360209081526040808520805480860182559086529185209091018690558154928301825592527f405787fa12a823e0f2b7631cc41b3ba8828b3321ca811111fa75cd3aa3bb5ace018390555182907f9b29fc75376595e5ccc1cabb6212af1078e7cdea701adc8029ccc6ed8ab6e07b90611364908c90611b0d565b60405180910390a250505050505050505050565b6113bd828260405160240161138e929190611b20565b60408051601f198184030181529190526020810180516001600160e01b0316632d839cb360e21b1790526113c1565b5050565b6113ca816113cd565b50565b60006a636f6e736f6c652e6c6f679050600080835160208501845afa505050565b60006020828403121561140057600080fd5b5035919050565b6001600160a01b03811681146113ca57600080fd5b6000806000806080858703121561143257600080fd5b84359350602085013561144481611407565b93969395505050506040820135916060013590565b60008060006040848603121561146e57600080fd5b8335925060208401356001600160401b038082111561148c57600080fd5b818601915086601f8301126114a057600080fd5b8135818111156114af57600080fd5b8760208285010111156114c157600080fd5b6020830194508093505050509250925092565b600081518084526020808501945080840160005b83811015611504578151875295820195908201906001016114e8565b509495945050505050565b60208152600061152260208301846114d4565b9392505050565b6000815180845260005b8181101561154f57602081850181015186830182015201611533565b506000602082860101526020601f19601f83011685010191505092915050565b8d81526101a06020820152600061158a6101a083018f611529565b604083019d909d52506001600160a01b039a909a1660608b015260808a019890985260a089019690965260c088019490945260e0870192909252610100860152151561012085015261014084015261016083015215156101809091015292915050565b6000806040838503121561160057600080fd5b50508035926020909101359150565b6000806020838503121561162257600080fd5b82356001600160401b038082111561163957600080fd5b818501915085601f83011261164d57600080fd5b81358181111561165c57600080fd5b8660208260051b850101111561167157600080fd5b60209290920196919550909350505050565b600081518084526020808501945080840160005b83811015611504578151151587529582019590820190600101611697565b60006101208083526116c98184018d6114d4565b9050602083820381850152818c518084528284019150828160051b850101838f0160005b8381101561171b57601f19878403018552611709838351611529565b948601949250908501906001016116ed565b5050868103604088015261172f818f6114d4565b9450505050508281036060840152611747818a6114d4565b9050828103608084015261175b81896114d4565b905082810360a084015261176f81886114d4565b905082810360c08401526117838187611683565b905082810360e084015261179781866114d4565b90508281036101008401526117ac81856114d4565b9c9b505050505050505050505050565b634e487b7160e01b600052604160045260246000fd5b60008060008060008060c087890312156117eb57600080fd5b8635955060208701356001600160401b038082111561180957600080fd5b818901915089601f83011261181d57600080fd5b81358181111561182f5761182f6117bc565b604051601f8201601f19908116603f01168101908382118183101715611857576118576117bc565b816040528281528c602084870101111561187057600080fd5b8260208601602083013760009281016020019290925250979a9799505050506040860135956060810135956080820135955060a0909101359350915050565b6000602082840312156118c157600080fd5b8151801515811461152257600080fd5b83815260406020820152816040820152818360608301376000818301606090810191909152601f909201601f1916010192915050565b60006020828403121561191957600080fd5b815161152281611407565b60006020828403121561193657600080fd5b5051919050565b634e487b7160e01b600052601160045260246000fd5b6000600182016119655761196561193d565b5060010190565b600181811c9082168061198057607f821691505b6020821081036119a057634e487b7160e01b600052602260045260246000fd5b50919050565b634e487b7160e01b600052603260045260246000fd5b818103818111156119cf576119cf61193d565b92915050565b80820281158282048414176119cf576119cf61193d565b808201808211156119cf576119cf61193d565b601f821115611a4957600081815260208120601f850160051c81016020861015611a265750805b601f850160051c820191505b81811015611a4557828155600101611a32565b5050505b505050565b81516001600160401b03811115611a6757611a676117bc565b611a7b81611a75845461196c565b846119ff565b602080601f831160018114611ab05760008415611a985750858301515b600019600386901b1c1916600185901b178555611a45565b600085815260208120601f198616915b82811015611adf57888601518255948401946001909101908401611ac0565b5085821015611afd5787850151600019600388901b60f8161c191681555b5050505050600190811b01905550565b6020815260006115226020830184611529565b604081526000611b336040830185611529565b9050826020830152939250505056fea264697066735822122084004a7e11fad9f715b4e4922de31ec04052efd0ab096cb0b0e7e5a75635508a64736f6c63430008140033",
  "devdoc": {
    "kind": "dev",
    "methods": {
      "listChallengesDetails(uint256[])": {
        "params": {
          "ids": "Lista de IDs de los desafos"
        },
        "returns": {
          "actives": "Lista de estados de los desafos (activos o inactivos)",
          "descriptions": "Lista de descripciones de los desafos",
          "endTimes": "Lista de tiempos de finalizacin de los desafos",
          "maxWinners": "Lista de mximos ganadores permitidos de los desafos",
          "prizeAmounts": "Lista de montos de premios de los desafos",
          "retChallengeIds": "Lista de IDs de los desafos",
          "startTimes": "Lista de tiempos de inicio de los desafos",
          "winnerCounts": "Lista de conteos de ganadores actuales de los desafos"
        }
      }
    },
    "version": 1
  },
  "userdoc": {
    "kind": "user",
    "methods": {
      "claimReward(uint256,bytes)": {
        "notice": "Reclama un premio de un desafo"
      },
      "listChallengesDetails(uint256[])": {
        "notice": "Obtiene los detalles de mltiples desafos"
      },
      "tokensAvailable(uint256)": {
        "notice": "Calcula la cantidad de tokens disponibles para crear desafos (en unidades base)"
      }
    },
    "version": 1
  },
  "storageLayout": {
    "storage": [
      {
        "astId": 1092,
        "contract": "contracts/Challenges/ChallengeManager.sol:ChallengeManager",
        "label": "challengeCount",
        "offset": 0,
        "slot": "0",
        "type": "t_uint256"
      },
      {
        "astId": 1097,
        "contract": "contracts/Challenges/ChallengeManager.sol:ChallengeManager",
        "label": "challenges",
        "offset": 0,
        "slot": "1",
        "type": "t_mapping(t_uint256,t_struct(Challenge)1090_storage)"
      },
      {
        "astId": 1100,
        "contract": "contracts/Challenges/ChallengeManager.sol:ChallengeManager",
        "label": "challengeIds",
        "offset": 0,
        "slot": "2",
        "type": "t_array(t_uint256)dyn_storage"
      },
      {
        "astId": 1105,
        "contract": "contracts/Challenges/ChallengeManager.sol:ChallengeManager",
        "label": "orgChallenges",
        "offset": 0,
        "slot": "3",
        "type": "t_mapping(t_uint256,t_array(t_uint256)dyn_storage)"
      },
      {
        "astId": 1108,
        "contract": "contracts/Challenges/ChallengeManager.sol:ChallengeManager",
        "label": "orgManager",
        "offset": 0,
        "slot": "4",
        "type": "t_contract(IOrganizationManager)1959"
      }
    ],
    "types": {
      "t_address": {
        "encoding": "inplace",
        "label": "address",
        "numberOfBytes": "20"
      },
      "t_array(t_uint256)dyn_storage": {
        "base": "t_uint256",
        "encoding": "dynamic_array",
        "label": "uint256[]",
        "numberOfBytes": "32"
      },
      "t_bool": {
        "encoding": "inplace",
        "label": "bool",
        "numberOfBytes": "1"
      },
      "t_bytes32": {
        "encoding": "inplace",
        "label": "bytes32",
        "numberOfBytes": "32"
      },
      "t_contract(IOrganizationManager)1959": {
        "encoding": "inplace",
        "label": "contract IOrganizationManager",
        "numberOfBytes": "20"
      },
      "t_mapping(t_address,t_bool)": {
        "encoding": "mapping",
        "key": "t_address",
        "label": "mapping(address => bool)",
        "numberOfBytes": "32",
        "value": "t_bool"
      },
      "t_mapping(t_uint256,t_array(t_uint256)dyn_storage)": {
        "encoding": "mapping",
        "key": "t_uint256",
        "label": "mapping(uint256 => uint256[])",
        "numberOfBytes": "32",
        "value": "t_array(t_uint256)dyn_storage"
      },
      "t_mapping(t_uint256,t_struct(Challenge)1090_storage)": {
        "encoding": "mapping",
        "key": "t_uint256",
        "label": "mapping(uint256 => struct ChallengeManager.Challenge)",
        "numberOfBytes": "32",
        "value": "t_struct(Challenge)1090_storage"
      },
      "t_string_storage": {
        "encoding": "bytes",
        "label": "string",
        "numberOfBytes": "32"
      },
      "t_struct(Challenge)1090_storage": {
        "encoding": "inplace",
        "label": "struct ChallengeManager.Challenge",
        "members": [
          {
            "astId": 1061,
            "contract": "contracts/Challenges/ChallengeManager.sol:ChallengeManager",
            "label": "id",
            "offset": 0,
            "slot": "0",
            "type": "t_uint256"
          },
          {
            "astId": 1063,
            "contract": "contracts/Challenges/ChallengeManager.sol:ChallengeManager",
            "label": "description",
            "offset": 0,
            "slot": "1",
            "type": "t_string_storage"
          },
          {
            "astId": 1065,
            "contract": "contracts/Challenges/ChallengeManager.sol:ChallengeManager",
            "label": "validatorUID",
            "offset": 0,
            "slot": "2",
            "type": "t_bytes32"
          },
          {
            "astId": 1067,
            "contract": "contracts/Challenges/ChallengeManager.sol:ChallengeManager",
            "label": "validatorAddr",
            "offset": 0,
            "slot": "3",
            "type": "t_address"
          },
          {
            "astId": 1069,
            "contract": "contracts/Challenges/ChallengeManager.sol:ChallengeManager",
            "label": "validationId",
            "offset": 0,
            "slot": "4",
            "type": "t_uint256"
          },
          {
            "astId": 1071,
            "contract": "contracts/Challenges/ChallengeManager.sol:ChallengeManager",
            "label": "prizeAmount",
            "offset": 0,
            "slot": "5",
            "type": "t_uint256"
          },
          {
            "astId": 1073,
            "contract": "contracts/Challenges/ChallengeManager.sol:ChallengeManager",
            "label": "startTime",
            "offset": 0,
            "slot": "6",
            "type": "t_uint256"
          },
          {
            "astId": 1075,
            "contract": "contracts/Challenges/ChallengeManager.sol:ChallengeManager",
            "label": "endTime",
            "offset": 0,
            "slot": "7",
            "type": "t_uint256"
          },
          {
            "astId": 1077,
            "contract": "contracts/Challenges/ChallengeManager.sol:ChallengeManager",
            "label": "maxWinners",
            "offset": 0,
            "slot": "8",
            "type": "t_uint256"
          },
          {
            "astId": 1079,
            "contract": "contracts/Challenges/ChallengeManager.sol:ChallengeManager",
            "label": "active",
            "offset": 0,
            "slot": "9",
            "type": "t_bool"
          },
          {
            "astId": 1081,
            "contract": "contracts/Challenges/ChallengeManager.sol:ChallengeManager",
            "label": "winnerCount",
            "offset": 0,
            "slot": "10",
            "type": "t_uint256"
          },
          {
            "astId": 1083,
            "contract": "contracts/Challenges/ChallengeManager.sol:ChallengeManager",
            "label": "orgId",
            "offset": 0,
            "slot": "11",
            "type": "t_uint256"
          },
          {
            "astId": 1087,
            "contract": "contracts/Challenges/ChallengeManager.sol:ChallengeManager",
            "label": "winners",
            "offset": 0,
            "slot": "12",
            "type": "t_mapping(t_address,t_bool)"
          },
          {
            "astId": 1089,
            "contract": "contracts/Challenges/ChallengeManager.sol:ChallengeManager",
            "label": "exists",
            "offset": 0,
            "slot": "13",
            "type": "t_bool"
          }
        ],
        "numberOfBytes": "448"
      },
      "t_uint256": {
        "encoding": "inplace",
        "label": "uint256",
        "numberOfBytes": "32"
      }
    }
  }
}