{
  "address": "0x5bece679e11dff6b70cBc7e086245E5906ACf05B",
  "abi": [
    {
      "inputs": [
        {
          "internalType": "address",
          "name": "_oracle",
          "type": "address"
        },
        {
          "internalType": "address",
          "name": "_link",
          "type": "address"
        }
      ],
      "stateMutability": "nonpayable",
      "type": "constructor"
    },
    {
      "anonymous": false,
      "inputs": [
        {
          "indexed": true,
          "internalType": "bytes32",
          "name": "id",
          "type": "bytes32"
        }
      ],
      "name": "ChainlinkCancelled",
      "type": "event"
    },
    {
      "anonymous": false,
      "inputs": [
        {
          "indexed": true,
          "internalType": "bytes32",
          "name": "id",
          "type": "bytes32"
        }
      ],
      "name": "ChainlinkFulfilled",
      "type": "event"
    },
    {
      "anonymous": false,
      "inputs": [
        {
          "indexed": true,
          "internalType": "bytes32",
          "name": "id",
          "type": "bytes32"
        }
      ],
      "name": "ChainlinkRequested",
      "type": "event"
    },
    {
      "anonymous": false,
      "inputs": [
        {
          "indexed": true,
          "internalType": "address",
          "name": "from",
          "type": "address"
        },
        {
          "indexed": true,
          "internalType": "address",
          "name": "to",
          "type": "address"
        }
      ],
      "name": "OwnershipTransferRequested",
      "type": "event"
    },
    {
      "anonymous": false,
      "inputs": [
        {
          "indexed": true,
          "internalType": "address",
          "name": "from",
          "type": "address"
        },
        {
          "indexed": true,
          "internalType": "address",
          "name": "to",
          "type": "address"
        }
      ],
      "name": "OwnershipTransferred",
      "type": "event"
    },
    {
      "inputs": [],
      "name": "acceptOwnership",
      "outputs": [],
      "stateMutability": "nonpayable",
      "type": "function"
    },
    {
      "inputs": [
        {
          "internalType": "bytes32",
          "name": "",
          "type": "bytes32"
        }
      ],
      "name": "claimState",
      "outputs": [
        {
          "internalType": "enum ITwoStepValidator.ValidationState",
          "name": "",
          "type": "uint8"
        }
      ],
      "stateMutability": "view",
      "type": "function"
    },
    {
      "inputs": [
        {
          "internalType": "uint256",
          "name": "",
          "type": "uint256"
        }
      ],
      "name": "config",
      "outputs": [
        {
          "internalType": "bool",
          "name": "exists",
          "type": "bool"
        },
        {
          "internalType": "string",
          "name": "apiUrl",
          "type": "string"
        },
        {
          "internalType": "string",
          "name": "dataPath",
          "type": "string"
        }
      ],
      "stateMutability": "view",
      "type": "function"
    },
    {
      "inputs": [
        {
          "internalType": "bytes32",
          "name": "_requestId",
          "type": "bytes32"
        },
        {
          "internalType": "bool",
          "name": "_completed",
          "type": "bool"
        }
      ],
      "name": "fulfill",
      "outputs": [],
      "stateMutability": "nonpayable",
      "type": "function"
    },
    {
      "inputs": [
        {
          "internalType": "uint256",
          "name": "validationId",
          "type": "uint256"
        }
      ],
      "name": "getConfig",
      "outputs": [
        {
          "internalType": "string",
          "name": "",
          "type": "string"
        }
      ],
      "stateMutability": "view",
      "type": "function"
    },
    {
      "inputs": [
        {
          "internalType": "uint256",
          "name": "validationId",
          "type": "uint256"
        }
      ],
      "name": "getValidationState",
      "outputs": [
        {
          "internalType": "string",
          "name": "",
          "type": "string"
        }
      ],
      "stateMutability": "view",
      "type": "function"
    },
    {
      "inputs": [],
      "name": "jobId",
      "outputs": [
        {
          "internalType": "bytes32",
          "name": "",
          "type": "bytes32"
        }
      ],
      "stateMutability": "view",
      "type": "function"
    },
    {
      "inputs": [],
      "name": "lastCompleted",
      "outputs": [
        {
          "internalType": "bool",
          "name": "",
          "type": "bool"
        }
      ],
      "stateMutability": "view",
      "type": "function"
    },
    {
      "inputs": [],
      "name": "lastExecuted",
      "outputs": [
        {
          "internalType": "uint256",
          "name": "",
          "type": "uint256"
        }
      ],
      "stateMutability": "view",
      "type": "function"
    },
    {
      "inputs": [],
      "name": "lastRequestId",
      "outputs": [
        {
          "internalType": "bytes32",
          "name": "",
          "type": "bytes32"
        }
      ],
      "stateMutability": "view",
      "type": "function"
    },
    {
      "inputs": [],
      "name": "lastUrl",
      "outputs": [
        {
          "internalType": "string",
          "name": "",
          "type": "string"
        }
      ],
      "stateMutability": "view",
      "type": "function"
    },
    {
      "inputs": [],
      "name": "link",
      "outputs": [
        {
          "internalType": "address",
          "name": "",
          "type": "address"
        }
      ],
      "stateMutability": "view",
      "type": "function"
    },
    {
      "inputs": [],
      "name": "oracle",
      "outputs": [
        {
          "internalType": "address",
          "name": "",
          "type": "address"
        }
      ],
      "stateMutability": "view",
      "type": "function"
    },
    {
      "inputs": [],
      "name": "owner",
      "outputs": [
        {
          "internalType": "address",
          "name": "",
          "type": "address"
        }
      ],
      "stateMutability": "view",
      "type": "function"
    },
    {
      "inputs": [
        {
          "internalType": "uint256",
          "name": "validationId",
          "type": "uint256"
        },
        {
          "internalType": "bytes",
          "name": "",
          "type": "bytes"
        }
      ],
      "name": "preValidation",
      "outputs": [
        {
          "internalType": "bytes32",
          "name": "",
          "type": "bytes32"
        }
      ],
      "stateMutability": "nonpayable",
      "type": "function"
    },
    {
      "inputs": [
        {
          "internalType": "uint256",
          "name": "validationId",
          "type": "uint256"
        },
        {
          "internalType": "string",
          "name": "apiUrl",
          "type": "string"
        },
        {
          "internalType": "string",
          "name": "dataPath",
          "type": "string"
        }
      ],
      "name": "setConfig",
      "outputs": [],
      "stateMutability": "nonpayable",
      "type": "function"
    },
    {
      "inputs": [
        {
          "internalType": "address",
          "name": "to",
          "type": "address"
        }
      ],
      "name": "transferOwnership",
      "outputs": [],
      "stateMutability": "nonpayable",
      "type": "function"
    },
    {
      "inputs": [
        {
          "internalType": "uint256",
          "name": "validationId",
          "type": "uint256"
        },
        {
          "internalType": "bytes",
          "name": "params",
          "type": "bytes"
        }
      ],
      "name": "validate",
      "outputs": [
        {
          "internalType": "bool",
          "name": "",
          "type": "bool"
        }
      ],
      "stateMutability": "view",
      "type": "function"
    },
    {
      "inputs": [
        {
          "internalType": "bytes32",
          "name": "",
          "type": "bytes32"
        }
      ],
      "name": "validationRequest",
      "outputs": [
        {
          "internalType": "bytes32",
          "name": "",
          "type": "bytes32"
        }
      ],
      "stateMutability": "view",
      "type": "function"
    }
  ],
  "transactionHash": "0x62005f675fc97857e608f3b9522f763b6f4f80514e4fda2c857bb519c43af491",
  "args": [
    "0x6090149792dAAeE9D1D568c9f9a6F6B46AA29eFD",
    "0x779877A7B0D9E8603169DdbD7836e478b4624789"
  ],
  "numDeployments": 1,
  "solcInputHash": "105bc1b44b7c0353cc4b36f9e49e2962",
  "bytecode": "0x608060405260016007553480156200001657600080fd5b506040516200214c3803806200214c833981016040819052620000399162000264565b3380600081620000905760405162461bcd60e51b815260206004820152601860248201527f43616e6e6f7420736574206f776e657220746f207a65726f000000000000000060448201526064015b60405180910390fd5b600980546001600160a01b0319166001600160a01b0384811691909117909155811615620000c357620000c38162000179565b505050620000d7816200022560201b60201c565b600680546001600160a01b0319166001600160a01b038416179055600b80546001600160a01b038085166001600160a01b0319928316179092557f6331633565393238383038393465623662323764336361653139363730616133600c55600d805492841692909116919091179055600a6200015d670de0b6b3a764000060016200029c565b620001699190620002c8565b600e5550506000601055620002eb565b336001600160a01b03821603620001d35760405162461bcd60e51b815260206004820152601760248201527f43616e6e6f74207472616e7366657220746f2073656c66000000000000000000604482015260640162000087565b600a80546001600160a01b0319166001600160a01b03838116918217909255600954604051919216907fed8889f560326eb138920d842192f0eb3dd22b4f139c87a2c57538e05bae127890600090a350565b600580546001600160a01b0319166001600160a01b0392909216919091179055565b80516001600160a01b03811681146200025f57600080fd5b919050565b600080604083850312156200027857600080fd5b620002838362000247565b9150620002936020840162000247565b90509250929050565b8082028115828204841417620002c257634e487b7160e01b600052601160045260246000fd5b92915050565b600082620002e657634e487b7160e01b600052601260045260246000fd5b500490565b611e5180620002fb6000396000f3fe608060405234801561001057600080fd5b50600436106101215760003560e01c80637dc0d1d0116100ad578063c2939d9711610071578063c2939d971461028b578063efbe62e814610294578063f2fde38b146102a7578063fc2a88c3146102ba578063fd68990a146102c357600080fd5b80637dc0d1d01461021f57806384691767146102325780638da5cb5b14610254578063a81b2f8d14610265578063bd90fb4d1461027857600080fd5b80633920a20b116100f45780633920a20b146101a05780634190a33b146101bd5780636a4373da146101d25780636f1fdad6146101e757806379ba50971461021757600080fd5b80630109c5d6146101265780631c15ff77146101595780631c4695f414610162578063287a0b2e1461018d575b600080fd5b61014661013436600461168a565b60016020526000908152604090205481565b6040519081526020015b60405180910390f35b61014660105481565b600d54610175906001600160a01b031681565b6040516001600160a01b039091168152602001610150565b61014661019b3660046116eb565b6102d6565b6012546101ad9060ff1681565b6040519015158152602001610150565b6101d06101cb366004611736565b610565565b005b6101da61063e565b60405161015091906117ff565b61020a6101f536600461168a565b60006020819052908152604090205460ff1681565b6040516101509190611828565b6101d06106cc565b600b54610175906001600160a01b031681565b61024561024036600461168a565b61077a565b60405161015093929190611850565b6009546001600160a01b0316610175565b6101da61027336600461168a565b6108b1565b6101da61028636600461168a565b610a4e565b610146600c5481565b6101ad6102a23660046116eb565b610b95565b6101d06102b5366004611899565b610c07565b61014660025481565b6101d06102d13660046118c2565b610c1b565b6000838152600f60209081526040808320815160608101909252805460ff161515825260018101805485948401919061030e906118f2565b80601f016020809104026020016040519081016040528092919081815260200182805461033a906118f2565b80156103875780601f1061035c57610100808354040283529160200191610387565b820191906000526020600020905b81548152906001019060200180831161036a57829003601f168201915b505050505081526020016002820180546103a0906118f2565b80601f01602080910402602001604051908101604052809291908181526020018280546103cc906118f2565b80156104195780601f106103ee57610100808354040283529160200191610419565b820191906000526020600020905b8154815290600101906020018083116103fc57829003601f168201915b5050505050815250509050806000015161044e5760405162461bcd60e51b815260040161044590611926565b60405180910390fd5b6000610464600c543063fd68990a60e01b610d5a565b90506000826020015161047688610d7f565b60405160200161048792919061198d565b60408051601f19818403018152828201909152600382526219d95d60ea1b602083015291506104b890839083610e11565b60408051808201825260048152630e0c2e8d60e31b6020820152908401516104e1918491610e11565b60006104ef83600e54610e2f565b9050600088336040516020016105069291906119bc565b60408051808303601f190181529181528151602092830120600085815260018085528382208390558282529381905291909120805460ff1916909217909155905060116105538482611a40565b50506002819055979650505050505050565b604051806060016040528060011515815260200185858080601f016020809104026020016040519081016040528093929190818152602001838380828437600092019190915250505090825250604080516020601f8601819004810282018101909252848152918101919085908590819084018382808284376000920182905250939094525050878152600f602090815260409091208351815460ff191690151517815590830151909150600182019061061f9082611a40565b50604082015160028201906106349082611a40565b5050505050505050565b6011805461064b906118f2565b80601f0160208091040260200160405190810160405280929190818152602001828054610677906118f2565b80156106c45780601f10610699576101008083540402835291602001916106c4565b820191906000526020600020905b8154815290600101906020018083116106a757829003601f168201915b505050505081565b600a546001600160a01b0316331461071f5760405162461bcd60e51b815260206004820152601660248201527526bab9ba10313290383937b837b9b2b21037bbb732b960511b6044820152606401610445565b600980546001600160a01b031980821633908117909355600a805490911690556040516001600160a01b03909116919082907f8be0079c531659141344cd1fd0a4f28419497f9722a3daafe3b4186f6b6457e090600090a350565b600f602052600090815260409020805460018201805460ff90921692916107a0906118f2565b80601f01602080910402602001604051908101604052809291908181526020018280546107cc906118f2565b80156108195780601f106107ee57610100808354040283529160200191610819565b820191906000526020600020905b8154815290600101906020018083116107fc57829003601f168201915b50505050509080600201805461082e906118f2565b80601f016020809104026020016040519081016040528092919081815260200182805461085a906118f2565b80156108a75780601f1061087c576101008083540402835291602001916108a7565b820191906000526020600020905b81548152906001019060200180831161088a57829003601f168201915b5050505050905083565b6000818152600f6020908152604080832081516060818101909352815460ff16151581526001820180549395949193918401916108ed906118f2565b80601f0160208091040260200160405190810160405280929190818152602001828054610919906118f2565b80156109665780601f1061093b57610100808354040283529160200191610966565b820191906000526020600020905b81548152906001019060200180831161094957829003601f168201915b5050505050815260200160028201805461097f906118f2565b80601f01602080910402602001604051908101604052809291908181526020018280546109ab906118f2565b80156109f85780601f106109cd576101008083540402835291602001916109f8565b820191906000526020600020905b8154815290600101906020018083116109db57829003601f168201915b50505050508152505090508060000151610a245760405162461bcd60e51b815260040161044590611926565b602080820151604051610a379201611aff565b604051602081830303815290604052915050919050565b606060008233604051602001610a659291906119bc565b60408051601f19818403018152918152815160209283012060008181529283905291205490915060ff1660606001826003811115610aa557610aa5611812565b03610ad4575060408051808201909152600d81526c282922ab20a624a220aa24a7a760991b6020820152610b6b565b6002826003811115610ae857610ae8611812565b03610b1157506040805180820190915260078152665355434345535360c81b6020820152610b6b565b6003826003811115610b2557610b25611812565b03610b4b57506040805180820190915260048152631190525360e21b6020820152610b6b565b506040805180820190915260078152664e4f535441544560c81b60208201525b80604051602001610b7c9190611b40565b6040516020818303038152906040529350505050919050565b600080610ba483850185611b80565b8051604051919250600091610bbd9188916020016119bc565b60408051601f1981840301815291905280516020909101209050600260008281526020819052604090205460ff166003811115610bfc57610bfc611812565b149695505050505050565b610c0f610e52565b610c1881610ea7565b50565b60008281526008602052604090205482906001600160a01b03163314610c945760405162461bcd60e51b815260206004820152602860248201527f536f75726365206d75737420626520746865206f7261636c65206f6620746865604482015267081c995c5d595cdd60c21b6064820152608401610445565b60008181526008602052604080822080546001600160a01b03191690555182917f7cc135e0cebb02c3480ae5d74d377283180a2601f8f644edf7987b009316c63a91a26012805460ff19168315151790556010805460019190600090610cfb908490611c19565b90915550508115610d2f5750506000908152600160209081526040808320548352908290529020805460ff19166002179055565b6000838152600160209081526040808320548352908290529020805460ff191660031790555b505050565b610d6261164f565b610d6a61164f565b610d7681868686610f51565b95945050505050565b60606000610d8c83610f97565b60010190506000816001600160401b03811115610dab57610dab6119dc565b6040519080825280601f01601f191660200182016040528015610dd5576020820181803683370190505b5090508181016020015b600019016f181899199a1a9b1b9c1cb0b131b232b360811b600a86061a8153600a8504945084610ddf57509392505050565b6080830151610e20908361106f565b6080830151610d55908261106f565b600654600090610e49906001600160a01b03168484611086565b90505b92915050565b6009546001600160a01b03163314610ea55760405162461bcd60e51b815260206004820152601660248201527527b7363c9031b0b63630b1363290313c9037bbb732b960511b6044820152606401610445565b565b336001600160a01b03821603610eff5760405162461bcd60e51b815260206004820152601760248201527f43616e6e6f74207472616e7366657220746f2073656c660000000000000000006044820152606401610445565b600a80546001600160a01b0319166001600160a01b03838116918217909255600954604051919216907fed8889f560326eb138920d842192f0eb3dd22b4f139c87a2c57538e05bae127890600090a350565b610f5961164f565b610f698560800151610100611119565b50508284526001600160a01b03821660208501526001600160e01b031981166040850152835b949350505050565b60008072184f03e93ff9f4daa797ed6e38ed64bf6a1f0160401b8310610fd65772184f03e93ff9f4daa797ed6e38ed64bf6a1f0160401b830492506040015b6d04ee2d6d415b85acef81000000008310611002576d04ee2d6d415b85acef8100000000830492506020015b662386f26fc10000831061102057662386f26fc10000830492506010015b6305f5e1008310611038576305f5e100830492506008015b612710831061104c57612710830492506004015b6064831061105e576064830492506002015b600a8310610e4c5760010192915050565b61107c826003835161117e565b610d55828261128b565b600754600090611097816001611c19565b600755835160408086015160808701515191516000936320214ca360e11b936110cf9386938493923092918a91600191602401611c2c565b60408051601f198184030181529190526020810180516001600160e01b03166001600160e01b031990931692909217909152905061110f868386846112b2565b9695505050505050565b604080518082019091526060815260006020820152611139602083611c94565b1561116157611149602083611c94565b611154906020611cb6565b61115e9083611c19565b91505b506020828101829052604080518085526000815290920101905290565b6017816001600160401b0316116111a8576111a28360e0600585901b168317611410565b50505050565b60ff816001600160401b0316116111e4576111ce836018611fe0600586901b1617611410565b506111a2836001600160401b0383166001611435565b61ffff816001600160401b0316116112215761120b836019611fe0600586901b1617611410565b506111a2836001600160401b0383166002611435565b63ffffffff816001600160401b0316116112605761124a83601a611fe0600586901b1617611410565b506111a2836001600160401b0383166004611435565b61127583601b611fe0600586901b1617611410565b506111a2836001600160401b0383166008611435565b604080518082019091526060815260006020820152610e498384600001515184855161145b565b6040516bffffffffffffffffffffffff193060601b1660208201526034810184905260009060540160408051808303601f1901815282825280516020918201206000818152600890925291812080546001600160a01b0319166001600160a01b038a1617905590925082917fb5e6e01e79f91267dc17b4e6314d5d4d03593d2ceee0fbb452b750bd70ea5af99190a2600554604051630200057560e51b81526001600160a01b0390911690634000aea09061137590889087908790600401611cc9565b6020604051808303816000875af1158015611394573d6000803e3d6000fd5b505050506040513d601f19601f820116820180604052508101906113b89190611cf0565b610f8f5760405162461bcd60e51b815260206004820152602360248201527f756e61626c6520746f207472616e73666572416e6443616c6c20746f206f7261604482015262636c6560e81b6064820152608401610445565b604080518082019091526060815260006020820152610e498384600001515184611545565b604080518082019091526060815260006020820152610f8f8485600001515185856115a0565b604080518082019091526060815260006020820152825182111561147e57600080fd5b602085015161148d8386611c19565b11156114c0576114c0856114b0876020015187866114ab9190611c19565b611621565b6114bb906002611d14565b611638565b6000808651805187602083010193508088870111156114df5787860182525b505050602084015b6020841061151f57805182526114fe602083611c19565b915061150b602082611c19565b9050611518602085611cb6565b93506114e7565b51815160001960208690036101000a019081169019919091161790525083949350505050565b6040805180820190915260608152600060208201528360200151831061157a5761157a84856020015160026114bb9190611d14565b8351805160208583010184815350808503611596576001810182525b5093949350505050565b60408051808201909152606081526000602082015260208501516115c48584611c19565b11156115d8576115d8856114b08685611c19565b600060016115e884610100611e0f565b6115f29190611cb6565b90508551838682010185831982511617815250805184870111156116165783860181525b509495945050505050565b600081831115611632575081610e4c565b50919050565b81516116448383611119565b506111a2838261128b565b6040805160a0810182526000808252602080830182905282840182905260608084018390528451808601909552845283015290608082015290565b60006020828403121561169c57600080fd5b5035919050565b60008083601f8401126116b557600080fd5b5081356001600160401b038111156116cc57600080fd5b6020830191508360208285010111156116e457600080fd5b9250929050565b60008060006040848603121561170057600080fd5b8335925060208401356001600160401b0381111561171d57600080fd5b611729868287016116a3565b9497909650939450505050565b60008060008060006060868803121561174e57600080fd5b8535945060208601356001600160401b038082111561176c57600080fd5b61177889838a016116a3565b9096509450604088013591508082111561179157600080fd5b5061179e888289016116a3565b969995985093965092949392505050565b60005b838110156117ca5781810151838201526020016117b2565b50506000910152565b600081518084526117eb8160208601602086016117af565b601f01601f19169290920160200192915050565b602081526000610e4960208301846117d3565b634e487b7160e01b600052602160045260246000fd5b602081016004831061184a57634e487b7160e01b600052602160045260246000fd5b91905290565b831515815260606020820152600061186b60608301856117d3565b828103604084015261110f81856117d3565b80356001600160a01b038116811461189457600080fd5b919050565b6000602082840312156118ab57600080fd5b610e498261187d565b8015158114610c1857600080fd5b600080604083850312156118d557600080fd5b8235915060208301356118e7816118b4565b809150509250929050565b600181811c9082168061190657607f821691505b60208210810361163257634e487b7160e01b600052602260045260246000fd5b60208082526041908201527f4572726f722e20496e76616c696420636f6e66696775726174696f6e2e204e6f60408201527f2041504920636f6e6669677572656420666f722076616c69646174696f6e49646060820152601760f91b608082015260a00190565b6000835161199f8184602088016117af565b8351908301906119b38183602088016117af565b01949350505050565b91825260601b6bffffffffffffffffffffffff1916602082015260340190565b634e487b7160e01b600052604160045260246000fd5b601f821115610d5557600081815260208120601f850160051c81016020861015611a195750805b601f850160051c820191505b81811015611a3857828155600101611a25565b505050505050565b81516001600160401b03811115611a5957611a596119dc565b611a6d81611a6784546118f2565b846119f2565b602080601f831160018114611aa25760008415611a8a5750858301515b600019600386901b1c1916600185901b178555611a38565b600085815260208120601f198616915b82811015611ad157888601518255948401946001909101908401611ab2565b5085821015611aef5787850151600019600388901b60f8161c191681555b5050505050600190811b01905550565b6b3d9130b834aab936111d101160a11b81528151600090611b2781600c8501602087016117af565b61227d60f01b600c939091019283015250600e01919050565b6a3d9139ba30ba32911d101160a91b81528151600090611b6781600b8501602087016117af565b61227d60f01b600b939091019283015250600d01919050565b60006020808385031215611b9357600080fd5b83601f840112611ba257600080fd5b6040518181018181106001600160401b0382111715611bc357611bc36119dc565b6040528084830186811115611bd757600080fd5b855b81811015611bf757611bea8161187d565b8352918401918401611bd9565b50919695505050505050565b634e487b7160e01b600052601160045260246000fd5b80820180821115610e4c57610e4c611c03565b6001600160a01b0389811682526020820189905260408201889052861660608201526001600160e01b03198516608082015260a0810184905260c0810183905261010060e08201819052600090611c85838201856117d3565b9b9a5050505050505050505050565b600082611cb157634e487b7160e01b600052601260045260246000fd5b500690565b81810381811115610e4c57610e4c611c03565b60018060a01b0384168152826020820152606060408201526000610d7660608301846117d3565b600060208284031215611d0257600080fd5b8151611d0d816118b4565b9392505050565b8082028115828204841417610e4c57610e4c611c03565b600181815b80851115611d66578160001904821115611d4c57611d4c611c03565b80851615611d5957918102915b93841c9390800290611d30565b509250929050565b600082611d7d57506001610e4c565b81611d8a57506000610e4c565b8160018114611da05760028114611daa57611dc6565b6001915050610e4c565b60ff841115611dbb57611dbb611c03565b50506001821b610e4c565b5060208310610133831016604e8410600b8410161715611de9575081810a610e4c565b611df38383611d2b565b8060001904821115611e0757611e07611c03565b029392505050565b6000610e498383611d6e56fea2646970667358221220ed24a9f1a387d3a2d5d6b67ed618902388415c6e27bde05cda1ba2d612eed2d764736f6c63430008140033",
  "devdoc": {
    "kind": "dev",
    "methods": {},
    "version": 1
  },
  "userdoc": {
    "kind": "user",
    "methods": {
      "acceptOwnership()": {
        "notice": "Allows an ownership transfer to be completed by the recipient."
      },
      "owner()": {
        "notice": "Get the current owner"
      },
      "transferOwnership(address)": {
        "notice": "Allows an owner to begin transferring ownership to a new address."
      }
    },
    "version": 1
  },
  "storageLayout": {
    "storage": [
      {
        "astId": 11099,
        "contract": "contracts/Validator/Support/OffChainValidator.sol:OffChainValidator",
        "label": "claimState",
        "offset": 0,
        "slot": "0",
        "type": "t_mapping(t_bytes32,t_enum(ValidationState)10450)"
      },
      {
        "astId": 11103,
        "contract": "contracts/Validator/Support/OffChainValidator.sol:OffChainValidator",
        "label": "validationRequest",
        "offset": 0,
        "slot": "1",
        "type": "t_mapping(t_bytes32,t_bytes32)"
      },
      {
        "astId": 11105,
        "contract": "contracts/Validator/Support/OffChainValidator.sol:OffChainValidator",
        "label": "lastRequestId",
        "offset": 0,
        "slot": "2",
        "type": "t_bytes32"
      },
      {
        "astId": 325,
        "contract": "contracts/Validator/Support/OffChainValidator.sol:OffChainValidator",
        "label": "s_ens",
        "offset": 0,
        "slot": "3",
        "type": "t_contract(ENSInterface)982"
      },
      {
        "astId": 327,
        "contract": "contracts/Validator/Support/OffChainValidator.sol:OffChainValidator",
        "label": "s_ensNode",
        "offset": 0,
        "slot": "4",
        "type": "t_bytes32"
      },
      {
        "astId": 330,
        "contract": "contracts/Validator/Support/OffChainValidator.sol:OffChainValidator",
        "label": "s_link",
        "offset": 0,
        "slot": "5",
        "type": "t_contract(LinkTokenInterface)1609"
      },
      {
        "astId": 333,
        "contract": "contracts/Validator/Support/OffChainValidator.sol:OffChainValidator",
        "label": "s_oracle",
        "offset": 0,
        "slot": "6",
        "type": "t_contract(OperatorInterface)1047"
      },
      {
        "astId": 336,
        "contract": "contracts/Validator/Support/OffChainValidator.sol:OffChainValidator",
        "label": "s_requestCount",
        "offset": 0,
        "slot": "7",
        "type": "t_uint256"
      },
      {
        "astId": 340,
        "contract": "contracts/Validator/Support/OffChainValidator.sol:OffChainValidator",
        "label": "s_pendingRequests",
        "offset": 0,
        "slot": "8",
        "type": "t_mapping(t_bytes32,t_address)"
      },
      {
        "astId": 1286,
        "contract": "contracts/Validator/Support/OffChainValidator.sol:OffChainValidator",
        "label": "s_owner",
        "offset": 0,
        "slot": "9",
        "type": "t_address"
      },
      {
        "astId": 1288,
        "contract": "contracts/Validator/Support/OffChainValidator.sol:OffChainValidator",
        "label": "s_pendingOwner",
        "offset": 0,
        "slot": "10",
        "type": "t_address"
      },
      {
        "astId": 10499,
        "contract": "contracts/Validator/Support/OffChainValidator.sol:OffChainValidator",
        "label": "oracle",
        "offset": 0,
        "slot": "11",
        "type": "t_address"
      },
      {
        "astId": 10501,
        "contract": "contracts/Validator/Support/OffChainValidator.sol:OffChainValidator",
        "label": "jobId",
        "offset": 0,
        "slot": "12",
        "type": "t_bytes32"
      },
      {
        "astId": 10503,
        "contract": "contracts/Validator/Support/OffChainValidator.sol:OffChainValidator",
        "label": "link",
        "offset": 0,
        "slot": "13",
        "type": "t_address"
      },
      {
        "astId": 10505,
        "contract": "contracts/Validator/Support/OffChainValidator.sol:OffChainValidator",
        "label": "fee",
        "offset": 0,
        "slot": "14",
        "type": "t_uint256"
      },
      {
        "astId": 10510,
        "contract": "contracts/Validator/Support/OffChainValidator.sol:OffChainValidator",
        "label": "config",
        "offset": 0,
        "slot": "15",
        "type": "t_mapping(t_uint256,t_struct(OffChainApiConfig)10487_storage)"
      },
      {
        "astId": 10512,
        "contract": "contracts/Validator/Support/OffChainValidator.sol:OffChainValidator",
        "label": "lastExecuted",
        "offset": 0,
        "slot": "16",
        "type": "t_uint256"
      },
      {
        "astId": 10514,
        "contract": "contracts/Validator/Support/OffChainValidator.sol:OffChainValidator",
        "label": "lastUrl",
        "offset": 0,
        "slot": "17",
        "type": "t_string_storage"
      },
      {
        "astId": 10516,
        "contract": "contracts/Validator/Support/OffChainValidator.sol:OffChainValidator",
        "label": "lastCompleted",
        "offset": 0,
        "slot": "18",
        "type": "t_bool"
      }
    ],
    "types": {
      "t_address": {
        "encoding": "inplace",
        "label": "address",
        "numberOfBytes": "20"
      },
      "t_bool": {
        "encoding": "inplace",
        "label": "bool",
        "numberOfBytes": "1"
      },
      "t_bytes32": {
        "encoding": "inplace",
        "label": "bytes32",
        "numberOfBytes": "32"
      },
      "t_contract(ENSInterface)982": {
        "encoding": "inplace",
        "label": "contract ENSInterface",
        "numberOfBytes": "20"
      },
      "t_contract(LinkTokenInterface)1609": {
        "encoding": "inplace",
        "label": "contract LinkTokenInterface",
        "numberOfBytes": "20"
      },
      "t_contract(OperatorInterface)1047": {
        "encoding": "inplace",
        "label": "contract OperatorInterface",
        "numberOfBytes": "20"
      },
      "t_enum(ValidationState)10450": {
        "encoding": "inplace",
        "label": "enum ITwoStepValidator.ValidationState",
        "numberOfBytes": "1"
      },
      "t_mapping(t_bytes32,t_address)": {
        "encoding": "mapping",
        "key": "t_bytes32",
        "label": "mapping(bytes32 => address)",
        "numberOfBytes": "32",
        "value": "t_address"
      },
      "t_mapping(t_bytes32,t_bytes32)": {
        "encoding": "mapping",
        "key": "t_bytes32",
        "label": "mapping(bytes32 => bytes32)",
        "numberOfBytes": "32",
        "value": "t_bytes32"
      },
      "t_mapping(t_bytes32,t_enum(ValidationState)10450)": {
        "encoding": "mapping",
        "key": "t_bytes32",
        "label": "mapping(bytes32 => enum ITwoStepValidator.ValidationState)",
        "numberOfBytes": "32",
        "value": "t_enum(ValidationState)10450"
      },
      "t_mapping(t_uint256,t_struct(OffChainApiConfig)10487_storage)": {
        "encoding": "mapping",
        "key": "t_uint256",
        "label": "mapping(uint256 => struct OffChainApiConfig)",
        "numberOfBytes": "32",
        "value": "t_struct(OffChainApiConfig)10487_storage"
      },
      "t_string_storage": {
        "encoding": "bytes",
        "label": "string",
        "numberOfBytes": "32"
      },
      "t_struct(OffChainApiConfig)10487_storage": {
        "encoding": "inplace",
        "label": "struct OffChainApiConfig",
        "members": [
          {
            "astId": 10482,
            "contract": "contracts/Validator/Support/OffChainValidator.sol:OffChainValidator",
            "label": "exists",
            "offset": 0,
            "slot": "0",
            "type": "t_bool"
          },
          {
            "astId": 10484,
            "contract": "contracts/Validator/Support/OffChainValidator.sol:OffChainValidator",
            "label": "apiUrl",
            "offset": 0,
            "slot": "1",
            "type": "t_string_storage"
          },
          {
            "astId": 10486,
            "contract": "contracts/Validator/Support/OffChainValidator.sol:OffChainValidator",
            "label": "dataPath",
            "offset": 0,
            "slot": "2",
            "type": "t_string_storage"
          }
        ],
        "numberOfBytes": "96"
      },
      "t_uint256": {
        "encoding": "inplace",
        "label": "uint256",
        "numberOfBytes": "32"
      }
    }
  }
}