{
  "address": "0x5Cc4Ac4cAf252b33BB4f143366777248dB75c608",
  "abi": [
    {
      "inputs": [
        {
          "internalType": "address",
          "name": "_router",
          "type": "address"
        },
        {
          "internalType": "bytes32",
          "name": "_donId",
          "type": "bytes32"
        },
        {
          "internalType": "string",
          "name": "_source",
          "type": "string"
        },
        {
          "internalType": "uint64",
          "name": "_subscriptionId",
          "type": "uint64"
        }
      ],
      "stateMutability": "nonpayable",
      "type": "constructor"
    },
    {
      "inputs": [],
      "name": "EmptyArgs",
      "type": "error"
    },
    {
      "inputs": [],
      "name": "EmptySource",
      "type": "error"
    },
    {
      "inputs": [],
      "name": "NoInlineSecrets",
      "type": "error"
    },
    {
      "inputs": [],
      "name": "OnlyRouterCanFulfill",
      "type": "error"
    },
    {
      "inputs": [
        {
          "internalType": "bytes32",
          "name": "requestId",
          "type": "bytes32"
        }
      ],
      "name": "UnexpectedRequestID",
      "type": "error"
    },
    {
      "anonymous": false,
      "inputs": [
        {
          "indexed": true,
          "internalType": "address",
          "name": "from",
          "type": "address"
        },
        {
          "indexed": true,
          "internalType": "address",
          "name": "to",
          "type": "address"
        }
      ],
      "name": "OwnershipTransferRequested",
      "type": "event"
    },
    {
      "anonymous": false,
      "inputs": [
        {
          "indexed": true,
          "internalType": "address",
          "name": "from",
          "type": "address"
        },
        {
          "indexed": true,
          "internalType": "address",
          "name": "to",
          "type": "address"
        }
      ],
      "name": "OwnershipTransferred",
      "type": "event"
    },
    {
      "anonymous": false,
      "inputs": [
        {
          "indexed": true,
          "internalType": "bytes32",
          "name": "id",
          "type": "bytes32"
        }
      ],
      "name": "RequestFulfilled",
      "type": "event"
    },
    {
      "anonymous": false,
      "inputs": [
        {
          "indexed": true,
          "internalType": "bytes32",
          "name": "id",
          "type": "bytes32"
        }
      ],
      "name": "RequestSent",
      "type": "event"
    },
    {
      "anonymous": false,
      "inputs": [
        {
          "indexed": true,
          "internalType": "bytes32",
          "name": "requestId",
          "type": "bytes32"
        },
        {
          "indexed": false,
          "internalType": "bytes",
          "name": "response",
          "type": "bytes"
        },
        {
          "indexed": false,
          "internalType": "bytes",
          "name": "err",
          "type": "bytes"
        }
      ],
      "name": "Response",
      "type": "event"
    },
    {
      "inputs": [],
      "name": "MAX_CALLBACK_GAS",
      "outputs": [
        {
          "internalType": "uint32",
          "name": "",
          "type": "uint32"
        }
      ],
      "stateMutability": "view",
      "type": "function"
    },
    {
      "inputs": [],
      "name": "acceptOwnership",
      "outputs": [],
      "stateMutability": "nonpayable",
      "type": "function"
    },
    {
      "inputs": [
        {
          "internalType": "bytes32",
          "name": "",
          "type": "bytes32"
        }
      ],
      "name": "claimState",
      "outputs": [
        {
          "internalType": "enum ITwoStepValidator.ValidationState",
          "name": "",
          "type": "uint8"
        }
      ],
      "stateMutability": "view",
      "type": "function"
    },
    {
      "inputs": [
        {
          "internalType": "uint256",
          "name": "",
          "type": "uint256"
        }
      ],
      "name": "config",
      "outputs": [
        {
          "internalType": "bool",
          "name": "exists",
          "type": "bool"
        },
        {
          "internalType": "string",
          "name": "apiUrl",
          "type": "string"
        },
        {
          "internalType": "string",
          "name": "dataPath",
          "type": "string"
        }
      ],
      "stateMutability": "view",
      "type": "function"
    },
    {
      "inputs": [],
      "name": "donId",
      "outputs": [
        {
          "internalType": "bytes32",
          "name": "",
          "type": "bytes32"
        }
      ],
      "stateMutability": "view",
      "type": "function"
    },
    {
      "inputs": [
        {
          "internalType": "uint256",
          "name": "validationId",
          "type": "uint256"
        }
      ],
      "name": "getConfig",
      "outputs": [
        {
          "internalType": "string",
          "name": "",
          "type": "string"
        }
      ],
      "stateMutability": "view",
      "type": "function"
    },
    {
      "inputs": [
        {
          "internalType": "uint256",
          "name": "validationId",
          "type": "uint256"
        }
      ],
      "name": "getValidationState",
      "outputs": [
        {
          "internalType": "string",
          "name": "",
          "type": "string"
        }
      ],
      "stateMutability": "view",
      "type": "function"
    },
    {
      "inputs": [
        {
          "internalType": "bytes32",
          "name": "requestId",
          "type": "bytes32"
        },
        {
          "internalType": "bytes",
          "name": "response",
          "type": "bytes"
        },
        {
          "internalType": "bytes",
          "name": "err",
          "type": "bytes"
        }
      ],
      "name": "handleOracleFulfillment",
      "outputs": [],
      "stateMutability": "nonpayable",
      "type": "function"
    },
    {
      "inputs": [],
      "name": "lastCompleted",
      "outputs": [
        {
          "internalType": "bool",
          "name": "",
          "type": "bool"
        }
      ],
      "stateMutability": "view",
      "type": "function"
    },
    {
      "inputs": [],
      "name": "lastExecuted",
      "outputs": [
        {
          "internalType": "uint256",
          "name": "",
          "type": "uint256"
        }
      ],
      "stateMutability": "view",
      "type": "function"
    },
    {
      "inputs": [],
      "name": "lastRequestId",
      "outputs": [
        {
          "internalType": "bytes32",
          "name": "",
          "type": "bytes32"
        }
      ],
      "stateMutability": "view",
      "type": "function"
    },
    {
      "inputs": [],
      "name": "lastUrl",
      "outputs": [
        {
          "internalType": "string",
          "name": "",
          "type": "string"
        }
      ],
      "stateMutability": "view",
      "type": "function"
    },
    {
      "inputs": [],
      "name": "owner",
      "outputs": [
        {
          "internalType": "address",
          "name": "",
          "type": "address"
        }
      ],
      "stateMutability": "view",
      "type": "function"
    },
    {
      "inputs": [
        {
          "internalType": "uint256",
          "name": "validationId",
          "type": "uint256"
        },
        {
          "internalType": "bytes",
          "name": "",
          "type": "bytes"
        }
      ],
      "name": "preValidation",
      "outputs": [
        {
          "internalType": "bytes32",
          "name": "",
          "type": "bytes32"
        }
      ],
      "stateMutability": "nonpayable",
      "type": "function"
    },
    {
      "inputs": [],
      "name": "router",
      "outputs": [
        {
          "internalType": "address",
          "name": "",
          "type": "address"
        }
      ],
      "stateMutability": "view",
      "type": "function"
    },
    {
      "inputs": [
        {
          "internalType": "uint256",
          "name": "validationId",
          "type": "uint256"
        },
        {
          "internalType": "string",
          "name": "apiUrl",
          "type": "string"
        },
        {
          "internalType": "string",
          "name": "dataPath",
          "type": "string"
        }
      ],
      "name": "setConfig",
      "outputs": [],
      "stateMutability": "nonpayable",
      "type": "function"
    },
    {
      "inputs": [],
      "name": "source",
      "outputs": [
        {
          "internalType": "string",
          "name": "",
          "type": "string"
        }
      ],
      "stateMutability": "view",
      "type": "function"
    },
    {
      "inputs": [],
      "name": "subscriptionId",
      "outputs": [
        {
          "internalType": "uint64",
          "name": "",
          "type": "uint64"
        }
      ],
      "stateMutability": "view",
      "type": "function"
    },
    {
      "inputs": [
        {
          "internalType": "address",
          "name": "to",
          "type": "address"
        }
      ],
      "name": "transferOwnership",
      "outputs": [],
      "stateMutability": "nonpayable",
      "type": "function"
    },
    {
      "inputs": [
        {
          "internalType": "uint256",
          "name": "validationId",
          "type": "uint256"
        },
        {
          "internalType": "bytes",
          "name": "params",
          "type": "bytes"
        }
      ],
      "name": "validate",
      "outputs": [
        {
          "internalType": "bool",
          "name": "",
          "type": "bool"
        }
      ],
      "stateMutability": "view",
      "type": "function"
    },
    {
      "inputs": [
        {
          "internalType": "bytes32",
          "name": "",
          "type": "bytes32"
        }
      ],
      "name": "validationRequest",
      "outputs": [
        {
          "internalType": "bytes32",
          "name": "",
          "type": "bytes32"
        }
      ],
      "stateMutability": "view",
      "type": "function"
    }
  ],
  "transactionHash": "0x3484a95798f6d19c27765ca0b949e92ba58444dd754049d5ce90af565fcea39c",
  "args": [
    "0xf9B8fc078197181C841c296C876945aaa425B278",
    "0x66756e2d626173652d7365706f6c69612d310000000000000000000000000000",
    "const url=args[0];\nconst jsonPath=args[1];\nconst response=await Functions.makeHttpRequest({url:url,method:'GET',headers:{'Content-Type':'application/json'}});\nif(response.error)throw Error('Request failed :(.');\nlet result=response.data;\nfor(const p of jsonPath.split('.')){result=result[p];if(result===undefined)throw Error('Invalid path');}\nif(typeof result!=='boolean')throw Error('Not boolean');\nreturn Functions.encodeUint256(result?0:1);\n",
    297
  ],
  "numDeployments": 1,
  "solcInputHash": "d3f2fcdb62c20508a89ccba8f065402b",
  "bytecode": "0x60a06040523480156200001157600080fd5b50604051620028143803806200281483398101604081905262000034916200020b565b6001600160a01b0384166080523380600081620000985760405162461bcd60e51b815260206004820152601860248201527f43616e6e6f7420736574206f776e657220746f207a65726f000000000000000060448201526064015b60405180910390fd5b600380546001600160a01b0319166001600160a01b0384811691909117909155811615620000cb57620000cb816200012c565b5050600580546001600160a01b0319166001600160a01b0387161790555060068390556008620000fc8382620003ac565b506000600a55600780546001600160401b0319166001600160401b03929092169190911790555062000478915050565b336001600160a01b03821603620001865760405162461bcd60e51b815260206004820152601760248201527f43616e6e6f74207472616e7366657220746f2073656c6600000000000000000060448201526064016200008f565b600480546001600160a01b0319166001600160a01b03838116918217909255600354604051919216907fed8889f560326eb138920d842192f0eb3dd22b4f139c87a2c57538e05bae127890600090a350565b634e487b7160e01b600052604160045260246000fd5b80516001600160401b03811681146200020657600080fd5b919050565b600080600080608085870312156200022257600080fd5b84516001600160a01b03811681146200023a57600080fd5b60208681015160408801519296509450906001600160401b03808211156200026157600080fd5b818801915088601f8301126200027657600080fd5b8151818111156200028b576200028b620001d8565b604051601f8201601f19908116603f01168101908382118183101715620002b657620002b6620001d8565b816040528281528b86848701011115620002cf57600080fd5b600093505b82841015620002f35784840186015181850187015292850192620002d4565b60008684830101528097505050505050506200031260608601620001ee565b905092959194509250565b600181811c908216806200033257607f821691505b6020821081036200035357634e487b7160e01b600052602260045260246000fd5b50919050565b601f821115620003a757600081815260208120601f850160051c81016020861015620003825750805b601f850160051c820191505b81811015620003a3578281556001016200038e565b5050505b505050565b81516001600160401b03811115620003c857620003c8620001d8565b620003e081620003d984546200031d565b8462000359565b602080601f831160018114620004185760008415620003ff5750858301515b600019600386901b1c1916600185901b178555620003a3565b600085815260208120601f198616915b82811015620004495788860151825594840194600190910190840162000428565b5085821015620004685787850151600019600388901b60f8161c191681555b5050505050600190811b01905550565b6080516123796200049b60003960008181610332015261129201526123796000f3fe608060405234801561001057600080fd5b50600436106101375760003560e01c80636f1fdad6116100b8578063a81b2f8d1161007c578063a81b2f8d146102bf578063bd90fb4d146102d2578063efbe62e8146102e5578063f2fde38b146102f8578063f887ea401461030b578063fc2a88c31461031e57600080fd5b80636f1fdad61461023757806379ba509714610267578063846917671461026f5780638da5cb5b146102915780638dbe7b9d146102b657600080fd5b80633920a20b116100ff5780633920a20b146101cb5780634190a33b146101e857806367e828bf146101fb5780636a4373da146102105780636d9809a01461021857600080fd5b80630109c5d61461013c57806309c1ba2e1461016f5780630ca761751461019a5780631c15ff77146101af578063287a0b2e146101b8575b600080fd5b61015c61014a366004611ac5565b60016020526000908152604090205481565b6040519081526020015b60405180910390f35b600754610182906001600160401b031681565b6040516001600160401b039091168152602001610166565b6101ad6101a8366004611b80565b610327565b005b61015c600a5481565b61015c6101c6366004611c34565b6103ab565b600c546101d89060ff1681565b6040519015158152602001610166565b6101ad6101f6366004611c7f565b610794565b61020361086d565b6040516101669190611d48565b6102036108fb565b6102226201117081565b60405163ffffffff9091168152602001610166565b61025a610245366004611ac5565b60006020819052908152604090205460ff1681565b6040516101669190611d71565b6101ad610908565b61028261027d366004611ac5565b6109b6565b60405161016693929190611d99565b6003546001600160a01b03165b6040516001600160a01b039091168152602001610166565b61015c60065481565b6102036102cd366004611ac5565b610aed565b6102036102e0366004611ac5565b610c8a565b6101d86102f3366004611c34565b610dd1565b6101ad610306366004611dec565b610e43565b60055461029e906001600160a01b031681565b61015c60025481565b336001600160a01b037f000000000000000000000000000000000000000000000000000000000000000016146103705760405163c6829f8360e01b815260040160405180910390fd5b61037b838383610e57565b60405183907f85e1543bf2f84fe80c6badbce3648c8539ad1df4d2b3d822938ca0538be727e690600090a2505050565b6000838152600960209081526040808320815160608101909252805460ff16151582526001810180548594840191906103e390611e07565b80601f016020809104026020016040519081016040528092919081815260200182805461040f90611e07565b801561045c5780601f106104315761010080835404028352916020019161045c565b820191906000526020600020905b81548152906001019060200180831161043f57829003601f168201915b5050505050815260200160028201805461047590611e07565b80601f01602080910402602001604051908101604052809291908181526020018280546104a190611e07565b80156104ee5780601f106104c3576101008083540402835291602001916104ee565b820191906000526020600020905b8154815290600101906020018083116104d157829003601f168201915b505050505081525050905080600001516105235760405162461bcd60e51b815260040161051a90611e41565b60405180910390fd5b6000816020015161053387610ee8565b6040516bffffffffffffffffffffffff193360601b166020820152610573906034016040516020818303038152906040528051906020012060001c610ee8565b60405160200161058593929190611ea8565b60408051808303601f19018152600280845260608401909252925060009190816020015b60608152602001906001900390816105a957905050905081816000815181106105d4576105d4611ef8565b60200260200101819052508260400151816001815181106105f7576105f7611ef8565b60200260200101819052506106436040805160e0810190915280600081526020016000815260200160008152602001606081526020016060815260200160608152602001606081525090565b6106e06008805461065390611e07565b80601f016020809104026020016040519081016040528092919081815260200182805461067f90611e07565b80156106cc5780601f106106a1576101008083540402835291602001916106cc565b820191906000526020600020905b8154815290600101906020018083116106af57829003601f168201915b505050505082610f7a90919063ffffffff16565b6106ea8183610f8b565b60006107146106f883610fb5565b6007546006546001600160401b0390911690620111709061128d565b905061071f8161135f565b60008933604051602001610734929190611f0e565b60408051808303601f190181529181528151602092830120600085815260018085528382208390558282529381905291909120805460ff19169092179091559050600b6107818682611f7c565b5050600281905598975050505050505050565b604051806060016040528060011515815260200185858080601f016020809104026020016040519081016040528093929190818152602001838380828437600092019190915250505090825250604080516020601f86018190048102820181019092528481529181019190859085908190840183828082843760009201829052509390945250508781526009602090815260409091208351815460ff191690151517815590830151909150600182019061084e9082611f7c565b50604082015160028201906108639082611f7c565b5050505050505050565b6008805461087a90611e07565b80601f01602080910402602001604051908101604052809291908181526020018280546108a690611e07565b80156108f35780601f106108c8576101008083540402835291602001916108f3565b820191906000526020600020905b8154815290600101906020018083116108d657829003601f168201915b505050505081565b600b805461087a90611e07565b6004546001600160a01b0316331461095b5760405162461bcd60e51b815260206004820152601660248201527526bab9ba10313290383937b837b9b2b21037bbb732b960511b604482015260640161051a565b600380546001600160a01b0319808216339081179093556004805490911690556040516001600160a01b03909116919082907f8be0079c531659141344cd1fd0a4f28419497f9722a3daafe3b4186f6b6457e090600090a350565b6009602052600090815260409020805460018201805460ff90921692916109dc90611e07565b80601f0160208091040260200160405190810160405280929190818152602001828054610a0890611e07565b8015610a555780601f10610a2a57610100808354040283529160200191610a55565b820191906000526020600020905b815481529060010190602001808311610a3857829003601f168201915b505050505090806002018054610a6a90611e07565b80601f0160208091040260200160405190810160405280929190818152602001828054610a9690611e07565b8015610ae35780601f10610ab857610100808354040283529160200191610ae3565b820191906000526020600020905b815481529060010190602001808311610ac657829003601f168201915b5050505050905083565b600081815260096020908152604080832081516060818101909352815460ff1615158152600182018054939594919391840191610b2990611e07565b80601f0160208091040260200160405190810160405280929190818152602001828054610b5590611e07565b8015610ba25780601f10610b7757610100808354040283529160200191610ba2565b820191906000526020600020905b815481529060010190602001808311610b8557829003601f168201915b50505050508152602001600282018054610bbb90611e07565b80601f0160208091040260200160405190810160405280929190818152602001828054610be790611e07565b8015610c345780601f10610c0957610100808354040283529160200191610c34565b820191906000526020600020905b815481529060010190602001808311610c1757829003601f168201915b50505050508152505090508060000151610c605760405162461bcd60e51b815260040161051a90611e41565b602080820151604051610c73920161203b565b604051602081830303815290604052915050919050565b606060008233604051602001610ca1929190611f0e565b60408051601f19818403018152918152815160209283012060008181529283905291205490915060ff1660606001826003811115610ce157610ce1611d5b565b03610d10575060408051808201909152600d81526c282922ab20a624a220aa24a7a760991b6020820152610da7565b6002826003811115610d2457610d24611d5b565b03610d4d57506040805180820190915260078152665355434345535360c81b6020820152610da7565b6003826003811115610d6157610d61611d5b565b03610d8757506040805180820190915260048152631190525360e21b6020820152610da7565b506040805180820190915260078152664e4f535441544560c81b60208201525b80604051602001610db8919061207c565b6040516020818303038152906040529350505050919050565b600080610de0838501856120bc565b8051604051919250600091610df9918891602001611f0e565b60408051601f1981840301815291905280516020909101209050600260008281526020819052604090205460ff166003811115610e3857610e38611d5b565b149695505050505050565b610e4b6113a4565b610e54816113f9565b50565b6000610e628361213f565b600c805460ff19168215179055600a8054919250600191600090610e87908490612179565b90915550819050610ebc576000848152600160209081526040808320548352908290529020805460ff19166002179055610ee2565b6000848152600160209081526040808320548352908290529020805460ff191660031790555b50505050565b60606000610ef5836114a3565b60010190506000816001600160401b03811115610f1457610f14611ade565b6040519080825280601f01601f191660200182016040528015610f3e576020820181803683370190505b5090508181016020015b600019016f181899199a1a9b1b9c1cb0b131b232b360811b600a86061a8153600a8504945084610f4857509392505050565b610f87826000808461157c565b5050565b8051600003610fad5760405163fe936cb760e01b815260040160405180910390fd5b60a090910152565b60606000610fc46101006115fa565b9050610ffd6040518060400160405280600c81526020016b31b7b232a637b1b0ba34b7b760a11b8152508261161b90919063ffffffff16565b825161101b90600281111561101457611014611d5b565b8290611639565b6040805180820190915260088152676c616e677561676560c01b602082015261104590829061161b565b604083015161105c90801561101457611014611d5b565b604080518082019091526006815265736f7572636560d01b602082015261108490829061161b565b606083015161109490829061161b565b60a08301515115611128576040805180820190915260048152636172677360e01b60208201526110c590829061161b565b6110ce81611672565b60005b8360a001515181101561111e5761110e8460a0015182815181106110f7576110f7611ef8565b60200260200101518361161b90919063ffffffff16565b6111178161218c565b90506110d1565b5061112881611696565b608083015151156111ec5760008360200151600281111561114b5761114b611d5b565b036111695760405163a80d31f760e01b815260040160405180910390fd5b60408051808201909152600f81526e39b2b1b932ba39a637b1b0ba34b7b760891b602082015261119a90829061161b565b6111b38360200151600281111561101457611014611d5b565b6040805180820190915260078152667365637265747360c81b60208201526111dc90829061161b565b60808301516111ec9082906116b4565b60c083015151156112855760408051808201909152600981526862797465734172677360b81b602082015261122290829061161b565b61122b81611672565b60005b8360c001515181101561127b5761126b8460c00151828151811061125457611254611ef8565b6020026020010151836116b490919063ffffffff16565b6112748161218c565b905061122e565b5061128581611696565b515192915050565b6000807f00000000000000000000000000000000000000000000000000000000000000006001600160a01b031663461d27628688600188886040518663ffffffff1660e01b81526004016112e59594939291906121a5565b6020604051808303816000875af1158015611304573d6000803e3d6000fd5b505050506040513d601f19601f8201168201806040525081019061132891906121ee565b60405190915081907f1131472297a800fee664d1d89cfa8f7676ff07189ecc53f80bbb5f4969099db890600090a295945050505050565b610e548160405160240161137591815260200190565b60408051601f198184030181529190526020810180516001600160e01b031663f82c50f160e01b1790526116c1565b6003546001600160a01b031633146113f75760405162461bcd60e51b815260206004820152601660248201527527b7363c9031b0b63630b1363290313c9037bbb732b960511b604482015260640161051a565b565b336001600160a01b038216036114515760405162461bcd60e51b815260206004820152601760248201527f43616e6e6f74207472616e7366657220746f2073656c66000000000000000000604482015260640161051a565b600480546001600160a01b0319166001600160a01b03838116918217909255600354604051919216907fed8889f560326eb138920d842192f0eb3dd22b4f139c87a2c57538e05bae127890600090a350565b60008072184f03e93ff9f4daa797ed6e38ed64bf6a1f0160401b83106114e25772184f03e93ff9f4daa797ed6e38ed64bf6a1f0160401b830492506040015b6d04ee2d6d415b85acef8100000000831061150e576d04ee2d6d415b85acef8100000000830492506020015b662386f26fc10000831061152c57662386f26fc10000830492506010015b6305f5e1008310611544576305f5e100830492506008015b612710831061155857612710830492506004015b6064831061156a576064830492506002015b600a8310611576576001015b92915050565b805160000361159e576040516322ce3edd60e01b815260040160405180910390fd5b838360028111156115b1576115b1611d5b565b908160028111156115c4576115c4611d5b565b905250604084018280156115da576115da611d5b565b908180156115ea576115ea611d5b565b9052506060909301929092525050565b611602611a90565b805161160e90836116ca565b5060006020820152919050565b6116288260038351611741565b8151611634908261185a565b505050565b81516116469060c2611882565b50610f87828260405160200161165e91815260200190565b6040516020818303038152906040526116b4565b61167d8160046118eb565b6001816020018181516116909190612179565b90525050565b6116a18160076118eb565b6001816020018181516116909190612207565b6116288260028351611741565b610e5481611902565b6040805180820190915260608152600060208201526116ea60208361221a565b15611712576116fa60208361221a565b611705906020612207565b61170f9083612179565b91505b60208084018390526040518085526000815290818401018181101561173657600080fd5b604052509192915050565b6017816001600160401b031611611767578251610ee29060e0600585901b168317611882565b60ff816001600160401b0316116117a757825161178f906018611fe0600586901b1617611882565b508251610ee2906001600160401b0383166001611923565b61ffff816001600160401b0316116117e85782516117d0906019611fe0600586901b1617611882565b508251610ee2906001600160401b0383166002611923565b63ffffffff816001600160401b03161161182b57825161181390601a611fe0600586901b1617611882565b508251610ee2906001600160401b0383166004611923565b825161184290601b611fe0600586901b1617611882565b508251610ee2906001600160401b0383166008611923565b60408051808201909152606081526000602082015261187b838384516119a8565b9392505050565b60408051808201909152606081526000602082015282515160006118a7826001612179565b9050846020015182106118c8576118c8856118c383600261223c565b611a79565b84516020838201018581535080518211156118e1578181525b5093949350505050565b815161163490601f611fe0600585901b1617611882565b60006a636f6e736f6c652e6c6f679050600080835160208501845afa505050565b60408051808201909152606081526000602082015283515160006119478285612179565b9050856020015181111561196457611964866118c383600261223c565b6000600161197486610100612337565b61197e9190612207565b9050865182810187831982511617815250805183111561199c578281525b50959695505050505050565b60408051808201909152606081526000602082015282518211156119cb57600080fd5b83515160006119da8483612179565b905085602001518111156119f7576119f7866118c383600261223c565b855180518382016020019160009180851115611a11578482525b505050602086015b60208610611a515780518252611a30602083612179565b9150611a3d602082612179565b9050611a4a602087612207565b9550611a19565b51815160001960208890036101000a0190811690199190911617905250849150509392505050565b8151611a8583836116ca565b50610ee2838261185a565b6040518060400160405280611ab8604051806040016040528060608152602001600081525090565b8152602001600081525090565b600060208284031215611ad757600080fd5b5035919050565b634e487b7160e01b600052604160045260246000fd5b600082601f830112611b0557600080fd5b81356001600160401b0380821115611b1f57611b1f611ade565b604051601f8301601f19908116603f01168101908282118183101715611b4757611b47611ade565b81604052838152866020858801011115611b6057600080fd5b836020870160208301376000602085830101528094505050505092915050565b600080600060608486031215611b9557600080fd5b8335925060208401356001600160401b0380821115611bb357600080fd5b611bbf87838801611af4565b93506040860135915080821115611bd557600080fd5b50611be286828701611af4565b9150509250925092565b60008083601f840112611bfe57600080fd5b5081356001600160401b03811115611c1557600080fd5b602083019150836020828501011115611c2d57600080fd5b9250929050565b600080600060408486031215611c4957600080fd5b8335925060208401356001600160401b03811115611c6657600080fd5b611c7286828701611bec565b9497909650939450505050565b600080600080600060608688031215611c9757600080fd5b8535945060208601356001600160401b0380821115611cb557600080fd5b611cc189838a01611bec565b90965094506040880135915080821115611cda57600080fd5b50611ce788828901611bec565b969995985093965092949392505050565b60005b83811015611d13578181015183820152602001611cfb565b50506000910152565b60008151808452611d34816020860160208601611cf8565b601f01601f19169290920160200192915050565b60208152600061187b6020830184611d1c565b634e487b7160e01b600052602160045260246000fd5b6020810160048310611d9357634e487b7160e01b600052602160045260246000fd5b91905290565b8315158152606060208201526000611db46060830185611d1c565b8281036040840152611dc68185611d1c565b9695505050505050565b80356001600160a01b0381168114611de757600080fd5b919050565b600060208284031215611dfe57600080fd5b61187b82611dd0565b600181811c90821680611e1b57607f821691505b602082108103611e3b57634e487b7160e01b600052602260045260246000fd5b50919050565b60208082526041908201527f4572726f722e20496e76616c696420636f6e66696775726174696f6e2e204e6f60408201527f2041504920636f6e6669677572656420666f722076616c69646174696f6e49646060820152601760f91b608082015260a00190565b60008451611eba818460208901611cf8565b845190830190611ece818360208901611cf8565b602f60f81b91019081528351611eeb816001840160208801611cf8565b0160010195945050505050565b634e487b7160e01b600052603260045260246000fd5b91825260601b6bffffffffffffffffffffffff1916602082015260340190565b601f82111561163457600081815260208120601f850160051c81016020861015611f555750805b601f850160051c820191505b81811015611f7457828155600101611f61565b505050505050565b81516001600160401b03811115611f9557611f95611ade565b611fa981611fa38454611e07565b84611f2e565b602080601f831160018114611fde5760008415611fc65750858301515b600019600386901b1c1916600185901b178555611f74565b600085815260208120601f198616915b8281101561200d57888601518255948401946001909101908401611fee565b508582101561202b5787850151600019600388901b60f8161c191681555b5050505050600190811b01905550565b6b3d9130b834aab936111d101160a11b8152815160009061206381600c850160208701611cf8565b61227d60f01b600c939091019283015250600e01919050565b6a3d9139ba30ba32911d101160a91b815281516000906120a381600b850160208701611cf8565b61227d60f01b600b939091019283015250600d01919050565b600060208083850312156120cf57600080fd5b83601f8401126120de57600080fd5b6040518181018181106001600160401b03821117156120ff576120ff611ade565b604052808483018681111561211357600080fd5b855b818110156121335761212681611dd0565b8352918401918401612115565b50919695505050505050565b80516020808301519190811015611e3b5760001960209190910360031b1b16919050565b634e487b7160e01b600052601160045260246000fd5b8082018082111561157657611576612163565b60006001820161219e5761219e612163565b5060010190565b6001600160401b038616815260a0602082015260006121c760a0830187611d1c565b61ffff9590951660408301525063ffffffff92909216606083015260809091015292915050565b60006020828403121561220057600080fd5b5051919050565b8181038181111561157657611576612163565b60008261223757634e487b7160e01b600052601260045260246000fd5b500690565b808202811582820484141761157657611576612163565b600181815b8085111561228e57816000190482111561227457612274612163565b8085161561228157918102915b93841c9390800290612258565b509250929050565b6000826122a557506001611576565b816122b257506000611576565b81600181146122c857600281146122d2576122ee565b6001915050611576565b60ff8411156122e3576122e3612163565b50506001821b611576565b5060208310610133831016604e8410600b8410161715612311575081810a611576565b61231b8383612253565b806000190482111561232f5761232f612163565b029392505050565b600061187b838361229656fea26469706673582212209324685f6a9d9080670ce3f11f48aed4290bfc550482e5e3f6bd6962533c003b64736f6c63430008140033",
  "devdoc": {
    "kind": "dev",
    "methods": {
      "handleOracleFulfillment(bytes32,bytes,bytes)": {
        "details": "Either response or error parameter will be set, but never both.",
        "params": {
          "err": "Aggregated error either from the request's source code or from the execution pipeline.",
          "requestId": "The requestId returned by FunctionsClient.sendRequest().",
          "response": "Aggregated response from the request's source code."
        }
      }
    },
    "version": 1
  },
  "userdoc": {
    "kind": "user",
    "methods": {
      "acceptOwnership()": {
        "notice": "Allows an ownership transfer to be completed by the recipient."
      },
      "handleOracleFulfillment(bytes32,bytes,bytes)": {
        "notice": "Chainlink Functions response handler called by the Functions Router during fullilment from the designated transmitter node in an OCR round."
      },
      "owner()": {
        "notice": "Get the current owner"
      },
      "transferOwnership(address)": {
        "notice": "Allows an owner to begin transferring ownership to a new address."
      }
    },
    "version": 1
  },
  "storageLayout": {
    "storage": [
      {
        "astId": 4205,
        "contract": "contracts/Validator/Support/OffChainApiValidator.sol:OffChainApiValidator",
        "label": "claimState",
        "offset": 0,
        "slot": "0",
        "type": "t_mapping(t_bytes32,t_enum(ValidationState)3815)"
      },
      {
        "astId": 4209,
        "contract": "contracts/Validator/Support/OffChainApiValidator.sol:OffChainApiValidator",
        "label": "validationRequest",
        "offset": 0,
        "slot": "1",
        "type": "t_mapping(t_bytes32,t_bytes32)"
      },
      {
        "astId": 4211,
        "contract": "contracts/Validator/Support/OffChainApiValidator.sol:OffChainApiValidator",
        "label": "lastRequestId",
        "offset": 0,
        "slot": "2",
        "type": "t_bytes32"
      },
      {
        "astId": 816,
        "contract": "contracts/Validator/Support/OffChainApiValidator.sol:OffChainApiValidator",
        "label": "s_owner",
        "offset": 0,
        "slot": "3",
        "type": "t_address"
      },
      {
        "astId": 818,
        "contract": "contracts/Validator/Support/OffChainApiValidator.sol:OffChainApiValidator",
        "label": "s_pendingOwner",
        "offset": 0,
        "slot": "4",
        "type": "t_address"
      },
      {
        "astId": 3875,
        "contract": "contracts/Validator/Support/OffChainApiValidator.sol:OffChainApiValidator",
        "label": "router",
        "offset": 0,
        "slot": "5",
        "type": "t_address"
      },
      {
        "astId": 3877,
        "contract": "contracts/Validator/Support/OffChainApiValidator.sol:OffChainApiValidator",
        "label": "donId",
        "offset": 0,
        "slot": "6",
        "type": "t_bytes32"
      },
      {
        "astId": 3879,
        "contract": "contracts/Validator/Support/OffChainApiValidator.sol:OffChainApiValidator",
        "label": "subscriptionId",
        "offset": 0,
        "slot": "7",
        "type": "t_uint64"
      },
      {
        "astId": 3881,
        "contract": "contracts/Validator/Support/OffChainApiValidator.sol:OffChainApiValidator",
        "label": "source",
        "offset": 0,
        "slot": "8",
        "type": "t_string_storage"
      },
      {
        "astId": 3889,
        "contract": "contracts/Validator/Support/OffChainApiValidator.sol:OffChainApiValidator",
        "label": "config",
        "offset": 0,
        "slot": "9",
        "type": "t_mapping(t_uint256,t_struct(OffChainApiConfig)3851_storage)"
      },
      {
        "astId": 3891,
        "contract": "contracts/Validator/Support/OffChainApiValidator.sol:OffChainApiValidator",
        "label": "lastExecuted",
        "offset": 0,
        "slot": "10",
        "type": "t_uint256"
      },
      {
        "astId": 3893,
        "contract": "contracts/Validator/Support/OffChainApiValidator.sol:OffChainApiValidator",
        "label": "lastUrl",
        "offset": 0,
        "slot": "11",
        "type": "t_string_storage"
      },
      {
        "astId": 3895,
        "contract": "contracts/Validator/Support/OffChainApiValidator.sol:OffChainApiValidator",
        "label": "lastCompleted",
        "offset": 0,
        "slot": "12",
        "type": "t_bool"
      }
    ],
    "types": {
      "t_address": {
        "encoding": "inplace",
        "label": "address",
        "numberOfBytes": "20"
      },
      "t_bool": {
        "encoding": "inplace",
        "label": "bool",
        "numberOfBytes": "1"
      },
      "t_bytes32": {
        "encoding": "inplace",
        "label": "bytes32",
        "numberOfBytes": "32"
      },
      "t_enum(ValidationState)3815": {
        "encoding": "inplace",
        "label": "enum ITwoStepValidator.ValidationState",
        "numberOfBytes": "1"
      },
      "t_mapping(t_bytes32,t_bytes32)": {
        "encoding": "mapping",
        "key": "t_bytes32",
        "label": "mapping(bytes32 => bytes32)",
        "numberOfBytes": "32",
        "value": "t_bytes32"
      },
      "t_mapping(t_bytes32,t_enum(ValidationState)3815)": {
        "encoding": "mapping",
        "key": "t_bytes32",
        "label": "mapping(bytes32 => enum ITwoStepValidator.ValidationState)",
        "numberOfBytes": "32",
        "value": "t_enum(ValidationState)3815"
      },
      "t_mapping(t_uint256,t_struct(OffChainApiConfig)3851_storage)": {
        "encoding": "mapping",
        "key": "t_uint256",
        "label": "mapping(uint256 => struct OffChainApiConfig)",
        "numberOfBytes": "32",
        "value": "t_struct(OffChainApiConfig)3851_storage"
      },
      "t_string_storage": {
        "encoding": "bytes",
        "label": "string",
        "numberOfBytes": "32"
      },
      "t_struct(OffChainApiConfig)3851_storage": {
        "encoding": "inplace",
        "label": "struct OffChainApiConfig",
        "members": [
          {
            "astId": 3846,
            "contract": "contracts/Validator/Support/OffChainApiValidator.sol:OffChainApiValidator",
            "label": "exists",
            "offset": 0,
            "slot": "0",
            "type": "t_bool"
          },
          {
            "astId": 3848,
            "contract": "contracts/Validator/Support/OffChainApiValidator.sol:OffChainApiValidator",
            "label": "apiUrl",
            "offset": 0,
            "slot": "1",
            "type": "t_string_storage"
          },
          {
            "astId": 3850,
            "contract": "contracts/Validator/Support/OffChainApiValidator.sol:OffChainApiValidator",
            "label": "dataPath",
            "offset": 0,
            "slot": "2",
            "type": "t_string_storage"
          }
        ],
        "numberOfBytes": "96"
      },
      "t_uint256": {
        "encoding": "inplace",
        "label": "uint256",
        "numberOfBytes": "32"
      },
      "t_uint64": {
        "encoding": "inplace",
        "label": "uint64",
        "numberOfBytes": "8"
      }
    }
  }
}