{
  "address": "0xA368Faa5De2189A24691BF7d25CDBB95B68BDae4",
  "abi": [
    {
      "inputs": [
        {
          "internalType": "address",
          "name": "_router",
          "type": "address"
        },
        {
          "internalType": "bytes32",
          "name": "_donId",
          "type": "bytes32"
        },
        {
          "internalType": "string",
          "name": "_source",
          "type": "string"
        },
        {
          "internalType": "uint64",
          "name": "_subscriptionId",
          "type": "uint64"
        },
        {
          "internalType": "bytes32",
          "name": "_validatorUID",
          "type": "bytes32"
        }
      ],
      "stateMutability": "nonpayable",
      "type": "constructor"
    },
    {
      "inputs": [],
      "name": "EmptyArgs",
      "type": "error"
    },
    {
      "inputs": [],
      "name": "EmptySource",
      "type": "error"
    },
    {
      "inputs": [],
      "name": "NoInlineSecrets",
      "type": "error"
    },
    {
      "inputs": [],
      "name": "OnlyRouterCanFulfill",
      "type": "error"
    },
    {
      "inputs": [
        {
          "internalType": "bytes32",
          "name": "requestId",
          "type": "bytes32"
        }
      ],
      "name": "UnexpectedRequestID",
      "type": "error"
    },
    {
      "anonymous": false,
      "inputs": [
        {
          "indexed": false,
          "internalType": "uint256",
          "name": "validationId",
          "type": "uint256"
        },
        {
          "indexed": true,
          "internalType": "address",
          "name": "claimer",
          "type": "address"
        },
        {
          "indexed": true,
          "internalType": "bytes32",
          "name": "requestId",
          "type": "bytes32"
        }
      ],
      "name": "OffChainApiValidatorCalled",
      "type": "event"
    },
    {
      "anonymous": false,
      "inputs": [
        {
          "indexed": true,
          "internalType": "bytes32",
          "name": "requestId",
          "type": "bytes32"
        },
        {
          "indexed": false,
          "internalType": "bytes",
          "name": "errorData",
          "type": "bytes"
        }
      ],
      "name": "OffChainApiValidatorError",
      "type": "event"
    },
    {
      "anonymous": false,
      "inputs": [
        {
          "indexed": true,
          "internalType": "bytes32",
          "name": "requestId",
          "type": "bytes32"
        },
        {
          "indexed": false,
          "internalType": "bytes32",
          "name": "response",
          "type": "bytes32"
        }
      ],
      "name": "OffChainApiValidatorFulfilled",
      "type": "event"
    },
    {
      "anonymous": false,
      "inputs": [
        {
          "indexed": true,
          "internalType": "address",
          "name": "from",
          "type": "address"
        },
        {
          "indexed": true,
          "internalType": "address",
          "name": "to",
          "type": "address"
        }
      ],
      "name": "OwnershipTransferRequested",
      "type": "event"
    },
    {
      "anonymous": false,
      "inputs": [
        {
          "indexed": true,
          "internalType": "address",
          "name": "from",
          "type": "address"
        },
        {
          "indexed": true,
          "internalType": "address",
          "name": "to",
          "type": "address"
        }
      ],
      "name": "OwnershipTransferred",
      "type": "event"
    },
    {
      "anonymous": false,
      "inputs": [
        {
          "indexed": true,
          "internalType": "bytes32",
          "name": "id",
          "type": "bytes32"
        }
      ],
      "name": "RequestFulfilled",
      "type": "event"
    },
    {
      "anonymous": false,
      "inputs": [
        {
          "indexed": true,
          "internalType": "bytes32",
          "name": "id",
          "type": "bytes32"
        }
      ],
      "name": "RequestSent",
      "type": "event"
    },
    {
      "inputs": [],
      "name": "MAX_CALLBACK_GAS",
      "outputs": [
        {
          "internalType": "uint32",
          "name": "",
          "type": "uint32"
        }
      ],
      "stateMutability": "view",
      "type": "function"
    },
    {
      "inputs": [],
      "name": "acceptOwnership",
      "outputs": [],
      "stateMutability": "nonpayable",
      "type": "function"
    },
    {
      "inputs": [
        {
          "internalType": "bytes32",
          "name": "",
          "type": "bytes32"
        }
      ],
      "name": "claims",
      "outputs": [
        {
          "internalType": "uint256",
          "name": "validationId",
          "type": "uint256"
        },
        {
          "internalType": "address",
          "name": "claimer",
          "type": "address"
        },
        {
          "internalType": "enum ITwoStepValidator.ValidationState",
          "name": "state",
          "type": "uint8"
        }
      ],
      "stateMutability": "view",
      "type": "function"
    },
    {
      "inputs": [
        {
          "internalType": "uint256",
          "name": "",
          "type": "uint256"
        }
      ],
      "name": "config",
      "outputs": [
        {
          "internalType": "bool",
          "name": "exists",
          "type": "bool"
        },
        {
          "internalType": "string",
          "name": "apiUrl",
          "type": "string"
        },
        {
          "internalType": "string",
          "name": "dataPath",
          "type": "string"
        },
        {
          "internalType": "address",
          "name": "callback",
          "type": "address"
        }
      ],
      "stateMutability": "view",
      "type": "function"
    },
    {
      "inputs": [],
      "name": "donId",
      "outputs": [
        {
          "internalType": "bytes32",
          "name": "",
          "type": "bytes32"
        }
      ],
      "stateMutability": "view",
      "type": "function"
    },
    {
      "inputs": [
        {
          "internalType": "uint256",
          "name": "_validationId",
          "type": "uint256"
        }
      ],
      "name": "getConfig",
      "outputs": [
        {
          "internalType": "string",
          "name": "",
          "type": "string"
        }
      ],
      "stateMutability": "view",
      "type": "function"
    },
    {
      "inputs": [
        {
          "internalType": "uint256",
          "name": "validationId",
          "type": "uint256"
        }
      ],
      "name": "getValidationState",
      "outputs": [
        {
          "internalType": "string",
          "name": "",
          "type": "string"
        }
      ],
      "stateMutability": "view",
      "type": "function"
    },
    {
      "inputs": [
        {
          "internalType": "bytes32",
          "name": "requestId",
          "type": "bytes32"
        },
        {
          "internalType": "bytes",
          "name": "response",
          "type": "bytes"
        },
        {
          "internalType": "bytes",
          "name": "err",
          "type": "bytes"
        }
      ],
      "name": "handleOracleFulfillment",
      "outputs": [],
      "stateMutability": "nonpayable",
      "type": "function"
    },
    {
      "inputs": [],
      "name": "owner",
      "outputs": [
        {
          "internalType": "address",
          "name": "",
          "type": "address"
        }
      ],
      "stateMutability": "view",
      "type": "function"
    },
    {
      "inputs": [
        {
          "internalType": "uint256",
          "name": "_validationId",
          "type": "uint256"
        },
        {
          "internalType": "bytes",
          "name": "",
          "type": "bytes"
        }
      ],
      "name": "preValidation",
      "outputs": [
        {
          "internalType": "bytes32",
          "name": "",
          "type": "bytes32"
        }
      ],
      "stateMutability": "payable",
      "type": "function"
    },
    {
      "inputs": [],
      "name": "router",
      "outputs": [
        {
          "internalType": "address",
          "name": "",
          "type": "address"
        }
      ],
      "stateMutability": "view",
      "type": "function"
    },
    {
      "inputs": [
        {
          "internalType": "uint256",
          "name": "_validationId",
          "type": "uint256"
        },
        {
          "internalType": "string",
          "name": "_apiUrl",
          "type": "string"
        },
        {
          "internalType": "string",
          "name": "_dataPath",
          "type": "string"
        },
        {
          "internalType": "address",
          "name": "_callback",
          "type": "address"
        }
      ],
      "name": "setConfig",
      "outputs": [],
      "stateMutability": "nonpayable",
      "type": "function"
    },
    {
      "inputs": [
        {
          "internalType": "uint256",
          "name": "validationId",
          "type": "uint256"
        },
        {
          "internalType": "bytes",
          "name": "params",
          "type": "bytes"
        }
      ],
      "name": "setConfigFromParams",
      "outputs": [],
      "stateMutability": "nonpayable",
      "type": "function"
    },
    {
      "inputs": [],
      "name": "source",
      "outputs": [
        {
          "internalType": "string",
          "name": "",
          "type": "string"
        }
      ],
      "stateMutability": "view",
      "type": "function"
    },
    {
      "inputs": [],
      "name": "subscriptionId",
      "outputs": [
        {
          "internalType": "uint64",
          "name": "",
          "type": "uint64"
        }
      ],
      "stateMutability": "view",
      "type": "function"
    },
    {
      "inputs": [
        {
          "internalType": "address",
          "name": "to",
          "type": "address"
        }
      ],
      "name": "transferOwnership",
      "outputs": [],
      "stateMutability": "nonpayable",
      "type": "function"
    },
    {
      "inputs": [
        {
          "internalType": "uint256",
          "name": "validationId",
          "type": "uint256"
        },
        {
          "internalType": "bytes",
          "name": "params",
          "type": "bytes"
        }
      ],
      "name": "validate",
      "outputs": [
        {
          "internalType": "bool",
          "name": "",
          "type": "bool"
        }
      ],
      "stateMutability": "view",
      "type": "function"
    },
    {
      "inputs": [
        {
          "internalType": "bytes32",
          "name": "",
          "type": "bytes32"
        }
      ],
      "name": "validationRequest",
      "outputs": [
        {
          "internalType": "bytes32",
          "name": "",
          "type": "bytes32"
        }
      ],
      "stateMutability": "view",
      "type": "function"
    }
  ],
  "transactionHash": "0x3f5f415085f14a749f7b3e8d057d49e77a68beaf8ee0288cd77ddf632776802a",
  "args": [
    "0xf9B8fc078197181C841c296C876945aaa425B278",
    "0x66756e2d626173652d7365706f6c69612d310000000000000000000000000000",
    "const url=args[0];\nconst jsonPath=args[1];\nconst response=await Functions.makeHttpRequest({url:url,method:'GET',headers:{'Content-Type':'application/json'}});\nif(response.error)throw Error('Request failed :(.');\nlet result=response.data;\nfor(const p of jsonPath.split('.')){result=result[p];if(result===undefined)throw Error('Invalid path');}\nif(typeof result!=='boolean')throw Error('Not boolean');\nreturn Functions.encodeUint256(result?0:1);\n",
    297,
    "0x4f6666436861696e56616c696461746f72563200000000000000000000000000"
  ],
  "numDeployments": 1,
  "solcInputHash": "427be8a3b4ba5f216bf23dbbacd22201",
  "bytecode": "0x6007610120818152664e4f535441544560c81b6101405260a0908152600d6101609081526c282922ab20a624a220aa24a7a760991b6101805260c0526101a0918252665355434345535360c81b6101c05260e09190915261022060405260046101e0818152631190525360e21b6102005261010052620000829160029162000256565b503480156200009057600080fd5b5060405162002d5038038062002d50833981016040819052620000b39162000353565b6001600160a01b0385166080523380600081620001175760405162461bcd60e51b815260206004820152601860248201527f43616e6e6f7420736574206f776e657220746f207a65726f000000000000000060448201526064015b60405180910390fd5b600680546001600160a01b0319166001600160a01b03848116919091179091558116156200014a576200014a81620001aa565b5050600880546001600160a01b0319166001600160a01b038816179055506009849055600b6200017b8482620004fe565b50600a80546001600160401b0319166001600160401b039390931692909217909155600d5550620005ca915050565b336001600160a01b03821603620002045760405162461bcd60e51b815260206004820152601760248201527f43616e6e6f74207472616e7366657220746f2073656c6600000000000000000060448201526064016200010e565b600780546001600160a01b0319166001600160a01b03838116918217909255600654604051919216907fed8889f560326eb138920d842192f0eb3dd22b4f139c87a2c57538e05bae127890600090a350565b826004810192821562000294579160200282015b82811115620002945782518290620002839082620004fe565b50916020019190600101906200026a565b50620002a2929150620002a6565b5090565b80821115620002a2576000620002bd8282620002c7565b50600101620002a6565b508054620002d5906200046f565b6000825580601f10620002e6575050565b601f01602090049060005260206000209081019062000306919062000309565b50565b5b80821115620002a257600081556001016200030a565b634e487b7160e01b600052604160045260246000fd5b80516001600160401b03811681146200034e57600080fd5b919050565b600080600080600060a086880312156200036c57600080fd5b85516001600160a01b03811681146200038457600080fd5b60208781015160408901519297509550906001600160401b0380821115620003ab57600080fd5b818901915089601f830112620003c057600080fd5b815181811115620003d557620003d562000320565b604051601f8201601f19908116603f0116810190838211818310171562000400576200040062000320565b816040528281528c868487010111156200041957600080fd5b600093505b828410156200043d57848401860151818501870152928501926200041e565b60008684830101528098505050505050506200045c6060870162000336565b9150608086015190509295509295909350565b600181811c908216806200048457607f821691505b602082108103620004a557634e487b7160e01b600052602260045260246000fd5b50919050565b601f821115620004f957600081815260208120601f850160051c81016020861015620004d45750805b601f850160051c820191505b81811015620004f557828155600101620004e0565b5050505b505050565b81516001600160401b038111156200051a576200051a62000320565b62000532816200052b84546200046f565b84620004ab565b602080601f8311600181146200056a5760008415620005515750858301515b600019600386901b1c1916600185901b178555620004f5565b600085815260208120601f198616915b828110156200059b578886015182559484019460019091019084016200057a565b5085821015620005ba5787850151600019600388901b60f8161c191681555b5050505050600190811b01905550565b608051612763620005ed600039600081816103e901526114cb01526127636000f3fe6080604052600436106101095760003560e01c80638da5cb5b11610095578063bd90fb4d11610064578063bd90fb4d146102f6578063efbe62e814610316578063eff0f59214610346578063f2fde38b1461039e578063f887ea40146103be57600080fd5b80638da5cb5b1461026e5780638dbe7b9d146102a0578063991cd077146102b6578063a81b2f8d146102d657600080fd5b8063601dd6fc116100dc578063601dd6fc146101bb57806367e828bf146101db5780636d9809a0146101fd57806379ba509714610229578063846917671461023e57600080fd5b80630109c5d61461010e57806309c1ba2e1461014e5780630ca7617514610186578063287a0b2e146101a8575b600080fd5b34801561011a57600080fd5b5061013b610129366004611d8c565b60016020526000908152604090205481565b6040519081526020015b60405180910390f35b34801561015a57600080fd5b50600a5461016e906001600160401b031681565b6040516001600160401b039091168152602001610145565b34801561019257600080fd5b506101a66101a1366004611e47565b6103de565b005b61013b6101b6366004611efb565b610462565b3480156101c757600080fd5b506101a66101d6366004611efb565b610814565b3480156101e757600080fd5b506101f06108ce565b6040516101459190611f96565b34801561020957600080fd5b506102146201117081565b60405163ffffffff9091168152602001610145565b34801561023557600080fd5b506101a661095c565b34801561024a57600080fd5b5061025e610259366004611d8c565b610a0a565b6040516101459493929190611fa9565b34801561027a57600080fd5b506006546001600160a01b03165b6040516001600160a01b039091168152602001610145565b3480156102ac57600080fd5b5061013b60095481565b3480156102c257600080fd5b506101a66102d1366004612005565b610b50565b3480156102e257600080fd5b506101f06102f1366004611d8c565b610c13565b34801561030257600080fd5b506101f0610311366004611d8c565b610c71565b34801561032257600080fd5b50610336610331366004611efb565b610d9b565b6040519015158152602001610145565b34801561035257600080fd5b5061038f610361366004611d8c565b600060208190529081526040902080546001909101546001600160a01b03811690600160a01b900460ff1683565b604051610145939291906120a6565b3480156103aa57600080fd5b506101a66103b93660046120e8565b610e17565b3480156103ca57600080fd5b50600854610288906001600160a01b031681565b336001600160a01b037f000000000000000000000000000000000000000000000000000000000000000016146104275760405163c6829f8360e01b815260040160405180910390fd5b610432838383610e2b565b60405183907f85e1543bf2f84fe80c6badbce3648c8539ad1df4d2b3d822938ca0538be727e690600090a2505050565b6000838152600c60205260408120805460ff1661049a5760405162461bcd60e51b815260040161049190612105565b60405180910390fd5b6000816001016104a987611121565b6040516bffffffffffffffffffffffff193360601b1660208201526104e9906034016040516020818303038152906040528051906020012060001c611121565b6040516020016104fb93929190612219565b60408051808303601f19018152600280845260608401909252925060009190816020015b606081526020019060019003908161051f579050509050818160008151811061054a5761054a61225f565b60200260200101819052508260020180546105649061216c565b80601f01602080910402602001604051908101604052809291908181526020018280546105909061216c565b80156105dd5780601f106105b2576101008083540402835291602001916105dd565b820191906000526020600020905b8154815290600101906020018083116105c057829003601f168201915b5050505050816001815181106105f5576105f561225f565b60200260200101819052506106416040805160e0810190915280600081526020016000815260200160008152602001606081526020016060815260200160608152602001606081525090565b6106de600b80546106519061216c565b80601f016020809104026020016040519081016040528092919081815260200182805461067d9061216c565b80156106ca5780601f1061069f576101008083540402835291602001916106ca565b820191906000526020600020905b8154815290600101906020018083116106ad57829003601f168201915b5050505050826111b390919063ffffffff16565b6106e881836111c4565b60006107126106f6836111ee565b600a546009546001600160401b039091169062011170906114c6565b905061071d81611598565b60008933604051602001610732929190612275565b60408051808303601f190181528282528051602091820120600086815260018084528482208390556060860185528f865233848701908152868601828152848452948390529490912085518155935190840180546001600160a01b031981166001600160a01b039093169283178255935192965091926001600160a81b03191617600160a01b8360038111156107ca576107ca612090565b0217905550506040518b815283915033907e64ec39eae1c8008e0b94773c50d992fc41d3384df85a0468a31969e116366f9060200160405180910390a35098975050505050505050565b6000808061082484860186612295565b60408051608081018252600180825260208083018781528385018790526001600160a01b038616606085015260008e8152600c9092529390208251815460ff19169015151781559251959850939650919450909290918201906108879082612352565b506040820151600282019061089c9082612352565b5060609190910151600390910180546001600160a01b0319166001600160a01b03909216919091179055505050505050565b600b80546108db9061216c565b80601f01602080910402602001604051908101604052809291908181526020018280546109079061216c565b80156109545780601f1061092957610100808354040283529160200191610954565b820191906000526020600020905b81548152906001019060200180831161093757829003601f168201915b505050505081565b6007546001600160a01b031633146109af5760405162461bcd60e51b815260206004820152601660248201527526bab9ba10313290383937b837b9b2b21037bbb732b960511b6044820152606401610491565b600680546001600160a01b0319808216339081179093556007805490911690556040516001600160a01b03909116919082907f8be0079c531659141344cd1fd0a4f28419497f9722a3daafe3b4186f6b6457e090600090a350565b600c602052600090815260409020805460018201805460ff9092169291610a309061216c565b80601f0160208091040260200160405190810160405280929190818152602001828054610a5c9061216c565b8015610aa95780601f10610a7e57610100808354040283529160200191610aa9565b820191906000526020600020905b815481529060010190602001808311610a8c57829003601f168201915b505050505090806002018054610abe9061216c565b80601f0160208091040260200160405190810160405280929190818152602001828054610aea9061216c565b8015610b375780601f10610b0c57610100808354040283529160200191610b37565b820191906000526020600020905b815481529060010190602001808311610b1a57829003601f168201915b505050600390930154919250506001600160a01b031684565b604051806080016040528060011515815260200186868080601f016020809104026020016040519081016040528093929190818152602001838380828437600092019190915250505090825250604080516020601f87018190048102820181019092528581529181019190869086908190840183828082843760009201829052509385525050506001600160a01b038416602092830152888152600c8252604090208251815460ff19169015151781559082015160018201906108879082612352565b6000818152600c6020526040902080546060919060ff16610c465760405162461bcd60e51b815260040161049190612105565b80600101604051602001610c5a9190612411565b604051602081830303815290604052915050919050565b606060008233604051602001610c88929190612275565b60408051808303601f19018152918152815160209283012060008181529283905290822060010154909250600160a01b900460ff16906002826003811115610cd257610cd2612090565b60ff1660048110610ce557610ce561225f565b018054610cf19061216c565b80601f0160208091040260200160405190810160405280929190818152602001828054610d1d9061216c565b8015610d6a5780601f10610d3f57610100808354040283529160200191610d6a565b820191906000526020600020905b815481529060010190602001808311610d4d57829003601f168201915b5050505050905080604051602001610d829190612443565b6040516020818303038152906040529350505050919050565b600080610daa83850185612482565b8051604051919250600091610dc3918891602001612275565b60408051601f19818403018152919052805160209091012090506002600082815260208190526040902060010154600160a01b900460ff166003811115610e0c57610e0c612090565b149695505050505050565b610e1f6115dd565b610e2881611632565b50565b60008381526001602052604090205480610e7c5760405162461bcd60e51b8152602060048201526012602482015271125b9d985b1a59081c995c5d595cdd08125160721b6044820152606401610491565b600081815260208181526040918290208251808401909352601b83527f66756c66696c6c526571756573742076616c69646174696f6e496400000000009183019190915280549091610ecd916116dc565b610f046040518060400160405280601481526020017366756c66696c6c5265717565737420737461746560601b81525084516116dc565b825115610f8357847f1f66abdd6dce6c6ea68ad4f024bf70de981643dea380669614145cf23e5ecfa784604051610f3b9190611f96565b60405180910390a2610f696040518060400160405280600581526020016422b93937b960d91b815250611721565b60018101805460ff60a01b1916600360a01b17905561111a565b6000610f8e85612507565b9050857fe7fdb16cf22cdc0fefa5f08d1a634cd40e20ae9b28a8395a09697756bac66cc782604051610fc291815260200190565b60405180910390a2610ff36040518060400160405280600881526020016727379032b93937b960c11b815250611721565b806110dd57611020604051806040016040528060078152602001665355434345535360c81b815250611721565b60018201805460ff60a01b1916600160a11b17905581546000908152600c6020526040902060038101546001600160a01b0316156110d7576003810154600d548454600186015460405163347c106760e11b8152600481019390935260248301919091526001600160a01b0390811660448301529091169081906368f820ce90606401600060405180830381600087803b1580156110bd57600080fd5b505af11580156110d1573d6000803e3d6000fd5b50505050505b50611118565b611102604051806040016040528060048152602001631190525360e21b815250611721565b60018201805460ff60a01b1916600360a01b1790555b505b5050505050565b6060600061112e83611764565b60010190506000816001600160401b0381111561114d5761114d611da5565b6040519080825280601f01601f191660200182016040528015611177576020820181803683370190505b5090508181016020015b600019016f181899199a1a9b1b9c1cb0b131b232b360811b600a86061a8153600a850494508461118157509392505050565b6111c0826000808461183d565b5050565b80516000036111e65760405163fe936cb760e01b815260040160405180910390fd5b60a090910152565b606060006111fd6101006118bb565b90506112366040518060400160405280600c81526020016b31b7b232a637b1b0ba34b7b760a11b815250826118dc90919063ffffffff16565b825161125490600281111561124d5761124d612090565b82906118fa565b6040805180820190915260088152676c616e677561676560c01b602082015261127e9082906118dc565b604083015161129590801561124d5761124d612090565b604080518082019091526006815265736f7572636560d01b60208201526112bd9082906118dc565b60608301516112cd9082906118dc565b60a08301515115611361576040805180820190915260048152636172677360e01b60208201526112fe9082906118dc565b61130781611933565b60005b8360a0015151811015611357576113478460a0015182815181106113305761133061225f565b6020026020010151836118dc90919063ffffffff16565b61135081612541565b905061130a565b5061136181611957565b608083015151156114255760008360200151600281111561138457611384612090565b036113a25760405163a80d31f760e01b815260040160405180910390fd5b60408051808201909152600f81526e39b2b1b932ba39a637b1b0ba34b7b760891b60208201526113d39082906118dc565b6113ec8360200151600281111561124d5761124d612090565b6040805180820190915260078152667365637265747360c81b60208201526114159082906118dc565b6080830151611425908290611975565b60c083015151156114be5760408051808201909152600981526862797465734172677360b81b602082015261145b9082906118dc565b61146481611933565b60005b8360c00151518110156114b4576114a48460c00151828151811061148d5761148d61225f565b60200260200101518361197590919063ffffffff16565b6114ad81612541565b9050611467565b506114be81611957565b515192915050565b6000807f00000000000000000000000000000000000000000000000000000000000000006001600160a01b031663461d27628688600188886040518663ffffffff1660e01b815260040161151e95949392919061255a565b6020604051808303816000875af115801561153d573d6000803e3d6000fd5b505050506040513d601f19601f8201168201806040525081019061156191906125a3565b60405190915081907f1131472297a800fee664d1d89cfa8f7676ff07189ecc53f80bbb5f4969099db890600090a295945050505050565b610e28816040516024016115ae91815260200190565b60408051601f198184030181529190526020810180516001600160e01b031663f82c50f160e01b179052611982565b6006546001600160a01b031633146116305760405162461bcd60e51b815260206004820152601660248201527527b7363c9031b0b63630b1363290313c9037bbb732b960511b6044820152606401610491565b565b336001600160a01b0382160361168a5760405162461bcd60e51b815260206004820152601760248201527f43616e6e6f74207472616e7366657220746f2073656c660000000000000000006044820152606401610491565b600780546001600160a01b0319166001600160a01b03838116918217909255600654604051919216907fed8889f560326eb138920d842192f0eb3dd22b4f139c87a2c57538e05bae127890600090a350565b6111c082826040516024016116f29291906125bc565b60408051601f198184030181529190526020810180516001600160e01b0316632d839cb360e21b179052611982565b610e28816040516024016117359190611f96565b60408051601f198184030181529190526020810180516001600160e01b031663104c13eb60e21b179052611982565b60008072184f03e93ff9f4daa797ed6e38ed64bf6a1f0160401b83106117a35772184f03e93ff9f4daa797ed6e38ed64bf6a1f0160401b830492506040015b6d04ee2d6d415b85acef810000000083106117cf576d04ee2d6d415b85acef8100000000830492506020015b662386f26fc1000083106117ed57662386f26fc10000830492506010015b6305f5e1008310611805576305f5e100830492506008015b612710831061181957612710830492506004015b6064831061182b576064830492506002015b600a8310611837576001015b92915050565b805160000361185f576040516322ce3edd60e01b815260040160405180910390fd5b8383600281111561187257611872612090565b9081600281111561188557611885612090565b9052506040840182801561189b5761189b612090565b908180156118ab576118ab612090565b9052506060909301929092525050565b6118c3611d57565b80516118cf908361198b565b5060006020820152919050565b6118e98260038351611a02565b81516118f59082611b21565b505050565b81516119079060c2611b49565b506111c0828260405160200161191f91815260200190565b604051602081830303815290604052611975565b61193e816004611bb2565b60018160200181815161195191906125de565b90525050565b611962816007611bb2565b60018160200181815161195191906125f1565b6118e98260028351611a02565b610e2881611bc9565b6040805180820190915260608152600060208201526119ab602083612604565b156119d3576119bb602083612604565b6119c69060206125f1565b6119d090836125de565b91505b6020808401839052604051808552600081529081840101818110156119f757600080fd5b604052509192915050565b6017816001600160401b031611611a2e578251611a289060e0600585901b168317611b49565b50505050565b60ff816001600160401b031611611a6e578251611a56906018611fe0600586901b1617611b49565b508251611a28906001600160401b0383166001611bea565b61ffff816001600160401b031611611aaf578251611a97906019611fe0600586901b1617611b49565b508251611a28906001600160401b0383166002611bea565b63ffffffff816001600160401b031611611af2578251611ada90601a611fe0600586901b1617611b49565b508251611a28906001600160401b0383166004611bea565b8251611b0990601b611fe0600586901b1617611b49565b508251611a28906001600160401b0383166008611bea565b604080518082019091526060815260006020820152611b4283838451611c6f565b9392505050565b6040805180820190915260608152600060208201528251516000611b6e8260016125de565b905084602001518210611b8f57611b8f85611b8a836002612626565b611d40565b8451602083820101858153508051821115611ba8578181525b5093949350505050565b81516118f590601f611fe0600585901b1617611b49565b60006a636f6e736f6c652e6c6f679050600080835160208501845afa505050565b6040805180820190915260608152600060208201528351516000611c0e82856125de565b90508560200151811115611c2b57611c2b86611b8a836002612626565b60006001611c3b86610100612721565b611c4591906125f1565b90508651828101878319825116178152508051831115611c63578281525b50959695505050505050565b6040805180820190915260608152600060208201528251821115611c9257600080fd5b8351516000611ca184836125de565b90508560200151811115611cbe57611cbe86611b8a836002612626565b855180518382016020019160009180851115611cd8578482525b505050602086015b60208610611d185780518252611cf76020836125de565b9150611d046020826125de565b9050611d116020876125f1565b9550611ce0565b51815160001960208890036101000a0190811690199190911617905250849150509392505050565b8151611d4c838361198b565b50611a288382611b21565b6040518060400160405280611d7f604051806040016040528060608152602001600081525090565b8152602001600081525090565b600060208284031215611d9e57600080fd5b5035919050565b634e487b7160e01b600052604160045260246000fd5b600082601f830112611dcc57600080fd5b81356001600160401b0380821115611de657611de6611da5565b604051601f8301601f19908116603f01168101908282118183101715611e0e57611e0e611da5565b81604052838152866020858801011115611e2757600080fd5b836020870160208301376000602085830101528094505050505092915050565b600080600060608486031215611e5c57600080fd5b8335925060208401356001600160401b0380821115611e7a57600080fd5b611e8687838801611dbb565b93506040860135915080821115611e9c57600080fd5b50611ea986828701611dbb565b9150509250925092565b60008083601f840112611ec557600080fd5b5081356001600160401b03811115611edc57600080fd5b602083019150836020828501011115611ef457600080fd5b9250929050565b600080600060408486031215611f1057600080fd5b8335925060208401356001600160401b03811115611f2d57600080fd5b611f3986828701611eb3565b9497909650939450505050565b60005b83811015611f61578181015183820152602001611f49565b50506000910152565b60008151808452611f82816020860160208601611f46565b601f01601f19169290920160200192915050565b602081526000611b426020830184611f6a565b8415158152608060208201526000611fc46080830186611f6a565b8281036040840152611fd68186611f6a565b91505060018060a01b038316606083015295945050505050565b6001600160a01b0381168114610e2857600080fd5b6000806000806000806080878903121561201e57600080fd5b8635955060208701356001600160401b038082111561203c57600080fd5b6120488a838b01611eb3565b9097509550604089013591508082111561206157600080fd5b5061206e89828a01611eb3565b909450925050606087013561208281611ff0565b809150509295509295509295565b634e487b7160e01b600052602160045260246000fd5b8381526001600160a01b038316602082015260608101600483106120da57634e487b7160e01b600052602160045260246000fd5b826040830152949350505050565b6000602082840312156120fa57600080fd5b8135611b4281611ff0565b60208082526041908201527f4572726f722e20496e76616c696420636f6e66696775726174696f6e2e204e6f60408201527f2041504920636f6e6669677572656420666f722076616c69646174696f6e49646060820152601760f91b608082015260a00190565b600181811c9082168061218057607f821691505b6020821081036121a057634e487b7160e01b600052602260045260246000fd5b50919050565b600081546121b38161216c565b600182811680156121cb57600181146121e05761220f565b60ff198416875282151583028701945061220f565b8560005260208060002060005b858110156122065781548a8201529084019082016121ed565b50505082870194505b5050505092915050565b600061222582866121a6565b8451612235818360208901611f46565b602f60f81b91019081528351612252816001840160208801611f46565b0160010195945050505050565b634e487b7160e01b600052603260045260246000fd5b91825260601b6bffffffffffffffffffffffff1916602082015260340190565b6000806000606084860312156122aa57600080fd5b83356001600160401b03808211156122c157600080fd5b6122cd87838801611dbb565b945060208601359150808211156122e357600080fd5b506122f086828701611dbb565b925050604084013561230181611ff0565b809150509250925092565b601f8211156118f557600081815260208120601f850160051c810160208610156123335750805b601f850160051c820191505b818110156111185782815560010161233f565b81516001600160401b0381111561236b5761236b611da5565b61237f81612379845461216c565b8461230c565b602080601f8311600181146123b4576000841561239c5750858301515b600019600386901b1c1916600185901b178555611118565b600085815260208120601f198616915b828110156123e3578886015182559484019460019091019084016123c4565b50858210156124015787850151600019600388901b60f8161c191681555b5050505050600190811b01905550565b6a3d9130b834aab936111d1160a91b81526000612431600b8301846121a6565b61227d60f01b81526002019392505050565b693d9139ba30ba32911d1160b11b8152815160009061246981600a850160208701611f46565b61227d60f01b600a939091019283015250600c01919050565b6000602080838503121561249557600080fd5b83601f8401126124a457600080fd5b6040518181018181106001600160401b03821117156124c5576124c5611da5565b60405280848301868111156124d957600080fd5b855b818110156124fb5780356124ee81611ff0565b83529184019184016124db565b50919695505050505050565b805160208083015191908110156121a05760001960209190910360031b1b16919050565b634e487b7160e01b600052601160045260246000fd5b6000600182016125535761255361252b565b5060010190565b6001600160401b038616815260a06020820152600061257c60a0830187611f6a565b61ffff9590951660408301525063ffffffff92909216606083015260809091015292915050565b6000602082840312156125b557600080fd5b5051919050565b6040815260006125cf6040830185611f6a565b90508260208301529392505050565b808201808211156118375761183761252b565b818103818111156118375761183761252b565b60008261262157634e487b7160e01b600052601260045260246000fd5b500690565b80820281158282048414176118375761183761252b565b600181815b8085111561267857816000190482111561265e5761265e61252b565b8085161561266b57918102915b93841c9390800290612642565b509250929050565b60008261268f57506001611837565b8161269c57506000611837565b81600181146126b257600281146126bc576126d8565b6001915050611837565b60ff8411156126cd576126cd61252b565b50506001821b611837565b5060208310610133831016604e8410600b84101617156126fb575081810a611837565b612705838361263d565b80600019048211156127195761271961252b565b029392505050565b6000611b42838361268056fea2646970667358221220e11efb9cbe62d5f6ec780ab8ca79b3f852462cf544b6fd995c2f29ef03c3091d64736f6c63430008140033",
  "devdoc": {
    "kind": "dev",
    "methods": {
      "handleOracleFulfillment(bytes32,bytes,bytes)": {
        "details": "Either response or error parameter will be set, but never both.",
        "params": {
          "err": "Aggregated error either from the request's source code or from the execution pipeline.",
          "requestId": "The requestId returned by FunctionsClient.sendRequest().",
          "response": "Aggregated response from the request's source code."
        }
      }
    },
    "version": 1
  },
  "userdoc": {
    "kind": "user",
    "methods": {
      "acceptOwnership()": {
        "notice": "Allows an ownership transfer to be completed by the recipient."
      },
      "handleOracleFulfillment(bytes32,bytes,bytes)": {
        "notice": "Chainlink Functions response handler called by the Functions Router during fullilment from the designated transmitter node in an OCR round."
      },
      "owner()": {
        "notice": "Get the current owner"
      },
      "transferOwnership(address)": {
        "notice": "Allows an owner to begin transferring ownership to a new address."
      }
    },
    "version": 1
  },
  "storageLayout": {
    "storage": [
      {
        "astId": 17333,
        "contract": "contracts/Validator/Support/OffChainApiValidator.sol:OffChainApiValidator",
        "label": "claims",
        "offset": 0,
        "slot": "0",
        "type": "t_mapping(t_bytes32,t_struct(Claim)17328_storage)"
      },
      {
        "astId": 17337,
        "contract": "contracts/Validator/Support/OffChainApiValidator.sol:OffChainApiValidator",
        "label": "validationRequest",
        "offset": 0,
        "slot": "1",
        "type": "t_mapping(t_bytes32,t_bytes32)"
      },
      {
        "astId": 17346,
        "contract": "contracts/Validator/Support/OffChainApiValidator.sol:OffChainApiValidator",
        "label": "states",
        "offset": 0,
        "slot": "2",
        "type": "t_array(t_string_storage)4_storage"
      },
      {
        "astId": 2073,
        "contract": "contracts/Validator/Support/OffChainApiValidator.sol:OffChainApiValidator",
        "label": "s_owner",
        "offset": 0,
        "slot": "6",
        "type": "t_address"
      },
      {
        "astId": 2075,
        "contract": "contracts/Validator/Support/OffChainApiValidator.sol:OffChainApiValidator",
        "label": "s_pendingOwner",
        "offset": 0,
        "slot": "7",
        "type": "t_address"
      },
      {
        "astId": 15635,
        "contract": "contracts/Validator/Support/OffChainApiValidator.sol:OffChainApiValidator",
        "label": "router",
        "offset": 0,
        "slot": "8",
        "type": "t_address"
      },
      {
        "astId": 15637,
        "contract": "contracts/Validator/Support/OffChainApiValidator.sol:OffChainApiValidator",
        "label": "donId",
        "offset": 0,
        "slot": "9",
        "type": "t_bytes32"
      },
      {
        "astId": 15639,
        "contract": "contracts/Validator/Support/OffChainApiValidator.sol:OffChainApiValidator",
        "label": "subscriptionId",
        "offset": 0,
        "slot": "10",
        "type": "t_uint64"
      },
      {
        "astId": 15641,
        "contract": "contracts/Validator/Support/OffChainApiValidator.sol:OffChainApiValidator",
        "label": "source",
        "offset": 0,
        "slot": "11",
        "type": "t_string_storage"
      },
      {
        "astId": 15649,
        "contract": "contracts/Validator/Support/OffChainApiValidator.sol:OffChainApiValidator",
        "label": "config",
        "offset": 0,
        "slot": "12",
        "type": "t_mapping(t_uint256,t_struct(OffChainApiConfig)15619_storage)"
      },
      {
        "astId": 15651,
        "contract": "contracts/Validator/Support/OffChainApiValidator.sol:OffChainApiValidator",
        "label": "validatorUID",
        "offset": 0,
        "slot": "13",
        "type": "t_bytes32"
      }
    ],
    "types": {
      "t_address": {
        "encoding": "inplace",
        "label": "address",
        "numberOfBytes": "20"
      },
      "t_array(t_string_storage)4_storage": {
        "base": "t_string_storage",
        "encoding": "inplace",
        "label": "string[4]",
        "numberOfBytes": "128"
      },
      "t_bool": {
        "encoding": "inplace",
        "label": "bool",
        "numberOfBytes": "1"
      },
      "t_bytes32": {
        "encoding": "inplace",
        "label": "bytes32",
        "numberOfBytes": "32"
      },
      "t_enum(ValidationState)15580": {
        "encoding": "inplace",
        "label": "enum ITwoStepValidator.ValidationState",
        "numberOfBytes": "1"
      },
      "t_mapping(t_bytes32,t_bytes32)": {
        "encoding": "mapping",
        "key": "t_bytes32",
        "label": "mapping(bytes32 => bytes32)",
        "numberOfBytes": "32",
        "value": "t_bytes32"
      },
      "t_mapping(t_bytes32,t_struct(Claim)17328_storage)": {
        "encoding": "mapping",
        "key": "t_bytes32",
        "label": "mapping(bytes32 => struct TwoStepValidator.Claim)",
        "numberOfBytes": "32",
        "value": "t_struct(Claim)17328_storage"
      },
      "t_mapping(t_uint256,t_struct(OffChainApiConfig)15619_storage)": {
        "encoding": "mapping",
        "key": "t_uint256",
        "label": "mapping(uint256 => struct OffChainApiConfig)",
        "numberOfBytes": "32",
        "value": "t_struct(OffChainApiConfig)15619_storage"
      },
      "t_string_storage": {
        "encoding": "bytes",
        "label": "string",
        "numberOfBytes": "32"
      },
      "t_struct(Claim)17328_storage": {
        "encoding": "inplace",
        "label": "struct TwoStepValidator.Claim",
        "members": [
          {
            "astId": 17322,
            "contract": "contracts/Validator/Support/OffChainApiValidator.sol:OffChainApiValidator",
            "label": "validationId",
            "offset": 0,
            "slot": "0",
            "type": "t_uint256"
          },
          {
            "astId": 17324,
            "contract": "contracts/Validator/Support/OffChainApiValidator.sol:OffChainApiValidator",
            "label": "claimer",
            "offset": 0,
            "slot": "1",
            "type": "t_address"
          },
          {
            "astId": 17327,
            "contract": "contracts/Validator/Support/OffChainApiValidator.sol:OffChainApiValidator",
            "label": "state",
            "offset": 20,
            "slot": "1",
            "type": "t_enum(ValidationState)15580"
          }
        ],
        "numberOfBytes": "64"
      },
      "t_struct(OffChainApiConfig)15619_storage": {
        "encoding": "inplace",
        "label": "struct OffChainApiConfig",
        "members": [
          {
            "astId": 15612,
            "contract": "contracts/Validator/Support/OffChainApiValidator.sol:OffChainApiValidator",
            "label": "exists",
            "offset": 0,
            "slot": "0",
            "type": "t_bool"
          },
          {
            "astId": 15614,
            "contract": "contracts/Validator/Support/OffChainApiValidator.sol:OffChainApiValidator",
            "label": "apiUrl",
            "offset": 0,
            "slot": "1",
            "type": "t_string_storage"
          },
          {
            "astId": 15616,
            "contract": "contracts/Validator/Support/OffChainApiValidator.sol:OffChainApiValidator",
            "label": "dataPath",
            "offset": 0,
            "slot": "2",
            "type": "t_string_storage"
          },
          {
            "astId": 15618,
            "contract": "contracts/Validator/Support/OffChainApiValidator.sol:OffChainApiValidator",
            "label": "callback",
            "offset": 0,
            "slot": "3",
            "type": "t_address"
          }
        ],
        "numberOfBytes": "128"
      },
      "t_uint256": {
        "encoding": "inplace",
        "label": "uint256",
        "numberOfBytes": "32"
      },
      "t_uint64": {
        "encoding": "inplace",
        "label": "uint64",
        "numberOfBytes": "8"
      }
    }
  }
}