{
  "address": "0x7008dd0Af16DD0617bb52C56Fc5d8d99aE7Ed9c4",
  "abi": [
    {
      "inputs": [
        {
          "internalType": "address",
          "name": "_router",
          "type": "address"
        },
        {
          "internalType": "bytes32",
          "name": "_donId",
          "type": "bytes32"
        },
        {
          "internalType": "string",
          "name": "_source",
          "type": "string"
        },
        {
          "internalType": "uint64",
          "name": "_subscriptionId",
          "type": "uint64"
        },
        {
          "internalType": "bytes32",
          "name": "_validatorUID",
          "type": "bytes32"
        }
      ],
      "stateMutability": "nonpayable",
      "type": "constructor"
    },
    {
      "inputs": [],
      "name": "EmptyArgs",
      "type": "error"
    },
    {
      "inputs": [],
      "name": "EmptySource",
      "type": "error"
    },
    {
      "inputs": [],
      "name": "NoInlineSecrets",
      "type": "error"
    },
    {
      "inputs": [],
      "name": "OnlyRouterCanFulfill",
      "type": "error"
    },
    {
      "inputs": [
        {
          "internalType": "bytes32",
          "name": "requestId",
          "type": "bytes32"
        }
      ],
      "name": "UnexpectedRequestID",
      "type": "error"
    },
    {
      "anonymous": false,
      "inputs": [
        {
          "indexed": false,
          "internalType": "uint256",
          "name": "validationId",
          "type": "uint256"
        },
        {
          "indexed": true,
          "internalType": "address",
          "name": "claimer",
          "type": "address"
        },
        {
          "indexed": true,
          "internalType": "bytes32",
          "name": "requestId",
          "type": "bytes32"
        }
      ],
      "name": "OffChainApiValidatorCalled",
      "type": "event"
    },
    {
      "anonymous": false,
      "inputs": [
        {
          "indexed": true,
          "internalType": "bytes32",
          "name": "requestId",
          "type": "bytes32"
        },
        {
          "indexed": false,
          "internalType": "bytes",
          "name": "errorData",
          "type": "bytes"
        }
      ],
      "name": "OffChainApiValidatorError",
      "type": "event"
    },
    {
      "anonymous": false,
      "inputs": [
        {
          "indexed": true,
          "internalType": "bytes32",
          "name": "requestId",
          "type": "bytes32"
        },
        {
          "indexed": false,
          "internalType": "bytes32",
          "name": "response",
          "type": "bytes32"
        }
      ],
      "name": "OffChainApiValidatorFulfilled",
      "type": "event"
    },
    {
      "anonymous": false,
      "inputs": [
        {
          "indexed": true,
          "internalType": "address",
          "name": "from",
          "type": "address"
        },
        {
          "indexed": true,
          "internalType": "address",
          "name": "to",
          "type": "address"
        }
      ],
      "name": "OwnershipTransferRequested",
      "type": "event"
    },
    {
      "anonymous": false,
      "inputs": [
        {
          "indexed": true,
          "internalType": "address",
          "name": "from",
          "type": "address"
        },
        {
          "indexed": true,
          "internalType": "address",
          "name": "to",
          "type": "address"
        }
      ],
      "name": "OwnershipTransferred",
      "type": "event"
    },
    {
      "anonymous": false,
      "inputs": [
        {
          "indexed": true,
          "internalType": "bytes32",
          "name": "id",
          "type": "bytes32"
        }
      ],
      "name": "RequestFulfilled",
      "type": "event"
    },
    {
      "anonymous": false,
      "inputs": [
        {
          "indexed": true,
          "internalType": "bytes32",
          "name": "id",
          "type": "bytes32"
        }
      ],
      "name": "RequestSent",
      "type": "event"
    },
    {
      "inputs": [],
      "name": "MAX_CALLBACK_GAS",
      "outputs": [
        {
          "internalType": "uint32",
          "name": "",
          "type": "uint32"
        }
      ],
      "stateMutability": "view",
      "type": "function"
    },
    {
      "inputs": [],
      "name": "acceptOwnership",
      "outputs": [],
      "stateMutability": "nonpayable",
      "type": "function"
    },
    {
      "inputs": [
        {
          "internalType": "bytes32",
          "name": "",
          "type": "bytes32"
        }
      ],
      "name": "claims",
      "outputs": [
        {
          "internalType": "uint256",
          "name": "validationId",
          "type": "uint256"
        },
        {
          "internalType": "address",
          "name": "claimer",
          "type": "address"
        },
        {
          "internalType": "enum ITwoStepValidator.ValidationState",
          "name": "state",
          "type": "uint8"
        }
      ],
      "stateMutability": "view",
      "type": "function"
    },
    {
      "inputs": [
        {
          "internalType": "uint256",
          "name": "",
          "type": "uint256"
        }
      ],
      "name": "config",
      "outputs": [
        {
          "internalType": "bool",
          "name": "exists",
          "type": "bool"
        },
        {
          "internalType": "string",
          "name": "apiUrl",
          "type": "string"
        },
        {
          "internalType": "string",
          "name": "dataPath",
          "type": "string"
        },
        {
          "internalType": "address",
          "name": "callback",
          "type": "address"
        }
      ],
      "stateMutability": "view",
      "type": "function"
    },
    {
      "inputs": [],
      "name": "donId",
      "outputs": [
        {
          "internalType": "bytes32",
          "name": "",
          "type": "bytes32"
        }
      ],
      "stateMutability": "view",
      "type": "function"
    },
    {
      "inputs": [
        {
          "internalType": "uint256",
          "name": "_validationId",
          "type": "uint256"
        }
      ],
      "name": "getConfig",
      "outputs": [
        {
          "internalType": "string",
          "name": "",
          "type": "string"
        }
      ],
      "stateMutability": "view",
      "type": "function"
    },
    {
      "inputs": [
        {
          "internalType": "uint256",
          "name": "validationId",
          "type": "uint256"
        }
      ],
      "name": "getValidationState",
      "outputs": [
        {
          "internalType": "string",
          "name": "",
          "type": "string"
        }
      ],
      "stateMutability": "view",
      "type": "function"
    },
    {
      "inputs": [
        {
          "internalType": "bytes32",
          "name": "requestId",
          "type": "bytes32"
        },
        {
          "internalType": "bytes",
          "name": "response",
          "type": "bytes"
        },
        {
          "internalType": "bytes",
          "name": "err",
          "type": "bytes"
        }
      ],
      "name": "handleOracleFulfillment",
      "outputs": [],
      "stateMutability": "nonpayable",
      "type": "function"
    },
    {
      "inputs": [],
      "name": "owner",
      "outputs": [
        {
          "internalType": "address",
          "name": "",
          "type": "address"
        }
      ],
      "stateMutability": "view",
      "type": "function"
    },
    {
      "inputs": [
        {
          "internalType": "uint256",
          "name": "_validationId",
          "type": "uint256"
        },
        {
          "internalType": "bytes",
          "name": "",
          "type": "bytes"
        }
      ],
      "name": "preValidation",
      "outputs": [
        {
          "internalType": "bytes32",
          "name": "",
          "type": "bytes32"
        }
      ],
      "stateMutability": "nonpayable",
      "type": "function"
    },
    {
      "inputs": [],
      "name": "router",
      "outputs": [
        {
          "internalType": "address",
          "name": "",
          "type": "address"
        }
      ],
      "stateMutability": "view",
      "type": "function"
    },
    {
      "inputs": [
        {
          "internalType": "uint256",
          "name": "_validationId",
          "type": "uint256"
        },
        {
          "internalType": "string",
          "name": "_apiUrl",
          "type": "string"
        },
        {
          "internalType": "string",
          "name": "_dataPath",
          "type": "string"
        },
        {
          "internalType": "address",
          "name": "_callback",
          "type": "address"
        }
      ],
      "name": "setConfig",
      "outputs": [],
      "stateMutability": "nonpayable",
      "type": "function"
    },
    {
      "inputs": [
        {
          "internalType": "uint256",
          "name": "validationId",
          "type": "uint256"
        },
        {
          "internalType": "bytes",
          "name": "params",
          "type": "bytes"
        }
      ],
      "name": "setConfigFromParams",
      "outputs": [],
      "stateMutability": "nonpayable",
      "type": "function"
    },
    {
      "inputs": [],
      "name": "source",
      "outputs": [
        {
          "internalType": "string",
          "name": "",
          "type": "string"
        }
      ],
      "stateMutability": "view",
      "type": "function"
    },
    {
      "inputs": [],
      "name": "subscriptionId",
      "outputs": [
        {
          "internalType": "uint64",
          "name": "",
          "type": "uint64"
        }
      ],
      "stateMutability": "view",
      "type": "function"
    },
    {
      "inputs": [
        {
          "internalType": "address",
          "name": "to",
          "type": "address"
        }
      ],
      "name": "transferOwnership",
      "outputs": [],
      "stateMutability": "nonpayable",
      "type": "function"
    },
    {
      "inputs": [
        {
          "internalType": "uint256",
          "name": "validationId",
          "type": "uint256"
        },
        {
          "internalType": "bytes",
          "name": "params",
          "type": "bytes"
        }
      ],
      "name": "validate",
      "outputs": [
        {
          "internalType": "bool",
          "name": "",
          "type": "bool"
        }
      ],
      "stateMutability": "view",
      "type": "function"
    },
    {
      "inputs": [
        {
          "internalType": "bytes32",
          "name": "",
          "type": "bytes32"
        }
      ],
      "name": "validationRequest",
      "outputs": [
        {
          "internalType": "bytes32",
          "name": "",
          "type": "bytes32"
        }
      ],
      "stateMutability": "view",
      "type": "function"
    }
  ],
  "transactionHash": "0xc14959676b859624dee851958a1ad3b5936949a0b5a52d8a96e406748e2d64dd",
  "args": [
    "0xf9B8fc078197181C841c296C876945aaa425B278",
    "0x66756e2d626173652d7365706f6c69612d310000000000000000000000000000",
    "const url=args[0];\nconst jsonPath=args[1];\nconst response=await Functions.makeHttpRequest({url:url,method:'GET',headers:{'Content-Type':'application/json'}});\nif(response.error)throw Error('Request failed :(.');\nlet result=response.data;\nfor(const p of jsonPath.split('.')){result=result[p];if(result===undefined)throw Error('Invalid path');}\nif(typeof result!=='boolean')throw Error('Not boolean');\nreturn Functions.encodeUint256(result?0:1);\n",
    297,
    "0x4f6666436861696e56616c696461746f72563200000000000000000000000000"
  ],
  "numDeployments": 2,
  "solcInputHash": "6a7a04fc73320e906a291255894636d2",
  "bytecode": "0x6007610120818152664e4f535441544560c81b6101405260a0908152600d6101609081526c282922ab20a624a220aa24a7a760991b6101805260c0526101a0918252665355434345535360c81b6101c05260e09190915261022060405260046101e0818152631190525360e21b6102005261010052620000829160029162000256565b503480156200009057600080fd5b5060405162002c8038038062002c80833981016040819052620000b39162000353565b6001600160a01b0385166080523380600081620001175760405162461bcd60e51b815260206004820152601860248201527f43616e6e6f7420736574206f776e657220746f207a65726f000000000000000060448201526064015b60405180910390fd5b600680546001600160a01b0319166001600160a01b03848116919091179091558116156200014a576200014a81620001aa565b5050600880546001600160a01b0319166001600160a01b038816179055506009849055600b6200017b8482620004fe565b50600a80546001600160401b0319166001600160401b039390931692909217909155600d5550620005ca915050565b336001600160a01b03821603620002045760405162461bcd60e51b815260206004820152601760248201527f43616e6e6f74207472616e7366657220746f2073656c6600000000000000000060448201526064016200010e565b600780546001600160a01b0319166001600160a01b03838116918217909255600654604051919216907fed8889f560326eb138920d842192f0eb3dd22b4f139c87a2c57538e05bae127890600090a350565b826004810192821562000294579160200282015b82811115620002945782518290620002839082620004fe565b50916020019190600101906200026a565b50620002a2929150620002a6565b5090565b80821115620002a2576000620002bd8282620002c7565b50600101620002a6565b508054620002d5906200046f565b6000825580601f10620002e6575050565b601f01602090049060005260206000209081019062000306919062000309565b50565b5b80821115620002a257600081556001016200030a565b634e487b7160e01b600052604160045260246000fd5b80516001600160401b03811681146200034e57600080fd5b919050565b600080600080600060a086880312156200036c57600080fd5b85516001600160a01b03811681146200038457600080fd5b60208781015160408901519297509550906001600160401b0380821115620003ab57600080fd5b818901915089601f830112620003c057600080fd5b815181811115620003d557620003d562000320565b604051601f8201601f19908116603f0116810190838211818310171562000400576200040062000320565b816040528281528c868487010111156200041957600080fd5b600093505b828410156200043d57848401860151818501870152928501926200041e565b60008684830101528098505050505050506200045c6060870162000336565b9150608086015190509295509295909350565b600181811c908216806200048457607f821691505b602082108103620004a557634e487b7160e01b600052602260045260246000fd5b50919050565b601f821115620004f957600081815260208120601f850160051c81016020861015620004d45750805b601f850160051c820191505b81811015620004f557828155600101620004e0565b5050505b505050565b81516001600160401b038111156200051a576200051a62000320565b62000532816200052b84546200046f565b84620004ab565b602080601f8311600181146200056a5760008415620005515750858301515b600019600386901b1c1916600185901b178555620004f5565b600085815260208120601f198616915b828110156200059b578886015182559484019460019091019084016200057a565b5085821015620005ba5787850151600019600388901b60f8161c191681555b5050505050600190811b01905550565b608051612693620005ed6000396000818161031901526113fb01526126936000f3fe608060405234801561001057600080fd5b50600436106101165760003560e01c80638da5cb5b116100a2578063bd90fb4d11610071578063bd90fb4d14610267578063efbe62e81461027a578063eff0f5921461029d578063f2fde38b146102e8578063f887ea40146102fb57600080fd5b80638da5cb5b146102135780638dbe7b9d14610238578063991cd07714610241578063a81b2f8d1461025457600080fd5b8063601dd6fc116100e9578063601dd6fc146101a157806367e828bf146101b45780636d9809a0146101c957806379ba5097146101e857806384691767146101f057600080fd5b80630109c5d61461011b57806309c1ba2e1461014e5780630ca7617514610179578063287a0b2e1461018e575b600080fd5b61013b610129366004611cbc565b60016020526000908152604090205481565b6040519081526020015b60405180910390f35b600a54610161906001600160401b031681565b6040516001600160401b039091168152602001610145565b61018c610187366004611d77565b61030e565b005b61013b61019c366004611e2b565b610392565b61018c6101af366004611e2b565b610744565b6101bc6107fe565b6040516101459190611ec6565b6101d36201117081565b60405163ffffffff9091168152602001610145565b61018c61088c565b6102036101fe366004611cbc565b61093a565b6040516101459493929190611ed9565b6006546001600160a01b03165b6040516001600160a01b039091168152602001610145565b61013b60095481565b61018c61024f366004611f35565b610a80565b6101bc610262366004611cbc565b610b43565b6101bc610275366004611cbc565b610ba1565b61028d610288366004611e2b565b610ccb565b6040519015158152602001610145565b6102d96102ab366004611cbc565b600060208190529081526040902080546001909101546001600160a01b03811690600160a01b900460ff1683565b60405161014593929190611fd6565b61018c6102f6366004612018565b610d47565b600854610220906001600160a01b031681565b336001600160a01b037f000000000000000000000000000000000000000000000000000000000000000016146103575760405163c6829f8360e01b815260040160405180910390fd5b610362838383610d5b565b60405183907f85e1543bf2f84fe80c6badbce3648c8539ad1df4d2b3d822938ca0538be727e690600090a2505050565b6000838152600c60205260408120805460ff166103ca5760405162461bcd60e51b81526004016103c190612035565b60405180910390fd5b6000816001016103d987611051565b6040516bffffffffffffffffffffffff193360601b166020820152610419906034016040516020818303038152906040528051906020012060001c611051565b60405160200161042b93929190612149565b60408051808303601f19018152600280845260608401909252925060009190816020015b606081526020019060019003908161044f579050509050818160008151811061047a5761047a61218f565b60200260200101819052508260020180546104949061209c565b80601f01602080910402602001604051908101604052809291908181526020018280546104c09061209c565b801561050d5780601f106104e25761010080835404028352916020019161050d565b820191906000526020600020905b8154815290600101906020018083116104f057829003601f168201915b5050505050816001815181106105255761052561218f565b60200260200101819052506105716040805160e0810190915280600081526020016000815260200160008152602001606081526020016060815260200160608152602001606081525090565b61060e600b80546105819061209c565b80601f01602080910402602001604051908101604052809291908181526020018280546105ad9061209c565b80156105fa5780601f106105cf576101008083540402835291602001916105fa565b820191906000526020600020905b8154815290600101906020018083116105dd57829003601f168201915b5050505050826110e390919063ffffffff16565b61061881836110f4565b60006106426106268361111e565b600a546009546001600160401b039091169062011170906113f6565b905061064d816114c8565b600089336040516020016106629291906121a5565b60408051808303601f190181528282528051602091820120600086815260018084528482208390556060860185528f865233848701908152868601828152848452948390529490912085518155935190840180546001600160a01b031981166001600160a01b039093169283178255935192965091926001600160a81b03191617600160a01b8360038111156106fa576106fa611fc0565b0217905550506040518b815283915033907e64ec39eae1c8008e0b94773c50d992fc41d3384df85a0468a31969e116366f9060200160405180910390a35098975050505050505050565b60008080610754848601866121c5565b60408051608081018252600180825260208083018781528385018790526001600160a01b038616606085015260008e8152600c9092529390208251815460ff19169015151781559251959850939650919450909290918201906107b79082612282565b50604082015160028201906107cc9082612282565b5060609190910151600390910180546001600160a01b0319166001600160a01b03909216919091179055505050505050565b600b805461080b9061209c565b80601f01602080910402602001604051908101604052809291908181526020018280546108379061209c565b80156108845780601f1061085957610100808354040283529160200191610884565b820191906000526020600020905b81548152906001019060200180831161086757829003601f168201915b505050505081565b6007546001600160a01b031633146108df5760405162461bcd60e51b815260206004820152601660248201527526bab9ba10313290383937b837b9b2b21037bbb732b960511b60448201526064016103c1565b600680546001600160a01b0319808216339081179093556007805490911690556040516001600160a01b03909116919082907f8be0079c531659141344cd1fd0a4f28419497f9722a3daafe3b4186f6b6457e090600090a350565b600c602052600090815260409020805460018201805460ff90921692916109609061209c565b80601f016020809104026020016040519081016040528092919081815260200182805461098c9061209c565b80156109d95780601f106109ae576101008083540402835291602001916109d9565b820191906000526020600020905b8154815290600101906020018083116109bc57829003601f168201915b5050505050908060020180546109ee9061209c565b80601f0160208091040260200160405190810160405280929190818152602001828054610a1a9061209c565b8015610a675780601f10610a3c57610100808354040283529160200191610a67565b820191906000526020600020905b815481529060010190602001808311610a4a57829003601f168201915b505050600390930154919250506001600160a01b031684565b604051806080016040528060011515815260200186868080601f016020809104026020016040519081016040528093929190818152602001838380828437600092019190915250505090825250604080516020601f87018190048102820181019092528581529181019190869086908190840183828082843760009201829052509385525050506001600160a01b038416602092830152888152600c8252604090208251815460ff19169015151781559082015160018201906107b79082612282565b6000818152600c6020526040902080546060919060ff16610b765760405162461bcd60e51b81526004016103c190612035565b80600101604051602001610b8a9190612341565b604051602081830303815290604052915050919050565b606060008233604051602001610bb89291906121a5565b60408051808303601f19018152918152815160209283012060008181529283905290822060010154909250600160a01b900460ff16906002826003811115610c0257610c02611fc0565b60ff1660048110610c1557610c1561218f565b018054610c219061209c565b80601f0160208091040260200160405190810160405280929190818152602001828054610c4d9061209c565b8015610c9a5780601f10610c6f57610100808354040283529160200191610c9a565b820191906000526020600020905b815481529060010190602001808311610c7d57829003601f168201915b5050505050905080604051602001610cb29190612373565b6040516020818303038152906040529350505050919050565b600080610cda838501856123b2565b8051604051919250600091610cf39188916020016121a5565b60408051601f19818403018152919052805160209091012090506002600082815260208190526040902060010154600160a01b900460ff166003811115610d3c57610d3c611fc0565b149695505050505050565b610d4f61150d565b610d5881611562565b50565b60008381526001602052604090205480610dac5760405162461bcd60e51b8152602060048201526012602482015271125b9d985b1a59081c995c5d595cdd08125160721b60448201526064016103c1565b600081815260208181526040918290208251808401909352601b83527f66756c66696c6c526571756573742076616c69646174696f6e496400000000009183019190915280549091610dfd9161160c565b610e346040518060400160405280601481526020017366756c66696c6c5265717565737420737461746560601b815250845161160c565b825115610eb357847f1f66abdd6dce6c6ea68ad4f024bf70de981643dea380669614145cf23e5ecfa784604051610e6b9190611ec6565b60405180910390a2610e996040518060400160405280600581526020016422b93937b960d91b815250611651565b60018101805460ff60a01b1916600360a01b17905561104a565b6000610ebe85612437565b9050857fe7fdb16cf22cdc0fefa5f08d1a634cd40e20ae9b28a8395a09697756bac66cc782604051610ef291815260200190565b60405180910390a2610f236040518060400160405280600881526020016727379032b93937b960c11b815250611651565b8061100d57610f50604051806040016040528060078152602001665355434345535360c81b815250611651565b60018201805460ff60a01b1916600160a11b17905581546000908152600c6020526040902060038101546001600160a01b031615611007576003810154600d548454600186015460405163347c106760e11b8152600481019390935260248301919091526001600160a01b0390811660448301529091169081906368f820ce90606401600060405180830381600087803b158015610fed57600080fd5b505af1158015611001573d6000803e3d6000fd5b50505050505b50611048565b611032604051806040016040528060048152602001631190525360e21b815250611651565b60018201805460ff60a01b1916600360a01b1790555b505b5050505050565b6060600061105e83611694565b60010190506000816001600160401b0381111561107d5761107d611cd5565b6040519080825280601f01601f1916602001820160405280156110a7576020820181803683370190505b5090508181016020015b600019016f181899199a1a9b1b9c1cb0b131b232b360811b600a86061a8153600a85049450846110b157509392505050565b6110f0826000808461176d565b5050565b80516000036111165760405163fe936cb760e01b815260040160405180910390fd5b60a090910152565b6060600061112d6101006117eb565b90506111666040518060400160405280600c81526020016b31b7b232a637b1b0ba34b7b760a11b8152508261180c90919063ffffffff16565b825161118490600281111561117d5761117d611fc0565b829061182a565b6040805180820190915260088152676c616e677561676560c01b60208201526111ae90829061180c565b60408301516111c590801561117d5761117d611fc0565b604080518082019091526006815265736f7572636560d01b60208201526111ed90829061180c565b60608301516111fd90829061180c565b60a08301515115611291576040805180820190915260048152636172677360e01b602082015261122e90829061180c565b61123781611863565b60005b8360a0015151811015611287576112778460a0015182815181106112605761126061218f565b60200260200101518361180c90919063ffffffff16565b61128081612471565b905061123a565b5061129181611887565b60808301515115611355576000836020015160028111156112b4576112b4611fc0565b036112d25760405163a80d31f760e01b815260040160405180910390fd5b60408051808201909152600f81526e39b2b1b932ba39a637b1b0ba34b7b760891b602082015261130390829061180c565b61131c8360200151600281111561117d5761117d611fc0565b6040805180820190915260078152667365637265747360c81b602082015261134590829061180c565b60808301516113559082906118a5565b60c083015151156113ee5760408051808201909152600981526862797465734172677360b81b602082015261138b90829061180c565b61139481611863565b60005b8360c00151518110156113e4576113d48460c0015182815181106113bd576113bd61218f565b6020026020010151836118a590919063ffffffff16565b6113dd81612471565b9050611397565b506113ee81611887565b515192915050565b6000807f00000000000000000000000000000000000000000000000000000000000000006001600160a01b031663461d27628688600188886040518663ffffffff1660e01b815260040161144e95949392919061248a565b6020604051808303816000875af115801561146d573d6000803e3d6000fd5b505050506040513d601f19601f8201168201806040525081019061149191906124d3565b60405190915081907f1131472297a800fee664d1d89cfa8f7676ff07189ecc53f80bbb5f4969099db890600090a295945050505050565b610d58816040516024016114de91815260200190565b60408051601f198184030181529190526020810180516001600160e01b031663f82c50f160e01b1790526118b2565b6006546001600160a01b031633146115605760405162461bcd60e51b815260206004820152601660248201527527b7363c9031b0b63630b1363290313c9037bbb732b960511b60448201526064016103c1565b565b336001600160a01b038216036115ba5760405162461bcd60e51b815260206004820152601760248201527f43616e6e6f74207472616e7366657220746f2073656c6600000000000000000060448201526064016103c1565b600780546001600160a01b0319166001600160a01b03838116918217909255600654604051919216907fed8889f560326eb138920d842192f0eb3dd22b4f139c87a2c57538e05bae127890600090a350565b6110f082826040516024016116229291906124ec565b60408051601f198184030181529190526020810180516001600160e01b0316632d839cb360e21b1790526118b2565b610d58816040516024016116659190611ec6565b60408051601f198184030181529190526020810180516001600160e01b031663104c13eb60e21b1790526118b2565b60008072184f03e93ff9f4daa797ed6e38ed64bf6a1f0160401b83106116d35772184f03e93ff9f4daa797ed6e38ed64bf6a1f0160401b830492506040015b6d04ee2d6d415b85acef810000000083106116ff576d04ee2d6d415b85acef8100000000830492506020015b662386f26fc10000831061171d57662386f26fc10000830492506010015b6305f5e1008310611735576305f5e100830492506008015b612710831061174957612710830492506004015b6064831061175b576064830492506002015b600a8310611767576001015b92915050565b805160000361178f576040516322ce3edd60e01b815260040160405180910390fd5b838360028111156117a2576117a2611fc0565b908160028111156117b5576117b5611fc0565b905250604084018280156117cb576117cb611fc0565b908180156117db576117db611fc0565b9052506060909301929092525050565b6117f3611c87565b80516117ff90836118bb565b5060006020820152919050565b6118198260038351611932565b81516118259082611a51565b505050565b81516118379060c2611a79565b506110f0828260405160200161184f91815260200190565b6040516020818303038152906040526118a5565b61186e816004611ae2565b600181602001818151611881919061250e565b90525050565b611892816007611ae2565b6001816020018181516118819190612521565b6118198260028351611932565b610d5881611af9565b6040805180820190915260608152600060208201526118db602083612534565b15611903576118eb602083612534565b6118f6906020612521565b611900908361250e565b91505b60208084018390526040518085526000815290818401018181101561192757600080fd5b604052509192915050565b6017816001600160401b03161161195e5782516119589060e0600585901b168317611a79565b50505050565b60ff816001600160401b03161161199e578251611986906018611fe0600586901b1617611a79565b508251611958906001600160401b0383166001611b1a565b61ffff816001600160401b0316116119df5782516119c7906019611fe0600586901b1617611a79565b508251611958906001600160401b0383166002611b1a565b63ffffffff816001600160401b031611611a22578251611a0a90601a611fe0600586901b1617611a79565b508251611958906001600160401b0383166004611b1a565b8251611a3990601b611fe0600586901b1617611a79565b508251611958906001600160401b0383166008611b1a565b604080518082019091526060815260006020820152611a7283838451611b9f565b9392505050565b6040805180820190915260608152600060208201528251516000611a9e82600161250e565b905084602001518210611abf57611abf85611aba836002612556565b611c70565b8451602083820101858153508051821115611ad8578181525b5093949350505050565b815161182590601f611fe0600585901b1617611a79565b60006a636f6e736f6c652e6c6f679050600080835160208501845afa505050565b6040805180820190915260608152600060208201528351516000611b3e828561250e565b90508560200151811115611b5b57611b5b86611aba836002612556565b60006001611b6b86610100612651565b611b759190612521565b90508651828101878319825116178152508051831115611b93578281525b50959695505050505050565b6040805180820190915260608152600060208201528251821115611bc257600080fd5b8351516000611bd1848361250e565b90508560200151811115611bee57611bee86611aba836002612556565b855180518382016020019160009180851115611c08578482525b505050602086015b60208610611c485780518252611c2760208361250e565b9150611c3460208261250e565b9050611c41602087612521565b9550611c10565b51815160001960208890036101000a0190811690199190911617905250849150509392505050565b8151611c7c83836118bb565b506119588382611a51565b6040518060400160405280611caf604051806040016040528060608152602001600081525090565b8152602001600081525090565b600060208284031215611cce57600080fd5b5035919050565b634e487b7160e01b600052604160045260246000fd5b600082601f830112611cfc57600080fd5b81356001600160401b0380821115611d1657611d16611cd5565b604051601f8301601f19908116603f01168101908282118183101715611d3e57611d3e611cd5565b81604052838152866020858801011115611d5757600080fd5b836020870160208301376000602085830101528094505050505092915050565b600080600060608486031215611d8c57600080fd5b8335925060208401356001600160401b0380821115611daa57600080fd5b611db687838801611ceb565b93506040860135915080821115611dcc57600080fd5b50611dd986828701611ceb565b9150509250925092565b60008083601f840112611df557600080fd5b5081356001600160401b03811115611e0c57600080fd5b602083019150836020828501011115611e2457600080fd5b9250929050565b600080600060408486031215611e4057600080fd5b8335925060208401356001600160401b03811115611e5d57600080fd5b611e6986828701611de3565b9497909650939450505050565b60005b83811015611e91578181015183820152602001611e79565b50506000910152565b60008151808452611eb2816020860160208601611e76565b601f01601f19169290920160200192915050565b602081526000611a726020830184611e9a565b8415158152608060208201526000611ef46080830186611e9a565b8281036040840152611f068186611e9a565b91505060018060a01b038316606083015295945050505050565b6001600160a01b0381168114610d5857600080fd5b60008060008060008060808789031215611f4e57600080fd5b8635955060208701356001600160401b0380821115611f6c57600080fd5b611f788a838b01611de3565b90975095506040890135915080821115611f9157600080fd5b50611f9e89828a01611de3565b9094509250506060870135611fb281611f20565b809150509295509295509295565b634e487b7160e01b600052602160045260246000fd5b8381526001600160a01b0383166020820152606081016004831061200a57634e487b7160e01b600052602160045260246000fd5b826040830152949350505050565b60006020828403121561202a57600080fd5b8135611a7281611f20565b60208082526041908201527f4572726f722e20496e76616c696420636f6e66696775726174696f6e2e204e6f60408201527f2041504920636f6e6669677572656420666f722076616c69646174696f6e49646060820152601760f91b608082015260a00190565b600181811c908216806120b057607f821691505b6020821081036120d057634e487b7160e01b600052602260045260246000fd5b50919050565b600081546120e38161209c565b600182811680156120fb57600181146121105761213f565b60ff198416875282151583028701945061213f565b8560005260208060002060005b858110156121365781548a82015290840190820161211d565b50505082870194505b5050505092915050565b600061215582866120d6565b8451612165818360208901611e76565b602f60f81b91019081528351612182816001840160208801611e76565b0160010195945050505050565b634e487b7160e01b600052603260045260246000fd5b91825260601b6bffffffffffffffffffffffff1916602082015260340190565b6000806000606084860312156121da57600080fd5b83356001600160401b03808211156121f157600080fd5b6121fd87838801611ceb565b9450602086013591508082111561221357600080fd5b5061222086828701611ceb565b925050604084013561223181611f20565b809150509250925092565b601f82111561182557600081815260208120601f850160051c810160208610156122635750805b601f850160051c820191505b818110156110485782815560010161226f565b81516001600160401b0381111561229b5761229b611cd5565b6122af816122a9845461209c565b8461223c565b602080601f8311600181146122e457600084156122cc5750858301515b600019600386901b1c1916600185901b178555611048565b600085815260208120601f198616915b82811015612313578886015182559484019460019091019084016122f4565b50858210156123315787850151600019600388901b60f8161c191681555b5050505050600190811b01905550565b6a3d9130b834aab936111d1160a91b81526000612361600b8301846120d6565b61227d60f01b81526002019392505050565b693d9139ba30ba32911d1160b11b8152815160009061239981600a850160208701611e76565b61227d60f01b600a939091019283015250600c01919050565b600060208083850312156123c557600080fd5b83601f8401126123d457600080fd5b6040518181018181106001600160401b03821117156123f5576123f5611cd5565b604052808483018681111561240957600080fd5b855b8181101561242b57803561241e81611f20565b835291840191840161240b565b50919695505050505050565b805160208083015191908110156120d05760001960209190910360031b1b16919050565b634e487b7160e01b600052601160045260246000fd5b6000600182016124835761248361245b565b5060010190565b6001600160401b038616815260a0602082015260006124ac60a0830187611e9a565b61ffff9590951660408301525063ffffffff92909216606083015260809091015292915050565b6000602082840312156124e557600080fd5b5051919050565b6040815260006124ff6040830185611e9a565b90508260208301529392505050565b808201808211156117675761176761245b565b818103818111156117675761176761245b565b60008261255157634e487b7160e01b600052601260045260246000fd5b500690565b80820281158282048414176117675761176761245b565b600181815b808511156125a857816000190482111561258e5761258e61245b565b8085161561259b57918102915b93841c9390800290612572565b509250929050565b6000826125bf57506001611767565b816125cc57506000611767565b81600181146125e257600281146125ec57612608565b6001915050611767565b60ff8411156125fd576125fd61245b565b50506001821b611767565b5060208310610133831016604e8410600b841016171561262b575081810a611767565b612635838361256d565b80600019048211156126495761264961245b565b029392505050565b6000611a7283836125b056fea26469706673582212201a78f7ed6aa9086a3085001fbc0c2a3c1bff9ab763172079d09f6d453fccb84364736f6c63430008140033",
  "devdoc": {
    "kind": "dev",
    "methods": {
      "handleOracleFulfillment(bytes32,bytes,bytes)": {
        "details": "Either response or error parameter will be set, but never both.",
        "params": {
          "err": "Aggregated error either from the request's source code or from the execution pipeline.",
          "requestId": "The requestId returned by FunctionsClient.sendRequest().",
          "response": "Aggregated response from the request's source code."
        }
      }
    },
    "version": 1
  },
  "userdoc": {
    "kind": "user",
    "methods": {
      "acceptOwnership()": {
        "notice": "Allows an ownership transfer to be completed by the recipient."
      },
      "handleOracleFulfillment(bytes32,bytes,bytes)": {
        "notice": "Chainlink Functions response handler called by the Functions Router during fullilment from the designated transmitter node in an OCR round."
      },
      "owner()": {
        "notice": "Get the current owner"
      },
      "transferOwnership(address)": {
        "notice": "Allows an owner to begin transferring ownership to a new address."
      }
    },
    "version": 1
  },
  "storageLayout": {
    "storage": [
      {
        "astId": 11741,
        "contract": "contracts/Validator/Support/OffChainApiValidator.sol:OffChainApiValidator",
        "label": "claims",
        "offset": 0,
        "slot": "0",
        "type": "t_mapping(t_bytes32,t_struct(Claim)11736_storage)"
      },
      {
        "astId": 11745,
        "contract": "contracts/Validator/Support/OffChainApiValidator.sol:OffChainApiValidator",
        "label": "validationRequest",
        "offset": 0,
        "slot": "1",
        "type": "t_mapping(t_bytes32,t_bytes32)"
      },
      {
        "astId": 11754,
        "contract": "contracts/Validator/Support/OffChainApiValidator.sol:OffChainApiValidator",
        "label": "states",
        "offset": 0,
        "slot": "2",
        "type": "t_array(t_string_storage)4_storage"
      },
      {
        "astId": 1904,
        "contract": "contracts/Validator/Support/OffChainApiValidator.sol:OffChainApiValidator",
        "label": "s_owner",
        "offset": 0,
        "slot": "6",
        "type": "t_address"
      },
      {
        "astId": 1906,
        "contract": "contracts/Validator/Support/OffChainApiValidator.sol:OffChainApiValidator",
        "label": "s_pendingOwner",
        "offset": 0,
        "slot": "7",
        "type": "t_address"
      },
      {
        "astId": 10078,
        "contract": "contracts/Validator/Support/OffChainApiValidator.sol:OffChainApiValidator",
        "label": "router",
        "offset": 0,
        "slot": "8",
        "type": "t_address"
      },
      {
        "astId": 10080,
        "contract": "contracts/Validator/Support/OffChainApiValidator.sol:OffChainApiValidator",
        "label": "donId",
        "offset": 0,
        "slot": "9",
        "type": "t_bytes32"
      },
      {
        "astId": 10082,
        "contract": "contracts/Validator/Support/OffChainApiValidator.sol:OffChainApiValidator",
        "label": "subscriptionId",
        "offset": 0,
        "slot": "10",
        "type": "t_uint64"
      },
      {
        "astId": 10084,
        "contract": "contracts/Validator/Support/OffChainApiValidator.sol:OffChainApiValidator",
        "label": "source",
        "offset": 0,
        "slot": "11",
        "type": "t_string_storage"
      },
      {
        "astId": 10092,
        "contract": "contracts/Validator/Support/OffChainApiValidator.sol:OffChainApiValidator",
        "label": "config",
        "offset": 0,
        "slot": "12",
        "type": "t_mapping(t_uint256,t_struct(OffChainApiConfig)10062_storage)"
      },
      {
        "astId": 10094,
        "contract": "contracts/Validator/Support/OffChainApiValidator.sol:OffChainApiValidator",
        "label": "validatorUID",
        "offset": 0,
        "slot": "13",
        "type": "t_bytes32"
      }
    ],
    "types": {
      "t_address": {
        "encoding": "inplace",
        "label": "address",
        "numberOfBytes": "20"
      },
      "t_array(t_string_storage)4_storage": {
        "base": "t_string_storage",
        "encoding": "inplace",
        "label": "string[4]",
        "numberOfBytes": "128"
      },
      "t_bool": {
        "encoding": "inplace",
        "label": "bool",
        "numberOfBytes": "1"
      },
      "t_bytes32": {
        "encoding": "inplace",
        "label": "bytes32",
        "numberOfBytes": "32"
      },
      "t_enum(ValidationState)10023": {
        "encoding": "inplace",
        "label": "enum ITwoStepValidator.ValidationState",
        "numberOfBytes": "1"
      },
      "t_mapping(t_bytes32,t_bytes32)": {
        "encoding": "mapping",
        "key": "t_bytes32",
        "label": "mapping(bytes32 => bytes32)",
        "numberOfBytes": "32",
        "value": "t_bytes32"
      },
      "t_mapping(t_bytes32,t_struct(Claim)11736_storage)": {
        "encoding": "mapping",
        "key": "t_bytes32",
        "label": "mapping(bytes32 => struct TwoStepValidator.Claim)",
        "numberOfBytes": "32",
        "value": "t_struct(Claim)11736_storage"
      },
      "t_mapping(t_uint256,t_struct(OffChainApiConfig)10062_storage)": {
        "encoding": "mapping",
        "key": "t_uint256",
        "label": "mapping(uint256 => struct OffChainApiConfig)",
        "numberOfBytes": "32",
        "value": "t_struct(OffChainApiConfig)10062_storage"
      },
      "t_string_storage": {
        "encoding": "bytes",
        "label": "string",
        "numberOfBytes": "32"
      },
      "t_struct(Claim)11736_storage": {
        "encoding": "inplace",
        "label": "struct TwoStepValidator.Claim",
        "members": [
          {
            "astId": 11730,
            "contract": "contracts/Validator/Support/OffChainApiValidator.sol:OffChainApiValidator",
            "label": "validationId",
            "offset": 0,
            "slot": "0",
            "type": "t_uint256"
          },
          {
            "astId": 11732,
            "contract": "contracts/Validator/Support/OffChainApiValidator.sol:OffChainApiValidator",
            "label": "claimer",
            "offset": 0,
            "slot": "1",
            "type": "t_address"
          },
          {
            "astId": 11735,
            "contract": "contracts/Validator/Support/OffChainApiValidator.sol:OffChainApiValidator",
            "label": "state",
            "offset": 20,
            "slot": "1",
            "type": "t_enum(ValidationState)10023"
          }
        ],
        "numberOfBytes": "64"
      },
      "t_struct(OffChainApiConfig)10062_storage": {
        "encoding": "inplace",
        "label": "struct OffChainApiConfig",
        "members": [
          {
            "astId": 10055,
            "contract": "contracts/Validator/Support/OffChainApiValidator.sol:OffChainApiValidator",
            "label": "exists",
            "offset": 0,
            "slot": "0",
            "type": "t_bool"
          },
          {
            "astId": 10057,
            "contract": "contracts/Validator/Support/OffChainApiValidator.sol:OffChainApiValidator",
            "label": "apiUrl",
            "offset": 0,
            "slot": "1",
            "type": "t_string_storage"
          },
          {
            "astId": 10059,
            "contract": "contracts/Validator/Support/OffChainApiValidator.sol:OffChainApiValidator",
            "label": "dataPath",
            "offset": 0,
            "slot": "2",
            "type": "t_string_storage"
          },
          {
            "astId": 10061,
            "contract": "contracts/Validator/Support/OffChainApiValidator.sol:OffChainApiValidator",
            "label": "callback",
            "offset": 0,
            "slot": "3",
            "type": "t_address"
          }
        ],
        "numberOfBytes": "128"
      },
      "t_uint256": {
        "encoding": "inplace",
        "label": "uint256",
        "numberOfBytes": "32"
      },
      "t_uint64": {
        "encoding": "inplace",
        "label": "uint64",
        "numberOfBytes": "8"
      }
    }
  }
}