{
  "address": "0x7B6A13337F10Db4605a6445C4255bF7F7fe8DB23",
  "abi": [
    {
      "inputs": [
        {
          "internalType": "uint256",
          "name": "_membershipId",
          "type": "uint256"
        },
        {
          "internalType": "address",
          "name": "_customer",
          "type": "address"
        }
      ],
      "name": "addCustomer",
      "outputs": [],
      "stateMutability": "nonpayable",
      "type": "function"
    },
    {
      "inputs": [
        {
          "internalType": "uint256",
          "name": "_membershipId",
          "type": "uint256"
        },
        {
          "internalType": "address",
          "name": "_admin",
          "type": "address"
        }
      ],
      "name": "initialize",
      "outputs": [],
      "stateMutability": "nonpayable",
      "type": "function"
    },
    {
      "inputs": [
        {
          "internalType": "uint256",
          "name": "_membershipId",
          "type": "uint256"
        },
        {
          "internalType": "address",
          "name": "_customer",
          "type": "address"
        }
      ],
      "name": "isCustomer",
      "outputs": [
        {
          "internalType": "bool",
          "name": "",
          "type": "bool"
        }
      ],
      "stateMutability": "view",
      "type": "function"
    },
    {
      "inputs": [
        {
          "internalType": "uint256",
          "name": "_membershipId",
          "type": "uint256"
        }
      ],
      "name": "joinMembership",
      "outputs": [],
      "stateMutability": "nonpayable",
      "type": "function"
    },
    {
      "inputs": [
        {
          "internalType": "uint256",
          "name": "_membershipId",
          "type": "uint256"
        }
      ],
      "name": "leaveMembership",
      "outputs": [],
      "stateMutability": "nonpayable",
      "type": "function"
    },
    {
      "inputs": [
        {
          "internalType": "uint256",
          "name": "",
          "type": "uint256"
        }
      ],
      "name": "memberships",
      "outputs": [
        {
          "internalType": "address",
          "name": "admin",
          "type": "address"
        },
        {
          "internalType": "bool",
          "name": "exists",
          "type": "bool"
        }
      ],
      "stateMutability": "view",
      "type": "function"
    },
    {
      "inputs": [
        {
          "internalType": "uint256",
          "name": "_membershipId",
          "type": "uint256"
        },
        {
          "internalType": "address",
          "name": "_admin",
          "type": "address"
        }
      ],
      "name": "setAdmin",
      "outputs": [],
      "stateMutability": "nonpayable",
      "type": "function"
    }
  ],
  "transactionHash": "0x6453c2b8d781d649727998c9a49f2d7c207be6983f142e7db87f96573f01e870",
  "args": [],
  "numDeployments": 1,
  "solcInputHash": "31ca34f69de545882ca9564f4519173c",
  "bytecode": "0x608060405234801561001057600080fd5b5061072c806100206000396000f3fe608060405234801561001057600080fd5b506004361061007d5760003560e01c80635eefb04c1161005b5780635eefb04c14610116578063bf9038ec14610129578063da35a26f1461013c578063e759d6d01461018357600080fd5b8063142e8e251461008257806331f7745e14610097578063321621d7146100bf575b600080fd5b6100956100903660046105fc565b610196565b005b6100aa6100a53660046105fc565b61026a565b60405190151581526020015b60405180910390f35b6100f76100cd366004610638565b6000602081905290815260409020600201546001600160a01b03811690600160a01b900460ff1682565b604080516001600160a01b0390931683529015156020830152016100b6565b610095610124366004610638565b6102c9565b6100956101373660046105fc565b610499565b61009561014a3660046105fc565b60009182526020829052604090912060020180546001600160a01b039092166001600160a81b031990921691909117600160a01b179055565b610095610191366004610638565b610541565b60008281526020819052604090206002810154839190600160a01b900460ff166101db5760405162461bcd60e51b81526004016101d290610651565b60405180910390fd5b60028101546001600160a01b031633146102375760405162461bcd60e51b815260206004820152601c60248201527f4e6f74206d656d626572736869702061646d696e6973747261746f720000000060448201526064016101d2565b505060009182526020829052604090912060020180546001600160a01b0319166001600160a01b03909216919091179055565b60008281526020819052604081206002810154600160a01b900460ff166102a35760405162461bcd60e51b81526004016101d290610651565b6001600160a01b0383166000908152602091909152604090205460ff1690505b92915050565b60008181526020819052604090206002810154829190600160a01b900460ff166103055760405162461bcd60e51b81526004016101d290610651565b3360009081526020829052604090205460ff166103645760405162461bcd60e51b815260206004820152601760248201527f4e6f74206d656d6265727368697020637573746f6d657200000000000000000060448201526064016101d2565b600083815260208181526040808320338452918290528220805460ff191690559060018201905b815481101561049157336001600160a01b03168282815481106103b0576103b0610688565b6000918252602090912001546001600160a01b03160361047f57815482906103da906001906106b4565b815481106103ea576103ea610688565b9060005260206000200160009054906101000a90046001600160a01b031682828154811061041a5761041a610688565b9060005260206000200160006101000a8154816001600160a01b0302191690836001600160a01b0316021790555081805480610458576104586106c7565b600082815260209020810160001990810180546001600160a01b0319169055019055610491565b80610489816106dd565b91505061038b565b505050505050565b60008281526020819052604090206002810154839190600160a01b900460ff166104d55760405162461bcd60e51b81526004016101d290610651565b60028101546001600160a01b031633146105315760405162461bcd60e51b815260206004820152601c60248201527f4e6f74206d656d626572736869702061646d696e6973747261746f720000000060448201526064016101d2565b61053b8484610586565b50505050565b600081815260208190526040902060020154600160a01b900460ff166105795760405162461bcd60e51b81526004016101d290610651565b6105838133610586565b50565b6000828152602081815260408083206001600160a01b0385168452918290529091205460ff166105f7576001600160a01b0382166000818152602083815260408220805460ff1916600190811790915584810180549182018155835291200180546001600160a01b03191690911790555b505050565b6000806040838503121561060f57600080fd5b8235915060208301356001600160a01b038116811461062d57600080fd5b809150509250929050565b60006020828403121561064a57600080fd5b5035919050565b60208082526019908201527f4d656d6265727368697020646f6573206e6f7420657869737400000000000000604082015260600190565b634e487b7160e01b600052603260045260246000fd5b634e487b7160e01b600052601160045260246000fd5b818103818111156102c3576102c361069e565b634e487b7160e01b600052603160045260246000fd5b6000600182016106ef576106ef61069e565b506001019056fea2646970667358221220adac382774cc6d5c00e18efa5b4bd1acd0e2c2da64e4bca5c309722c11cd125f64736f6c63430008140033",
  "devdoc": {
    "kind": "dev",
    "methods": {},
    "version": 1
  },
  "userdoc": {
    "kind": "user",
    "methods": {
      "addCustomer(uint256,address)": {
        "notice": "Adds a customer to a membership. onlyAdmin checks membership exists"
      },
      "initialize(uint256,address)": {
        "notice": "Initialize a new membership."
      },
      "joinMembership(uint256)": {
        "notice": "Caller joins a membership"
      },
      "leaveMembership(uint256)": {
        "notice": "Calling address leaves a membership. onlyCustomer checks membership exists"
      },
      "setAdmin(uint256,address)": {
        "notice": "Set the membership administrator. onlyAdmin checks membership exists"
      }
    },
    "version": 1
  },
  "storageLayout": {
    "storage": [
      {
        "astId": 3349,
        "contract": "contracts/Customers/OnChainCustomerBase.sol:OnChainCustomerBase",
        "label": "memberships",
        "offset": 0,
        "slot": "0",
        "type": "t_mapping(t_uint256,t_struct(Membership)3344_storage)"
      }
    ],
    "types": {
      "t_address": {
        "encoding": "inplace",
        "label": "address",
        "numberOfBytes": "20"
      },
      "t_array(t_address)dyn_storage": {
        "base": "t_address",
        "encoding": "dynamic_array",
        "label": "address[]",
        "numberOfBytes": "32"
      },
      "t_bool": {
        "encoding": "inplace",
        "label": "bool",
        "numberOfBytes": "1"
      },
      "t_mapping(t_address,t_bool)": {
        "encoding": "mapping",
        "key": "t_address",
        "label": "mapping(address => bool)",
        "numberOfBytes": "32",
        "value": "t_bool"
      },
      "t_mapping(t_uint256,t_struct(Membership)3344_storage)": {
        "encoding": "mapping",
        "key": "t_uint256",
        "label": "mapping(uint256 => struct OnChainCustomerBase.Membership)",
        "numberOfBytes": "32",
        "value": "t_struct(Membership)3344_storage"
      },
      "t_struct(Membership)3344_storage": {
        "encoding": "inplace",
        "label": "struct OnChainCustomerBase.Membership",
        "members": [
          {
            "astId": 3336,
            "contract": "contracts/Customers/OnChainCustomerBase.sol:OnChainCustomerBase",
            "label": "customerExists",
            "offset": 0,
            "slot": "0",
            "type": "t_mapping(t_address,t_bool)"
          },
          {
            "astId": 3339,
            "contract": "contracts/Customers/OnChainCustomerBase.sol:OnChainCustomerBase",
            "label": "customers",
            "offset": 0,
            "slot": "1",
            "type": "t_array(t_address)dyn_storage"
          },
          {
            "astId": 3341,
            "contract": "contracts/Customers/OnChainCustomerBase.sol:OnChainCustomerBase",
            "label": "admin",
            "offset": 0,
            "slot": "2",
            "type": "t_address"
          },
          {
            "astId": 3343,
            "contract": "contracts/Customers/OnChainCustomerBase.sol:OnChainCustomerBase",
            "label": "exists",
            "offset": 20,
            "slot": "2",
            "type": "t_bool"
          }
        ],
        "numberOfBytes": "96"
      },
      "t_uint256": {
        "encoding": "inplace",
        "label": "uint256",
        "numberOfBytes": "32"
      }
    }
  }
}