{
  "address": "0xd5774d0F7128608Af3581Ed179aaB59626E612B2",
  "abi": [
    {
      "inputs": [
        {
          "internalType": "address",
          "name": "_groth16Addr",
          "type": "address"
        }
      ],
      "stateMutability": "nonpayable",
      "type": "constructor"
    },
    {
      "inputs": [
        {
          "internalType": "uint256",
          "name": "",
          "type": "uint256"
        }
      ],
      "name": "config",
      "outputs": [
        {
          "internalType": "uint256",
          "name": "",
          "type": "uint256"
        }
      ],
      "stateMutability": "view",
      "type": "function"
    },
    {
      "inputs": [],
      "name": "description",
      "outputs": [
        {
          "internalType": "string",
          "name": "",
          "type": "string"
        }
      ],
      "stateMutability": "view",
      "type": "function"
    },
    {
      "inputs": [
        {
          "internalType": "uint256",
          "name": "validationId",
          "type": "uint256"
        }
      ],
      "name": "getConfig",
      "outputs": [
        {
          "internalType": "string",
          "name": "",
          "type": "string"
        }
      ],
      "stateMutability": "view",
      "type": "function"
    },
    {
      "inputs": [],
      "name": "groth16Addr",
      "outputs": [
        {
          "internalType": "address",
          "name": "",
          "type": "address"
        }
      ],
      "stateMutability": "view",
      "type": "function"
    },
    {
      "inputs": [
        {
          "internalType": "uint256",
          "name": "validationId",
          "type": "uint256"
        },
        {
          "internalType": "uint256",
          "name": "publicHash",
          "type": "uint256"
        }
      ],
      "name": "setConfig",
      "outputs": [],
      "stateMutability": "nonpayable",
      "type": "function"
    },
    {
      "inputs": [
        {
          "internalType": "uint256",
          "name": "validationId",
          "type": "uint256"
        },
        {
          "internalType": "bytes",
          "name": "params",
          "type": "bytes"
        }
      ],
      "name": "validate",
      "outputs": [
        {
          "internalType": "bool",
          "name": "",
          "type": "bool"
        }
      ],
      "stateMutability": "view",
      "type": "function"
    }
  ],
  "transactionHash": "0x463e8fdb47eb0714a97cffd87c7c0661727757ab24b115ae0df2f0b5ab350e86",
  "args": [
    "0x8d21f7C297798673e00EC6D1F8C9DB1F85B14AA6"
  ],
  "numDeployments": 1,
  "solcInputHash": "105bc1b44b7c0353cc4b36f9e49e2962",
  "bytecode": "0x610100604052600e60c09081526d5a4b502076616c696461746f722160901b60e05260009061002e908261010f565b5034801561003b57600080fd5b50604051610a3c380380610a3c83398101604081905261005a916101ce565b6001600160a01b0316608081905260a0526101fe565b634e487b7160e01b600052604160045260246000fd5b600181811c9082168061009a57607f821691505b6020821081036100ba57634e487b7160e01b600052602260045260246000fd5b50919050565b601f82111561010a57600081815260208120601f850160051c810160208610156100e75750805b601f850160051c820191505b81811015610106578281556001016100f3565b5050505b505050565b81516001600160401b0381111561012857610128610070565b61013c816101368454610086565b846100c0565b602080601f83116001811461017157600084156101595750858301515b600019600386901b1c1916600185901b178555610106565b600085815260208120601f198616915b828110156101a057888601518255948401946001909101908401610181565b50858210156101be5787850151600019600388901b60f8161c191681555b5050505050600190811b01905550565b6000602082840312156101e057600080fd5b81516001600160a01b03811681146101f757600080fd5b9392505050565b60805160a05161081961022360003960006102630152600061011001526108196000f3fe608060405234801561001057600080fd5b50600436106100625760003560e01c80631e34c585146100675780637284e4161461008957806384691767146100a7578063a81b2f8d146100d5578063efbe62e8146100e8578063f4ca4ea41461010b575b600080fd5b610087610075366004610455565b60009182526001602052604090912055565b005b61009161014a565b60405161009e919061049b565b60405180910390f35b6100c76100b53660046104ce565b60016020526000908152604090205481565b60405190815260200161009e565b6100916100e33660046104ce565b6101d8565b6100fb6100f63660046104e7565b610219565b604051901515815260200161009e565b6101327f000000000000000000000000000000000000000000000000000000000000000081565b6040516001600160a01b03909116815260200161009e565b6000805461015790610563565b80601f016020809104026020016040519081016040528092919081815260200182805461018390610563565b80156101d05780601f106101a5576101008083540402835291602001916101d0565b820191906000526020600020905b8154815290600101906020018083116101b357829003601f168201915b505050505081565b6000818152600160205260409020546060906101f3906102e9565b604051602001610203919061059d565b6040516020818303038152906040529050919050565b600080808061022a85870187610680565b604080516020808201835260008d8152600190915282902054815290516343753b4d60e01b815293965091945092506001600160a01b037f000000000000000000000000000000000000000000000000000000000000000016916343753b4d9161029d9187918791879190600401610736565b602060405180830381865afa1580156102ba573d6000803e3d6000fd5b505050506040513d601f19601f820116820180604052508101906102de91906107ba565b979650505050505050565b606060006102f68361037c565b600101905060008167ffffffffffffffff811115610316576103166105e3565b6040519080825280601f01601f191660200182016040528015610340576020820181803683370190505b5090508181016020015b600019016f181899199a1a9b1b9c1cb0b131b232b360811b600a86061a8153600a850494508461034a57509392505050565b60008072184f03e93ff9f4daa797ed6e38ed64bf6a1f0160401b83106103bb5772184f03e93ff9f4daa797ed6e38ed64bf6a1f0160401b830492506040015b6d04ee2d6d415b85acef810000000083106103e7576d04ee2d6d415b85acef8100000000830492506020015b662386f26fc10000831061040557662386f26fc10000830492506010015b6305f5e100831061041d576305f5e100830492506008015b612710831061043157612710830492506004015b60648310610443576064830492506002015b600a831061044f576001015b92915050565b6000806040838503121561046857600080fd5b50508035926020909101359150565b60005b8381101561049257818101518382015260200161047a565b50506000910152565b60208152600082518060208401526104ba816040850160208701610477565b601f01601f19169190910160400192915050565b6000602082840312156104e057600080fd5b5035919050565b6000806000604084860312156104fc57600080fd5b83359250602084013567ffffffffffffffff8082111561051b57600080fd5b818601915086601f83011261052f57600080fd5b81358181111561053e57600080fd5b87602082850101111561055057600080fd5b6020830194508093505050509250925092565b600181811c9082168061057757607f821691505b60208210810361059757634e487b7160e01b600052602260045260246000fd5b50919050565b703d91383ab13634b1afb430b9b4111d101160791b815281516000906105ca816011850160208701610477565b61227d60f01b6011939091019283015250601301919050565b634e487b7160e01b600052604160045260246000fd5b6040805190810167ffffffffffffffff8111828210171561062a57634e487b7160e01b600052604160045260246000fd5b60405290565b600082601f83011261064157600080fd5b6106496105f9565b80604084018581111561065b57600080fd5b845b8181101561067557803584526020938401930161065d565b509095945050505050565b6000806000610100848603121561069657600080fd5b6106a08585610630565b9250604085605f8601126106b357600080fd5b6106bb6105f9565b8060c08701888111156106cd57600080fd5b8388015b818110156106f2576106e38a82610630565b845260209093019284016106d1565b508195506107008982610630565b9450505050509250925092565b8060005b6002811015610730578151845260209384019390910190600101610711565b50505050565b6101208101610745828761070d565b60408083018660005b60028110156107755761076283835161070d565b918301916020919091019060010161074e565b5050505061078660c083018561070d565b61010082018360005b60018110156107ae57815183526020928301929091019060010161078f565b50505095945050505050565b6000602082840312156107cc57600080fd5b815180151581146107dc57600080fd5b939250505056fea264697066735822122056b512f96c65fd84b0343aac44076f10ae3097d5d6dbd0071d2ce9cfa2ccb0ff64736f6c63430008140033",
  "devdoc": {
    "kind": "dev",
    "methods": {},
    "version": 1
  },
  "userdoc": {
    "kind": "user",
    "methods": {},
    "version": 1
  },
  "storageLayout": {
    "storage": [
      {
        "astId": 10774,
        "contract": "contracts/Validator/Support/OnChainValidator.sol:OnChainValidator",
        "label": "description",
        "offset": 0,
        "slot": "0",
        "type": "t_string_storage"
      },
      {
        "astId": 10783,
        "contract": "contracts/Validator/Support/OnChainValidator.sol:OnChainValidator",
        "label": "config",
        "offset": 0,
        "slot": "1",
        "type": "t_mapping(t_uint256,t_uint256)"
      }
    ],
    "types": {
      "t_mapping(t_uint256,t_uint256)": {
        "encoding": "mapping",
        "key": "t_uint256",
        "label": "mapping(uint256 => uint256)",
        "numberOfBytes": "32",
        "value": "t_uint256"
      },
      "t_string_storage": {
        "encoding": "bytes",
        "label": "string",
        "numberOfBytes": "32"
      },
      "t_uint256": {
        "encoding": "inplace",
        "label": "uint256",
        "numberOfBytes": "32"
      }
    }
  }
}