{
  "address": "0x1798742742a642E1F6e11bdf331B21Bc24B37C30",
  "abi": [
    {
      "inputs": [
        {
          "internalType": "address",
          "name": "_groth16Addr",
          "type": "address"
        }
      ],
      "stateMutability": "nonpayable",
      "type": "constructor"
    },
    {
      "inputs": [
        {
          "internalType": "uint256",
          "name": "",
          "type": "uint256"
        }
      ],
      "name": "config",
      "outputs": [
        {
          "internalType": "uint256",
          "name": "",
          "type": "uint256"
        }
      ],
      "stateMutability": "view",
      "type": "function"
    },
    {
      "inputs": [],
      "name": "description",
      "outputs": [
        {
          "internalType": "string",
          "name": "",
          "type": "string"
        }
      ],
      "stateMutability": "view",
      "type": "function"
    },
    {
      "inputs": [
        {
          "internalType": "uint256",
          "name": "validationId",
          "type": "uint256"
        }
      ],
      "name": "getConfig",
      "outputs": [
        {
          "internalType": "string",
          "name": "",
          "type": "string"
        }
      ],
      "stateMutability": "view",
      "type": "function"
    },
    {
      "inputs": [],
      "name": "groth16Addr",
      "outputs": [
        {
          "internalType": "address",
          "name": "",
          "type": "address"
        }
      ],
      "stateMutability": "view",
      "type": "function"
    },
    {
      "inputs": [
        {
          "internalType": "uint256",
          "name": "validationId",
          "type": "uint256"
        },
        {
          "internalType": "uint256",
          "name": "publicHash",
          "type": "uint256"
        }
      ],
      "name": "setConfig",
      "outputs": [],
      "stateMutability": "nonpayable",
      "type": "function"
    },
    {
      "inputs": [
        {
          "internalType": "uint256",
          "name": "validationId",
          "type": "uint256"
        },
        {
          "internalType": "bytes",
          "name": "params",
          "type": "bytes"
        }
      ],
      "name": "setConfigFromParams",
      "outputs": [],
      "stateMutability": "nonpayable",
      "type": "function"
    },
    {
      "inputs": [
        {
          "internalType": "uint256",
          "name": "validationId",
          "type": "uint256"
        },
        {
          "internalType": "bytes",
          "name": "params",
          "type": "bytes"
        }
      ],
      "name": "validate",
      "outputs": [
        {
          "internalType": "bool",
          "name": "",
          "type": "bool"
        }
      ],
      "stateMutability": "view",
      "type": "function"
    }
  ],
  "transactionHash": "0xedd75fca34671c5ca2d5f672f59a2bb2e9c611eae515934b058b2d779822f37c",
  "args": [
    "0x59eeE1BFDD449b8bAC6032B9D9A60D38cfc89475"
  ],
  "numDeployments": 2,
  "solcInputHash": "6a7a04fc73320e906a291255894636d2",
  "bytecode": "0x610100604052600e60c09081526d5a4b502076616c696461746f722160901b60e05260009061002e908261010f565b5034801561003b57600080fd5b50604051610a90380380610a9083398101604081905261005a916101ce565b6001600160a01b0316608081905260a0526101fe565b634e487b7160e01b600052604160045260246000fd5b600181811c9082168061009a57607f821691505b6020821081036100ba57634e487b7160e01b600052602260045260246000fd5b50919050565b601f82111561010a57600081815260208120601f850160051c810160208610156100e75750805b601f850160051c820191505b81811015610106578281556001016100f3565b5050505b505050565b81516001600160401b0381111561012857610128610070565b61013c816101368454610086565b846100c0565b602080601f83116001811461017157600084156101595750858301515b600019600386901b1c1916600185901b178555610106565b600085815260208120601f198616915b828110156101a057888601518255948401946001909101908401610181565b50858210156101be5787850151600019600388901b60f8161c191681555b5050505050600190811b01905550565b6000602082840312156101e057600080fd5b81516001600160a01b03811681146101f757600080fd5b9392505050565b60805160a05161086d61022360003960006102b70152600061013e015261086d6000f3fe608060405234801561001057600080fd5b506004361061007d5760003560e01c8063846917671161005b57806384691767146100d5578063a81b2f8d14610103578063efbe62e814610116578063f4ca4ea41461013957600080fd5b80631e34c58514610082578063601dd6fc146100a45780637284e416146100b7575b600080fd5b6100a26100903660046104a9565b60009182526001602052604090912055565b005b6100a26100b23660046104cb565b610178565b6100bf61019e565b6040516100cc919061056b565b60405180910390f35b6100f56100e336600461059e565b60016020526000908152604090205481565b6040519081526020016100cc565b6100bf61011136600461059e565b61022c565b6101296101243660046104cb565b61026d565b60405190151581526020016100cc565b6101607f000000000000000000000000000000000000000000000000000000000000000081565b6040516001600160a01b0390911681526020016100cc565b60006101868284018461059e565b60009485526001602052604090942093909355505050565b600080546101ab906105b7565b80601f01602080910402602001604051908101604052809291908181526020018280546101d7906105b7565b80156102245780601f106101f957610100808354040283529160200191610224565b820191906000526020600020905b81548152906001019060200180831161020757829003601f168201915b505050505081565b6000818152600160205260409020546060906102479061033d565b60405160200161025791906105f1565b6040516020818303038152906040529050919050565b600080808061027e858701876106d4565b604080516020808201835260008d8152600190915282902054815290516343753b4d60e01b815293965091945092506001600160a01b037f000000000000000000000000000000000000000000000000000000000000000016916343753b4d916102f1918791879187919060040161078a565b602060405180830381865afa15801561030e573d6000803e3d6000fd5b505050506040513d601f19601f82011682018060405250810190610332919061080e565b979650505050505050565b6060600061034a836103d0565b600101905060008167ffffffffffffffff81111561036a5761036a610637565b6040519080825280601f01601f191660200182016040528015610394576020820181803683370190505b5090508181016020015b600019016f181899199a1a9b1b9c1cb0b131b232b360811b600a86061a8153600a850494508461039e57509392505050565b60008072184f03e93ff9f4daa797ed6e38ed64bf6a1f0160401b831061040f5772184f03e93ff9f4daa797ed6e38ed64bf6a1f0160401b830492506040015b6d04ee2d6d415b85acef8100000000831061043b576d04ee2d6d415b85acef8100000000830492506020015b662386f26fc10000831061045957662386f26fc10000830492506010015b6305f5e1008310610471576305f5e100830492506008015b612710831061048557612710830492506004015b60648310610497576064830492506002015b600a83106104a3576001015b92915050565b600080604083850312156104bc57600080fd5b50508035926020909101359150565b6000806000604084860312156104e057600080fd5b83359250602084013567ffffffffffffffff808211156104ff57600080fd5b818601915086601f83011261051357600080fd5b81358181111561052257600080fd5b87602082850101111561053457600080fd5b6020830194508093505050509250925092565b60005b8381101561056257818101518382015260200161054a565b50506000910152565b602081526000825180602084015261058a816040850160208701610547565b601f01601f19169190910160400192915050565b6000602082840312156105b057600080fd5b5035919050565b600181811c908216806105cb57607f821691505b6020821081036105eb57634e487b7160e01b600052602260045260246000fd5b50919050565b703d91383ab13634b1afb430b9b4111d101160791b8152815160009061061e816011850160208701610547565b61227d60f01b6011939091019283015250601301919050565b634e487b7160e01b600052604160045260246000fd5b6040805190810167ffffffffffffffff8111828210171561067e57634e487b7160e01b600052604160045260246000fd5b60405290565b600082601f83011261069557600080fd5b61069d61064d565b8060408401858111156106af57600080fd5b845b818110156106c95780358452602093840193016106b1565b509095945050505050565b600080600061010084860312156106ea57600080fd5b6106f48585610684565b9250604085605f86011261070757600080fd5b61070f61064d565b8060c087018881111561072157600080fd5b8388015b81811015610746576107378a82610684565b84526020909301928401610725565b508195506107548982610684565b9450505050509250925092565b8060005b6002811015610784578151845260209384019390910190600101610765565b50505050565b61012081016107998287610761565b60408083018660005b60028110156107c9576107b6838351610761565b91830191602091909101906001016107a2565b505050506107da60c0830185610761565b61010082018360005b60018110156108025781518352602092830192909101906001016107e3565b50505095945050505050565b60006020828403121561082057600080fd5b8151801515811461083057600080fd5b939250505056fea2646970667358221220a910bb952dde7fe3809a2ebfac726ab5b8f646279f76cdc0c79da9b07b18467f64736f6c63430008140033",
  "devdoc": {
    "kind": "dev",
    "methods": {},
    "version": 1
  },
  "userdoc": {
    "kind": "user",
    "methods": {},
    "version": 1
  },
  "storageLayout": {
    "storage": [
      {
        "astId": 10898,
        "contract": "contracts/Validator/Support/OnChainValidator.sol:OnChainValidator",
        "label": "description",
        "offset": 0,
        "slot": "0",
        "type": "t_string_storage"
      },
      {
        "astId": 10907,
        "contract": "contracts/Validator/Support/OnChainValidator.sol:OnChainValidator",
        "label": "config",
        "offset": 0,
        "slot": "1",
        "type": "t_mapping(t_uint256,t_uint256)"
      }
    ],
    "types": {
      "t_mapping(t_uint256,t_uint256)": {
        "encoding": "mapping",
        "key": "t_uint256",
        "label": "mapping(uint256 => uint256)",
        "numberOfBytes": "32",
        "value": "t_uint256"
      },
      "t_string_storage": {
        "encoding": "bytes",
        "label": "string",
        "numberOfBytes": "32"
      },
      "t_uint256": {
        "encoding": "inplace",
        "label": "uint256",
        "numberOfBytes": "32"
      }
    }
  }
}