{
  "address": "0x44fbD88018fa0Ee4e45cCf1AD92eAFA4D695318F",
  "abi": [
    {
      "anonymous": false,
      "inputs": [
        {
          "indexed": true,
          "internalType": "uint256",
          "name": "orgId",
          "type": "uint256"
        },
        {
          "indexed": true,
          "internalType": "address",
          "name": "adminAddress",
          "type": "address"
        }
      ],
      "name": "OrganizationAdminAdded",
      "type": "event"
    },
    {
      "anonymous": false,
      "inputs": [
        {
          "indexed": true,
          "internalType": "uint256",
          "name": "orgId",
          "type": "uint256"
        },
        {
          "indexed": false,
          "internalType": "string",
          "name": "name",
          "type": "string"
        },
        {
          "indexed": false,
          "internalType": "address",
          "name": "token",
          "type": "address"
        },
        {
          "indexed": false,
          "internalType": "string",
          "name": "baseURI",
          "type": "string"
        }
      ],
      "name": "OrganizationCreated",
      "type": "event"
    },
    {
      "anonymous": false,
      "inputs": [
        {
          "indexed": true,
          "internalType": "uint256",
          "name": "orgId",
          "type": "uint256"
        },
        {
          "indexed": false,
          "internalType": "uint256",
          "name": "amount",
          "type": "uint256"
        }
      ],
      "name": "OrganizationFunded",
      "type": "event"
    },
    {
      "anonymous": false,
      "inputs": [
        {
          "indexed": true,
          "internalType": "uint256",
          "name": "orgId",
          "type": "uint256"
        },
        {
          "indexed": false,
          "internalType": "uint256",
          "name": "amount",
          "type": "uint256"
        }
      ],
      "name": "OrganizationTokenMint",
      "type": "event"
    },
    {
      "inputs": [
        {
          "internalType": "uint256",
          "name": "_orgId",
          "type": "uint256"
        },
        {
          "internalType": "address",
          "name": "_admin",
          "type": "address"
        }
      ],
      "name": "addAdmin",
      "outputs": [],
      "stateMutability": "nonpayable",
      "type": "function"
    },
    {
      "inputs": [
        {
          "internalType": "string",
          "name": "_name",
          "type": "string"
        },
        {
          "internalType": "string",
          "name": "_symbol",
          "type": "string"
        },
        {
          "internalType": "uint256",
          "name": "_initialSupply",
          "type": "uint256"
        },
        {
          "internalType": "uint256",
          "name": "_initialEthBacking",
          "type": "uint256"
        },
        {
          "internalType": "address[]",
          "name": "_admins",
          "type": "address[]"
        },
        {
          "internalType": "string",
          "name": "_baseURI",
          "type": "string"
        }
      ],
      "name": "createOrganization",
      "outputs": [
        {
          "internalType": "uint256",
          "name": "",
          "type": "uint256"
        }
      ],
      "stateMutability": "payable",
      "type": "function"
    },
    {
      "inputs": [
        {
          "internalType": "uint256",
          "name": "_orgId",
          "type": "uint256"
        }
      ],
      "name": "fundOrganization",
      "outputs": [],
      "stateMutability": "payable",
      "type": "function"
    },
    {
      "inputs": [
        {
          "internalType": "uint256",
          "name": "_orgId",
          "type": "uint256"
        }
      ],
      "name": "getBalanceOfOrg",
      "outputs": [
        {
          "internalType": "uint256",
          "name": "",
          "type": "uint256"
        }
      ],
      "stateMutability": "view",
      "type": "function"
    },
    {
      "inputs": [
        {
          "internalType": "uint256",
          "name": "_orgId",
          "type": "uint256"
        },
        {
          "internalType": "address",
          "name": "_user",
          "type": "address"
        }
      ],
      "name": "getBalanceOfUser",
      "outputs": [
        {
          "internalType": "uint256",
          "name": "",
          "type": "uint256"
        },
        {
          "internalType": "string",
          "name": "",
          "type": "string"
        }
      ],
      "stateMutability": "view",
      "type": "function"
    },
    {
      "inputs": [
        {
          "internalType": "uint256",
          "name": "_orgId",
          "type": "uint256"
        }
      ],
      "name": "getOrganizationDetails",
      "outputs": [
        {
          "internalType": "uint256",
          "name": "orgId",
          "type": "uint256"
        },
        {
          "internalType": "string",
          "name": "name",
          "type": "string"
        },
        {
          "internalType": "address",
          "name": "token",
          "type": "address"
        },
        {
          "internalType": "string",
          "name": "tokenSymbol",
          "type": "string"
        },
        {
          "internalType": "address[]",
          "name": "admins",
          "type": "address[]"
        },
        {
          "internalType": "bool",
          "name": "userIsAdmin",
          "type": "bool"
        },
        {
          "internalType": "string",
          "name": "baseURI",
          "type": "string"
        }
      ],
      "stateMutability": "view",
      "type": "function"
    },
    {
      "inputs": [
        {
          "internalType": "uint256",
          "name": "_orgId",
          "type": "uint256"
        }
      ],
      "name": "getTokenOfOrg",
      "outputs": [
        {
          "internalType": "address",
          "name": "",
          "type": "address"
        }
      ],
      "stateMutability": "view",
      "type": "function"
    },
    {
      "inputs": [
        {
          "internalType": "uint256",
          "name": "_orgId",
          "type": "uint256"
        },
        {
          "internalType": "address",
          "name": "_user",
          "type": "address"
        }
      ],
      "name": "isAdmin",
      "outputs": [
        {
          "internalType": "bool",
          "name": "",
          "type": "bool"
        }
      ],
      "stateMutability": "view",
      "type": "function"
    },
    {
      "inputs": [],
      "name": "listAdministratedOrganizations",
      "outputs": [
        {
          "internalType": "uint256[]",
          "name": "orgIds",
          "type": "uint256[]"
        },
        {
          "internalType": "string[]",
          "name": "names",
          "type": "string[]"
        },
        {
          "internalType": "string[]",
          "name": "tokenSymbols",
          "type": "string[]"
        },
        {
          "internalType": "address[]",
          "name": "tokenAddresses",
          "type": "address[]"
        },
        {
          "internalType": "uint256[]",
          "name": "adminCounts",
          "type": "uint256[]"
        }
      ],
      "stateMutability": "view",
      "type": "function"
    },
    {
      "inputs": [],
      "name": "listOrganizations",
      "outputs": [
        {
          "internalType": "uint256[]",
          "name": "",
          "type": "uint256[]"
        }
      ],
      "stateMutability": "view",
      "type": "function"
    },
    {
      "inputs": [],
      "name": "listOrganizationsWithDetails",
      "outputs": [
        {
          "internalType": "uint256[]",
          "name": "orgIds",
          "type": "uint256[]"
        },
        {
          "internalType": "string[]",
          "name": "names",
          "type": "string[]"
        },
        {
          "internalType": "string[]",
          "name": "tokenSymbols",
          "type": "string[]"
        },
        {
          "internalType": "address[]",
          "name": "tokenAddresses",
          "type": "address[]"
        },
        {
          "internalType": "uint256[]",
          "name": "adminCounts",
          "type": "uint256[]"
        }
      ],
      "stateMutability": "view",
      "type": "function"
    },
    {
      "inputs": [
        {
          "internalType": "uint256",
          "name": "_orgId",
          "type": "uint256"
        },
        {
          "internalType": "uint256",
          "name": "_amount",
          "type": "uint256"
        }
      ],
      "name": "mintOrganizationToken",
      "outputs": [],
      "stateMutability": "nonpayable",
      "type": "function"
    },
    {
      "inputs": [],
      "name": "orgCount",
      "outputs": [
        {
          "internalType": "uint256",
          "name": "",
          "type": "uint256"
        }
      ],
      "stateMutability": "view",
      "type": "function"
    },
    {
      "inputs": [
        {
          "internalType": "string",
          "name": "",
          "type": "string"
        }
      ],
      "name": "orgNameExists",
      "outputs": [
        {
          "internalType": "bool",
          "name": "",
          "type": "bool"
        }
      ],
      "stateMutability": "view",
      "type": "function"
    },
    {
      "inputs": [
        {
          "internalType": "uint256",
          "name": "",
          "type": "uint256"
        }
      ],
      "name": "organizationIds",
      "outputs": [
        {
          "internalType": "uint256",
          "name": "",
          "type": "uint256"
        }
      ],
      "stateMutability": "view",
      "type": "function"
    },
    {
      "inputs": [
        {
          "internalType": "uint256",
          "name": "",
          "type": "uint256"
        }
      ],
      "name": "organizations",
      "outputs": [
        {
          "internalType": "uint256",
          "name": "id",
          "type": "uint256"
        },
        {
          "internalType": "string",
          "name": "name",
          "type": "string"
        },
        {
          "internalType": "address",
          "name": "token",
          "type": "address"
        },
        {
          "internalType": "string",
          "name": "baseURI",
          "type": "string"
        },
        {
          "internalType": "bool",
          "name": "exists",
          "type": "bool"
        }
      ],
      "stateMutability": "view",
      "type": "function"
    },
    {
      "inputs": [
        {
          "internalType": "string",
          "name": "",
          "type": "string"
        }
      ],
      "name": "tokenSymbolExists",
      "outputs": [
        {
          "internalType": "bool",
          "name": "",
          "type": "bool"
        }
      ],
      "stateMutability": "view",
      "type": "function"
    },
    {
      "inputs": [
        {
          "internalType": "uint256",
          "name": "_orgId",
          "type": "uint256"
        },
        {
          "internalType": "address",
          "name": "_destAddress",
          "type": "address"
        },
        {
          "internalType": "uint256",
          "name": "_amount",
          "type": "uint256"
        }
      ],
      "name": "transferTokensTo",
      "outputs": [],
      "stateMutability": "nonpayable",
      "type": "function"
    }
  ],
  "transactionHash": "0x6aa35f8ec6567b9a1633abc32e87384394666ab2c0f1ce1a50cdc4d043edffd8",
  "args": [],
  "numDeployments": 2,
  "solcInputHash": "d9392d1df9407e1acd45ca5ff3d8e6e1",
  "bytecode": "0x608060405234801561001057600080fd5b50613be7806100206000396000f3fe6080604052600436106200011f5760003560e01c806379bb57b411620000a1578063b163044f116200006c578063b163044f1462000371578063d810669014620003a6578063dbdc814b14620003be578063e792dd8a14620003e3578063f14fb3d2146200041b57600080fd5b806379bb57b414620002e35780637b21dad2146200031d578063a7b02ae41462000335578063b12e5f6e146200035a57600080fd5b80631bc7046d11620000ee5780631bc7046d146200020c57806332878d4d146200024a578063340d84e5146200027e57806350b33f8014620002a557806370766dd914620002ca57600080fd5b806305babe4c14620001245780630bd47a781462000158578063146a291114620001a857806318159a4b14620001cd575b600080fd5b3480156200013157600080fd5b506200013c62000440565b6040516200014f95949392919062001e2c565b60405180910390f35b3480156200016557600080fd5b50620001976200017736600462001f72565b805160208183018101805160038252928201919093012091525460ff1681565b60405190151581526020016200014f565b348015620001b557600080fd5b5062000197620001c736600462001fcf565b620007eb565b348015620001da57600080fd5b5062000197620001ec36600462001f72565b805160208183018101805160028252928201919093012091525460ff1681565b3480156200021957600080fd5b50620002316200022b36600462001ffe565b62000850565b6040516001600160a01b0390911681526020016200014f565b3480156200025757600080fd5b506200026f6200026936600462001ffe565b62000898565b6040519081526020016200014f565b3480156200028b57600080fd5b506200029662000945565b6040516200014f919062002018565b348015620002b257600080fd5b506200026f620002c436600462001ffe565b6200099f565b620002e1620002db36600462001ffe565b620009c1565b005b348015620002f057600080fd5b50620003086200030236600462001ffe565b62000b34565b6040516200014f97969594939291906200202d565b3480156200032a57600080fd5b506200013c62000daa565b3480156200034257600080fd5b50620002e162000354366004620020ad565b62001266565b6200026f6200036b36600462002176565b620013e5565b3480156200037e57600080fd5b50620003966200039036600462001fcf565b620017f4565b6040516200014f92919062002241565b348015620003b357600080fd5b506200026f60005481565b348015620003cb57600080fd5b50620002e1620003dd36600462001fcf565b6200192c565b348015620003f057600080fd5b50620004086200040236600462001ffe565b6200197e565b6040516200014f9594939291906200225c565b3480156200042857600080fd5b50620002e16200043a366004620022af565b62001ade565b60608060608060606000546001600160401b0381111562000465576200046562001ea3565b6040519080825280602002602001820160405280156200048f578160200160208202803683370190505b5094506000546001600160401b03811115620004af57620004af62001ea3565b604051908082528060200260200182016040528015620004e457816020015b6060815260200190600190039081620004ce5790505b5093506000546001600160401b0381111562000504576200050462001ea3565b6040519080825280602002602001820160405280156200053957816020015b6060815260200190600190039081620005235790505b5092506000546001600160401b0381111562000559576200055962001ea3565b60405190808252806020026020018201604052801562000583578160200160208202803683370190505b5091506000546001600160401b03811115620005a357620005a362001ea3565b604051908082528060200260200182016040528015620005cd578160200160208202803683370190505b50905060005b600054811015620007e357600081815260016020526040902080548751889084908110620006055762000605620022d2565b6020026020010181815250508060010180546200062290620022e8565b80601f01602080910402602001604051908101604052809291908181526020018280546200065090620022e8565b8015620006a15780601f106200067557610100808354040283529160200191620006a1565b820191906000526020600020905b8154815290600101906020018083116200068357829003601f168201915b5050505050868381518110620006bb57620006bb620022d2565b60200260200101819052508060020160009054906101000a90046001600160a01b03166001600160a01b03166395d89b416040518163ffffffff1660e01b8152600401600060405180830381865afa1580156200071c573d6000803e3d6000fd5b505050506040513d6000823e601f3d908101601f1916820160405262000746919081019062002324565b8583815181106200075b576200075b620022d2565b6020908102919091010152600281015484516001600160a01b03909116908590849081106200078e576200078e620022d2565b6001600160a01b039092166020928302919091019091015260058101548351849084908110620007c257620007c2620022d2565b60209081029190910101525080620007da81620023a3565b915050620005d3565b509091929394565b6000828152600160205260408120600681015460ff16620008295760405162461bcd60e51b81526004016200082090620023cb565b60405180910390fd5b6001600160a01b03831660009081526004909101602052604090205460ff16905092915050565b6000818152600160205260408120600681015460ff16620008855760405162461bcd60e51b81526004016200082090620023cb565b600201546001600160a01b031692915050565b6000818152600160205260408120600681015460ff16620008cd5760405162461bcd60e51b81526004016200082090620023cb565b60028101546040516370a0823160e01b81523060048201526001600160a01b03909116906370a0823190602401602060405180830381865afa15801562000918573d6000803e3d6000fd5b505050506040513d601f19601f820116820180604052508101906200093e919062002402565b9392505050565b606060048054806020026020016040519081016040528092919081815260200182805480156200099557602002820191906000526020600020905b81548152602001906001019080831162000980575b5050505050905090565b60048181548110620009b057600080fd5b600091825260209091200154905081565b6000818152600160209081526040808320338452600401909152902054819060ff1662000a025760405162461bcd60e51b815260040162000820906200241c565b6000828152600160205260409020600681015460ff1662000a375760405162461bcd60e51b81526004016200082090620023cb565b6000341162000a795760405162461bcd60e51b815260206004820152600d60248201526c09aeae6e840e6cadcc8408aa89609b1b604482015260640162000820565b60028101546040516000916001600160a01b03169034908381818185875af1925050503d806000811462000aca576040519150601f19603f3d011682016040523d82523d6000602084013e62000acf565b606091505b505090508062000af35760405162461bcd60e51b8152600401620008209062002442565b837ffb720003dae25e4741ce9aa2704f3dd6b89b069ba5ef6628f0e8249a269458bc3460405162000b2691815260200190565b60405180910390a250505050565b600081815260016020526040812060068101546060918391839182918491839160ff1662000b765760405162461bcd60e51b81526004016200082090620023cb565b8060000154975080600101805462000b8e90620022e8565b80601f016020809104026020016040519081016040528092919081815260200182805462000bbc90620022e8565b801562000c0d5780601f1062000be15761010080835404028352916020019162000c0d565b820191906000526020600020905b81548152906001019060200180831162000bef57829003601f168201915b5050506002840154604080516395d89b4160e01b81529051949b506001600160a01b03909116995089936395d89b419350600480830193506000928290030181865afa15801562000c62573d6000803e3d6000fd5b505050506040513d6000823e601f3d908101601f1916820160405262000c8c919081019062002324565b6005820180546040805160208084028201810190925282815293985083018282801562000ce357602002820191906000526020600020905b81546001600160a01b0316815260019091019060200180831162000cc4575b505033600090815260048601602052604090205460038601805495995060ff90911697509362000d1893509150620022e89050565b80601f016020809104026020016040519081016040528092919081815260200182805462000d4690620022e8565b801562000d975780601f1062000d6b5761010080835404028352916020019162000d97565b820191906000526020600020905b81548152906001019060200180831162000d7957829003601f168201915b5050505050915050919395979092949650565b60608060608060606000805b60005481101562000e2a5760008181526001602052604090206006015460ff16801562000dff5750600081815260016020908152604080832033845260040190915290205460ff165b1562000e15578162000e1181620023a3565b9250505b8062000e2181620023a3565b91505062000db6565b50806001600160401b0381111562000e465762000e4662001ea3565b60405190808252806020026020018201604052801562000e70578160200160208202803683370190505b509550806001600160401b0381111562000e8e5762000e8e62001ea3565b60405190808252806020026020018201604052801562000ec357816020015b606081526020019060019003908162000ead5790505b509450806001600160401b0381111562000ee15762000ee162001ea3565b60405190808252806020026020018201604052801562000f1657816020015b606081526020019060019003908162000f005790505b509350806001600160401b0381111562000f345762000f3462001ea3565b60405190808252806020026020018201604052801562000f5e578160200160208202803683370190505b509250806001600160401b0381111562000f7c5762000f7c62001ea3565b60405190808252806020026020018201604052801562000fa6578160200160208202803683370190505b5091506000805b6000548110156200125c5760008181526001602052604090206006015460ff16801562000ff65750600081815260016020908152604080832033845260040190915290205460ff165b1562001247576000818152600160205260409020805489518a9085908110620010235762001023620022d2565b6020026020010181815250508060010180546200104090620022e8565b80601f01602080910402602001604051908101604052809291908181526020018280546200106e90620022e8565b8015620010bf5780601f106200109357610100808354040283529160200191620010bf565b820191906000526020600020905b815481529060010190602001808311620010a157829003601f168201915b5050505050888481518110620010d957620010d9620022d2565b602090810291909101015260028101546001600160a01b0316156200119e578060020160009054906101000a90046001600160a01b03166001600160a01b03166395d89b416040518163ffffffff1660e01b8152600401600060405180830381865afa1580156200114e573d6000803e3d6000fd5b505050506040513d6000823e601f3d908101601f1916820160405262001178919081019062002324565b8784815181106200118d576200118d620022d2565b6020026020010181905250620011cf565b60405180602001604052806000815250878481518110620011c357620011c3620022d2565b60200260200101819052505b600281015486516001600160a01b0390911690879085908110620011f757620011f7620022d2565b6001600160a01b0390921660209283029190910190910152600581015485518690859081106200122b576200122b620022d2565b6020908102919091010152826200124281620023a3565b935050505b806200125381620023a3565b91505062000fad565b5050509091929394565b6000838152600160205260409020600681015460ff166200129b5760405162461bcd60e51b81526004016200082090620023cb565b60028101546040516370a0823160e01b81523060048201526000916001600160a01b0316906370a0823190602401602060405180830381865afa158015620012e7573d6000803e3d6000fd5b505050506040513d601f19601f820116820180604052508101906200130d919062002402565b905082811015620013615760405162461bcd60e51b815260206004820152601f60248201527f4e6f7420656e6f75676820746f6b656e7320696e204f72674d616e6167657200604482015260640162000820565b600282015460405163a9059cbb60e01b81526001600160a01b038681166004830152602482018690529091169063a9059cbb906044016020604051808303816000875af1158015620013b7573d6000803e3d6000fd5b505050506040513d601f19601f82011682018060405250810190620013dd919062002486565b505050505050565b600083341015620014395760405162461bcd60e51b815260206004820152601860248201527f496e73756666696369656e7420455448206261636b696e670000000000000000604482015260640162000820565b6002876040516200144b9190620024aa565b9081526040519081900360200190205460ff1615620014ad5760405162461bcd60e51b815260206004820181905260248201527f4f7267616e697a6174696f6e206e616d6520616c726561647920657869737473604482015260640162000820565b600386604051620014bf9190620024aa565b9081526040519081900360200190205460ff1615620015215760405162461bcd60e51b815260206004820152601b60248201527f546f6b656e2073796d626f6c20616c7265616479206578697374730000000000604482015260640162000820565b6001600288604051620015359190620024aa565b908152604051908190036020018120805492151560ff199093169290921790915560019060039062001569908990620024aa565b908152602001604051809103902060006101000a81548160ff021916908315150217905550600087878730604051620015a29062001cfc565b620015b19493929190620024c8565b604051809103906000f080158015620015ce573d6000803e3d6000fd5b5090506001600160a01b038116620016225760405162461bcd60e51b81526020600482015260166024820152752330b4b632b2103a379031b932b0ba32903a37b5b2b760511b604482015260640162000820565b8415620016a3576000816001600160a01b03168660405160006040518083038185875af1925050503d806000811462001678576040519150601f19603f3d011682016040523d82523d6000602084013e6200167d565b606091505b5050905080620016a15760405162461bcd60e51b8152600401620008209062002442565b505b600080548180620016b483620023a3565b9091555060008181526001602081905260409091208281559192508101620016dd8b826200255d565b506002810180546001600160a01b0319166001600160a01b03851617905560068101805460ff19166001179055600381016200171a86826200255d565b5062001727823362001c47565b60005b865181101562001771576200175c838883815181106200174e576200174e620022d2565b602002602001015162001c47565b806200176881620023a3565b9150506200172a565b50600480546001810182556000919091527f8a35acfbc15ff81a39ae7d344fd709f28e8600b4aa8c65c6b64bfe7fe36bd19b0182905560405182907fe52536cd2ee5b8fcd2eeaabb1fc4b99012dc2d3196320ad31d1ed496ba3fa66690620017df908d9087908a9062002629565b60405180910390a25098975050505050505050565b600082815260016020526040812060068101546060919060ff166200182d5760405162461bcd60e51b81526004016200082090620023cb565b60028101546040516370a0823160e01b81526001600160a01b038681166004830152909116906370a0823190602401602060405180830381865afa1580156200187a573d6000803e3d6000fd5b505050506040513d601f19601f82011682018060405250810190620018a0919062002402565b8160020160009054906101000a90046001600160a01b03166001600160a01b03166395d89b416040518163ffffffff1660e01b8152600401600060405180830381865afa158015620018f6573d6000803e3d6000fd5b505050506040513d6000823e601f3d908101601f1916820160405262001920919081019062002324565b92509250509250929050565b6000828152600160209081526040808320338452600401909152902054829060ff166200196d5760405162461bcd60e51b815260040162000820906200241c565b62001979838362001c47565b505050565b600160208190526000918252604090912080549181018054620019a190620022e8565b80601f0160208091040260200160405190810160405280929190818152602001828054620019cf90620022e8565b801562001a205780601f10620019f45761010080835404028352916020019162001a20565b820191906000526020600020905b81548152906001019060200180831162001a0257829003601f168201915b505050600284015460038501805494956001600160a01b0390921694919350915062001a4c90620022e8565b80601f016020809104026020016040519081016040528092919081815260200182805462001a7a90620022e8565b801562001acb5780601f1062001a9f5761010080835404028352916020019162001acb565b820191906000526020600020905b81548152906001019060200180831162001aad57829003601f168201915b5050506006909301549192505060ff1685565b6000828152600160209081526040808320338452600401909152902054829060ff1662001b1f5760405162461bcd60e51b815260040162000820906200241c565b6000821162001b665760405162461bcd60e51b81526020600482015260126024820152710416d6f756e74206d757374206265203e20360741b604482015260640162000820565b6000838152600160205260409020600681015460ff1662001b9b5760405162461bcd60e51b81526004016200082090620023cb565b60028101546040516340c10f1960e01b8152306004820152602481018590526001600160a01b039091169081906340c10f1990604401600060405180830381600087803b15801562001bec57600080fd5b505af115801562001c01573d6000803e3d6000fd5b50505050847f5f3fa633ba8bbfae59aad299adf1a75a9c6fcbca58d57765c50a67695e55b7488560405162001c3891815260200190565b60405180910390a25050505050565b60008281526001602090815260408083206001600160a01b038516845260040190915290205460ff1662001cf85760008281526001602081815260408084206001600160a01b038616808652600482018452828620805460ff191686179055848452600590910180549485018155855291842090920180546001600160a01b031916821790559051909184917f55b5e037642e49f39be9448503a157f3ecc601d7b58cd53f5d963f20eabfe7599190a35b5050565b611546806200266c83390190565b600081518084526020808501945080840160005b8381101562001d3c5781518752958201959082019060010162001d1e565b509495945050505050565b60005b8381101562001d6457818101518382015260200162001d4a565b50506000910152565b6000815180845262001d8781602086016020860162001d47565b601f01601f19169290920160200192915050565b6000815180845260208085019450848260051b860182860160005b8581101562001de457838303895262001dd183835162001d6d565b9885019892509084019060010162001db6565b5090979650505050505050565b600081518084526020808501945080840160005b8381101562001d3c5781516001600160a01b03168752958201959082019060010162001e05565b60a08152600062001e4160a083018862001d0a565b828103602084015262001e55818862001d9b565b9050828103604084015262001e6b818762001d9b565b9050828103606084015262001e81818662001df1565b9050828103608084015262001e97818562001d0a565b98975050505050505050565b634e487b7160e01b600052604160045260246000fd5b604051601f8201601f191681016001600160401b038111828210171562001ee45762001ee462001ea3565b604052919050565b60006001600160401b0382111562001f085762001f0862001ea3565b50601f01601f191660200190565b600082601f83011262001f2857600080fd5b813562001f3f62001f398262001eec565b62001eb9565b81815284602083860101111562001f5557600080fd5b816020850160208301376000918101602001919091529392505050565b60006020828403121562001f8557600080fd5b81356001600160401b0381111562001f9c57600080fd5b62001faa8482850162001f16565b949350505050565b80356001600160a01b038116811462001fca57600080fd5b919050565b6000806040838503121562001fe357600080fd5b8235915062001ff56020840162001fb2565b90509250929050565b6000602082840312156200201157600080fd5b5035919050565b6020815260006200093e602083018462001d0a565b87815260e0602082015260006200204860e083018962001d6d565b6001600160a01b038816604084015282810360608401526200206b818862001d6d565b9050828103608084015262002081818762001df1565b905084151560a084015282810360c08401526200209f818562001d6d565b9a9950505050505050505050565b600080600060608486031215620020c357600080fd5b83359250620020d56020850162001fb2565b9150604084013590509250925092565b600082601f830112620020f757600080fd5b813560206001600160401b0382111562002115576200211562001ea3565b8160051b6200212682820162001eb9565b92835284810182019282810190878511156200214157600080fd5b83870192505b848310156200216b576200215b8362001fb2565b8252918301919083019062002147565b979650505050505050565b60008060008060008060c087890312156200219057600080fd5b86356001600160401b0380821115620021a857600080fd5b620021b68a838b0162001f16565b97506020890135915080821115620021cd57600080fd5b620021db8a838b0162001f16565b9650604089013595506060890135945060808901359150808211156200220057600080fd5b6200220e8a838b01620020e5565b935060a08901359150808211156200222557600080fd5b506200223489828a0162001f16565b9150509295509295509295565b82815260406020820152600062001faa604083018462001d6d565b85815260a0602082015260006200227760a083018762001d6d565b6001600160a01b038616604084015282810360608401526200229a818662001d6d565b91505082151560808301529695505050505050565b60008060408385031215620022c357600080fd5b50508035926020909101359150565b634e487b7160e01b600052603260045260246000fd5b600181811c90821680620022fd57607f821691505b6020821081036200231e57634e487b7160e01b600052602260045260246000fd5b50919050565b6000602082840312156200233757600080fd5b81516001600160401b038111156200234e57600080fd5b8201601f810184136200236057600080fd5b80516200237162001f398262001eec565b8181528560208385010111156200238757600080fd5b6200239a82602083016020860162001d47565b95945050505050565b600060018201620023c457634e487b7160e01b600052601160045260246000fd5b5060010190565b6020808252601b908201527f4f7267616e697a6174696f6e20646f6573206e6f742065786973740000000000604082015260600190565b6000602082840312156200241557600080fd5b5051919050565b6020808252600c908201526b2737ba1030b71030b236b4b760a11b604082015260600190565b60208082526024908201527f4661696c656420746f2073656e642045544820746f20746f6b656e20636f6e746040820152631c9858dd60e21b606082015260800190565b6000602082840312156200249957600080fd5b815180151581146200093e57600080fd5b60008251620024be81846020870162001d47565b9190910192915050565b608081526000620024dd608083018762001d6d565b8281036020840152620024f1818762001d6d565b604084019590955250506001600160a01b039190911660609091015292915050565b601f8211156200197957600081815260208120601f850160051c810160208610156200253c5750805b601f850160051c820191505b81811015620013dd5782815560010162002548565b81516001600160401b0381111562002579576200257962001ea3565b62002591816200258a8454620022e8565b8462002513565b602080601f831160018114620025c95760008415620025b05750858301515b600019600386901b1c1916600185901b178555620013dd565b600085815260208120601f198616915b82811015620025fa57888601518255948401946001909101908401620025d9565b5085821015620026195787850151600019600388901b60f8161c191681555b5050505050600190811b01905550565b6060815260006200263e606083018662001d6d565b6001600160a01b0385166020840152828103604084015262002661818562001d6d565b969550505050505056fe60806040523480156200001157600080fd5b50604051620015463803806200154683398101604081905262000034916200035a565b33848460036200004583826200047e565b5060046200005482826200047e565b5050506001600160a01b0381166200008757604051631e4fbdf760e01b8152600060048201526024015b60405180910390fd5b6200009281620000d2565b506001600655620000bd81620000ab6012600a6200065f565b620000b7908562000677565b62000124565b50506007805460ff1916905550620006a79050565b600580546001600160a01b038381166001600160a01b0319831681179093556040519116919082907f8be0079c531659141344cd1fd0a4f28419497f9722a3daafe3b4186f6b6457e090600090a35050565b6001600160a01b038216620001505760405163ec442f0560e01b8152600060048201526024016200007e565b6200015e6000838362000162565b5050565b6001600160a01b0383166200019157806002600082825462000185919062000691565b90915550620002059050565b6001600160a01b03831660009081526020819052604090205481811015620001e65760405163391434e360e21b81526001600160a01b038516600482015260248101829052604481018390526064016200007e565b6001600160a01b03841660009081526020819052604090209082900390555b6001600160a01b038216620002235760028054829003905562000242565b6001600160a01b03821660009081526020819052604090208054820190555b816001600160a01b0316836001600160a01b03167fddf252ad1be2c89b69c2b068fc378daa952ba7f163c4a11628f55a4df523b3ef836040516200028891815260200190565b60405180910390a3505050565b634e487b7160e01b600052604160045260246000fd5b600082601f830112620002bd57600080fd5b81516001600160401b0380821115620002da57620002da62000295565b604051601f8301601f19908116603f0116810190828211818310171562000305576200030562000295565b816040528381526020925086838588010111156200032257600080fd5b600091505b8382101562000346578582018301518183018401529082019062000327565b600093810190920192909252949350505050565b600080600080608085870312156200037157600080fd5b84516001600160401b03808211156200038957600080fd5b6200039788838901620002ab565b95506020870151915080821115620003ae57600080fd5b50620003bd87828801620002ab565b60408701516060880151919550935090506001600160a01b0381168114620003e457600080fd5b939692955090935050565b600181811c908216806200040457607f821691505b6020821081036200042557634e487b7160e01b600052602260045260246000fd5b50919050565b601f8211156200047957600081815260208120601f850160051c81016020861015620004545750805b601f850160051c820191505b81811015620004755782815560010162000460565b5050505b505050565b81516001600160401b038111156200049a576200049a62000295565b620004b281620004ab8454620003ef565b846200042b565b602080601f831160018114620004ea5760008415620004d15750858301515b600019600386901b1c1916600185901b17855562000475565b600085815260208120601f198616915b828110156200051b57888601518255948401946001909101908401620004fa565b50858210156200053a5787850151600019600388901b60f8161c191681555b5050505050600190811b01905550565b634e487b7160e01b600052601160045260246000fd5b600181815b80851115620005a15781600019048211156200058557620005856200054a565b808516156200059357918102915b93841c939080029062000565565b509250929050565b600082620005ba5750600162000659565b81620005c95750600062000659565b8160018114620005e25760028114620005ed576200060d565b600191505062000659565b60ff8411156200060157620006016200054a565b50506001821b62000659565b5060208310610133831016604e8410600b841016171562000632575081810a62000659565b6200063e838362000560565b80600019048211156200065557620006556200054a565b0290505b92915050565b60006200067060ff841683620005a9565b9392505050565b80820281158282048414176200065957620006596200054a565b808201808211156200065957620006596200054a565b610e8f80620006b76000396000f3fe6080604052600436106101185760003560e01c806342966c68116100a057806395d89b411161006457806395d89b411461030f578063a9059cbb14610324578063b234de8214610344578063dd62ed3e1461035e578063f2fde38b146103a457600080fd5b806342966c681461025c57806370a082311461027c578063715018a6146102b257806379cc6790146102c75780638da5cb5b146102e757600080fd5b806318160ddd116100e757806318160ddd146101d657806323b872dd146101eb578063313ce5671461020b5780633ca967f31461022757806340c10f191461023c57600080fd5b8063047e018b1461013c57806306fdde031461015e578063095ea7b31461018957806312065fe0146101b957600080fd5b36610137576101256103c4565b6007805460ff19166001908117909155005b600080fd5b34801561014857600080fd5b5061015c610157366004610c9e565b6103f8565b005b34801561016a57600080fd5b50610173610697565b6040516101809190610cb7565b60405180910390f35b34801561019557600080fd5b506101a96101a4366004610d21565b610729565b6040519015158152602001610180565b3480156101c557600080fd5b50475b604051908152602001610180565b3480156101e257600080fd5b506002546101c8565b3480156101f757600080fd5b506101a9610206366004610d4b565b610743565b34801561021757600080fd5b5060405160128152602001610180565b34801561023357600080fd5b506101c8610767565b34801561024857600080fd5b5061015c610257366004610d21565b610829565b34801561026857600080fd5b5061015c610277366004610c9e565b61083f565b34801561028857600080fd5b506101c8610297366004610d87565b6001600160a01b031660009081526020819052604090205490565b3480156102be57600080fd5b5061015c610849565b3480156102d357600080fd5b5061015c6102e2366004610d21565b61085b565b3480156102f357600080fd5b506005546040516001600160a01b039091168152602001610180565b34801561031b57600080fd5b50610173610870565b34801561033057600080fd5b506101a961033f366004610d21565b61087f565b34801561035057600080fd5b506007546101a99060ff1681565b34801561036a57600080fd5b506101c8610379366004610da9565b6001600160a01b03918216600090815260016020908152604080832093909416825291909152205490565b3480156103b057600080fd5b5061015c6103bf366004610d87565b61088d565b6005546001600160a01b031633146103f65760405163118cdaa760e01b81523360048201526024015b60405180910390fd5b565b6104006108c8565b60075460ff1661044b5760405162461bcd60e51b8152602060048201526016602482015275149959195b5c1d1a5bdb881b9bdd08195b98589b195960521b60448201526064016103ed565b336000908152602081905260409020548111156104aa5760405162461bcd60e51b815260206004820152601a60248201527f496e73756666696369656e7420746f6b656e2062616c616e636500000000000060448201526064016103ed565b600081116104fa5760405162461bcd60e51b815260206004820152601d60248201527f416d6f756e74206d7573742062652067726561746572207468616e203000000060448201526064016103ed565b6000471161054a5760405162461bcd60e51b815260206004820152601f60248201527f4e6f2045544820617661696c61626c6520666f7220726564656d7074696f6e0060448201526064016103ed565b6000610554610767565b905060006105628284610ddc565b9050804710156105b45760405162461bcd60e51b815260206004820152601c60248201527f496e73756666696369656e742045544820696e20636f6e74726163740000000060448201526064016103ed565b6105be33846108f2565b604051600090339083908381818185875af1925050503d8060008114610600576040519150601f19603f3d011682016040523d82523d6000602084013e610605565b606091505b505090508061064c5760405162461bcd60e51b8152602060048201526013602482015272115512081d1c985b9cd9995c8819985a5b1959606a1b60448201526064016103ed565b604080518581526020810184905233917fd171fb179b26c49e23fe46eddd44d3048a1ad277b62144ac0725fbcf1dbf6d52910160405180910390a25050506106946001600655565b50565b6060600380546106a690610dfe565b80601f01602080910402602001604051908101604052809291908181526020018280546106d290610dfe565b801561071f5780601f106106f45761010080835404028352916020019161071f565b820191906000526020600020905b81548152906001019060200180831161070257829003601f168201915b5050505050905090565b600033610737818585610928565b60019150505b92915050565b60003361075185828561093a565b61075c8585856109b8565b506001949350505050565b60008061077360025490565b116107c05760405162461bcd60e51b815260206004820152601860248201527f4e6f20746f6b656e7320696e2063697263756c6174696f6e000000000000000060448201526064016103ed565b600047116108105760405162461bcd60e51b815260206004820152601f60248201527f4e6f2045544820617661696c61626c6520666f7220726564656d7074696f6e0060448201526064016103ed565b4761081a60025490565b6108249190610ddc565b905090565b6108316103c4565b61083b8282610a17565b5050565b61069433826108f2565b6108516103c4565b6103f66000610a4d565b61086682338361093a565b61083b82826108f2565b6060600480546106a690610dfe565b6000336107378185856109b8565b6108956103c4565b6001600160a01b0381166108bf57604051631e4fbdf760e01b8152600060048201526024016103ed565b61069481610a4d565b6002600654036108eb57604051633ee5aeb560e01b815260040160405180910390fd5b6002600655565b6001600160a01b03821661091c57604051634b637e8f60e11b8152600060048201526024016103ed565b61083b82600083610a9f565b6109358383836001610bc9565b505050565b6001600160a01b0383811660009081526001602090815260408083209386168352929052205460001981146109b257818110156109a357604051637dc7a0d960e11b81526001600160a01b038416600482015260248101829052604481018390526064016103ed565b6109b284848484036000610bc9565b50505050565b6001600160a01b0383166109e257604051634b637e8f60e11b8152600060048201526024016103ed565b6001600160a01b038216610a0c5760405163ec442f0560e01b8152600060048201526024016103ed565b610935838383610a9f565b6001600160a01b038216610a415760405163ec442f0560e01b8152600060048201526024016103ed565b61083b60008383610a9f565b600580546001600160a01b038381166001600160a01b0319831681179093556040519116919082907f8be0079c531659141344cd1fd0a4f28419497f9722a3daafe3b4186f6b6457e090600090a35050565b6001600160a01b038316610aca578060026000828254610abf9190610e38565b90915550610b3c9050565b6001600160a01b03831660009081526020819052604090205481811015610b1d5760405163391434e360e21b81526001600160a01b038516600482015260248101829052604481018390526064016103ed565b6001600160a01b03841660009081526020819052604090209082900390555b6001600160a01b038216610b5857600280548290039055610b77565b6001600160a01b03821660009081526020819052604090208054820190555b816001600160a01b0316836001600160a01b03167fddf252ad1be2c89b69c2b068fc378daa952ba7f163c4a11628f55a4df523b3ef83604051610bbc91815260200190565b60405180910390a3505050565b6001600160a01b038416610bf35760405163e602df0560e01b8152600060048201526024016103ed565b6001600160a01b038316610c1d57604051634a1406b160e11b8152600060048201526024016103ed565b6001600160a01b03808516600090815260016020908152604080832093871683529290522082905580156109b257826001600160a01b0316846001600160a01b03167f8c5be1e5ebec7d5bd14f71427d1e84f3dd0314c0f7b2291e5b200ac8c7c3b92584604051610c9091815260200190565b60405180910390a350505050565b600060208284031215610cb057600080fd5b5035919050565b600060208083528351808285015260005b81811015610ce457858101830151858201604001528201610cc8565b506000604082860101526040601f19601f8301168501019250505092915050565b80356001600160a01b0381168114610d1c57600080fd5b919050565b60008060408385031215610d3457600080fd5b610d3d83610d05565b946020939093013593505050565b600080600060608486031215610d6057600080fd5b610d6984610d05565b9250610d7760208501610d05565b9150604084013590509250925092565b600060208284031215610d9957600080fd5b610da282610d05565b9392505050565b60008060408385031215610dbc57600080fd5b610dc583610d05565b9150610dd360208401610d05565b90509250929050565b600082610df957634e487b7160e01b600052601260045260246000fd5b500490565b600181811c90821680610e1257607f821691505b602082108103610e3257634e487b7160e01b600052602260045260246000fd5b50919050565b8082018082111561073d57634e487b7160e01b600052601160045260246000fdfea26469706673582212206a04a4b73743f9abc812467833e8cd1e70f1103af6e2a1e7ef716d9f9270996264736f6c63430008140033a264697066735822122027f57635516de0c3027f1a48be342e7bdc92cad372f49da66826827d384ec1fc64736f6c63430008140033",
  "devdoc": {
    "kind": "dev",
    "methods": {},
    "version": 1
  },
  "userdoc": {
    "kind": "user",
    "methods": {
      "addAdmin(uint256,address)": {
        "notice": "Agrega un administrador a una organizacin"
      },
      "createOrganization(string,string,uint256,uint256,address[],string)": {
        "notice": "Crea una nueva organizacin"
      },
      "fundOrganization(uint256)": {
        "notice": "Enva ETH al contrato de token para reforzar su backing"
      },
      "getBalanceOfOrg(uint256)": {
        "notice": "Obtiene el balance de una organizacin en su token con los 18 decimales"
      },
      "getOrganizationDetails(uint256)": {
        "notice": "Obtiene los detalles de una organizacin por ID"
      },
      "isAdmin(uint256,address)": {
        "notice": "Verifica si una direccin es administrador de una organizacin"
      },
      "listOrganizations()": {
        "notice": "Lista todas las organizaciones"
      }
    },
    "version": 1
  },
  "storageLayout": {
    "storage": [
      {
        "astId": 13466,
        "contract": "contracts/Organization/OrganizationManager.sol:OrganizationManager",
        "label": "orgCount",
        "offset": 0,
        "slot": "0",
        "type": "t_uint256"
      },
      {
        "astId": 13471,
        "contract": "contracts/Organization/OrganizationManager.sol:OrganizationManager",
        "label": "organizations",
        "offset": 0,
        "slot": "1",
        "type": "t_mapping(t_uint256,t_struct(Organization)13464_storage)"
      },
      {
        "astId": 13475,
        "contract": "contracts/Organization/OrganizationManager.sol:OrganizationManager",
        "label": "orgNameExists",
        "offset": 0,
        "slot": "2",
        "type": "t_mapping(t_string_memory_ptr,t_bool)"
      },
      {
        "astId": 13479,
        "contract": "contracts/Organization/OrganizationManager.sol:OrganizationManager",
        "label": "tokenSymbolExists",
        "offset": 0,
        "slot": "3",
        "type": "t_mapping(t_string_memory_ptr,t_bool)"
      },
      {
        "astId": 13482,
        "contract": "contracts/Organization/OrganizationManager.sol:OrganizationManager",
        "label": "organizationIds",
        "offset": 0,
        "slot": "4",
        "type": "t_array(t_uint256)dyn_storage"
      }
    ],
    "types": {
      "t_address": {
        "encoding": "inplace",
        "label": "address",
        "numberOfBytes": "20"
      },
      "t_array(t_address)dyn_storage": {
        "base": "t_address",
        "encoding": "dynamic_array",
        "label": "address[]",
        "numberOfBytes": "32"
      },
      "t_array(t_uint256)dyn_storage": {
        "base": "t_uint256",
        "encoding": "dynamic_array",
        "label": "uint256[]",
        "numberOfBytes": "32"
      },
      "t_bool": {
        "encoding": "inplace",
        "label": "bool",
        "numberOfBytes": "1"
      },
      "t_mapping(t_address,t_bool)": {
        "encoding": "mapping",
        "key": "t_address",
        "label": "mapping(address => bool)",
        "numberOfBytes": "32",
        "value": "t_bool"
      },
      "t_mapping(t_string_memory_ptr,t_bool)": {
        "encoding": "mapping",
        "key": "t_string_memory_ptr",
        "label": "mapping(string => bool)",
        "numberOfBytes": "32",
        "value": "t_bool"
      },
      "t_mapping(t_uint256,t_struct(Organization)13464_storage)": {
        "encoding": "mapping",
        "key": "t_uint256",
        "label": "mapping(uint256 => struct OrganizationManager.Organization)",
        "numberOfBytes": "32",
        "value": "t_struct(Organization)13464_storage"
      },
      "t_string_memory_ptr": {
        "encoding": "bytes",
        "label": "string",
        "numberOfBytes": "32"
      },
      "t_string_storage": {
        "encoding": "bytes",
        "label": "string",
        "numberOfBytes": "32"
      },
      "t_struct(Organization)13464_storage": {
        "encoding": "inplace",
        "label": "struct OrganizationManager.Organization",
        "members": [
          {
            "astId": 13448,
            "contract": "contracts/Organization/OrganizationManager.sol:OrganizationManager",
            "label": "id",
            "offset": 0,
            "slot": "0",
            "type": "t_uint256"
          },
          {
            "astId": 13450,
            "contract": "contracts/Organization/OrganizationManager.sol:OrganizationManager",
            "label": "name",
            "offset": 0,
            "slot": "1",
            "type": "t_string_storage"
          },
          {
            "astId": 13452,
            "contract": "contracts/Organization/OrganizationManager.sol:OrganizationManager",
            "label": "token",
            "offset": 0,
            "slot": "2",
            "type": "t_address"
          },
          {
            "astId": 13454,
            "contract": "contracts/Organization/OrganizationManager.sol:OrganizationManager",
            "label": "baseURI",
            "offset": 0,
            "slot": "3",
            "type": "t_string_storage"
          },
          {
            "astId": 13458,
            "contract": "contracts/Organization/OrganizationManager.sol:OrganizationManager",
            "label": "adminExists",
            "offset": 0,
            "slot": "4",
            "type": "t_mapping(t_address,t_bool)"
          },
          {
            "astId": 13461,
            "contract": "contracts/Organization/OrganizationManager.sol:OrganizationManager",
            "label": "admins",
            "offset": 0,
            "slot": "5",
            "type": "t_array(t_address)dyn_storage"
          },
          {
            "astId": 13463,
            "contract": "contracts/Organization/OrganizationManager.sol:OrganizationManager",
            "label": "exists",
            "offset": 0,
            "slot": "6",
            "type": "t_bool"
          }
        ],
        "numberOfBytes": "224"
      },
      "t_uint256": {
        "encoding": "inplace",
        "label": "uint256",
        "numberOfBytes": "32"
      }
    }
  }
}