{
  "address": "0x3D62f41b126c7722b2019a0c66Cd2540136CcEA4",
  "abi": [
    {
      "anonymous": false,
      "inputs": [
        {
          "indexed": true,
          "internalType": "uint256",
          "name": "orgId",
          "type": "uint256"
        },
        {
          "indexed": false,
          "internalType": "string",
          "name": "name",
          "type": "string"
        },
        {
          "indexed": false,
          "internalType": "address",
          "name": "token",
          "type": "address"
        }
      ],
      "name": "OrganizationCreated",
      "type": "event"
    },
    {
      "inputs": [
        {
          "internalType": "uint256",
          "name": "_orgId",
          "type": "uint256"
        },
        {
          "internalType": "address",
          "name": "_admin",
          "type": "address"
        }
      ],
      "name": "addAdmin",
      "outputs": [],
      "stateMutability": "nonpayable",
      "type": "function"
    },
    {
      "inputs": [
        {
          "internalType": "string",
          "name": "_name",
          "type": "string"
        },
        {
          "internalType": "string",
          "name": "_symbol",
          "type": "string"
        },
        {
          "internalType": "uint256",
          "name": "_initialSupply",
          "type": "uint256"
        },
        {
          "internalType": "uint256",
          "name": "_initialEthBacking",
          "type": "uint256"
        },
        {
          "internalType": "address[]",
          "name": "_admins",
          "type": "address[]"
        },
        {
          "internalType": "bytes32",
          "name": "_customerBaseUID",
          "type": "bytes32"
        }
      ],
      "name": "createOrganization",
      "outputs": [
        {
          "internalType": "uint256",
          "name": "",
          "type": "uint256"
        }
      ],
      "stateMutability": "payable",
      "type": "function"
    },
    {
      "inputs": [
        {
          "internalType": "bytes32",
          "name": "",
          "type": "bytes32"
        }
      ],
      "name": "customerBaseRegistry",
      "outputs": [
        {
          "internalType": "address",
          "name": "",
          "type": "address"
        }
      ],
      "stateMutability": "view",
      "type": "function"
    },
    {
      "inputs": [
        {
          "internalType": "uint256",
          "name": "_orgId",
          "type": "uint256"
        }
      ],
      "name": "getBalanceOfOrg",
      "outputs": [
        {
          "internalType": "uint256",
          "name": "",
          "type": "uint256"
        }
      ],
      "stateMutability": "view",
      "type": "function"
    },
    {
      "inputs": [
        {
          "internalType": "uint256",
          "name": "_orgId",
          "type": "uint256"
        },
        {
          "internalType": "address",
          "name": "_user",
          "type": "address"
        }
      ],
      "name": "getBalanceOfUser",
      "outputs": [
        {
          "internalType": "uint256",
          "name": "",
          "type": "uint256"
        },
        {
          "internalType": "string",
          "name": "",
          "type": "string"
        }
      ],
      "stateMutability": "view",
      "type": "function"
    },
    {
      "inputs": [
        {
          "internalType": "uint256",
          "name": "_orgId",
          "type": "uint256"
        }
      ],
      "name": "getOrganizationDetails",
      "outputs": [
        {
          "internalType": "uint256",
          "name": "orgId",
          "type": "uint256"
        },
        {
          "internalType": "string",
          "name": "name",
          "type": "string"
        },
        {
          "internalType": "address",
          "name": "token",
          "type": "address"
        },
        {
          "internalType": "address[]",
          "name": "admins",
          "type": "address[]"
        },
        {
          "internalType": "bytes32",
          "name": "customerBaseUID",
          "type": "bytes32"
        },
        {
          "internalType": "bool",
          "name": "userIsAdmin",
          "type": "bool"
        },
        {
          "internalType": "bool",
          "name": "userIsMember",
          "type": "bool"
        }
      ],
      "stateMutability": "view",
      "type": "function"
    },
    {
      "inputs": [
        {
          "internalType": "uint256",
          "name": "_orgId",
          "type": "uint256"
        }
      ],
      "name": "getTokenOfOrg",
      "outputs": [
        {
          "internalType": "address",
          "name": "",
          "type": "address"
        }
      ],
      "stateMutability": "view",
      "type": "function"
    },
    {
      "inputs": [
        {
          "internalType": "uint256",
          "name": "_orgId",
          "type": "uint256"
        }
      ],
      "name": "hasUsers",
      "outputs": [
        {
          "internalType": "bool",
          "name": "",
          "type": "bool"
        }
      ],
      "stateMutability": "view",
      "type": "function"
    },
    {
      "inputs": [
        {
          "internalType": "uint256",
          "name": "_orgId",
          "type": "uint256"
        },
        {
          "internalType": "address",
          "name": "_user",
          "type": "address"
        }
      ],
      "name": "isAdmin",
      "outputs": [
        {
          "internalType": "bool",
          "name": "",
          "type": "bool"
        }
      ],
      "stateMutability": "view",
      "type": "function"
    },
    {
      "inputs": [
        {
          "internalType": "uint256",
          "name": "_orgId",
          "type": "uint256"
        },
        {
          "internalType": "address",
          "name": "_user",
          "type": "address"
        }
      ],
      "name": "isUser",
      "outputs": [
        {
          "internalType": "bool",
          "name": "",
          "type": "bool"
        }
      ],
      "stateMutability": "view",
      "type": "function"
    },
    {
      "inputs": [],
      "name": "listAdministratedOrganizations",
      "outputs": [
        {
          "internalType": "uint256[]",
          "name": "orgIds",
          "type": "uint256[]"
        },
        {
          "internalType": "string[]",
          "name": "names",
          "type": "string[]"
        },
        {
          "internalType": "string[]",
          "name": "tokenSymbols",
          "type": "string[]"
        },
        {
          "internalType": "address[]",
          "name": "tokenAddresses",
          "type": "address[]"
        },
        {
          "internalType": "uint256[]",
          "name": "adminCounts",
          "type": "uint256[]"
        },
        {
          "internalType": "uint256[]",
          "name": "customerCounts",
          "type": "uint256[]"
        },
        {
          "internalType": "bool[]",
          "name": "isMembers",
          "type": "bool[]"
        }
      ],
      "stateMutability": "view",
      "type": "function"
    },
    {
      "inputs": [],
      "name": "listOrganizations",
      "outputs": [
        {
          "internalType": "uint256[]",
          "name": "",
          "type": "uint256[]"
        }
      ],
      "stateMutability": "view",
      "type": "function"
    },
    {
      "inputs": [],
      "name": "listOrganizationsWithDetails",
      "outputs": [
        {
          "internalType": "uint256[]",
          "name": "orgIds",
          "type": "uint256[]"
        },
        {
          "internalType": "string[]",
          "name": "names",
          "type": "string[]"
        },
        {
          "internalType": "string[]",
          "name": "tokenSymbols",
          "type": "string[]"
        },
        {
          "internalType": "address[]",
          "name": "tokenAddresses",
          "type": "address[]"
        },
        {
          "internalType": "uint256[]",
          "name": "adminCounts",
          "type": "uint256[]"
        },
        {
          "internalType": "uint256[]",
          "name": "customerCounts",
          "type": "uint256[]"
        },
        {
          "internalType": "bool[]",
          "name": "isMembers",
          "type": "bool[]"
        }
      ],
      "stateMutability": "view",
      "type": "function"
    },
    {
      "inputs": [],
      "name": "orgCount",
      "outputs": [
        {
          "internalType": "uint256",
          "name": "",
          "type": "uint256"
        }
      ],
      "stateMutability": "view",
      "type": "function"
    },
    {
      "inputs": [
        {
          "internalType": "uint256",
          "name": "",
          "type": "uint256"
        }
      ],
      "name": "organizationIds",
      "outputs": [
        {
          "internalType": "uint256",
          "name": "",
          "type": "uint256"
        }
      ],
      "stateMutability": "view",
      "type": "function"
    },
    {
      "inputs": [
        {
          "internalType": "uint256",
          "name": "",
          "type": "uint256"
        }
      ],
      "name": "organizations",
      "outputs": [
        {
          "internalType": "uint256",
          "name": "id",
          "type": "uint256"
        },
        {
          "internalType": "string",
          "name": "name",
          "type": "string"
        },
        {
          "internalType": "address",
          "name": "token",
          "type": "address"
        },
        {
          "internalType": "bytes32",
          "name": "customerBaseUID",
          "type": "bytes32"
        },
        {
          "internalType": "address",
          "name": "customerBaseAddr",
          "type": "address"
        },
        {
          "internalType": "bool",
          "name": "exists",
          "type": "bool"
        }
      ],
      "stateMutability": "view",
      "type": "function"
    },
    {
      "inputs": [
        {
          "internalType": "bytes32",
          "name": "_customerBaseUID",
          "type": "bytes32"
        },
        {
          "internalType": "address",
          "name": "_customerBaseAddress",
          "type": "address"
        }
      ],
      "name": "registerCustomerBase",
      "outputs": [],
      "stateMutability": "nonpayable",
      "type": "function"
    },
    {
      "inputs": [
        {
          "internalType": "uint256",
          "name": "_orgId",
          "type": "uint256"
        },
        {
          "internalType": "address",
          "name": "_destAddress",
          "type": "address"
        },
        {
          "internalType": "uint256",
          "name": "_amount",
          "type": "uint256"
        }
      ],
      "name": "transferTokensTo",
      "outputs": [],
      "stateMutability": "nonpayable",
      "type": "function"
    }
  ],
  "transactionHash": "0x5ce3e490711e492f4ed12516aeb6ba4ac7f8dfb18cb972a77ff9f9e46e47285f",
  "args": [],
  "numDeployments": 2,
  "solcInputHash": "31ca34f69de545882ca9564f4519173c",
  "bytecode": "0x608060405234801561001057600080fd5b50613a33806100206000396000f3fe6080604052600436106200011f5760003560e01c806379bb57b411620000a1578063b163044f116200006c578063b163044f146200038a578063d810669014620003bf578063dbdc814b14620003d7578063e792dd8a14620003fc578063f9fdb9d6146200043557600080fd5b806379bb57b414620002c45780637b21dad214620002fe578063986c7f181462000316578063a7b02ae4146200036557600080fd5b806332878d4d11620000ee57806332878d4d14620001f3578063340d84e5146200022757806337193c60146200024e57806350b33f801462000265578063777c078f146200028a57600080fd5b806305babe4c14620001245780630cca5e06146200015a578063146a291114620001905780631bc7046d14620001b5575b600080fd5b3480156200013157600080fd5b506200013c62000474565b60405162000151979695949392919062001da0565b60405180910390f35b3480156200016757600080fd5b506200017f6200017936600462001e8a565b62000a75565b604051901515815260200162000151565b3480156200019d57600080fd5b506200017f620001af36600462001e8a565b62000b71565b348015620001c257600080fd5b50620001da620001d436600462001eb9565b62000bcd565b6040516001600160a01b03909116815260200162000151565b3480156200020057600080fd5b50620002186200021236600462001eb9565b62000c15565b60405190815260200162000151565b3480156200023457600080fd5b506200023f62000cc2565b60405162000151919062001ed3565b620002186200025f36600462001fb7565b62000d1c565b3480156200027257600080fd5b50620002186200028436600462001eb9565b620010a8565b3480156200029757600080fd5b50620001da620002a936600462001eb9565b6000602081905290815260409020546001600160a01b031681565b348015620002d157600080fd5b50620002e9620002e336600462001eb9565b620010ca565b604051620001519796959493929190620020d9565b3480156200030b57600080fd5b506200013c620012db565b3480156200032357600080fd5b50620003636200033536600462001e8a565b60009182526020829052604090912080546001600160a01b0319166001600160a01b03909216919091179055565b005b3480156200037257600080fd5b50620003636200038436600462002139565b620017e4565b3480156200039757600080fd5b50620003af620003a936600462001e8a565b62001963565b6040516200015192919062002171565b348015620003cc57600080fd5b506200021860015481565b348015620003e457600080fd5b5062000363620003f636600462001e8a565b62001a9b565b3480156200040957600080fd5b50620004216200041b36600462001eb9565b62001b0b565b604051620001519695949392919062002194565b3480156200044257600080fd5b506200017f6200045436600462001eb9565b6000908152600260205260409020600401546001600160a01b0316151590565b60608060608060608060606000805b6001548110156200055657600081815260026020526040902060048101546001600160a01b031615620005405760048181015482546040516318fbba2f60e11b8152928301523360248301526001600160a01b03169081906331f7745e90604401602060405180830381865afa15801562000502573d6000803e3d6000fd5b505050506040513d601f19601f82011682018060405250810190620005289190620021e3565b156200053e57836200053a8162002207565b9450505b505b50806200054d8162002207565b91505062000483565b50806001600160401b0381111562000572576200057262001ee8565b6040519080825280602002602001820160405280156200059c578160200160208202803683370190505b509750806001600160401b03811115620005ba57620005ba62001ee8565b604051908082528060200260200182016040528015620005ef57816020015b6060815260200190600190039081620005d95790505b509650806001600160401b038111156200060d576200060d62001ee8565b6040519080825280602002602001820160405280156200064257816020015b60608152602001906001900390816200062c5790505b509550806001600160401b0381111562000660576200066062001ee8565b6040519080825280602002602001820160405280156200068a578160200160208202803683370190505b509450806001600160401b03811115620006a857620006a862001ee8565b604051908082528060200260200182016040528015620006d2578160200160208202803683370190505b509350806001600160401b03811115620006f057620006f062001ee8565b6040519080825280602002602001820160405280156200071a578160200160208202803683370190505b509250806001600160401b0381111562000738576200073862001ee8565b60405190808252806020026020018201604052801562000762578160200160208202803683370190505b5091506000805b60015481101562000a6957600081815260026020526040902060048101546001600160a01b03161562000a535760048181015482546040516318fbba2f60e11b8152928301523360248301526001600160a01b03169081906331f7745e90604401602060405180830381865afa158015620007e8573d6000803e3d6000fd5b505050506040513d601f19601f820116820180604052508101906200080e9190620021e3565b1562000a515781600001548c85815181106200082e576200082e6200222f565b6020026020010181815250508160010180546200084b9062002245565b80601f0160208091040260200160405190810160405280929190818152602001828054620008799062002245565b8015620008ca5780601f106200089e57610100808354040283529160200191620008ca565b820191906000526020600020905b815481529060010190602001808311620008ac57829003601f168201915b50505050508b8581518110620008e457620008e46200222f565b60200260200101819052508160020160009054906101000a90046001600160a01b03166001600160a01b03166395d89b416040518163ffffffff1660e01b8152600401600060405180830381865afa15801562000945573d6000803e3d6000fd5b505050506040513d6000823e601f3d908101601f191682016040526200096f919081019062002281565b8a85815181106200098457620009846200222f565b6020908102919091010152600282015489516001600160a01b03909116908a9086908110620009b757620009b76200222f565b6001600160a01b039092166020928302919091019091015260068201548851899086908110620009eb57620009eb6200222f565b602002602001018181525050600087858151811062000a0e5762000a0e6200222f565b602002602001018181525050600186858151811062000a315762000a316200222f565b911515602092830291909101909101528362000a4d8162002207565b9450505b505b508062000a608162002207565b91505062000769565b50505090919293949596565b6000828152600260205260408120600781015460ff1662000aee5760405162461bcd60e51b815260206004820152602860248201527f4f7267616e697a6174696f6e20646f65732068616e646c652075736572206d6560448201526706d626572736869760c41b60648201526084015b60405180910390fd5b60048181015482546040516318fbba2f60e11b8152928301526001600160a01b038581166024840152169081906331f7745e90604401602060405180830381865afa15801562000b42573d6000803e3d6000fd5b505050506040513d601f19601f8201168201806040525081019062000b689190620021e3565b95945050505050565b6000828152600260205260408120600781015460ff1662000ba65760405162461bcd60e51b815260040162000ae590620022f7565b6001600160a01b03831660009081526005909101602052604090205460ff16905092915050565b6000818152600260205260408120600781015460ff1662000c025760405162461bcd60e51b815260040162000ae590620022f7565b600201546001600160a01b031692915050565b6000818152600260205260408120600781015460ff1662000c4a5760405162461bcd60e51b815260040162000ae590620022f7565b60028101546040516370a0823160e01b81523060048201526001600160a01b03909116906370a0823190602401602060405180830381865afa15801562000c95573d6000803e3d6000fd5b505050506040513d601f19601f8201168201806040525081019062000cbb91906200232e565b9392505050565b6060600380548060200260200160405190810160405280929190818152602001828054801562000d1257602002820191906000526020600020905b81548152602001906001019080831162000cfd575b5050505050905090565b60008334101562000d705760405162461bcd60e51b815260206004820152601860248201527f496e73756666696369656e7420455448206261636b696e670000000000000000604482015260640162000ae5565b60008787873060405162000d849062001c6d565b62000d93949392919062002348565b604051809103906000f08015801562000db0573d6000803e3d6000fd5b5090506001600160a01b03811662000e045760405162461bcd60e51b81526020600482015260166024820152752330b4b632b2103a379031b932b0ba32903a37b5b2b760511b604482015260640162000ae5565b841562000ec0576000816001600160a01b03168660405160006040518083038185875af1925050503d806000811462000e5a576040519150601f19603f3d011682016040523d82523d6000602084013e62000e5f565b606091505b505090508062000ebe5760405162461bcd60e51b8152602060048201526024808201527f4661696c656420746f2073656e642045544820746f20746f6b656e20636f6e746044820152631c9858dd60e21b606482015260840162000ae5565b505b600180546000918262000ed38362002207565b9091555060008181526002602052604090208181559091506001810162000efb8b82620023dd565b506002810180546001600160a01b038086166001600160a01b03199283161790925560078301805460ff1916600117905560038301879055600087815260208190526040902054600484018054909216921691909117905562000f5f823362001be2565b60005b865181101562000fa95762000f948388838151811062000f865762000f866200222f565b602002602001015162001be2565b8062000fa08162002207565b91505062000f62565b5060048101546001600160a01b0316156200102857600481810154825460405163da35a26f60e01b8152928301523360248301526001600160a01b031690819063da35a26f90604401600060405180830381600087803b1580156200100d57600080fd5b505af115801562001022573d6000803e3d6000fd5b50505050505b600380546001810182556000919091527fc2575a0e9e593c00f959f8c92f12db2869c3395a3b0502d05e2516446f71f85b0182905560405182907f922a324c596e3ff0b7475d8ad6ee962a1313f05ff06e1437d9f5c47b6a9bb9249062001093908d908790620024a9565b60405180910390a25098975050505050505050565b60038181548110620010b957600080fd5b600091825260209091200154905081565b600081815260026020526040812060078101546060918391839183918291829160ff166200110c5760405162461bcd60e51b815260040162000ae590620022f7565b80600001549750806001018054620011249062002245565b80601f0160208091040260200160405190810160405280929190818152602001828054620011529062002245565b8015620011a35780601f106200117757610100808354040283529160200191620011a3565b820191906000526020600020905b8154815290600101906020018083116200118557829003601f168201915b505050600284015460068501805460408051602080840282018101909252828152969d506001600160a01b039093169b5090935091508301828280156200121457602002820191906000526020600020905b81546001600160a01b03168152600190910190602001808311620011f5575b50505060038401543360009081526005860160205260408120546004870154959a5091985060ff9091169650945050506001600160a01b031615620012cf5760048181015482546040516318fbba2f60e11b8152928301523360248301526001600160a01b03169081906331f7745e90604401602060405180830381865afa158015620012a5573d6000803e3d6000fd5b505050506040513d601f19601f82011682018060405250810190620012cb9190620021e3565b9250505b50919395979092949650565b60608060608060608060606000805b6001548110156200134057600081815260026020908152604080832033845260050190915290205460ff16156200132b5781620013278162002207565b9250505b80620013378162002207565b915050620012ea565b50806001600160401b038111156200135c576200135c62001ee8565b60405190808252806020026020018201604052801562001386578160200160208202803683370190505b509750806001600160401b03811115620013a457620013a462001ee8565b604051908082528060200260200182016040528015620013d957816020015b6060815260200190600190039081620013c35790505b509650806001600160401b03811115620013f757620013f762001ee8565b6040519080825280602002602001820160405280156200142c57816020015b6060815260200190600190039081620014165790505b509550806001600160401b038111156200144a576200144a62001ee8565b60405190808252806020026020018201604052801562001474578160200160208202803683370190505b509450806001600160401b0381111562001492576200149262001ee8565b604051908082528060200260200182016040528015620014bc578160200160208202803683370190505b509350806001600160401b03811115620014da57620014da62001ee8565b60405190808252806020026020018201604052801562001504578160200160208202803683370190505b509250806001600160401b0381111562001522576200152262001ee8565b6040519080825280602002602001820160405280156200154c578160200160208202803683370190505b5091506000805b60015481101562000a6957600081815260026020908152604080832033845260050190915290205460ff1615620017cf57600081815260026020526040902080548b518c9085908110620015ab57620015ab6200222f565b602002602001018181525050806001018054620015c89062002245565b80601f0160208091040260200160405190810160405280929190818152602001828054620015f69062002245565b8015620016475780601f106200161b5761010080835404028352916020019162001647565b820191906000526020600020905b8154815290600101906020018083116200162957829003601f168201915b50505050508a84815181106200166157620016616200222f565b60200260200101819052508060020160009054906101000a90046001600160a01b03166001600160a01b03166395d89b416040518163ffffffff1660e01b8152600401600060405180830381865afa158015620016c2573d6000803e3d6000fd5b505050506040513d6000823e601f3d908101601f19168201604052620016ec919081019062002281565b8984815181106200170157620017016200222f565b6020908102919091010152600281015488516001600160a01b03909116908990859081106200173457620017346200222f565b6001600160a01b0390921660209283029190910190910152600681015487518890859081106200176857620017686200222f565b60200260200101818152505060008684815181106200178b576200178b6200222f565b6020026020010181815250506001858481518110620017ae57620017ae6200222f565b9115156020928302919091019091015282620017ca8162002207565b935050505b80620017db8162002207565b91505062001553565b6000838152600260205260409020600781015460ff16620018195760405162461bcd60e51b815260040162000ae590620022f7565b60028101546040516370a0823160e01b81523060048201526000916001600160a01b0316906370a0823190602401602060405180830381865afa15801562001865573d6000803e3d6000fd5b505050506040513d601f19601f820116820180604052508101906200188b91906200232e565b905082811015620018df5760405162461bcd60e51b815260206004820152601f60248201527f4e6f7420656e6f75676820746f6b656e7320696e204f72674d616e6167657200604482015260640162000ae5565b600282015460405163a9059cbb60e01b81526001600160a01b038681166004830152602482018690529091169063a9059cbb906044016020604051808303816000875af115801562001935573d6000803e3d6000fd5b505050506040513d601f19601f820116820180604052508101906200195b9190620021e3565b505050505050565b600082815260026020526040812060078101546060919060ff166200199c5760405162461bcd60e51b815260040162000ae590620022f7565b60028101546040516370a0823160e01b81526001600160a01b038681166004830152909116906370a0823190602401602060405180830381865afa158015620019e9573d6000803e3d6000fd5b505050506040513d601f19601f8201168201806040525081019062001a0f91906200232e565b8160020160009054906101000a90046001600160a01b03166001600160a01b03166395d89b416040518163ffffffff1660e01b8152600401600060405180830381865afa15801562001a65573d6000803e3d6000fd5b505050506040513d6000823e601f3d908101601f1916820160405262001a8f919081019062002281565b92509250509250929050565b6000828152600260209081526040808320338452600501909152902054829060ff1662001afa5760405162461bcd60e51b815260206004820152600c60248201526b2737ba1030b71030b236b4b760a11b604482015260640162000ae5565b62001b06838362001be2565b505050565b6002602052600090815260409020805460018201805491929162001b2f9062002245565b80601f016020809104026020016040519081016040528092919081815260200182805462001b5d9062002245565b801562001bae5780601f1062001b825761010080835404028352916020019162001bae565b820191906000526020600020905b81548152906001019060200180831162001b9057829003601f168201915b50505060028401546003850154600486015460079096015494956001600160a01b0392831695919450909116915060ff1686565b60008281526002602090815260408083206001600160a01b038516845260050190915290205460ff1662001c695760008281526002602081815260408084206001600160a01b038616808652600582018452918520805460ff1916600190811790915593835260060180549384018155845292200180546001600160a01b03191690911790555b5050565b61152880620024d683390190565b600081518084526020808501945080840160005b8381101562001cad5781518752958201959082019060010162001c8f565b509495945050505050565b60005b8381101562001cd557818101518382015260200162001cbb565b50506000910152565b6000815180845262001cf881602086016020860162001cb8565b601f01601f19169290920160200192915050565b600081518084526020808501808196508360051b8101915082860160005b8581101562001d5857828403895262001d4584835162001cde565b9885019893509084019060010162001d2a565b5091979650505050505050565b600081518084526020808501945080840160005b8381101562001cad5781516001600160a01b03168752958201959082019060010162001d79565b60e08152600062001db560e083018a62001c7b565b60208382038185015262001dca828b62001d0c565b9150838203604085015262001de0828a62001d0c565b9150838203606085015262001df6828962001d65565b9150838203608085015262001e0c828862001c7b565b915083820360a085015262001e22828762001c7b565b84810360c0860152855180825282870193509082019060005b8181101562001e5b57845115158352938301939183019160010162001e3b565b50909c9b505050505050505050505050565b80356001600160a01b038116811462001e8557600080fd5b919050565b6000806040838503121562001e9e57600080fd5b8235915062001eb06020840162001e6d565b90509250929050565b60006020828403121562001ecc57600080fd5b5035919050565b60208152600062000cbb602083018462001c7b565b634e487b7160e01b600052604160045260246000fd5b604051601f8201601f191681016001600160401b038111828210171562001f295762001f2962001ee8565b604052919050565b60006001600160401b0382111562001f4d5762001f4d62001ee8565b50601f01601f191660200190565b600082601f83011262001f6d57600080fd5b813562001f8462001f7e8262001f31565b62001efe565b81815284602083860101111562001f9a57600080fd5b816020850160208301376000918101602001919091529392505050565b60008060008060008060c0878903121562001fd157600080fd5b86356001600160401b038082111562001fe957600080fd5b62001ff78a838b0162001f5b565b97506020915081890135818111156200200f57600080fd5b6200201d8b828c0162001f5b565b97505060408901359550606089013594506080890135818111156200204157600080fd5b8901601f81018b136200205357600080fd5b80358281111562002068576200206862001ee8565b8060051b92506200207b84840162001efe565b818152928201840192848101908d8511156200209657600080fd5b928501925b84841015620020bf57620020af8462001e6d565b825292850192908501906200209b565b80975050505050505060a087013590509295509295509295565b87815260e060208201526000620020f460e083018962001cde565b6001600160a01b0388166040840152828103606084015262002117818862001d65565b6080840196909652505091151560a0830152151560c090910152949350505050565b6000806000606084860312156200214f57600080fd5b83359250620021616020850162001e6d565b9150604084013590509250925092565b8281526040602082015260006200218c604083018462001cde565b949350505050565b86815260c060208201526000620021af60c083018862001cde565b6001600160a01b03968716604084015260608301959095525091909316608082015291151560a09092019190915292915050565b600060208284031215620021f657600080fd5b8151801515811462000cbb57600080fd5b6000600182016200222857634e487b7160e01b600052601160045260246000fd5b5060010190565b634e487b7160e01b600052603260045260246000fd5b600181811c908216806200225a57607f821691505b6020821081036200227b57634e487b7160e01b600052602260045260246000fd5b50919050565b6000602082840312156200229457600080fd5b81516001600160401b03811115620022ab57600080fd5b8201601f81018413620022bd57600080fd5b8051620022ce62001f7e8262001f31565b818152856020838501011115620022e457600080fd5b62000b6882602083016020860162001cb8565b6020808252601b908201527f4f7267616e697a6174696f6e20646f6573206e6f742065786973740000000000604082015260600190565b6000602082840312156200234157600080fd5b5051919050565b6080815260006200235d608083018762001cde565b828103602084015262002371818762001cde565b604084019590955250506001600160a01b039190911660609091015292915050565b601f82111562001b0657600081815260208120601f850160051c81016020861015620023bc5750805b601f850160051c820191505b818110156200195b57828155600101620023c8565b81516001600160401b03811115620023f957620023f962001ee8565b62002411816200240a845462002245565b8462002393565b602080601f831160018114620024495760008415620024305750858301515b600019600386901b1c1916600185901b1785556200195b565b600085815260208120601f198616915b828110156200247a5788860151825594840194600190910190840162002459565b5085821015620024995787850151600019600388901b60f8161c191681555b5050505050600190811b01905550565b604081526000620024be604083018562001cde565b905060018060a01b0383166020830152939250505056fe60806040523480156200001157600080fd5b50604051620015283803806200152883398101604081905262000034916200035a565b33848460036200004583826200047e565b5060046200005482826200047e565b5050506001600160a01b0381166200008757604051631e4fbdf760e01b8152600060048201526024015b60405180910390fd5b6200009281620000d2565b506001600655620000bd81620000ab6012600a6200065f565b620000b7908562000677565b62000124565b50506007805460ff1916905550620006a79050565b600580546001600160a01b038381166001600160a01b0319831681179093556040519116919082907f8be0079c531659141344cd1fd0a4f28419497f9722a3daafe3b4186f6b6457e090600090a35050565b6001600160a01b038216620001505760405163ec442f0560e01b8152600060048201526024016200007e565b6200015e6000838362000162565b5050565b6001600160a01b0383166200019157806002600082825462000185919062000691565b90915550620002059050565b6001600160a01b03831660009081526020819052604090205481811015620001e65760405163391434e360e21b81526001600160a01b038516600482015260248101829052604481018390526064016200007e565b6001600160a01b03841660009081526020819052604090209082900390555b6001600160a01b038216620002235760028054829003905562000242565b6001600160a01b03821660009081526020819052604090208054820190555b816001600160a01b0316836001600160a01b03167fddf252ad1be2c89b69c2b068fc378daa952ba7f163c4a11628f55a4df523b3ef836040516200028891815260200190565b60405180910390a3505050565b634e487b7160e01b600052604160045260246000fd5b600082601f830112620002bd57600080fd5b81516001600160401b0380821115620002da57620002da62000295565b604051601f8301601f19908116603f0116810190828211818310171562000305576200030562000295565b816040528381526020925086838588010111156200032257600080fd5b600091505b8382101562000346578582018301518183018401529082019062000327565b600093810190920192909252949350505050565b600080600080608085870312156200037157600080fd5b84516001600160401b03808211156200038957600080fd5b6200039788838901620002ab565b95506020870151915080821115620003ae57600080fd5b50620003bd87828801620002ab565b60408701516060880151919550935090506001600160a01b0381168114620003e457600080fd5b939692955090935050565b600181811c908216806200040457607f821691505b6020821081036200042557634e487b7160e01b600052602260045260246000fd5b50919050565b601f8211156200047957600081815260208120601f850160051c81016020861015620004545750805b601f850160051c820191505b81811015620004755782815560010162000460565b5050505b505050565b81516001600160401b038111156200049a576200049a62000295565b620004b281620004ab8454620003ef565b846200042b565b602080601f831160018114620004ea5760008415620004d15750858301515b600019600386901b1c1916600185901b17855562000475565b600085815260208120601f198616915b828110156200051b57888601518255948401946001909101908401620004fa565b50858210156200053a5787850151600019600388901b60f8161c191681555b5050505050600190811b01905550565b634e487b7160e01b600052601160045260246000fd5b600181815b80851115620005a15781600019048211156200058557620005856200054a565b808516156200059357918102915b93841c939080029062000565565b509250929050565b600082620005ba5750600162000659565b81620005c95750600062000659565b8160018114620005e25760028114620005ed576200060d565b600191505062000659565b60ff8411156200060157620006016200054a565b50506001821b62000659565b5060208310610133831016604e8410600b841016171562000632575081810a62000659565b6200063e838362000560565b80600019048211156200065557620006556200054a565b0290505b92915050565b60006200067060ff841683620005a9565b9392505050565b80820281158282048414176200065957620006596200054a565b808201808211156200065957620006596200054a565b610e7180620006b76000396000f3fe60806040526004361061010d5760003560e01c806370a082311161009557806395d89b411161006457806395d89b41146102f1578063a9059cbb14610306578063b234de8214610326578063dd62ed3e14610340578063f2fde38b1461038657600080fd5b806370a082311461025e578063715018a61461029457806379cc6790146102a95780638da5cb5b146102c957600080fd5b806323b872dd116100dc57806323b872dd146101cd578063313ce567146101ed5780633ca967f31461020957806340c10f191461021e57806342966c681461023e57600080fd5b8063047e018b1461013157806306fdde0314610153578063095ea7b31461017e57806318160ddd146101ae57600080fd5b3661012c5761011a6103a6565b6007805460ff19166001908117909155005b600080fd5b34801561013d57600080fd5b5061015161014c366004610c80565b6103da565b005b34801561015f57600080fd5b50610168610679565b6040516101759190610c99565b60405180910390f35b34801561018a57600080fd5b5061019e610199366004610d03565b61070b565b6040519015158152602001610175565b3480156101ba57600080fd5b506002545b604051908152602001610175565b3480156101d957600080fd5b5061019e6101e8366004610d2d565b610725565b3480156101f957600080fd5b5060405160128152602001610175565b34801561021557600080fd5b506101bf610749565b34801561022a57600080fd5b50610151610239366004610d03565b61080b565b34801561024a57600080fd5b50610151610259366004610c80565b610821565b34801561026a57600080fd5b506101bf610279366004610d69565b6001600160a01b031660009081526020819052604090205490565b3480156102a057600080fd5b5061015161082b565b3480156102b557600080fd5b506101516102c4366004610d03565b61083d565b3480156102d557600080fd5b506005546040516001600160a01b039091168152602001610175565b3480156102fd57600080fd5b50610168610852565b34801561031257600080fd5b5061019e610321366004610d03565b610861565b34801561033257600080fd5b5060075461019e9060ff1681565b34801561034c57600080fd5b506101bf61035b366004610d8b565b6001600160a01b03918216600090815260016020908152604080832093909416825291909152205490565b34801561039257600080fd5b506101516103a1366004610d69565b61086f565b6005546001600160a01b031633146103d85760405163118cdaa760e01b81523360048201526024015b60405180910390fd5b565b6103e26108aa565b60075460ff1661042d5760405162461bcd60e51b8152602060048201526016602482015275149959195b5c1d1a5bdb881b9bdd08195b98589b195960521b60448201526064016103cf565b3360009081526020819052604090205481111561048c5760405162461bcd60e51b815260206004820152601a60248201527f496e73756666696369656e7420746f6b656e2062616c616e636500000000000060448201526064016103cf565b600081116104dc5760405162461bcd60e51b815260206004820152601d60248201527f416d6f756e74206d7573742062652067726561746572207468616e203000000060448201526064016103cf565b6000471161052c5760405162461bcd60e51b815260206004820152601f60248201527f4e6f2045544820617661696c61626c6520666f7220726564656d7074696f6e0060448201526064016103cf565b6000610536610749565b905060006105448284610dbe565b9050804710156105965760405162461bcd60e51b815260206004820152601c60248201527f496e73756666696369656e742045544820696e20636f6e74726163740000000060448201526064016103cf565b6105a033846108d4565b604051600090339083908381818185875af1925050503d80600081146105e2576040519150601f19603f3d011682016040523d82523d6000602084013e6105e7565b606091505b505090508061062e5760405162461bcd60e51b8152602060048201526013602482015272115512081d1c985b9cd9995c8819985a5b1959606a1b60448201526064016103cf565b604080518581526020810184905233917fd171fb179b26c49e23fe46eddd44d3048a1ad277b62144ac0725fbcf1dbf6d52910160405180910390a25050506106766001600655565b50565b60606003805461068890610de0565b80601f01602080910402602001604051908101604052809291908181526020018280546106b490610de0565b80156107015780601f106106d657610100808354040283529160200191610701565b820191906000526020600020905b8154815290600101906020018083116106e457829003601f168201915b5050505050905090565b60003361071981858561090a565b60019150505b92915050565b60003361073385828561091c565b61073e85858561099a565b506001949350505050565b60008061075560025490565b116107a25760405162461bcd60e51b815260206004820152601860248201527f4e6f20746f6b656e7320696e2063697263756c6174696f6e000000000000000060448201526064016103cf565b600047116107f25760405162461bcd60e51b815260206004820152601f60248201527f4e6f2045544820617661696c61626c6520666f7220726564656d7074696f6e0060448201526064016103cf565b476107fc60025490565b6108069190610dbe565b905090565b6108136103a6565b61081d82826109f9565b5050565b61067633826108d4565b6108336103a6565b6103d86000610a2f565b61084882338361091c565b61081d82826108d4565b60606004805461068890610de0565b60003361071981858561099a565b6108776103a6565b6001600160a01b0381166108a157604051631e4fbdf760e01b8152600060048201526024016103cf565b61067681610a2f565b6002600654036108cd57604051633ee5aeb560e01b815260040160405180910390fd5b6002600655565b6001600160a01b0382166108fe57604051634b637e8f60e11b8152600060048201526024016103cf565b61081d82600083610a81565b6109178383836001610bab565b505050565b6001600160a01b038381166000908152600160209081526040808320938616835292905220546000198114610994578181101561098557604051637dc7a0d960e11b81526001600160a01b038416600482015260248101829052604481018390526064016103cf565b61099484848484036000610bab565b50505050565b6001600160a01b0383166109c457604051634b637e8f60e11b8152600060048201526024016103cf565b6001600160a01b0382166109ee5760405163ec442f0560e01b8152600060048201526024016103cf565b610917838383610a81565b6001600160a01b038216610a235760405163ec442f0560e01b8152600060048201526024016103cf565b61081d60008383610a81565b600580546001600160a01b038381166001600160a01b0319831681179093556040519116919082907f8be0079c531659141344cd1fd0a4f28419497f9722a3daafe3b4186f6b6457e090600090a35050565b6001600160a01b038316610aac578060026000828254610aa19190610e1a565b90915550610b1e9050565b6001600160a01b03831660009081526020819052604090205481811015610aff5760405163391434e360e21b81526001600160a01b038516600482015260248101829052604481018390526064016103cf565b6001600160a01b03841660009081526020819052604090209082900390555b6001600160a01b038216610b3a57600280548290039055610b59565b6001600160a01b03821660009081526020819052604090208054820190555b816001600160a01b0316836001600160a01b03167fddf252ad1be2c89b69c2b068fc378daa952ba7f163c4a11628f55a4df523b3ef83604051610b9e91815260200190565b60405180910390a3505050565b6001600160a01b038416610bd55760405163e602df0560e01b8152600060048201526024016103cf565b6001600160a01b038316610bff57604051634a1406b160e11b8152600060048201526024016103cf565b6001600160a01b038085166000908152600160209081526040808320938716835292905220829055801561099457826001600160a01b0316846001600160a01b03167f8c5be1e5ebec7d5bd14f71427d1e84f3dd0314c0f7b2291e5b200ac8c7c3b92584604051610c7291815260200190565b60405180910390a350505050565b600060208284031215610c9257600080fd5b5035919050565b600060208083528351808285015260005b81811015610cc657858101830151858201604001528201610caa565b506000604082860101526040601f19601f8301168501019250505092915050565b80356001600160a01b0381168114610cfe57600080fd5b919050565b60008060408385031215610d1657600080fd5b610d1f83610ce7565b946020939093013593505050565b600080600060608486031215610d4257600080fd5b610d4b84610ce7565b9250610d5960208501610ce7565b9150604084013590509250925092565b600060208284031215610d7b57600080fd5b610d8482610ce7565b9392505050565b60008060408385031215610d9e57600080fd5b610da783610ce7565b9150610db560208401610ce7565b90509250929050565b600082610ddb57634e487b7160e01b600052601260045260246000fd5b500490565b600181811c90821680610df457607f821691505b602082108103610e1457634e487b7160e01b600052602260045260246000fd5b50919050565b8082018082111561071f57634e487b7160e01b600052601160045260246000fdfea2646970667358221220263c37855133dd274b648c81fe724946214b0b1ef0490497351d31b559a6498564736f6c63430008140033a2646970667358221220394666c86a4b8f99a7ff677d3a0db00b97bf9297c25d801f9d99b24398137c0264736f6c63430008140033",
  "devdoc": {
    "kind": "dev",
    "methods": {},
    "version": 1
  },
  "userdoc": {
    "kind": "user",
    "methods": {
      "addAdmin(uint256,address)": {
        "notice": "Agrega un administrador a una organizacin"
      },
      "createOrganization(string,string,uint256,uint256,address[],bytes32)": {
        "notice": "Crea una nueva organizacin"
      },
      "getBalanceOfOrg(uint256)": {
        "notice": "Obtiene el balance de una organizacin en su token con los 18 decimales"
      },
      "getOrganizationDetails(uint256)": {
        "notice": "Obtiene los detalles de una organizacin por ID"
      },
      "isAdmin(uint256,address)": {
        "notice": "Verifica si una direccin es administrador de una organizacin"
      },
      "listOrganizations()": {
        "notice": "Lista todas las organizaciones"
      }
    },
    "version": 1
  },
  "storageLayout": {
    "storage": [
      {
        "astId": 3747,
        "contract": "contracts/Organization/OrganizationManager.sol:OrganizationManager",
        "label": "customerBaseRegistry",
        "offset": 0,
        "slot": "0",
        "type": "t_mapping(t_bytes32,t_address)"
      },
      {
        "astId": 3749,
        "contract": "contracts/Organization/OrganizationManager.sol:OrganizationManager",
        "label": "orgCount",
        "offset": 0,
        "slot": "1",
        "type": "t_uint256"
      },
      {
        "astId": 3754,
        "contract": "contracts/Organization/OrganizationManager.sol:OrganizationManager",
        "label": "organizations",
        "offset": 0,
        "slot": "2",
        "type": "t_mapping(t_uint256,t_struct(Organization)3743_storage)"
      },
      {
        "astId": 3757,
        "contract": "contracts/Organization/OrganizationManager.sol:OrganizationManager",
        "label": "organizationIds",
        "offset": 0,
        "slot": "3",
        "type": "t_array(t_uint256)dyn_storage"
      }
    ],
    "types": {
      "t_address": {
        "encoding": "inplace",
        "label": "address",
        "numberOfBytes": "20"
      },
      "t_array(t_address)dyn_storage": {
        "base": "t_address",
        "encoding": "dynamic_array",
        "label": "address[]",
        "numberOfBytes": "32"
      },
      "t_array(t_uint256)dyn_storage": {
        "base": "t_uint256",
        "encoding": "dynamic_array",
        "label": "uint256[]",
        "numberOfBytes": "32"
      },
      "t_bool": {
        "encoding": "inplace",
        "label": "bool",
        "numberOfBytes": "1"
      },
      "t_bytes32": {
        "encoding": "inplace",
        "label": "bytes32",
        "numberOfBytes": "32"
      },
      "t_mapping(t_address,t_bool)": {
        "encoding": "mapping",
        "key": "t_address",
        "label": "mapping(address => bool)",
        "numberOfBytes": "32",
        "value": "t_bool"
      },
      "t_mapping(t_bytes32,t_address)": {
        "encoding": "mapping",
        "key": "t_bytes32",
        "label": "mapping(bytes32 => address)",
        "numberOfBytes": "32",
        "value": "t_address"
      },
      "t_mapping(t_uint256,t_struct(Organization)3743_storage)": {
        "encoding": "mapping",
        "key": "t_uint256",
        "label": "mapping(uint256 => struct OrganizationManager.Organization)",
        "numberOfBytes": "32",
        "value": "t_struct(Organization)3743_storage"
      },
      "t_string_storage": {
        "encoding": "bytes",
        "label": "string",
        "numberOfBytes": "32"
      },
      "t_struct(Organization)3743_storage": {
        "encoding": "inplace",
        "label": "struct OrganizationManager.Organization",
        "members": [
          {
            "astId": 3725,
            "contract": "contracts/Organization/OrganizationManager.sol:OrganizationManager",
            "label": "id",
            "offset": 0,
            "slot": "0",
            "type": "t_uint256"
          },
          {
            "astId": 3727,
            "contract": "contracts/Organization/OrganizationManager.sol:OrganizationManager",
            "label": "name",
            "offset": 0,
            "slot": "1",
            "type": "t_string_storage"
          },
          {
            "astId": 3729,
            "contract": "contracts/Organization/OrganizationManager.sol:OrganizationManager",
            "label": "token",
            "offset": 0,
            "slot": "2",
            "type": "t_address"
          },
          {
            "astId": 3731,
            "contract": "contracts/Organization/OrganizationManager.sol:OrganizationManager",
            "label": "customerBaseUID",
            "offset": 0,
            "slot": "3",
            "type": "t_bytes32"
          },
          {
            "astId": 3733,
            "contract": "contracts/Organization/OrganizationManager.sol:OrganizationManager",
            "label": "customerBaseAddr",
            "offset": 0,
            "slot": "4",
            "type": "t_address"
          },
          {
            "astId": 3737,
            "contract": "contracts/Organization/OrganizationManager.sol:OrganizationManager",
            "label": "adminExists",
            "offset": 0,
            "slot": "5",
            "type": "t_mapping(t_address,t_bool)"
          },
          {
            "astId": 3740,
            "contract": "contracts/Organization/OrganizationManager.sol:OrganizationManager",
            "label": "admins",
            "offset": 0,
            "slot": "6",
            "type": "t_array(t_address)dyn_storage"
          },
          {
            "astId": 3742,
            "contract": "contracts/Organization/OrganizationManager.sol:OrganizationManager",
            "label": "exists",
            "offset": 0,
            "slot": "7",
            "type": "t_bool"
          }
        ],
        "numberOfBytes": "256"
      },
      "t_uint256": {
        "encoding": "inplace",
        "label": "uint256",
        "numberOfBytes": "32"
      }
    }
  }
}