{
  "address": "0xd6DFF585b2C99605dCc787F8974e8a674AFfE768",
  "abi": [
    {
      "anonymous": false,
      "inputs": [
        {
          "indexed": true,
          "internalType": "uint256",
          "name": "orgId",
          "type": "uint256"
        },
        {
          "indexed": true,
          "internalType": "address",
          "name": "adminAddress",
          "type": "address"
        }
      ],
      "name": "OrganizationAdminAdded",
      "type": "event"
    },
    {
      "anonymous": false,
      "inputs": [
        {
          "indexed": true,
          "internalType": "uint256",
          "name": "orgId",
          "type": "uint256"
        },
        {
          "indexed": false,
          "internalType": "string",
          "name": "name",
          "type": "string"
        },
        {
          "indexed": false,
          "internalType": "address",
          "name": "token",
          "type": "address"
        },
        {
          "indexed": false,
          "internalType": "string",
          "name": "baseURI",
          "type": "string"
        }
      ],
      "name": "OrganizationCreated",
      "type": "event"
    },
    {
      "inputs": [
        {
          "internalType": "uint256",
          "name": "_orgId",
          "type": "uint256"
        },
        {
          "internalType": "address",
          "name": "_admin",
          "type": "address"
        }
      ],
      "name": "addAdmin",
      "outputs": [],
      "stateMutability": "nonpayable",
      "type": "function"
    },
    {
      "inputs": [
        {
          "internalType": "string",
          "name": "_name",
          "type": "string"
        },
        {
          "internalType": "string",
          "name": "_symbol",
          "type": "string"
        },
        {
          "internalType": "uint256",
          "name": "_initialSupply",
          "type": "uint256"
        },
        {
          "internalType": "uint256",
          "name": "_initialEthBacking",
          "type": "uint256"
        },
        {
          "internalType": "address[]",
          "name": "_admins",
          "type": "address[]"
        },
        {
          "internalType": "string",
          "name": "_baseURI",
          "type": "string"
        }
      ],
      "name": "createOrganization",
      "outputs": [
        {
          "internalType": "uint256",
          "name": "",
          "type": "uint256"
        }
      ],
      "stateMutability": "payable",
      "type": "function"
    },
    {
      "inputs": [
        {
          "internalType": "uint256",
          "name": "_orgId",
          "type": "uint256"
        }
      ],
      "name": "getBalanceOfOrg",
      "outputs": [
        {
          "internalType": "uint256",
          "name": "",
          "type": "uint256"
        }
      ],
      "stateMutability": "view",
      "type": "function"
    },
    {
      "inputs": [
        {
          "internalType": "uint256",
          "name": "_orgId",
          "type": "uint256"
        },
        {
          "internalType": "address",
          "name": "_user",
          "type": "address"
        }
      ],
      "name": "getBalanceOfUser",
      "outputs": [
        {
          "internalType": "uint256",
          "name": "",
          "type": "uint256"
        },
        {
          "internalType": "string",
          "name": "",
          "type": "string"
        }
      ],
      "stateMutability": "view",
      "type": "function"
    },
    {
      "inputs": [
        {
          "internalType": "uint256",
          "name": "_orgId",
          "type": "uint256"
        }
      ],
      "name": "getOrganizationDetails",
      "outputs": [
        {
          "internalType": "uint256",
          "name": "orgId",
          "type": "uint256"
        },
        {
          "internalType": "string",
          "name": "name",
          "type": "string"
        },
        {
          "internalType": "address",
          "name": "token",
          "type": "address"
        },
        {
          "internalType": "address[]",
          "name": "admins",
          "type": "address[]"
        },
        {
          "internalType": "bool",
          "name": "userIsAdmin",
          "type": "bool"
        }
      ],
      "stateMutability": "view",
      "type": "function"
    },
    {
      "inputs": [
        {
          "internalType": "uint256",
          "name": "_orgId",
          "type": "uint256"
        }
      ],
      "name": "getTokenOfOrg",
      "outputs": [
        {
          "internalType": "address",
          "name": "",
          "type": "address"
        }
      ],
      "stateMutability": "view",
      "type": "function"
    },
    {
      "inputs": [
        {
          "internalType": "uint256",
          "name": "_orgId",
          "type": "uint256"
        },
        {
          "internalType": "address",
          "name": "_user",
          "type": "address"
        }
      ],
      "name": "isAdmin",
      "outputs": [
        {
          "internalType": "bool",
          "name": "",
          "type": "bool"
        }
      ],
      "stateMutability": "view",
      "type": "function"
    },
    {
      "inputs": [],
      "name": "listAdministratedOrganizations",
      "outputs": [
        {
          "internalType": "uint256[]",
          "name": "orgIds",
          "type": "uint256[]"
        },
        {
          "internalType": "string[]",
          "name": "names",
          "type": "string[]"
        },
        {
          "internalType": "string[]",
          "name": "tokenSymbols",
          "type": "string[]"
        },
        {
          "internalType": "address[]",
          "name": "tokenAddresses",
          "type": "address[]"
        },
        {
          "internalType": "uint256[]",
          "name": "adminCounts",
          "type": "uint256[]"
        }
      ],
      "stateMutability": "view",
      "type": "function"
    },
    {
      "inputs": [],
      "name": "listOrganizations",
      "outputs": [
        {
          "internalType": "uint256[]",
          "name": "",
          "type": "uint256[]"
        }
      ],
      "stateMutability": "view",
      "type": "function"
    },
    {
      "inputs": [],
      "name": "listOrganizationsWithDetails",
      "outputs": [
        {
          "internalType": "uint256[]",
          "name": "orgIds",
          "type": "uint256[]"
        },
        {
          "internalType": "string[]",
          "name": "names",
          "type": "string[]"
        },
        {
          "internalType": "string[]",
          "name": "tokenSymbols",
          "type": "string[]"
        },
        {
          "internalType": "address[]",
          "name": "tokenAddresses",
          "type": "address[]"
        },
        {
          "internalType": "uint256[]",
          "name": "adminCounts",
          "type": "uint256[]"
        }
      ],
      "stateMutability": "view",
      "type": "function"
    },
    {
      "inputs": [],
      "name": "orgCount",
      "outputs": [
        {
          "internalType": "uint256",
          "name": "",
          "type": "uint256"
        }
      ],
      "stateMutability": "view",
      "type": "function"
    },
    {
      "inputs": [
        {
          "internalType": "string",
          "name": "",
          "type": "string"
        }
      ],
      "name": "orgNameExists",
      "outputs": [
        {
          "internalType": "bool",
          "name": "",
          "type": "bool"
        }
      ],
      "stateMutability": "view",
      "type": "function"
    },
    {
      "inputs": [
        {
          "internalType": "uint256",
          "name": "",
          "type": "uint256"
        }
      ],
      "name": "organizationIds",
      "outputs": [
        {
          "internalType": "uint256",
          "name": "",
          "type": "uint256"
        }
      ],
      "stateMutability": "view",
      "type": "function"
    },
    {
      "inputs": [
        {
          "internalType": "uint256",
          "name": "",
          "type": "uint256"
        }
      ],
      "name": "organizations",
      "outputs": [
        {
          "internalType": "uint256",
          "name": "id",
          "type": "uint256"
        },
        {
          "internalType": "string",
          "name": "name",
          "type": "string"
        },
        {
          "internalType": "address",
          "name": "token",
          "type": "address"
        },
        {
          "internalType": "string",
          "name": "baseURI",
          "type": "string"
        },
        {
          "internalType": "bool",
          "name": "exists",
          "type": "bool"
        }
      ],
      "stateMutability": "view",
      "type": "function"
    },
    {
      "inputs": [
        {
          "internalType": "string",
          "name": "",
          "type": "string"
        }
      ],
      "name": "tokenSymbolExists",
      "outputs": [
        {
          "internalType": "bool",
          "name": "",
          "type": "bool"
        }
      ],
      "stateMutability": "view",
      "type": "function"
    },
    {
      "inputs": [
        {
          "internalType": "uint256",
          "name": "_orgId",
          "type": "uint256"
        },
        {
          "internalType": "address",
          "name": "_destAddress",
          "type": "address"
        },
        {
          "internalType": "uint256",
          "name": "_amount",
          "type": "uint256"
        }
      ],
      "name": "transferTokensTo",
      "outputs": [],
      "stateMutability": "nonpayable",
      "type": "function"
    }
  ],
  "transactionHash": "0xc91c03d8da69b70cb3fde4b07ecd3fe373132ff9ae6c525cb7080d17ea745af8",
  "args": [],
  "numDeployments": 3,
  "solcInputHash": "6a7a04fc73320e906a291255894636d2",
  "bytecode": "0x608060405234801561001057600080fd5b5061371e806100206000396000f3fe608060405260043610620001075760003560e01c806379bb57b41162000095578063b163044f1162000060578063b163044f1462000340578063d81066901462000375578063dbdc814b146200038d578063e792dd8a14620003b257600080fd5b806379bb57b414620002b25780637b21dad214620002ea578063a7b02ae41462000302578063b12e5f6e146200032957600080fd5b80631bc7046d11620000d65780631bc7046d14620001f457806332878d4d1462000232578063340d84e5146200026657806350b33f80146200028d57600080fd5b806305babe4c146200010c5780630bd47a781462000140578063146a2911146200019057806318159a4b14620001b5575b600080fd5b3480156200011957600080fd5b5062000124620003ea565b6040516200013795949392919062001a50565b60405180910390f35b3480156200014d57600080fd5b506200017f6200015f36600462001b96565b805160208183018101805160038252928201919093012091525460ff1681565b604051901515815260200162000137565b3480156200019d57600080fd5b506200017f620001af36600462001bf3565b62000795565b348015620001c257600080fd5b506200017f620001d436600462001b96565b805160208183018101805160028252928201919093012091525460ff1681565b3480156200020157600080fd5b50620002196200021336600462001c22565b620007fa565b6040516001600160a01b03909116815260200162000137565b3480156200023f57600080fd5b50620002576200025136600462001c22565b62000842565b60405190815260200162000137565b3480156200027357600080fd5b506200027e620008ef565b60405162000137919062001c3c565b3480156200029a57600080fd5b5062000257620002ac36600462001c22565b62000949565b348015620002bf57600080fd5b50620002d7620002d136600462001c22565b6200096b565b6040516200013795949392919062001c51565b348015620002f757600080fd5b506200012462000ade565b3480156200030f57600080fd5b50620003276200032136600462001ca4565b62000f9a565b005b620002576200033a36600462001d6d565b62001119565b3480156200034d57600080fd5b50620003656200035f36600462001bf3565b62001563565b6040516200013792919062001e38565b3480156200038257600080fd5b506200025760005481565b3480156200039a57600080fd5b5062000327620003ac36600462001bf3565b6200169b565b348015620003bf57600080fd5b50620003d7620003d136600462001c22565b6200170b565b6040516200013795949392919062001e53565b60608060608060606000546001600160401b038111156200040f576200040f62001ac7565b60405190808252806020026020018201604052801562000439578160200160208202803683370190505b5094506000546001600160401b0381111562000459576200045962001ac7565b6040519080825280602002602001820160405280156200048e57816020015b6060815260200190600190039081620004785790505b5093506000546001600160401b03811115620004ae57620004ae62001ac7565b604051908082528060200260200182016040528015620004e357816020015b6060815260200190600190039081620004cd5790505b5092506000546001600160401b0381111562000503576200050362001ac7565b6040519080825280602002602001820160405280156200052d578160200160208202803683370190505b5091506000546001600160401b038111156200054d576200054d62001ac7565b60405190808252806020026020018201604052801562000577578160200160208202803683370190505b50905060005b6000548110156200078d57600081815260016020526040902080548751889084908110620005af57620005af62001e91565b602002602001018181525050806001018054620005cc9062001ea7565b80601f0160208091040260200160405190810160405280929190818152602001828054620005fa9062001ea7565b80156200064b5780601f106200061f576101008083540402835291602001916200064b565b820191906000526020600020905b8154815290600101906020018083116200062d57829003601f168201915b505050505086838151811062000665576200066562001e91565b60200260200101819052508060020160009054906101000a90046001600160a01b03166001600160a01b03166395d89b416040518163ffffffff1660e01b8152600401600060405180830381865afa158015620006c6573d6000803e3d6000fd5b505050506040513d6000823e601f3d908101601f19168201604052620006f0919081019062001ee3565b85838151811062000705576200070562001e91565b6020908102919091010152600281015484516001600160a01b039091169085908490811062000738576200073862001e91565b6001600160a01b0390921660209283029190910190910152600581015483518490849081106200076c576200076c62001e91565b60209081029190910101525080620007848162001f62565b9150506200057d565b509091929394565b6000828152600160205260408120600681015460ff16620007d35760405162461bcd60e51b8152600401620007ca9062001f8a565b60405180910390fd5b6001600160a01b03831660009081526004909101602052604090205460ff16905092915050565b6000818152600160205260408120600681015460ff166200082f5760405162461bcd60e51b8152600401620007ca9062001f8a565b600201546001600160a01b031692915050565b6000818152600160205260408120600681015460ff16620008775760405162461bcd60e51b8152600401620007ca9062001f8a565b60028101546040516370a0823160e01b81523060048201526001600160a01b03909116906370a0823190602401602060405180830381865afa158015620008c2573d6000803e3d6000fd5b505050506040513d601f19601f82011682018060405250810190620008e8919062001fc1565b9392505050565b606060048054806020026020016040519081016040528092919081815260200182805480156200093f57602002820191906000526020600020905b8154815260200190600101908083116200092a575b5050505050905090565b600481815481106200095a57600080fd5b600091825260209091200154905081565b6000818152600160205260408120600681015460609183918391839160ff16620009a95760405162461bcd60e51b8152600401620007ca9062001f8a565b80600001549550806001018054620009c19062001ea7565b80601f0160208091040260200160405190810160405280929190818152602001828054620009ef9062001ea7565b801562000a405780601f1062000a145761010080835404028352916020019162000a40565b820191906000526020600020905b81548152906001019060200180831162000a2257829003601f168201915b505050600284015460058501805460408051602080840282018101909252828152969b506001600160a01b039093169950909350915083018282801562000ab157602002820191906000526020600020905b81546001600160a01b0316815260019091019060200180831162000a92575b50503360009081526004909501602052505060409092205496989597509395939460ff9094169392505050565b60608060608060606000805b60005481101562000b5e5760008181526001602052604090206006015460ff16801562000b335750600081815260016020908152604080832033845260040190915290205460ff165b1562000b49578162000b458162001f62565b9250505b8062000b558162001f62565b91505062000aea565b50806001600160401b0381111562000b7a5762000b7a62001ac7565b60405190808252806020026020018201604052801562000ba4578160200160208202803683370190505b509550806001600160401b0381111562000bc25762000bc262001ac7565b60405190808252806020026020018201604052801562000bf757816020015b606081526020019060019003908162000be15790505b509450806001600160401b0381111562000c155762000c1562001ac7565b60405190808252806020026020018201604052801562000c4a57816020015b606081526020019060019003908162000c345790505b509350806001600160401b0381111562000c685762000c6862001ac7565b60405190808252806020026020018201604052801562000c92578160200160208202803683370190505b509250806001600160401b0381111562000cb05762000cb062001ac7565b60405190808252806020026020018201604052801562000cda578160200160208202803683370190505b5091506000805b60005481101562000f905760008181526001602052604090206006015460ff16801562000d2a5750600081815260016020908152604080832033845260040190915290205460ff165b1562000f7b576000818152600160205260409020805489518a908590811062000d575762000d5762001e91565b60200260200101818152505080600101805462000d749062001ea7565b80601f016020809104026020016040519081016040528092919081815260200182805462000da29062001ea7565b801562000df35780601f1062000dc75761010080835404028352916020019162000df3565b820191906000526020600020905b81548152906001019060200180831162000dd557829003601f168201915b505050505088848151811062000e0d5762000e0d62001e91565b602090810291909101015260028101546001600160a01b03161562000ed2578060020160009054906101000a90046001600160a01b03166001600160a01b03166395d89b416040518163ffffffff1660e01b8152600401600060405180830381865afa15801562000e82573d6000803e3d6000fd5b505050506040513d6000823e601f3d908101601f1916820160405262000eac919081019062001ee3565b87848151811062000ec15762000ec162001e91565b602002602001018190525062000f03565b6040518060200160405280600081525087848151811062000ef75762000ef762001e91565b60200260200101819052505b600281015486516001600160a01b039091169087908590811062000f2b5762000f2b62001e91565b6001600160a01b03909216602092830291909101909101526005810154855186908590811062000f5f5762000f5f62001e91565b60209081029190910101528262000f768162001f62565b935050505b8062000f878162001f62565b91505062000ce1565b5050509091929394565b6000838152600160205260409020600681015460ff1662000fcf5760405162461bcd60e51b8152600401620007ca9062001f8a565b60028101546040516370a0823160e01b81523060048201526000916001600160a01b0316906370a0823190602401602060405180830381865afa1580156200101b573d6000803e3d6000fd5b505050506040513d601f19601f8201168201806040525081019062001041919062001fc1565b905082811015620010955760405162461bcd60e51b815260206004820152601f60248201527f4e6f7420656e6f75676820746f6b656e7320696e204f72674d616e61676572006044820152606401620007ca565b600282015460405163a9059cbb60e01b81526001600160a01b038681166004830152602482018690529091169063a9059cbb906044016020604051808303816000875af1158015620010eb573d6000803e3d6000fd5b505050506040513d601f19601f8201168201806040525081019062001111919062001fdb565b505050505050565b6000833410156200116d5760405162461bcd60e51b815260206004820152601860248201527f496e73756666696369656e7420455448206261636b696e6700000000000000006044820152606401620007ca565b6002876040516200117f919062001fff565b9081526040519081900360200190205460ff1615620011e15760405162461bcd60e51b815260206004820181905260248201527f4f7267616e697a6174696f6e206e616d6520616c7265616479206578697374736044820152606401620007ca565b600386604051620011f3919062001fff565b9081526040519081900360200190205460ff1615620012555760405162461bcd60e51b815260206004820152601b60248201527f546f6b656e2073796d626f6c20616c72656164792065786973747300000000006044820152606401620007ca565b600160028860405162001269919062001fff565b908152604051908190036020018120805492151560ff19909316929092179091556001906003906200129d90899062001fff565b908152602001604051809103902060006101000a81548160ff021916908315150217905550600087878730604051620012d69062001920565b620012e594939291906200201d565b604051809103906000f08015801562001302573d6000803e3d6000fd5b5090506001600160a01b038116620013565760405162461bcd60e51b81526020600482015260166024820152752330b4b632b2103a379031b932b0ba32903a37b5b2b760511b6044820152606401620007ca565b841562001412576000816001600160a01b03168660405160006040518083038185875af1925050503d8060008114620013ac576040519150601f19603f3d011682016040523d82523d6000602084013e620013b1565b606091505b5050905080620014105760405162461bcd60e51b8152602060048201526024808201527f4661696c656420746f2073656e642045544820746f20746f6b656e20636f6e746044820152631c9858dd60e21b6064820152608401620007ca565b505b600080548180620014238362001f62565b90915550600081815260016020819052604090912082815591925081016200144c8b82620020b2565b506002810180546001600160a01b0319166001600160a01b03851617905560068101805460ff1916600117905560038101620014898682620020b2565b506200149682336200186b565b60005b8651811015620014e057620014cb83888381518110620014bd57620014bd62001e91565b60200260200101516200186b565b80620014d78162001f62565b91505062001499565b50600480546001810182556000919091527f8a35acfbc15ff81a39ae7d344fd709f28e8600b4aa8c65c6b64bfe7fe36bd19b0182905560405182907fe52536cd2ee5b8fcd2eeaabb1fc4b99012dc2d3196320ad31d1ed496ba3fa666906200154e908d9087908a906200217e565b60405180910390a25098975050505050505050565b600082815260016020526040812060068101546060919060ff166200159c5760405162461bcd60e51b8152600401620007ca9062001f8a565b60028101546040516370a0823160e01b81526001600160a01b038681166004830152909116906370a0823190602401602060405180830381865afa158015620015e9573d6000803e3d6000fd5b505050506040513d601f19601f820116820180604052508101906200160f919062001fc1565b8160020160009054906101000a90046001600160a01b03166001600160a01b03166395d89b416040518163ffffffff1660e01b8152600401600060405180830381865afa15801562001665573d6000803e3d6000fd5b505050506040513d6000823e601f3d908101601f191682016040526200168f919081019062001ee3565b92509250509250929050565b6000828152600160209081526040808320338452600401909152902054829060ff16620016fa5760405162461bcd60e51b815260206004820152600c60248201526b2737ba1030b71030b236b4b760a11b6044820152606401620007ca565b6200170683836200186b565b505050565b6001602081905260009182526040909120805491810180546200172e9062001ea7565b80601f01602080910402602001604051908101604052809291908181526020018280546200175c9062001ea7565b8015620017ad5780601f106200178157610100808354040283529160200191620017ad565b820191906000526020600020905b8154815290600101906020018083116200178f57829003601f168201915b505050600284015460038501805494956001600160a01b03909216949193509150620017d99062001ea7565b80601f0160208091040260200160405190810160405280929190818152602001828054620018079062001ea7565b8015620018585780601f106200182c5761010080835404028352916020019162001858565b820191906000526020600020905b8154815290600101906020018083116200183a57829003601f168201915b5050506006909301549192505060ff1685565b60008281526001602090815260408083206001600160a01b038516845260040190915290205460ff166200191c5760008281526001602081815260408084206001600160a01b038616808652600482018452828620805460ff191686179055848452600590910180549485018155855291842090920180546001600160a01b031916821790559051909184917f55b5e037642e49f39be9448503a157f3ecc601d7b58cd53f5d963f20eabfe7599190a35b5050565b61152880620021c183390190565b600081518084526020808501945080840160005b83811015620019605781518752958201959082019060010162001942565b509495945050505050565b60005b83811015620019885781810151838201526020016200196e565b50506000910152565b60008151808452620019ab8160208601602086016200196b565b601f01601f19169290920160200192915050565b6000815180845260208085019450848260051b860182860160005b8581101562001a08578383038952620019f583835162001991565b98850198925090840190600101620019da565b5090979650505050505050565b600081518084526020808501945080840160005b83811015620019605781516001600160a01b03168752958201959082019060010162001a29565b60a08152600062001a6560a08301886200192e565b828103602084015262001a798188620019bf565b9050828103604084015262001a8f8187620019bf565b9050828103606084015262001aa5818662001a15565b9050828103608084015262001abb81856200192e565b98975050505050505050565b634e487b7160e01b600052604160045260246000fd5b604051601f8201601f191681016001600160401b038111828210171562001b085762001b0862001ac7565b604052919050565b60006001600160401b0382111562001b2c5762001b2c62001ac7565b50601f01601f191660200190565b600082601f83011262001b4c57600080fd5b813562001b6362001b5d8262001b10565b62001add565b81815284602083860101111562001b7957600080fd5b816020850160208301376000918101602001919091529392505050565b60006020828403121562001ba957600080fd5b81356001600160401b0381111562001bc057600080fd5b62001bce8482850162001b3a565b949350505050565b80356001600160a01b038116811462001bee57600080fd5b919050565b6000806040838503121562001c0757600080fd5b8235915062001c196020840162001bd6565b90509250929050565b60006020828403121562001c3557600080fd5b5035919050565b602081526000620008e860208301846200192e565b85815260a06020820152600062001c6c60a083018762001991565b6001600160a01b0386166040840152828103606084015262001c8f818662001a15565b91505082151560808301529695505050505050565b60008060006060848603121562001cba57600080fd5b8335925062001ccc6020850162001bd6565b9150604084013590509250925092565b600082601f83011262001cee57600080fd5b813560206001600160401b0382111562001d0c5762001d0c62001ac7565b8160051b62001d1d82820162001add565b928352848101820192828101908785111562001d3857600080fd5b83870192505b8483101562001d625762001d528362001bd6565b8252918301919083019062001d3e565b979650505050505050565b60008060008060008060c0878903121562001d8757600080fd5b86356001600160401b038082111562001d9f57600080fd5b62001dad8a838b0162001b3a565b9750602089013591508082111562001dc457600080fd5b62001dd28a838b0162001b3a565b96506040890135955060608901359450608089013591508082111562001df757600080fd5b62001e058a838b0162001cdc565b935060a089013591508082111562001e1c57600080fd5b5062001e2b89828a0162001b3a565b9150509295509295509295565b82815260406020820152600062001bce604083018462001991565b85815260a06020820152600062001e6e60a083018762001991565b6001600160a01b0386166040840152828103606084015262001c8f818662001991565b634e487b7160e01b600052603260045260246000fd5b600181811c9082168062001ebc57607f821691505b60208210810362001edd57634e487b7160e01b600052602260045260246000fd5b50919050565b60006020828403121562001ef657600080fd5b81516001600160401b0381111562001f0d57600080fd5b8201601f8101841362001f1f57600080fd5b805162001f3062001b5d8262001b10565b81815285602083850101111562001f4657600080fd5b62001f598260208301602086016200196b565b95945050505050565b60006001820162001f8357634e487b7160e01b600052601160045260246000fd5b5060010190565b6020808252601b908201527f4f7267616e697a6174696f6e20646f6573206e6f742065786973740000000000604082015260600190565b60006020828403121562001fd457600080fd5b5051919050565b60006020828403121562001fee57600080fd5b81518015158114620008e857600080fd5b60008251620020138184602087016200196b565b9190910192915050565b60808152600062002032608083018762001991565b828103602084015262002046818762001991565b604084019590955250506001600160a01b039190911660609091015292915050565b601f8211156200170657600081815260208120601f850160051c81016020861015620020915750805b601f850160051c820191505b8181101562001111578281556001016200209d565b81516001600160401b03811115620020ce57620020ce62001ac7565b620020e681620020df845462001ea7565b8462002068565b602080601f8311600181146200211e5760008415620021055750858301515b600019600386901b1c1916600185901b17855562001111565b600085815260208120601f198616915b828110156200214f578886015182559484019460019091019084016200212e565b50858210156200216e5787850151600019600388901b60f8161c191681555b5050505050600190811b01905550565b60608152600062002193606083018662001991565b6001600160a01b03851660208401528281036040840152620021b6818562001991565b969550505050505056fe60806040523480156200001157600080fd5b50604051620015283803806200152883398101604081905262000034916200035a565b33848460036200004583826200047e565b5060046200005482826200047e565b5050506001600160a01b0381166200008757604051631e4fbdf760e01b8152600060048201526024015b60405180910390fd5b6200009281620000d2565b506001600655620000bd81620000ab6012600a6200065f565b620000b7908562000677565b62000124565b50506007805460ff1916905550620006a79050565b600580546001600160a01b038381166001600160a01b0319831681179093556040519116919082907f8be0079c531659141344cd1fd0a4f28419497f9722a3daafe3b4186f6b6457e090600090a35050565b6001600160a01b038216620001505760405163ec442f0560e01b8152600060048201526024016200007e565b6200015e6000838362000162565b5050565b6001600160a01b0383166200019157806002600082825462000185919062000691565b90915550620002059050565b6001600160a01b03831660009081526020819052604090205481811015620001e65760405163391434e360e21b81526001600160a01b038516600482015260248101829052604481018390526064016200007e565b6001600160a01b03841660009081526020819052604090209082900390555b6001600160a01b038216620002235760028054829003905562000242565b6001600160a01b03821660009081526020819052604090208054820190555b816001600160a01b0316836001600160a01b03167fddf252ad1be2c89b69c2b068fc378daa952ba7f163c4a11628f55a4df523b3ef836040516200028891815260200190565b60405180910390a3505050565b634e487b7160e01b600052604160045260246000fd5b600082601f830112620002bd57600080fd5b81516001600160401b0380821115620002da57620002da62000295565b604051601f8301601f19908116603f0116810190828211818310171562000305576200030562000295565b816040528381526020925086838588010111156200032257600080fd5b600091505b8382101562000346578582018301518183018401529082019062000327565b600093810190920192909252949350505050565b600080600080608085870312156200037157600080fd5b84516001600160401b03808211156200038957600080fd5b6200039788838901620002ab565b95506020870151915080821115620003ae57600080fd5b50620003bd87828801620002ab565b60408701516060880151919550935090506001600160a01b0381168114620003e457600080fd5b939692955090935050565b600181811c908216806200040457607f821691505b6020821081036200042557634e487b7160e01b600052602260045260246000fd5b50919050565b601f8211156200047957600081815260208120601f850160051c81016020861015620004545750805b601f850160051c820191505b81811015620004755782815560010162000460565b5050505b505050565b81516001600160401b038111156200049a576200049a62000295565b620004b281620004ab8454620003ef565b846200042b565b602080601f831160018114620004ea5760008415620004d15750858301515b600019600386901b1c1916600185901b17855562000475565b600085815260208120601f198616915b828110156200051b57888601518255948401946001909101908401620004fa565b50858210156200053a5787850151600019600388901b60f8161c191681555b5050505050600190811b01905550565b634e487b7160e01b600052601160045260246000fd5b600181815b80851115620005a15781600019048211156200058557620005856200054a565b808516156200059357918102915b93841c939080029062000565565b509250929050565b600082620005ba5750600162000659565b81620005c95750600062000659565b8160018114620005e25760028114620005ed576200060d565b600191505062000659565b60ff8411156200060157620006016200054a565b50506001821b62000659565b5060208310610133831016604e8410600b841016171562000632575081810a62000659565b6200063e838362000560565b80600019048211156200065557620006556200054a565b0290505b92915050565b60006200067060ff841683620005a9565b9392505050565b80820281158282048414176200065957620006596200054a565b808201808211156200065957620006596200054a565b610e7180620006b76000396000f3fe60806040526004361061010d5760003560e01c806370a082311161009557806395d89b411161006457806395d89b41146102f1578063a9059cbb14610306578063b234de8214610326578063dd62ed3e14610340578063f2fde38b1461038657600080fd5b806370a082311461025e578063715018a61461029457806379cc6790146102a95780638da5cb5b146102c957600080fd5b806323b872dd116100dc57806323b872dd146101cd578063313ce567146101ed5780633ca967f31461020957806340c10f191461021e57806342966c681461023e57600080fd5b8063047e018b1461013157806306fdde0314610153578063095ea7b31461017e57806318160ddd146101ae57600080fd5b3661012c5761011a6103a6565b6007805460ff19166001908117909155005b600080fd5b34801561013d57600080fd5b5061015161014c366004610c80565b6103da565b005b34801561015f57600080fd5b50610168610679565b6040516101759190610c99565b60405180910390f35b34801561018a57600080fd5b5061019e610199366004610d03565b61070b565b6040519015158152602001610175565b3480156101ba57600080fd5b506002545b604051908152602001610175565b3480156101d957600080fd5b5061019e6101e8366004610d2d565b610725565b3480156101f957600080fd5b5060405160128152602001610175565b34801561021557600080fd5b506101bf610749565b34801561022a57600080fd5b50610151610239366004610d03565b61080b565b34801561024a57600080fd5b50610151610259366004610c80565b610821565b34801561026a57600080fd5b506101bf610279366004610d69565b6001600160a01b031660009081526020819052604090205490565b3480156102a057600080fd5b5061015161082b565b3480156102b557600080fd5b506101516102c4366004610d03565b61083d565b3480156102d557600080fd5b506005546040516001600160a01b039091168152602001610175565b3480156102fd57600080fd5b50610168610852565b34801561031257600080fd5b5061019e610321366004610d03565b610861565b34801561033257600080fd5b5060075461019e9060ff1681565b34801561034c57600080fd5b506101bf61035b366004610d8b565b6001600160a01b03918216600090815260016020908152604080832093909416825291909152205490565b34801561039257600080fd5b506101516103a1366004610d69565b61086f565b6005546001600160a01b031633146103d85760405163118cdaa760e01b81523360048201526024015b60405180910390fd5b565b6103e26108aa565b60075460ff1661042d5760405162461bcd60e51b8152602060048201526016602482015275149959195b5c1d1a5bdb881b9bdd08195b98589b195960521b60448201526064016103cf565b3360009081526020819052604090205481111561048c5760405162461bcd60e51b815260206004820152601a60248201527f496e73756666696369656e7420746f6b656e2062616c616e636500000000000060448201526064016103cf565b600081116104dc5760405162461bcd60e51b815260206004820152601d60248201527f416d6f756e74206d7573742062652067726561746572207468616e203000000060448201526064016103cf565b6000471161052c5760405162461bcd60e51b815260206004820152601f60248201527f4e6f2045544820617661696c61626c6520666f7220726564656d7074696f6e0060448201526064016103cf565b6000610536610749565b905060006105448284610dbe565b9050804710156105965760405162461bcd60e51b815260206004820152601c60248201527f496e73756666696369656e742045544820696e20636f6e74726163740000000060448201526064016103cf565b6105a033846108d4565b604051600090339083908381818185875af1925050503d80600081146105e2576040519150601f19603f3d011682016040523d82523d6000602084013e6105e7565b606091505b505090508061062e5760405162461bcd60e51b8152602060048201526013602482015272115512081d1c985b9cd9995c8819985a5b1959606a1b60448201526064016103cf565b604080518581526020810184905233917fd171fb179b26c49e23fe46eddd44d3048a1ad277b62144ac0725fbcf1dbf6d52910160405180910390a25050506106766001600655565b50565b60606003805461068890610de0565b80601f01602080910402602001604051908101604052809291908181526020018280546106b490610de0565b80156107015780601f106106d657610100808354040283529160200191610701565b820191906000526020600020905b8154815290600101906020018083116106e457829003601f168201915b5050505050905090565b60003361071981858561090a565b60019150505b92915050565b60003361073385828561091c565b61073e85858561099a565b506001949350505050565b60008061075560025490565b116107a25760405162461bcd60e51b815260206004820152601860248201527f4e6f20746f6b656e7320696e2063697263756c6174696f6e000000000000000060448201526064016103cf565b600047116107f25760405162461bcd60e51b815260206004820152601f60248201527f4e6f2045544820617661696c61626c6520666f7220726564656d7074696f6e0060448201526064016103cf565b476107fc60025490565b6108069190610dbe565b905090565b6108136103a6565b61081d82826109f9565b5050565b61067633826108d4565b6108336103a6565b6103d86000610a2f565b61084882338361091c565b61081d82826108d4565b60606004805461068890610de0565b60003361071981858561099a565b6108776103a6565b6001600160a01b0381166108a157604051631e4fbdf760e01b8152600060048201526024016103cf565b61067681610a2f565b6002600654036108cd57604051633ee5aeb560e01b815260040160405180910390fd5b6002600655565b6001600160a01b0382166108fe57604051634b637e8f60e11b8152600060048201526024016103cf565b61081d82600083610a81565b6109178383836001610bab565b505050565b6001600160a01b038381166000908152600160209081526040808320938616835292905220546000198114610994578181101561098557604051637dc7a0d960e11b81526001600160a01b038416600482015260248101829052604481018390526064016103cf565b61099484848484036000610bab565b50505050565b6001600160a01b0383166109c457604051634b637e8f60e11b8152600060048201526024016103cf565b6001600160a01b0382166109ee5760405163ec442f0560e01b8152600060048201526024016103cf565b610917838383610a81565b6001600160a01b038216610a235760405163ec442f0560e01b8152600060048201526024016103cf565b61081d60008383610a81565b600580546001600160a01b038381166001600160a01b0319831681179093556040519116919082907f8be0079c531659141344cd1fd0a4f28419497f9722a3daafe3b4186f6b6457e090600090a35050565b6001600160a01b038316610aac578060026000828254610aa19190610e1a565b90915550610b1e9050565b6001600160a01b03831660009081526020819052604090205481811015610aff5760405163391434e360e21b81526001600160a01b038516600482015260248101829052604481018390526064016103cf565b6001600160a01b03841660009081526020819052604090209082900390555b6001600160a01b038216610b3a57600280548290039055610b59565b6001600160a01b03821660009081526020819052604090208054820190555b816001600160a01b0316836001600160a01b03167fddf252ad1be2c89b69c2b068fc378daa952ba7f163c4a11628f55a4df523b3ef83604051610b9e91815260200190565b60405180910390a3505050565b6001600160a01b038416610bd55760405163e602df0560e01b8152600060048201526024016103cf565b6001600160a01b038316610bff57604051634a1406b160e11b8152600060048201526024016103cf565b6001600160a01b038085166000908152600160209081526040808320938716835292905220829055801561099457826001600160a01b0316846001600160a01b03167f8c5be1e5ebec7d5bd14f71427d1e84f3dd0314c0f7b2291e5b200ac8c7c3b92584604051610c7291815260200190565b60405180910390a350505050565b600060208284031215610c9257600080fd5b5035919050565b600060208083528351808285015260005b81811015610cc657858101830151858201604001528201610caa565b506000604082860101526040601f19601f8301168501019250505092915050565b80356001600160a01b0381168114610cfe57600080fd5b919050565b60008060408385031215610d1657600080fd5b610d1f83610ce7565b946020939093013593505050565b600080600060608486031215610d4257600080fd5b610d4b84610ce7565b9250610d5960208501610ce7565b9150604084013590509250925092565b600060208284031215610d7b57600080fd5b610d8482610ce7565b9392505050565b60008060408385031215610d9e57600080fd5b610da783610ce7565b9150610db560208401610ce7565b90509250929050565b600082610ddb57634e487b7160e01b600052601260045260246000fd5b500490565b600181811c90821680610df457607f821691505b602082108103610e1457634e487b7160e01b600052602260045260246000fd5b50919050565b8082018082111561071f57634e487b7160e01b600052601160045260246000fdfea2646970667358221220263c37855133dd274b648c81fe724946214b0b1ef0490497351d31b559a6498564736f6c63430008140033a26469706673582212207198d2381fd6d7043e8a7fdbddb49476b467fae45838fce31b738fa376bc8ad864736f6c63430008140033",
  "devdoc": {
    "kind": "dev",
    "methods": {},
    "version": 1
  },
  "userdoc": {
    "kind": "user",
    "methods": {
      "addAdmin(uint256,address)": {
        "notice": "Agrega un administrador a una organizacin"
      },
      "createOrganization(string,string,uint256,uint256,address[],string)": {
        "notice": "Crea una nueva organizacin"
      },
      "getBalanceOfOrg(uint256)": {
        "notice": "Obtiene el balance de una organizacin en su token con los 18 decimales"
      },
      "getOrganizationDetails(uint256)": {
        "notice": "Obtiene los detalles de una organizacin por ID"
      },
      "isAdmin(uint256,address)": {
        "notice": "Verifica si una direccin es administrador de una organizacin"
      },
      "listOrganizations()": {
        "notice": "Lista todas las organizaciones"
      }
    },
    "version": 1
  },
  "storageLayout": {
    "storage": [
      {
        "astId": 8367,
        "contract": "contracts/Organization/OrganizationManager.sol:OrganizationManager",
        "label": "orgCount",
        "offset": 0,
        "slot": "0",
        "type": "t_uint256"
      },
      {
        "astId": 8372,
        "contract": "contracts/Organization/OrganizationManager.sol:OrganizationManager",
        "label": "organizations",
        "offset": 0,
        "slot": "1",
        "type": "t_mapping(t_uint256,t_struct(Organization)8365_storage)"
      },
      {
        "astId": 8376,
        "contract": "contracts/Organization/OrganizationManager.sol:OrganizationManager",
        "label": "orgNameExists",
        "offset": 0,
        "slot": "2",
        "type": "t_mapping(t_string_memory_ptr,t_bool)"
      },
      {
        "astId": 8380,
        "contract": "contracts/Organization/OrganizationManager.sol:OrganizationManager",
        "label": "tokenSymbolExists",
        "offset": 0,
        "slot": "3",
        "type": "t_mapping(t_string_memory_ptr,t_bool)"
      },
      {
        "astId": 8383,
        "contract": "contracts/Organization/OrganizationManager.sol:OrganizationManager",
        "label": "organizationIds",
        "offset": 0,
        "slot": "4",
        "type": "t_array(t_uint256)dyn_storage"
      }
    ],
    "types": {
      "t_address": {
        "encoding": "inplace",
        "label": "address",
        "numberOfBytes": "20"
      },
      "t_array(t_address)dyn_storage": {
        "base": "t_address",
        "encoding": "dynamic_array",
        "label": "address[]",
        "numberOfBytes": "32"
      },
      "t_array(t_uint256)dyn_storage": {
        "base": "t_uint256",
        "encoding": "dynamic_array",
        "label": "uint256[]",
        "numberOfBytes": "32"
      },
      "t_bool": {
        "encoding": "inplace",
        "label": "bool",
        "numberOfBytes": "1"
      },
      "t_mapping(t_address,t_bool)": {
        "encoding": "mapping",
        "key": "t_address",
        "label": "mapping(address => bool)",
        "numberOfBytes": "32",
        "value": "t_bool"
      },
      "t_mapping(t_string_memory_ptr,t_bool)": {
        "encoding": "mapping",
        "key": "t_string_memory_ptr",
        "label": "mapping(string => bool)",
        "numberOfBytes": "32",
        "value": "t_bool"
      },
      "t_mapping(t_uint256,t_struct(Organization)8365_storage)": {
        "encoding": "mapping",
        "key": "t_uint256",
        "label": "mapping(uint256 => struct OrganizationManager.Organization)",
        "numberOfBytes": "32",
        "value": "t_struct(Organization)8365_storage"
      },
      "t_string_memory_ptr": {
        "encoding": "bytes",
        "label": "string",
        "numberOfBytes": "32"
      },
      "t_string_storage": {
        "encoding": "bytes",
        "label": "string",
        "numberOfBytes": "32"
      },
      "t_struct(Organization)8365_storage": {
        "encoding": "inplace",
        "label": "struct OrganizationManager.Organization",
        "members": [
          {
            "astId": 8349,
            "contract": "contracts/Organization/OrganizationManager.sol:OrganizationManager",
            "label": "id",
            "offset": 0,
            "slot": "0",
            "type": "t_uint256"
          },
          {
            "astId": 8351,
            "contract": "contracts/Organization/OrganizationManager.sol:OrganizationManager",
            "label": "name",
            "offset": 0,
            "slot": "1",
            "type": "t_string_storage"
          },
          {
            "astId": 8353,
            "contract": "contracts/Organization/OrganizationManager.sol:OrganizationManager",
            "label": "token",
            "offset": 0,
            "slot": "2",
            "type": "t_address"
          },
          {
            "astId": 8355,
            "contract": "contracts/Organization/OrganizationManager.sol:OrganizationManager",
            "label": "baseURI",
            "offset": 0,
            "slot": "3",
            "type": "t_string_storage"
          },
          {
            "astId": 8359,
            "contract": "contracts/Organization/OrganizationManager.sol:OrganizationManager",
            "label": "adminExists",
            "offset": 0,
            "slot": "4",
            "type": "t_mapping(t_address,t_bool)"
          },
          {
            "astId": 8362,
            "contract": "contracts/Organization/OrganizationManager.sol:OrganizationManager",
            "label": "admins",
            "offset": 0,
            "slot": "5",
            "type": "t_array(t_address)dyn_storage"
          },
          {
            "astId": 8364,
            "contract": "contracts/Organization/OrganizationManager.sol:OrganizationManager",
            "label": "exists",
            "offset": 0,
            "slot": "6",
            "type": "t_bool"
          }
        ],
        "numberOfBytes": "224"
      },
      "t_uint256": {
        "encoding": "inplace",
        "label": "uint256",
        "numberOfBytes": "32"
      }
    }
  }
}