{
  "address": "0x3E02c8f6066e0A046EE9772ffd6E359dAD0745fB",
  "abi": [
    {
      "anonymous": false,
      "inputs": [
        {
          "indexed": true,
          "internalType": "uint256",
          "name": "orgId",
          "type": "uint256"
        },
        {
          "indexed": false,
          "internalType": "string",
          "name": "name",
          "type": "string"
        },
        {
          "indexed": false,
          "internalType": "address",
          "name": "token",
          "type": "address"
        }
      ],
      "name": "OrganizationCreated",
      "type": "event"
    },
    {
      "inputs": [
        {
          "internalType": "uint256",
          "name": "_orgId",
          "type": "uint256"
        },
        {
          "internalType": "address",
          "name": "_admin",
          "type": "address"
        }
      ],
      "name": "addAdmin",
      "outputs": [],
      "stateMutability": "nonpayable",
      "type": "function"
    },
    {
      "inputs": [
        {
          "internalType": "uint256",
          "name": "_orgId",
          "type": "uint256"
        },
        {
          "internalType": "address",
          "name": "_user",
          "type": "address"
        }
      ],
      "name": "addUser",
      "outputs": [],
      "stateMutability": "nonpayable",
      "type": "function"
    },
    {
      "inputs": [
        {
          "internalType": "string",
          "name": "_name",
          "type": "string"
        },
        {
          "internalType": "string",
          "name": "_symbol",
          "type": "string"
        },
        {
          "internalType": "uint256",
          "name": "_initialSupply",
          "type": "uint256"
        },
        {
          "internalType": "uint256",
          "name": "_initialEthBacking",
          "type": "uint256"
        },
        {
          "internalType": "address[]",
          "name": "_admins",
          "type": "address[]"
        },
        {
          "internalType": "address[]",
          "name": "_users",
          "type": "address[]"
        }
      ],
      "name": "createOrganization",
      "outputs": [
        {
          "internalType": "uint256",
          "name": "",
          "type": "uint256"
        }
      ],
      "stateMutability": "payable",
      "type": "function"
    },
    {
      "inputs": [
        {
          "internalType": "uint256",
          "name": "_orgId",
          "type": "uint256"
        }
      ],
      "name": "getBalanceOfOrg",
      "outputs": [
        {
          "internalType": "uint256",
          "name": "",
          "type": "uint256"
        }
      ],
      "stateMutability": "view",
      "type": "function"
    },
    {
      "inputs": [
        {
          "internalType": "uint256",
          "name": "_orgId",
          "type": "uint256"
        },
        {
          "internalType": "address",
          "name": "_user",
          "type": "address"
        }
      ],
      "name": "getBalanceOfUser",
      "outputs": [
        {
          "internalType": "uint256",
          "name": "",
          "type": "uint256"
        },
        {
          "internalType": "string",
          "name": "",
          "type": "string"
        }
      ],
      "stateMutability": "view",
      "type": "function"
    },
    {
      "inputs": [
        {
          "internalType": "uint256",
          "name": "_orgId",
          "type": "uint256"
        }
      ],
      "name": "getOrganizationDetails",
      "outputs": [
        {
          "internalType": "uint256",
          "name": "orgId",
          "type": "uint256"
        },
        {
          "internalType": "string",
          "name": "name",
          "type": "string"
        },
        {
          "internalType": "address",
          "name": "token",
          "type": "address"
        },
        {
          "internalType": "address[]",
          "name": "admins",
          "type": "address[]"
        },
        {
          "internalType": "address[]",
          "name": "users",
          "type": "address[]"
        },
        {
          "internalType": "bool",
          "name": "userIsAdmin",
          "type": "bool"
        },
        {
          "internalType": "bool",
          "name": "userIsMember",
          "type": "bool"
        }
      ],
      "stateMutability": "view",
      "type": "function"
    },
    {
      "inputs": [
        {
          "internalType": "uint256",
          "name": "_orgId",
          "type": "uint256"
        }
      ],
      "name": "getTokenOfOrg",
      "outputs": [
        {
          "internalType": "address",
          "name": "",
          "type": "address"
        }
      ],
      "stateMutability": "view",
      "type": "function"
    },
    {
      "inputs": [
        {
          "internalType": "uint256",
          "name": "_orgId",
          "type": "uint256"
        },
        {
          "internalType": "address",
          "name": "_user",
          "type": "address"
        }
      ],
      "name": "isAdmin",
      "outputs": [
        {
          "internalType": "bool",
          "name": "",
          "type": "bool"
        }
      ],
      "stateMutability": "view",
      "type": "function"
    },
    {
      "inputs": [
        {
          "internalType": "uint256",
          "name": "_orgId",
          "type": "uint256"
        },
        {
          "internalType": "address",
          "name": "_user",
          "type": "address"
        }
      ],
      "name": "isMember",
      "outputs": [
        {
          "internalType": "bool",
          "name": "",
          "type": "bool"
        }
      ],
      "stateMutability": "view",
      "type": "function"
    },
    {
      "inputs": [
        {
          "internalType": "uint256",
          "name": "_orgId",
          "type": "uint256"
        },
        {
          "internalType": "address",
          "name": "_user",
          "type": "address"
        }
      ],
      "name": "isUser",
      "outputs": [
        {
          "internalType": "bool",
          "name": "",
          "type": "bool"
        }
      ],
      "stateMutability": "view",
      "type": "function"
    },
    {
      "inputs": [
        {
          "internalType": "uint256",
          "name": "_orgId",
          "type": "uint256"
        }
      ],
      "name": "joinOrganization",
      "outputs": [],
      "stateMutability": "nonpayable",
      "type": "function"
    },
    {
      "inputs": [
        {
          "internalType": "uint256",
          "name": "_orgId",
          "type": "uint256"
        }
      ],
      "name": "leaveOrganization",
      "outputs": [],
      "stateMutability": "nonpayable",
      "type": "function"
    },
    {
      "inputs": [],
      "name": "listOrganizations",
      "outputs": [
        {
          "internalType": "uint256[]",
          "name": "",
          "type": "uint256[]"
        }
      ],
      "stateMutability": "view",
      "type": "function"
    },
    {
      "inputs": [],
      "name": "listOrganizationsWithDetails",
      "outputs": [
        {
          "internalType": "uint256[]",
          "name": "orgIds",
          "type": "uint256[]"
        },
        {
          "internalType": "string[]",
          "name": "names",
          "type": "string[]"
        },
        {
          "internalType": "string[]",
          "name": "tokenSymbols",
          "type": "string[]"
        },
        {
          "internalType": "address[]",
          "name": "tokenAddresses",
          "type": "address[]"
        },
        {
          "internalType": "uint256[]",
          "name": "adminCounts",
          "type": "uint256[]"
        },
        {
          "internalType": "uint256[]",
          "name": "userCounts",
          "type": "uint256[]"
        },
        {
          "internalType": "bool[]",
          "name": "isMembers",
          "type": "bool[]"
        }
      ],
      "stateMutability": "view",
      "type": "function"
    },
    {
      "inputs": [],
      "name": "orgCount",
      "outputs": [
        {
          "internalType": "uint256",
          "name": "",
          "type": "uint256"
        }
      ],
      "stateMutability": "view",
      "type": "function"
    },
    {
      "inputs": [
        {
          "internalType": "uint256",
          "name": "",
          "type": "uint256"
        }
      ],
      "name": "organizationIds",
      "outputs": [
        {
          "internalType": "uint256",
          "name": "",
          "type": "uint256"
        }
      ],
      "stateMutability": "view",
      "type": "function"
    },
    {
      "inputs": [
        {
          "internalType": "uint256",
          "name": "",
          "type": "uint256"
        }
      ],
      "name": "organizations",
      "outputs": [
        {
          "internalType": "uint256",
          "name": "id",
          "type": "uint256"
        },
        {
          "internalType": "string",
          "name": "name",
          "type": "string"
        },
        {
          "internalType": "address",
          "name": "token",
          "type": "address"
        },
        {
          "internalType": "bool",
          "name": "exists",
          "type": "bool"
        }
      ],
      "stateMutability": "view",
      "type": "function"
    },
    {
      "inputs": [
        {
          "internalType": "uint256",
          "name": "_orgId",
          "type": "uint256"
        },
        {
          "internalType": "address",
          "name": "_destAddress",
          "type": "address"
        },
        {
          "internalType": "uint256",
          "name": "_amount",
          "type": "uint256"
        }
      ],
      "name": "transferTokensTo",
      "outputs": [],
      "stateMutability": "nonpayable",
      "type": "function"
    }
  ],
  "transactionHash": "0x89a9a1a5c85d6fe5d3be967141cf70731ad71dac3266dd38970a58c5a196209d",
  "args": [],
  "numDeployments": 1,
  "solcInputHash": "2c923584b09c25d8082f9fac83f4c8db",
  "bytecode": "0x608060405234801561001057600080fd5b50613724806100206000396000f3fe6080604052600436106200011f5760003560e01c806358d9fa0411620000a1578063a7b02ae4116200006c578063a7b02ae41462000383578063b163044f14620003a8578063d810669014620003dd578063dbdc814b14620003f5578063e792dd8a146200041a57600080fd5b806358d9fa0414620002b157806378b44f9614620002d657806379bb57b414620002fb5780637d9e10f5146200033557600080fd5b80631bc7046d11620000ee5780631bc7046d14620001dc57806332878d4d146200021a578063340d84e5146200024e5780634681f298146200027557806350b33f80146200028c57600080fd5b806305babe4c14620001245780630cca5e06146200015a5780630e20f01b1462000190578063146a291114620001b7575b600080fd5b3480156200013157600080fd5b506200013c62000451565b60405162000151979695949392919062001a1b565b60405180910390f35b3480156200016757600080fd5b506200017f6200017936600462001b05565b620009ed565b604051901515815260200162000151565b3480156200019d57600080fd5b50620001b5620001af36600462001b34565b62000a53565b005b348015620001c457600080fd5b506200017f620001d636600462001b05565b62000af8565b348015620001e957600080fd5b5062000201620001fb36600462001b34565b62000b54565b6040516001600160a01b03909116815260200162000151565b3480156200022757600080fd5b506200023f6200023936600462001b34565b62000b9c565b60405190815260200162000151565b3480156200025b57600080fd5b506200026662000c49565b60405162000151919062001b4e565b6200023f6200028636600462001cc3565b62000ca3565b3480156200029957600080fd5b506200023f620002ab36600462001b34565b62000fd0565b348015620002be57600080fd5b50620001b5620002d036600462001b05565b62000ff2565b348015620002e357600080fd5b50620001b5620002f536600462001b34565b62001062565b3480156200030857600080fd5b50620003206200031a36600462001b34565b6200120c565b60405162000151979695949392919062001d8e565b3480156200034257600080fd5b506200017f6200035436600462001b05565b60008281526001602090815260408083206001600160a01b038516845260040190915290205460ff1692915050565b3480156200039057600080fd5b50620001b5620003a236600462001dfe565b620013f7565b348015620003b557600080fd5b50620003cd620003c736600462001b05565b62001576565b6040516200015192919062001e36565b348015620003ea57600080fd5b506200023f60005481565b3480156200040257600080fd5b50620001b56200041436600462001b05565b620016ae565b3480156200042757600080fd5b506200043f6200043936600462001b34565b62001719565b60405162000151949392919062001e59565b60608060608060608060606000805b600054811015620004de57600081815260016020908152604080832033845260030190915290205460ff1680620004b35750600081815260016020908152604080832033845260040190915290205460ff165b15620004c95781620004c58162001eab565b9250505b80620004d58162001eab565b91505062000460565b50806001600160401b03811115620004fa57620004fa62001b63565b60405190808252806020026020018201604052801562000524578160200160208202803683370190505b509750806001600160401b0381111562000542576200054262001b63565b6040519080825280602002602001820160405280156200057757816020015b6060815260200190600190039081620005615790505b509650806001600160401b0381111562000595576200059562001b63565b604051908082528060200260200182016040528015620005ca57816020015b6060815260200190600190039081620005b45790505b509550806001600160401b03811115620005e857620005e862001b63565b60405190808252806020026020018201604052801562000612578160200160208202803683370190505b509450806001600160401b0381111562000630576200063062001b63565b6040519080825280602002602001820160405280156200065a578160200160208202803683370190505b509350806001600160401b0381111562000678576200067862001b63565b604051908082528060200260200182016040528015620006a2578160200160208202803683370190505b509250806001600160401b03811115620006c057620006c062001b63565b604051908082528060200260200182016040528015620006ea578160200160208202803683370190505b5091506000805b600054811015620009e157600081815260016020908152604080832033845260030190915290205460ff1680620007445750600081815260016020908152604080832033845260040190915290205460ff165b15620009cc57600081815260016020526040902080548b518c908590811062000771576200077162001ec7565b6020026020010181815250508060010180546200078e9062001edd565b80601f0160208091040260200160405190810160405280929190818152602001828054620007bc9062001edd565b80156200080d5780601f10620007e1576101008083540402835291602001916200080d565b820191906000526020600020905b815481529060010190602001808311620007ef57829003601f168201915b50505050508a848151811062000827576200082762001ec7565b60200260200101819052508060020160009054906101000a90046001600160a01b03166001600160a01b03166395d89b416040518163ffffffff1660e01b8152600401600060405180830381865afa15801562000888573d6000803e3d6000fd5b505050506040513d6000823e601f3d908101601f19168201604052620008b2919081019062001f19565b898481518110620008c757620008c762001ec7565b6020908102919091010152600281015488516001600160a01b0390911690899085908110620008fa57620008fa62001ec7565b6001600160a01b0390921660209283029190910190910152600581015487518890859081106200092e576200092e62001ec7565b60209081029190910101526006810154865187908590811062000955576200095562001ec7565b60209081029190910181019190915233600090815260048301909152604090205460ff168062000996575033600090815260038201602052604090205460ff165b858481518110620009ab57620009ab62001ec7565b9115156020928302919091019091015282620009c78162001eab565b935050505b80620009d88162001eab565b915050620006f1565b50505090919293949596565b6000828152600160205260408120600781015460ff1662000a2b5760405162461bcd60e51b815260040162000a229062001f98565b60405180910390fd5b6001600160a01b03831660009081526004909101602052604090205460ff1690505b92915050565b60008181526001602052604090206007015460ff1662000a875760405162461bcd60e51b815260040162000a229062001f98565b600081815260016020908152604080832033845260040190915290205460ff161562000ae95760405162461bcd60e51b815260206004820152601060248201526f20b63932b0b23c90309036b2b6b132b960811b604482015260640162000a22565b62000af58133620017de565b50565b6000828152600160205260408120600781015460ff1662000b2d5760405162461bcd60e51b815260040162000a229062001f98565b6001600160a01b03831660009081526003909101602052604090205460ff16905092915050565b6000818152600160205260408120600781015460ff1662000b895760405162461bcd60e51b815260040162000a229062001f98565b600201546001600160a01b031692915050565b6000818152600160205260408120600781015460ff1662000bd15760405162461bcd60e51b815260040162000a229062001f98565b60028101546040516370a0823160e01b81523060048201526001600160a01b03909116906370a0823190602401602060405180830381865afa15801562000c1c573d6000803e3d6000fd5b505050506040513d601f19601f8201168201806040525081019062000c42919062001fcf565b9392505050565b6060600280548060200260200160405190810160405280929190818152602001828054801562000c9957602002820191906000526020600020905b81548152602001906001019080831162000c84575b5050505050905090565b60008334101562000cf75760405162461bcd60e51b815260206004820152601860248201527f496e73756666696369656e7420455448206261636b696e670000000000000000604482015260640162000a22565b60008787873060405162000d0b90620018eb565b62000d1a949392919062001fe9565b604051809103906000f08015801562000d37573d6000803e3d6000fd5b5090506001600160a01b03811662000d8b5760405162461bcd60e51b81526020600482015260166024820152752330b4b632b2103a379031b932b0ba32903a37b5b2b760511b604482015260640162000a22565b841562000e47576000816001600160a01b03168660405160006040518083038185875af1925050503d806000811462000de1576040519150601f19603f3d011682016040523d82523d6000602084013e62000de6565b606091505b505090508062000e455760405162461bcd60e51b8152602060048201526024808201527f4661696c656420746f2073656e642045544820746f20746f6b656e20636f6e746044820152631c9858dd60e21b606482015260840162000a22565b505b60008054818062000e588362001eab565b909155506000818152600160208190526040909120828155919250810162000e818b826200207e565b506002810180546001600160a01b0319166001600160a01b03851617905560078101805460ff1916600117905562000eba823362001865565b60005b865181101562000f045762000eef8388838151811062000ee15762000ee162001ec7565b602002602001015162001865565b8062000efb8162001eab565b91505062000ebd565b5060005b855181101562000f4f5762000f3a8387838151811062000f2c5762000f2c62001ec7565b6020026020010151620017de565b8062000f468162001eab565b91505062000f08565b50600280546001810182556000919091527f405787fa12a823e0f2b7631cc41b3ba8828b3321ca811111fa75cd3aa3bb5ace0182905560405182907f922a324c596e3ff0b7475d8ad6ee962a1313f05ff06e1437d9f5c47b6a9bb9249062000fbb908d9087906200214a565b60405180910390a25098975050505050505050565b6002818154811062000fe157600080fd5b600091825260209091200154905081565b6000828152600160209081526040808320338452600301909152902054829060ff16620010515760405162461bcd60e51b815260206004820152600c60248201526b2737ba1030b71030b236b4b760a11b604482015260640162000a22565b6200105d8383620017de565b505050565b6000818152600160209081526040808320338452600401909152902054819060ff16620010bf5760405162461bcd60e51b815260206004820152600a6024820152692737ba1030903ab9b2b960b11b604482015260640162000a22565b6000828152600160209081526040808320338452600481019092528220805460ff191690559060068201905b81548110156200120557336001600160a01b031682828154811062001114576200111462001ec7565b6000918252602090912001546001600160a01b031603620011f05781548290620011419060019062002176565b8154811062001154576200115462001ec7565b9060005260206000200160009054906101000a90046001600160a01b031682828154811062001187576200118762001ec7565b9060005260206000200160006101000a8154816001600160a01b0302191690836001600160a01b0316021790555081805480620011c857620011c86200218c565b600082815260209020810160001990810180546001600160a01b031916905501905562001205565b80620011fc8162001eab565b915050620010eb565b5050505050565b600081815260016020526040812060078101546060918391839182918491829160ff166200124e5760405162461bcd60e51b815260040162000a229062001f98565b80600001549750806001018054620012669062001edd565b80601f0160208091040260200160405190810160405280929190818152602001828054620012949062001edd565b8015620012e55780601f10620012b957610100808354040283529160200191620012e5565b820191906000526020600020905b815481529060010190602001808311620012c757829003601f168201915b505050600284015460058501805460408051602080840282018101909252828152969d506001600160a01b039093169b5090935091508301828280156200135657602002820191906000526020600020905b81546001600160a01b0316815260019091019060200180831162001337575b5050505050945080600601805480602002602001604051908101604052809291908181526020018280548015620013b757602002820191906000526020600020905b81546001600160a01b0316815260019091019060200180831162001398575b505033600090815260038601602090815260408083205460049098019091529020549b9d9a9c50989a97999298505060ff92831696909216945092505050565b6000838152600160205260409020600781015460ff166200142c5760405162461bcd60e51b815260040162000a229062001f98565b60028101546040516370a0823160e01b81523060048201526000916001600160a01b0316906370a0823190602401602060405180830381865afa15801562001478573d6000803e3d6000fd5b505050506040513d601f19601f820116820180604052508101906200149e919062001fcf565b905082811015620014f25760405162461bcd60e51b815260206004820152601f60248201527f4e6f7420656e6f75676820746f6b656e7320696e204f72674d616e6167657200604482015260640162000a22565b600282015460405163a9059cbb60e01b81526001600160a01b038681166004830152602482018690529091169063a9059cbb906044016020604051808303816000875af115801562001548573d6000803e3d6000fd5b505050506040513d601f19601f820116820180604052508101906200156e9190620021a2565b505050505050565b600082815260016020526040812060078101546060919060ff16620015af5760405162461bcd60e51b815260040162000a229062001f98565b60028101546040516370a0823160e01b81526001600160a01b038681166004830152909116906370a0823190602401602060405180830381865afa158015620015fc573d6000803e3d6000fd5b505050506040513d601f19601f8201168201806040525081019062001622919062001fcf565b8160020160009054906101000a90046001600160a01b03166001600160a01b03166395d89b416040518163ffffffff1660e01b8152600401600060405180830381865afa15801562001678573d6000803e3d6000fd5b505050506040513d6000823e601f3d908101601f19168201604052620016a2919081019062001f19565b92509250509250929050565b6000828152600160209081526040808320338452600301909152902054829060ff166200170d5760405162461bcd60e51b815260206004820152600c60248201526b2737ba1030b71030b236b4b760a11b604482015260640162000a22565b6200105d838362001865565b6001602081905260009182526040909120805491810180546200173c9062001edd565b80601f01602080910402602001604051908101604052809291908181526020018280546200176a9062001edd565b8015620017bb5780601f106200178f57610100808354040283529160200191620017bb565b820191906000526020600020905b8154815290600101906020018083116200179d57829003601f168201915b50505050600283015460079093015491926001600160a01b03169160ff16905084565b60008281526001602090815260408083206001600160a01b038516845260040190915290205460ff16620018615760008281526001602081815260408084206001600160a01b038616808652600482018452918520805460ff19168517905583835260060180549384018155845292200180546001600160a01b03191690911790555b5050565b60008281526001602090815260408083206001600160a01b038516845260030190915290205460ff16620018615760008281526001602081815260408084206001600160a01b038616808652600382018452918520805460ff19168517905583835260050180549384018155845292200180546001600160a01b03191690911790555050565b61152880620021c783390190565b600081518084526020808501945080840160005b838110156200192b578151875295820195908201906001016200190d565b509495945050505050565b60005b838110156200195357818101518382015260200162001939565b50506000910152565b600081518084526200197681602086016020860162001936565b601f01601f19169290920160200192915050565b6000815180845260208085019450848260051b860182860160005b85811015620019d3578383038952620019c08383516200195c565b98850198925090840190600101620019a5565b5090979650505050505050565b600081518084526020808501945080840160005b838110156200192b5781516001600160a01b031687529582019590820190600101620019f4565b60e08152600062001a3060e083018a620018f9565b60208382038185015262001a45828b6200198a565b9150838203604085015262001a5b828a6200198a565b9150838203606085015262001a718289620019e0565b9150838203608085015262001a878288620018f9565b915083820360a085015262001a9d8287620018f9565b84810360c0860152855180825282870193509082019060005b8181101562001ad657845115158352938301939183019160010162001ab6565b50909c9b505050505050505050505050565b80356001600160a01b038116811462001b0057600080fd5b919050565b6000806040838503121562001b1957600080fd5b8235915062001b2b6020840162001ae8565b90509250929050565b60006020828403121562001b4757600080fd5b5035919050565b60208152600062000c426020830184620018f9565b634e487b7160e01b600052604160045260246000fd5b604051601f8201601f191681016001600160401b038111828210171562001ba45762001ba462001b63565b604052919050565b60006001600160401b0382111562001bc85762001bc862001b63565b50601f01601f191660200190565b600082601f83011262001be857600080fd5b813562001bff62001bf98262001bac565b62001b79565b81815284602083860101111562001c1557600080fd5b816020850160208301376000918101602001919091529392505050565b600082601f83011262001c4457600080fd5b813560206001600160401b0382111562001c625762001c6262001b63565b8160051b62001c7382820162001b79565b928352848101820192828101908785111562001c8e57600080fd5b83870192505b8483101562001cb85762001ca88362001ae8565b8252918301919083019062001c94565b979650505050505050565b60008060008060008060c0878903121562001cdd57600080fd5b86356001600160401b038082111562001cf557600080fd5b62001d038a838b0162001bd6565b9750602089013591508082111562001d1a57600080fd5b62001d288a838b0162001bd6565b96506040890135955060608901359450608089013591508082111562001d4d57600080fd5b62001d5b8a838b0162001c32565b935060a089013591508082111562001d7257600080fd5b5062001d8189828a0162001c32565b9150509295509295509295565b87815260e06020820152600062001da960e08301896200195c565b6001600160a01b0388166040840152828103606084015262001dcc8188620019e0565b9050828103608084015262001de28187620019e0565b94151560a0840152505090151560c09091015295945050505050565b60008060006060848603121562001e1457600080fd5b8335925062001e266020850162001ae8565b9150604084013590509250925092565b82815260406020820152600062001e5160408301846200195c565b949350505050565b84815260806020820152600062001e7460808301866200195c565b6001600160a01b039490941660408301525090151560609091015292915050565b634e487b7160e01b600052601160045260246000fd5b60006001820162001ec05762001ec062001e95565b5060010190565b634e487b7160e01b600052603260045260246000fd5b600181811c9082168062001ef257607f821691505b60208210810362001f1357634e487b7160e01b600052602260045260246000fd5b50919050565b60006020828403121562001f2c57600080fd5b81516001600160401b0381111562001f4357600080fd5b8201601f8101841362001f5557600080fd5b805162001f6662001bf98262001bac565b81815285602083850101111562001f7c57600080fd5b62001f8f82602083016020860162001936565b95945050505050565b6020808252601b908201527f4f7267616e697a6174696f6e20646f6573206e6f742065786973740000000000604082015260600190565b60006020828403121562001fe257600080fd5b5051919050565b60808152600062001ffe60808301876200195c565b82810360208401526200201281876200195c565b604084019590955250506001600160a01b039190911660609091015292915050565b601f8211156200105d57600081815260208120601f850160051c810160208610156200205d5750805b601f850160051c820191505b818110156200156e5782815560010162002069565b81516001600160401b038111156200209a576200209a62001b63565b620020b281620020ab845462001edd565b8462002034565b602080601f831160018114620020ea5760008415620020d15750858301515b600019600386901b1c1916600185901b1785556200156e565b600085815260208120601f198616915b828110156200211b57888601518255948401946001909101908401620020fa565b50858210156200213a5787850151600019600388901b60f8161c191681555b5050505050600190811b01905550565b6040815260006200215f60408301856200195c565b905060018060a01b03831660208301529392505050565b8181038181111562000a4d5762000a4d62001e95565b634e487b7160e01b600052603160045260246000fd5b600060208284031215620021b557600080fd5b8151801515811462000c4257600080fdfe60806040523480156200001157600080fd5b50604051620015283803806200152883398101604081905262000034916200035a565b33848460036200004583826200047e565b5060046200005482826200047e565b5050506001600160a01b0381166200008757604051631e4fbdf760e01b8152600060048201526024015b60405180910390fd5b6200009281620000d2565b506001600655620000bd81620000ab6012600a6200065f565b620000b7908562000677565b62000124565b50506007805460ff1916905550620006a79050565b600580546001600160a01b038381166001600160a01b0319831681179093556040519116919082907f8be0079c531659141344cd1fd0a4f28419497f9722a3daafe3b4186f6b6457e090600090a35050565b6001600160a01b038216620001505760405163ec442f0560e01b8152600060048201526024016200007e565b6200015e6000838362000162565b5050565b6001600160a01b0383166200019157806002600082825462000185919062000691565b90915550620002059050565b6001600160a01b03831660009081526020819052604090205481811015620001e65760405163391434e360e21b81526001600160a01b038516600482015260248101829052604481018390526064016200007e565b6001600160a01b03841660009081526020819052604090209082900390555b6001600160a01b038216620002235760028054829003905562000242565b6001600160a01b03821660009081526020819052604090208054820190555b816001600160a01b0316836001600160a01b03167fddf252ad1be2c89b69c2b068fc378daa952ba7f163c4a11628f55a4df523b3ef836040516200028891815260200190565b60405180910390a3505050565b634e487b7160e01b600052604160045260246000fd5b600082601f830112620002bd57600080fd5b81516001600160401b0380821115620002da57620002da62000295565b604051601f8301601f19908116603f0116810190828211818310171562000305576200030562000295565b816040528381526020925086838588010111156200032257600080fd5b600091505b8382101562000346578582018301518183018401529082019062000327565b600093810190920192909252949350505050565b600080600080608085870312156200037157600080fd5b84516001600160401b03808211156200038957600080fd5b6200039788838901620002ab565b95506020870151915080821115620003ae57600080fd5b50620003bd87828801620002ab565b60408701516060880151919550935090506001600160a01b0381168114620003e457600080fd5b939692955090935050565b600181811c908216806200040457607f821691505b6020821081036200042557634e487b7160e01b600052602260045260246000fd5b50919050565b601f8211156200047957600081815260208120601f850160051c81016020861015620004545750805b601f850160051c820191505b81811015620004755782815560010162000460565b5050505b505050565b81516001600160401b038111156200049a576200049a62000295565b620004b281620004ab8454620003ef565b846200042b565b602080601f831160018114620004ea5760008415620004d15750858301515b600019600386901b1c1916600185901b17855562000475565b600085815260208120601f198616915b828110156200051b57888601518255948401946001909101908401620004fa565b50858210156200053a5787850151600019600388901b60f8161c191681555b5050505050600190811b01905550565b634e487b7160e01b600052601160045260246000fd5b600181815b80851115620005a15781600019048211156200058557620005856200054a565b808516156200059357918102915b93841c939080029062000565565b509250929050565b600082620005ba5750600162000659565b81620005c95750600062000659565b8160018114620005e25760028114620005ed576200060d565b600191505062000659565b60ff8411156200060157620006016200054a565b50506001821b62000659565b5060208310610133831016604e8410600b841016171562000632575081810a62000659565b6200063e838362000560565b80600019048211156200065557620006556200054a565b0290505b92915050565b60006200067060ff841683620005a9565b9392505050565b80820281158282048414176200065957620006596200054a565b808201808211156200065957620006596200054a565b610e7180620006b76000396000f3fe60806040526004361061010d5760003560e01c806370a082311161009557806395d89b411161006457806395d89b41146102f1578063a9059cbb14610306578063b234de8214610326578063dd62ed3e14610340578063f2fde38b1461038657600080fd5b806370a082311461025e578063715018a61461029457806379cc6790146102a95780638da5cb5b146102c957600080fd5b806323b872dd116100dc57806323b872dd146101cd578063313ce567146101ed5780633ca967f31461020957806340c10f191461021e57806342966c681461023e57600080fd5b8063047e018b1461013157806306fdde0314610153578063095ea7b31461017e57806318160ddd146101ae57600080fd5b3661012c5761011a6103a6565b6007805460ff19166001908117909155005b600080fd5b34801561013d57600080fd5b5061015161014c366004610c80565b6103da565b005b34801561015f57600080fd5b50610168610679565b6040516101759190610c99565b60405180910390f35b34801561018a57600080fd5b5061019e610199366004610d03565b61070b565b6040519015158152602001610175565b3480156101ba57600080fd5b506002545b604051908152602001610175565b3480156101d957600080fd5b5061019e6101e8366004610d2d565b610725565b3480156101f957600080fd5b5060405160128152602001610175565b34801561021557600080fd5b506101bf610749565b34801561022a57600080fd5b50610151610239366004610d03565b61080b565b34801561024a57600080fd5b50610151610259366004610c80565b610821565b34801561026a57600080fd5b506101bf610279366004610d69565b6001600160a01b031660009081526020819052604090205490565b3480156102a057600080fd5b5061015161082b565b3480156102b557600080fd5b506101516102c4366004610d03565b61083d565b3480156102d557600080fd5b506005546040516001600160a01b039091168152602001610175565b3480156102fd57600080fd5b50610168610852565b34801561031257600080fd5b5061019e610321366004610d03565b610861565b34801561033257600080fd5b5060075461019e9060ff1681565b34801561034c57600080fd5b506101bf61035b366004610d8b565b6001600160a01b03918216600090815260016020908152604080832093909416825291909152205490565b34801561039257600080fd5b506101516103a1366004610d69565b61086f565b6005546001600160a01b031633146103d85760405163118cdaa760e01b81523360048201526024015b60405180910390fd5b565b6103e26108aa565b60075460ff1661042d5760405162461bcd60e51b8152602060048201526016602482015275149959195b5c1d1a5bdb881b9bdd08195b98589b195960521b60448201526064016103cf565b3360009081526020819052604090205481111561048c5760405162461bcd60e51b815260206004820152601a60248201527f496e73756666696369656e7420746f6b656e2062616c616e636500000000000060448201526064016103cf565b600081116104dc5760405162461bcd60e51b815260206004820152601d60248201527f416d6f756e74206d7573742062652067726561746572207468616e203000000060448201526064016103cf565b6000471161052c5760405162461bcd60e51b815260206004820152601f60248201527f4e6f2045544820617661696c61626c6520666f7220726564656d7074696f6e0060448201526064016103cf565b6000610536610749565b905060006105448284610dbe565b9050804710156105965760405162461bcd60e51b815260206004820152601c60248201527f496e73756666696369656e742045544820696e20636f6e74726163740000000060448201526064016103cf565b6105a033846108d4565b604051600090339083908381818185875af1925050503d80600081146105e2576040519150601f19603f3d011682016040523d82523d6000602084013e6105e7565b606091505b505090508061062e5760405162461bcd60e51b8152602060048201526013602482015272115512081d1c985b9cd9995c8819985a5b1959606a1b60448201526064016103cf565b604080518581526020810184905233917fd171fb179b26c49e23fe46eddd44d3048a1ad277b62144ac0725fbcf1dbf6d52910160405180910390a25050506106766001600655565b50565b60606003805461068890610de0565b80601f01602080910402602001604051908101604052809291908181526020018280546106b490610de0565b80156107015780601f106106d657610100808354040283529160200191610701565b820191906000526020600020905b8154815290600101906020018083116106e457829003601f168201915b5050505050905090565b60003361071981858561090a565b60019150505b92915050565b60003361073385828561091c565b61073e85858561099a565b506001949350505050565b60008061075560025490565b116107a25760405162461bcd60e51b815260206004820152601860248201527f4e6f20746f6b656e7320696e2063697263756c6174696f6e000000000000000060448201526064016103cf565b600047116107f25760405162461bcd60e51b815260206004820152601f60248201527f4e6f2045544820617661696c61626c6520666f7220726564656d7074696f6e0060448201526064016103cf565b476107fc60025490565b6108069190610dbe565b905090565b6108136103a6565b61081d82826109f9565b5050565b61067633826108d4565b6108336103a6565b6103d86000610a2f565b61084882338361091c565b61081d82826108d4565b60606004805461068890610de0565b60003361071981858561099a565b6108776103a6565b6001600160a01b0381166108a157604051631e4fbdf760e01b8152600060048201526024016103cf565b61067681610a2f565b6002600654036108cd57604051633ee5aeb560e01b815260040160405180910390fd5b6002600655565b6001600160a01b0382166108fe57604051634b637e8f60e11b8152600060048201526024016103cf565b61081d82600083610a81565b6109178383836001610bab565b505050565b6001600160a01b038381166000908152600160209081526040808320938616835292905220546000198114610994578181101561098557604051637dc7a0d960e11b81526001600160a01b038416600482015260248101829052604481018390526064016103cf565b61099484848484036000610bab565b50505050565b6001600160a01b0383166109c457604051634b637e8f60e11b8152600060048201526024016103cf565b6001600160a01b0382166109ee5760405163ec442f0560e01b8152600060048201526024016103cf565b610917838383610a81565b6001600160a01b038216610a235760405163ec442f0560e01b8152600060048201526024016103cf565b61081d60008383610a81565b600580546001600160a01b038381166001600160a01b0319831681179093556040519116919082907f8be0079c531659141344cd1fd0a4f28419497f9722a3daafe3b4186f6b6457e090600090a35050565b6001600160a01b038316610aac578060026000828254610aa19190610e1a565b90915550610b1e9050565b6001600160a01b03831660009081526020819052604090205481811015610aff5760405163391434e360e21b81526001600160a01b038516600482015260248101829052604481018390526064016103cf565b6001600160a01b03841660009081526020819052604090209082900390555b6001600160a01b038216610b3a57600280548290039055610b59565b6001600160a01b03821660009081526020819052604090208054820190555b816001600160a01b0316836001600160a01b03167fddf252ad1be2c89b69c2b068fc378daa952ba7f163c4a11628f55a4df523b3ef83604051610b9e91815260200190565b60405180910390a3505050565b6001600160a01b038416610bd55760405163e602df0560e01b8152600060048201526024016103cf565b6001600160a01b038316610bff57604051634a1406b160e11b8152600060048201526024016103cf565b6001600160a01b038085166000908152600160209081526040808320938716835292905220829055801561099457826001600160a01b0316846001600160a01b03167f8c5be1e5ebec7d5bd14f71427d1e84f3dd0314c0f7b2291e5b200ac8c7c3b92584604051610c7291815260200190565b60405180910390a350505050565b600060208284031215610c9257600080fd5b5035919050565b600060208083528351808285015260005b81811015610cc657858101830151858201604001528201610caa565b506000604082860101526040601f19601f8301168501019250505092915050565b80356001600160a01b0381168114610cfe57600080fd5b919050565b60008060408385031215610d1657600080fd5b610d1f83610ce7565b946020939093013593505050565b600080600060608486031215610d4257600080fd5b610d4b84610ce7565b9250610d5960208501610ce7565b9150604084013590509250925092565b600060208284031215610d7b57600080fd5b610d8482610ce7565b9392505050565b60008060408385031215610d9e57600080fd5b610da783610ce7565b9150610db560208401610ce7565b90509250929050565b600082610ddb57634e487b7160e01b600052601260045260246000fd5b500490565b600181811c90821680610df457607f821691505b602082108103610e1457634e487b7160e01b600052602260045260246000fd5b50919050565b8082018082111561071f57634e487b7160e01b600052601160045260246000fdfea2646970667358221220263c37855133dd274b648c81fe724946214b0b1ef0490497351d31b559a6498564736f6c63430008140033a26469706673582212201e69fe81df79bdaac47644440a8c87cdc58138242fd201f49131fb4047994fb264736f6c63430008140033",
  "devdoc": {
    "kind": "dev",
    "methods": {},
    "version": 1
  },
  "userdoc": {
    "kind": "user",
    "methods": {
      "addAdmin(uint256,address)": {
        "notice": "Agrega un administrador a una organizacin"
      },
      "addUser(uint256,address)": {
        "notice": "Agrega un usuario a una organizacin"
      },
      "createOrganization(string,string,uint256,uint256,address[],address[])": {
        "notice": "Crea una nueva organizacin"
      },
      "getBalanceOfOrg(uint256)": {
        "notice": "Obtiene el balance de una organizacin en su token con los 18 decimales"
      },
      "getOrganizationDetails(uint256)": {
        "notice": "Obtiene los detalles de una organizacin por ID"
      },
      "isAdmin(uint256,address)": {
        "notice": "Verifica si una direccin es administrador de una organizacin"
      },
      "isMember(uint256,address)": {
        "notice": "Verifica si una direccin es miembro de una organizacin"
      },
      "isUser(uint256,address)": {
        "notice": "Verifica si una direccin es miembro de una organizacin"
      },
      "joinOrganization(uint256)": {
        "notice": "Unirse a una organizacin"
      },
      "leaveOrganization(uint256)": {
        "notice": "Salir de una organizacin"
      },
      "listOrganizations()": {
        "notice": "Lista todas las organizaciones"
      }
    },
    "version": 1
  },
  "storageLayout": {
    "storage": [
      {
        "astId": 1992,
        "contract": "contracts/Organization/OrganizationManager.sol:OrganizationManager",
        "label": "orgCount",
        "offset": 0,
        "slot": "0",
        "type": "t_uint256"
      },
      {
        "astId": 1997,
        "contract": "contracts/Organization/OrganizationManager.sol:OrganizationManager",
        "label": "organizations",
        "offset": 0,
        "slot": "1",
        "type": "t_mapping(t_uint256,t_struct(Organization)1990_storage)"
      },
      {
        "astId": 2000,
        "contract": "contracts/Organization/OrganizationManager.sol:OrganizationManager",
        "label": "organizationIds",
        "offset": 0,
        "slot": "2",
        "type": "t_array(t_uint256)dyn_storage"
      }
    ],
    "types": {
      "t_address": {
        "encoding": "inplace",
        "label": "address",
        "numberOfBytes": "20"
      },
      "t_array(t_address)dyn_storage": {
        "base": "t_address",
        "encoding": "dynamic_array",
        "label": "address[]",
        "numberOfBytes": "32"
      },
      "t_array(t_uint256)dyn_storage": {
        "base": "t_uint256",
        "encoding": "dynamic_array",
        "label": "uint256[]",
        "numberOfBytes": "32"
      },
      "t_bool": {
        "encoding": "inplace",
        "label": "bool",
        "numberOfBytes": "1"
      },
      "t_mapping(t_address,t_bool)": {
        "encoding": "mapping",
        "key": "t_address",
        "label": "mapping(address => bool)",
        "numberOfBytes": "32",
        "value": "t_bool"
      },
      "t_mapping(t_uint256,t_struct(Organization)1990_storage)": {
        "encoding": "mapping",
        "key": "t_uint256",
        "label": "mapping(uint256 => struct OrganizationManager.Organization)",
        "numberOfBytes": "32",
        "value": "t_struct(Organization)1990_storage"
      },
      "t_string_storage": {
        "encoding": "bytes",
        "label": "string",
        "numberOfBytes": "32"
      },
      "t_struct(Organization)1990_storage": {
        "encoding": "inplace",
        "label": "struct OrganizationManager.Organization",
        "members": [
          {
            "astId": 1969,
            "contract": "contracts/Organization/OrganizationManager.sol:OrganizationManager",
            "label": "id",
            "offset": 0,
            "slot": "0",
            "type": "t_uint256"
          },
          {
            "astId": 1971,
            "contract": "contracts/Organization/OrganizationManager.sol:OrganizationManager",
            "label": "name",
            "offset": 0,
            "slot": "1",
            "type": "t_string_storage"
          },
          {
            "astId": 1973,
            "contract": "contracts/Organization/OrganizationManager.sol:OrganizationManager",
            "label": "token",
            "offset": 0,
            "slot": "2",
            "type": "t_address"
          },
          {
            "astId": 1977,
            "contract": "contracts/Organization/OrganizationManager.sol:OrganizationManager",
            "label": "adminExists",
            "offset": 0,
            "slot": "3",
            "type": "t_mapping(t_address,t_bool)"
          },
          {
            "astId": 1981,
            "contract": "contracts/Organization/OrganizationManager.sol:OrganizationManager",
            "label": "userExists",
            "offset": 0,
            "slot": "4",
            "type": "t_mapping(t_address,t_bool)"
          },
          {
            "astId": 1984,
            "contract": "contracts/Organization/OrganizationManager.sol:OrganizationManager",
            "label": "admins",
            "offset": 0,
            "slot": "5",
            "type": "t_array(t_address)dyn_storage"
          },
          {
            "astId": 1987,
            "contract": "contracts/Organization/OrganizationManager.sol:OrganizationManager",
            "label": "users",
            "offset": 0,
            "slot": "6",
            "type": "t_array(t_address)dyn_storage"
          },
          {
            "astId": 1989,
            "contract": "contracts/Organization/OrganizationManager.sol:OrganizationManager",
            "label": "exists",
            "offset": 0,
            "slot": "7",
            "type": "t_bool"
          }
        ],
        "numberOfBytes": "256"
      },
      "t_uint256": {
        "encoding": "inplace",
        "label": "uint256",
        "numberOfBytes": "32"
      }
    }
  }
}