{
  "address": "0x9F1BaFcAf305F9DD8Ae7e409FAbe719c0905E4A6",
  "abi": [
    {
      "anonymous": false,
      "inputs": [
        {
          "indexed": true,
          "internalType": "uint256",
          "name": "orgId",
          "type": "uint256"
        },
        {
          "indexed": true,
          "internalType": "address",
          "name": "adminAddress",
          "type": "address"
        }
      ],
      "name": "OrganizationAdminAdded",
      "type": "event"
    },
    {
      "anonymous": false,
      "inputs": [
        {
          "indexed": true,
          "internalType": "uint256",
          "name": "orgId",
          "type": "uint256"
        },
        {
          "indexed": false,
          "internalType": "string",
          "name": "name",
          "type": "string"
        },
        {
          "indexed": false,
          "internalType": "address",
          "name": "token",
          "type": "address"
        },
        {
          "indexed": false,
          "internalType": "string",
          "name": "baseURI",
          "type": "string"
        }
      ],
      "name": "OrganizationCreated",
      "type": "event"
    },
    {
      "inputs": [
        {
          "internalType": "uint256",
          "name": "_orgId",
          "type": "uint256"
        },
        {
          "internalType": "address",
          "name": "_admin",
          "type": "address"
        }
      ],
      "name": "addAdmin",
      "outputs": [],
      "stateMutability": "nonpayable",
      "type": "function"
    },
    {
      "inputs": [
        {
          "internalType": "string",
          "name": "_name",
          "type": "string"
        },
        {
          "internalType": "string",
          "name": "_symbol",
          "type": "string"
        },
        {
          "internalType": "uint256",
          "name": "_initialSupply",
          "type": "uint256"
        },
        {
          "internalType": "uint256",
          "name": "_initialEthBacking",
          "type": "uint256"
        },
        {
          "internalType": "address[]",
          "name": "_admins",
          "type": "address[]"
        },
        {
          "internalType": "string",
          "name": "_baseURI",
          "type": "string"
        }
      ],
      "name": "createOrganization",
      "outputs": [
        {
          "internalType": "uint256",
          "name": "",
          "type": "uint256"
        }
      ],
      "stateMutability": "payable",
      "type": "function"
    },
    {
      "inputs": [
        {
          "internalType": "uint256",
          "name": "_orgId",
          "type": "uint256"
        }
      ],
      "name": "getBalanceOfOrg",
      "outputs": [
        {
          "internalType": "uint256",
          "name": "",
          "type": "uint256"
        }
      ],
      "stateMutability": "view",
      "type": "function"
    },
    {
      "inputs": [
        {
          "internalType": "uint256",
          "name": "_orgId",
          "type": "uint256"
        },
        {
          "internalType": "address",
          "name": "_user",
          "type": "address"
        }
      ],
      "name": "getBalanceOfUser",
      "outputs": [
        {
          "internalType": "uint256",
          "name": "",
          "type": "uint256"
        },
        {
          "internalType": "string",
          "name": "",
          "type": "string"
        }
      ],
      "stateMutability": "view",
      "type": "function"
    },
    {
      "inputs": [
        {
          "internalType": "uint256",
          "name": "_orgId",
          "type": "uint256"
        }
      ],
      "name": "getOrganizationDetails",
      "outputs": [
        {
          "internalType": "uint256",
          "name": "orgId",
          "type": "uint256"
        },
        {
          "internalType": "string",
          "name": "name",
          "type": "string"
        },
        {
          "internalType": "address",
          "name": "token",
          "type": "address"
        },
        {
          "internalType": "address[]",
          "name": "admins",
          "type": "address[]"
        },
        {
          "internalType": "bool",
          "name": "userIsAdmin",
          "type": "bool"
        },
        {
          "internalType": "string",
          "name": "baseURI",
          "type": "string"
        }
      ],
      "stateMutability": "view",
      "type": "function"
    },
    {
      "inputs": [
        {
          "internalType": "uint256",
          "name": "_orgId",
          "type": "uint256"
        }
      ],
      "name": "getTokenOfOrg",
      "outputs": [
        {
          "internalType": "address",
          "name": "",
          "type": "address"
        }
      ],
      "stateMutability": "view",
      "type": "function"
    },
    {
      "inputs": [
        {
          "internalType": "uint256",
          "name": "_orgId",
          "type": "uint256"
        },
        {
          "internalType": "address",
          "name": "_user",
          "type": "address"
        }
      ],
      "name": "isAdmin",
      "outputs": [
        {
          "internalType": "bool",
          "name": "",
          "type": "bool"
        }
      ],
      "stateMutability": "view",
      "type": "function"
    },
    {
      "inputs": [],
      "name": "listAdministratedOrganizations",
      "outputs": [
        {
          "internalType": "uint256[]",
          "name": "orgIds",
          "type": "uint256[]"
        },
        {
          "internalType": "string[]",
          "name": "names",
          "type": "string[]"
        },
        {
          "internalType": "string[]",
          "name": "tokenSymbols",
          "type": "string[]"
        },
        {
          "internalType": "address[]",
          "name": "tokenAddresses",
          "type": "address[]"
        },
        {
          "internalType": "uint256[]",
          "name": "adminCounts",
          "type": "uint256[]"
        }
      ],
      "stateMutability": "view",
      "type": "function"
    },
    {
      "inputs": [],
      "name": "listOrganizations",
      "outputs": [
        {
          "internalType": "uint256[]",
          "name": "",
          "type": "uint256[]"
        }
      ],
      "stateMutability": "view",
      "type": "function"
    },
    {
      "inputs": [],
      "name": "listOrganizationsWithDetails",
      "outputs": [
        {
          "internalType": "uint256[]",
          "name": "orgIds",
          "type": "uint256[]"
        },
        {
          "internalType": "string[]",
          "name": "names",
          "type": "string[]"
        },
        {
          "internalType": "string[]",
          "name": "tokenSymbols",
          "type": "string[]"
        },
        {
          "internalType": "address[]",
          "name": "tokenAddresses",
          "type": "address[]"
        },
        {
          "internalType": "uint256[]",
          "name": "adminCounts",
          "type": "uint256[]"
        }
      ],
      "stateMutability": "view",
      "type": "function"
    },
    {
      "inputs": [],
      "name": "orgCount",
      "outputs": [
        {
          "internalType": "uint256",
          "name": "",
          "type": "uint256"
        }
      ],
      "stateMutability": "view",
      "type": "function"
    },
    {
      "inputs": [
        {
          "internalType": "string",
          "name": "",
          "type": "string"
        }
      ],
      "name": "orgNameExists",
      "outputs": [
        {
          "internalType": "bool",
          "name": "",
          "type": "bool"
        }
      ],
      "stateMutability": "view",
      "type": "function"
    },
    {
      "inputs": [
        {
          "internalType": "uint256",
          "name": "",
          "type": "uint256"
        }
      ],
      "name": "organizationIds",
      "outputs": [
        {
          "internalType": "uint256",
          "name": "",
          "type": "uint256"
        }
      ],
      "stateMutability": "view",
      "type": "function"
    },
    {
      "inputs": [
        {
          "internalType": "uint256",
          "name": "",
          "type": "uint256"
        }
      ],
      "name": "organizations",
      "outputs": [
        {
          "internalType": "uint256",
          "name": "id",
          "type": "uint256"
        },
        {
          "internalType": "string",
          "name": "name",
          "type": "string"
        },
        {
          "internalType": "address",
          "name": "token",
          "type": "address"
        },
        {
          "internalType": "string",
          "name": "baseURI",
          "type": "string"
        },
        {
          "internalType": "bool",
          "name": "exists",
          "type": "bool"
        }
      ],
      "stateMutability": "view",
      "type": "function"
    },
    {
      "inputs": [
        {
          "internalType": "string",
          "name": "",
          "type": "string"
        }
      ],
      "name": "tokenSymbolExists",
      "outputs": [
        {
          "internalType": "bool",
          "name": "",
          "type": "bool"
        }
      ],
      "stateMutability": "view",
      "type": "function"
    },
    {
      "inputs": [
        {
          "internalType": "uint256",
          "name": "_orgId",
          "type": "uint256"
        },
        {
          "internalType": "address",
          "name": "_destAddress",
          "type": "address"
        },
        {
          "internalType": "uint256",
          "name": "_amount",
          "type": "uint256"
        }
      ],
      "name": "transferTokensTo",
      "outputs": [],
      "stateMutability": "nonpayable",
      "type": "function"
    }
  ],
  "transactionHash": "0x27f17f0e0225d262b21d8a8a0d248fce074e840739b3fcf6c33eb9b96bfd0e4e",
  "args": [],
  "numDeployments": 1,
  "solcInputHash": "427be8a3b4ba5f216bf23dbbacd22201",
  "bytecode": "0x608060405234801561001057600080fd5b506137e5806100206000396000f3fe608060405260043610620001075760003560e01c806379bb57b41162000095578063b163044f1162000060578063b163044f1462000341578063d81066901462000376578063dbdc814b146200038e578063e792dd8a14620003b357600080fd5b806379bb57b414620002b25780637b21dad214620002eb578063a7b02ae41462000303578063b12e5f6e146200032a57600080fd5b80631bc7046d11620000d65780631bc7046d14620001f457806332878d4d1462000232578063340d84e5146200026657806350b33f80146200028d57600080fd5b806305babe4c146200010c5780630bd47a781462000140578063146a2911146200019057806318159a4b14620001b5575b600080fd5b3480156200011957600080fd5b5062000124620003eb565b6040516200013795949392919062001aec565b60405180910390f35b3480156200014d57600080fd5b506200017f6200015f36600462001c32565b805160208183018101805160038252928201919093012091525460ff1681565b604051901515815260200162000137565b3480156200019d57600080fd5b506200017f620001af36600462001c8f565b62000796565b348015620001c257600080fd5b506200017f620001d436600462001c32565b805160208183018101805160028252928201919093012091525460ff1681565b3480156200020157600080fd5b50620002196200021336600462001cbe565b620007fb565b6040516001600160a01b03909116815260200162000137565b3480156200023f57600080fd5b50620002576200025136600462001cbe565b62000843565b60405190815260200162000137565b3480156200027357600080fd5b506200027e620008f0565b60405162000137919062001cd8565b3480156200029a57600080fd5b5062000257620002ac36600462001cbe565b6200094a565b348015620002bf57600080fd5b50620002d7620002d136600462001cbe565b6200096c565b604051620001379695949392919062001ced565b348015620002f857600080fd5b506200012462000b7a565b3480156200031057600080fd5b50620003286200032236600462001d56565b62001036565b005b620002576200033b36600462001e1f565b620011b5565b3480156200034e57600080fd5b50620003666200036036600462001c8f565b620015ff565b6040516200013792919062001eea565b3480156200038357600080fd5b506200025760005481565b3480156200039b57600080fd5b5062000328620003ad36600462001c8f565b62001737565b348015620003c057600080fd5b50620003d8620003d236600462001cbe565b620017a7565b6040516200013795949392919062001f05565b60608060608060606000546001600160401b0381111562000410576200041062001b63565b6040519080825280602002602001820160405280156200043a578160200160208202803683370190505b5094506000546001600160401b038111156200045a576200045a62001b63565b6040519080825280602002602001820160405280156200048f57816020015b6060815260200190600190039081620004795790505b5093506000546001600160401b03811115620004af57620004af62001b63565b604051908082528060200260200182016040528015620004e457816020015b6060815260200190600190039081620004ce5790505b5092506000546001600160401b0381111562000504576200050462001b63565b6040519080825280602002602001820160405280156200052e578160200160208202803683370190505b5091506000546001600160401b038111156200054e576200054e62001b63565b60405190808252806020026020018201604052801562000578578160200160208202803683370190505b50905060005b6000548110156200078e57600081815260016020526040902080548751889084908110620005b057620005b062001f58565b602002602001018181525050806001018054620005cd9062001f6e565b80601f0160208091040260200160405190810160405280929190818152602001828054620005fb9062001f6e565b80156200064c5780601f1062000620576101008083540402835291602001916200064c565b820191906000526020600020905b8154815290600101906020018083116200062e57829003601f168201915b505050505086838151811062000666576200066662001f58565b60200260200101819052508060020160009054906101000a90046001600160a01b03166001600160a01b03166395d89b416040518163ffffffff1660e01b8152600401600060405180830381865afa158015620006c7573d6000803e3d6000fd5b505050506040513d6000823e601f3d908101601f19168201604052620006f1919081019062001faa565b85838151811062000706576200070662001f58565b6020908102919091010152600281015484516001600160a01b039091169085908490811062000739576200073962001f58565b6001600160a01b0390921660209283029190910190910152600581015483518490849081106200076d576200076d62001f58565b60209081029190910101525080620007858162002029565b9150506200057e565b509091929394565b6000828152600160205260408120600681015460ff16620007d45760405162461bcd60e51b8152600401620007cb9062002051565b60405180910390fd5b6001600160a01b03831660009081526004909101602052604090205460ff16905092915050565b6000818152600160205260408120600681015460ff16620008305760405162461bcd60e51b8152600401620007cb9062002051565b600201546001600160a01b031692915050565b6000818152600160205260408120600681015460ff16620008785760405162461bcd60e51b8152600401620007cb9062002051565b60028101546040516370a0823160e01b81523060048201526001600160a01b03909116906370a0823190602401602060405180830381865afa158015620008c3573d6000803e3d6000fd5b505050506040513d601f19601f82011682018060405250810190620008e9919062002088565b9392505050565b606060048054806020026020016040519081016040528092919081815260200182805480156200094057602002820191906000526020600020905b8154815260200190600101908083116200092b575b5050505050905090565b600481815481106200095b57600080fd5b600091825260209091200154905081565b6000818152600160205260408120600681015460609183918391839183919060ff16620009ad5760405162461bcd60e51b8152600401620007cb9062002051565b80600001549650806001018054620009c59062001f6e565b80601f0160208091040260200160405190810160405280929190818152602001828054620009f39062001f6e565b801562000a445780601f1062000a185761010080835404028352916020019162000a44565b820191906000526020600020905b81548152906001019060200180831162000a2657829003601f168201915b505050600284015460058501805460408051602080840282018101909252828152969c506001600160a01b039093169a50909350915083018282801562000ab557602002820191906000526020600020905b81546001600160a01b0316815260019091019060200180831162000a96575b505033600090815260048601602052604090205460038601805495995060ff90911697509362000aea9350915062001f6e9050565b80601f016020809104026020016040519081016040528092919081815260200182805462000b189062001f6e565b801562000b695780601f1062000b3d5761010080835404028352916020019162000b69565b820191906000526020600020905b81548152906001019060200180831162000b4b57829003601f168201915b505050505091505091939550919395565b60608060608060606000805b60005481101562000bfa5760008181526001602052604090206006015460ff16801562000bcf5750600081815260016020908152604080832033845260040190915290205460ff165b1562000be5578162000be18162002029565b9250505b8062000bf18162002029565b91505062000b86565b50806001600160401b0381111562000c165762000c1662001b63565b60405190808252806020026020018201604052801562000c40578160200160208202803683370190505b509550806001600160401b0381111562000c5e5762000c5e62001b63565b60405190808252806020026020018201604052801562000c9357816020015b606081526020019060019003908162000c7d5790505b509450806001600160401b0381111562000cb15762000cb162001b63565b60405190808252806020026020018201604052801562000ce657816020015b606081526020019060019003908162000cd05790505b509350806001600160401b0381111562000d045762000d0462001b63565b60405190808252806020026020018201604052801562000d2e578160200160208202803683370190505b509250806001600160401b0381111562000d4c5762000d4c62001b63565b60405190808252806020026020018201604052801562000d76578160200160208202803683370190505b5091506000805b6000548110156200102c5760008181526001602052604090206006015460ff16801562000dc65750600081815260016020908152604080832033845260040190915290205460ff165b1562001017576000818152600160205260409020805489518a908590811062000df35762000df362001f58565b60200260200101818152505080600101805462000e109062001f6e565b80601f016020809104026020016040519081016040528092919081815260200182805462000e3e9062001f6e565b801562000e8f5780601f1062000e635761010080835404028352916020019162000e8f565b820191906000526020600020905b81548152906001019060200180831162000e7157829003601f168201915b505050505088848151811062000ea95762000ea962001f58565b602090810291909101015260028101546001600160a01b03161562000f6e578060020160009054906101000a90046001600160a01b03166001600160a01b03166395d89b416040518163ffffffff1660e01b8152600401600060405180830381865afa15801562000f1e573d6000803e3d6000fd5b505050506040513d6000823e601f3d908101601f1916820160405262000f48919081019062001faa565b87848151811062000f5d5762000f5d62001f58565b602002602001018190525062000f9f565b6040518060200160405280600081525087848151811062000f935762000f9362001f58565b60200260200101819052505b600281015486516001600160a01b039091169087908590811062000fc75762000fc762001f58565b6001600160a01b03909216602092830291909101909101526005810154855186908590811062000ffb5762000ffb62001f58565b602090810291909101015282620010128162002029565b935050505b80620010238162002029565b91505062000d7d565b5050509091929394565b6000838152600160205260409020600681015460ff166200106b5760405162461bcd60e51b8152600401620007cb9062002051565b60028101546040516370a0823160e01b81523060048201526000916001600160a01b0316906370a0823190602401602060405180830381865afa158015620010b7573d6000803e3d6000fd5b505050506040513d601f19601f82011682018060405250810190620010dd919062002088565b905082811015620011315760405162461bcd60e51b815260206004820152601f60248201527f4e6f7420656e6f75676820746f6b656e7320696e204f72674d616e61676572006044820152606401620007cb565b600282015460405163a9059cbb60e01b81526001600160a01b038681166004830152602482018690529091169063a9059cbb906044016020604051808303816000875af115801562001187573d6000803e3d6000fd5b505050506040513d601f19601f82011682018060405250810190620011ad9190620020a2565b505050505050565b600083341015620012095760405162461bcd60e51b815260206004820152601860248201527f496e73756666696369656e7420455448206261636b696e6700000000000000006044820152606401620007cb565b6002876040516200121b9190620020c6565b9081526040519081900360200190205460ff16156200127d5760405162461bcd60e51b815260206004820181905260248201527f4f7267616e697a6174696f6e206e616d6520616c7265616479206578697374736044820152606401620007cb565b6003866040516200128f9190620020c6565b9081526040519081900360200190205460ff1615620012f15760405162461bcd60e51b815260206004820152601b60248201527f546f6b656e2073796d626f6c20616c72656164792065786973747300000000006044820152606401620007cb565b6001600288604051620013059190620020c6565b908152604051908190036020018120805492151560ff199093169290921790915560019060039062001339908990620020c6565b908152602001604051809103902060006101000a81548160ff0219169083151502179055506000878787306040516200137290620019bc565b620013819493929190620020e4565b604051809103906000f0801580156200139e573d6000803e3d6000fd5b5090506001600160a01b038116620013f25760405162461bcd60e51b81526020600482015260166024820152752330b4b632b2103a379031b932b0ba32903a37b5b2b760511b6044820152606401620007cb565b8415620014ae576000816001600160a01b03168660405160006040518083038185875af1925050503d806000811462001448576040519150601f19603f3d011682016040523d82523d6000602084013e6200144d565b606091505b5050905080620014ac5760405162461bcd60e51b8152602060048201526024808201527f4661696c656420746f2073656e642045544820746f20746f6b656e20636f6e746044820152631c9858dd60e21b6064820152608401620007cb565b505b600080548180620014bf8362002029565b9091555060008181526001602081905260409091208281559192508101620014e88b8262002179565b506002810180546001600160a01b0319166001600160a01b03851617905560068101805460ff191660011790556003810162001525868262002179565b5062001532823362001907565b60005b86518110156200157c57620015678388838151811062001559576200155962001f58565b602002602001015162001907565b80620015738162002029565b91505062001535565b50600480546001810182556000919091527f8a35acfbc15ff81a39ae7d344fd709f28e8600b4aa8c65c6b64bfe7fe36bd19b0182905560405182907fe52536cd2ee5b8fcd2eeaabb1fc4b99012dc2d3196320ad31d1ed496ba3fa66690620015ea908d9087908a9062002245565b60405180910390a25098975050505050505050565b600082815260016020526040812060068101546060919060ff16620016385760405162461bcd60e51b8152600401620007cb9062002051565b60028101546040516370a0823160e01b81526001600160a01b038681166004830152909116906370a0823190602401602060405180830381865afa15801562001685573d6000803e3d6000fd5b505050506040513d601f19601f82011682018060405250810190620016ab919062002088565b8160020160009054906101000a90046001600160a01b03166001600160a01b03166395d89b416040518163ffffffff1660e01b8152600401600060405180830381865afa15801562001701573d6000803e3d6000fd5b505050506040513d6000823e601f3d908101601f191682016040526200172b919081019062001faa565b92509250509250929050565b6000828152600160209081526040808320338452600401909152902054829060ff16620017965760405162461bcd60e51b815260206004820152600c60248201526b2737ba1030b71030b236b4b760a11b6044820152606401620007cb565b620017a2838362001907565b505050565b600160208190526000918252604090912080549181018054620017ca9062001f6e565b80601f0160208091040260200160405190810160405280929190818152602001828054620017f89062001f6e565b8015620018495780601f106200181d5761010080835404028352916020019162001849565b820191906000526020600020905b8154815290600101906020018083116200182b57829003601f168201915b505050600284015460038501805494956001600160a01b03909216949193509150620018759062001f6e565b80601f0160208091040260200160405190810160405280929190818152602001828054620018a39062001f6e565b8015620018f45780601f10620018c857610100808354040283529160200191620018f4565b820191906000526020600020905b815481529060010190602001808311620018d657829003601f168201915b5050506006909301549192505060ff1685565b60008281526001602090815260408083206001600160a01b038516845260040190915290205460ff16620019b85760008281526001602081815260408084206001600160a01b038616808652600482018452828620805460ff191686179055848452600590910180549485018155855291842090920180546001600160a01b031916821790559051909184917f55b5e037642e49f39be9448503a157f3ecc601d7b58cd53f5d963f20eabfe7599190a35b5050565b611528806200228883390190565b600081518084526020808501945080840160005b83811015620019fc57815187529582019590820190600101620019de565b509495945050505050565b60005b8381101562001a2457818101518382015260200162001a0a565b50506000910152565b6000815180845262001a4781602086016020860162001a07565b601f01601f19169290920160200192915050565b6000815180845260208085019450848260051b860182860160005b8581101562001aa457838303895262001a9183835162001a2d565b9885019892509084019060010162001a76565b5090979650505050505050565b600081518084526020808501945080840160005b83811015620019fc5781516001600160a01b03168752958201959082019060010162001ac5565b60a08152600062001b0160a0830188620019ca565b828103602084015262001b15818862001a5b565b9050828103604084015262001b2b818762001a5b565b9050828103606084015262001b41818662001ab1565b9050828103608084015262001b578185620019ca565b98975050505050505050565b634e487b7160e01b600052604160045260246000fd5b604051601f8201601f191681016001600160401b038111828210171562001ba45762001ba462001b63565b604052919050565b60006001600160401b0382111562001bc85762001bc862001b63565b50601f01601f191660200190565b600082601f83011262001be857600080fd5b813562001bff62001bf98262001bac565b62001b79565b81815284602083860101111562001c1557600080fd5b816020850160208301376000918101602001919091529392505050565b60006020828403121562001c4557600080fd5b81356001600160401b0381111562001c5c57600080fd5b62001c6a8482850162001bd6565b949350505050565b80356001600160a01b038116811462001c8a57600080fd5b919050565b6000806040838503121562001ca357600080fd5b8235915062001cb56020840162001c72565b90509250929050565b60006020828403121562001cd157600080fd5b5035919050565b602081526000620008e96020830184620019ca565b86815260c06020820152600062001d0860c083018862001a2d565b6001600160a01b0387166040840152828103606084015262001d2b818762001ab1565b9050841515608084015282810360a084015262001d49818562001a2d565b9998505050505050505050565b60008060006060848603121562001d6c57600080fd5b8335925062001d7e6020850162001c72565b9150604084013590509250925092565b600082601f83011262001da057600080fd5b813560206001600160401b0382111562001dbe5762001dbe62001b63565b8160051b62001dcf82820162001b79565b928352848101820192828101908785111562001dea57600080fd5b83870192505b8483101562001e145762001e048362001c72565b8252918301919083019062001df0565b979650505050505050565b60008060008060008060c0878903121562001e3957600080fd5b86356001600160401b038082111562001e5157600080fd5b62001e5f8a838b0162001bd6565b9750602089013591508082111562001e7657600080fd5b62001e848a838b0162001bd6565b96506040890135955060608901359450608089013591508082111562001ea957600080fd5b62001eb78a838b0162001d8e565b935060a089013591508082111562001ece57600080fd5b5062001edd89828a0162001bd6565b9150509295509295509295565b82815260406020820152600062001c6a604083018462001a2d565b85815260a06020820152600062001f2060a083018762001a2d565b6001600160a01b0386166040840152828103606084015262001f43818662001a2d565b91505082151560808301529695505050505050565b634e487b7160e01b600052603260045260246000fd5b600181811c9082168062001f8357607f821691505b60208210810362001fa457634e487b7160e01b600052602260045260246000fd5b50919050565b60006020828403121562001fbd57600080fd5b81516001600160401b0381111562001fd457600080fd5b8201601f8101841362001fe657600080fd5b805162001ff762001bf98262001bac565b8181528560208385010111156200200d57600080fd5b6200202082602083016020860162001a07565b95945050505050565b6000600182016200204a57634e487b7160e01b600052601160045260246000fd5b5060010190565b6020808252601b908201527f4f7267616e697a6174696f6e20646f6573206e6f742065786973740000000000604082015260600190565b6000602082840312156200209b57600080fd5b5051919050565b600060208284031215620020b557600080fd5b81518015158114620008e957600080fd5b60008251620020da81846020870162001a07565b9190910192915050565b608081526000620020f9608083018762001a2d565b82810360208401526200210d818762001a2d565b604084019590955250506001600160a01b039190911660609091015292915050565b601f821115620017a257600081815260208120601f850160051c81016020861015620021585750805b601f850160051c820191505b81811015620011ad5782815560010162002164565b81516001600160401b0381111562002195576200219562001b63565b620021ad81620021a6845462001f6e565b846200212f565b602080601f831160018114620021e55760008415620021cc5750858301515b600019600386901b1c1916600185901b178555620011ad565b600085815260208120601f198616915b828110156200221657888601518255948401946001909101908401620021f5565b5085821015620022355787850151600019600388901b60f8161c191681555b5050505050600190811b01905550565b6060815260006200225a606083018662001a2d565b6001600160a01b038516602084015282810360408401526200227d818562001a2d565b969550505050505056fe60806040523480156200001157600080fd5b50604051620015283803806200152883398101604081905262000034916200035a565b33848460036200004583826200047e565b5060046200005482826200047e565b5050506001600160a01b0381166200008757604051631e4fbdf760e01b8152600060048201526024015b60405180910390fd5b6200009281620000d2565b506001600655620000bd81620000ab6012600a6200065f565b620000b7908562000677565b62000124565b50506007805460ff1916905550620006a79050565b600580546001600160a01b038381166001600160a01b0319831681179093556040519116919082907f8be0079c531659141344cd1fd0a4f28419497f9722a3daafe3b4186f6b6457e090600090a35050565b6001600160a01b038216620001505760405163ec442f0560e01b8152600060048201526024016200007e565b6200015e6000838362000162565b5050565b6001600160a01b0383166200019157806002600082825462000185919062000691565b90915550620002059050565b6001600160a01b03831660009081526020819052604090205481811015620001e65760405163391434e360e21b81526001600160a01b038516600482015260248101829052604481018390526064016200007e565b6001600160a01b03841660009081526020819052604090209082900390555b6001600160a01b038216620002235760028054829003905562000242565b6001600160a01b03821660009081526020819052604090208054820190555b816001600160a01b0316836001600160a01b03167fddf252ad1be2c89b69c2b068fc378daa952ba7f163c4a11628f55a4df523b3ef836040516200028891815260200190565b60405180910390a3505050565b634e487b7160e01b600052604160045260246000fd5b600082601f830112620002bd57600080fd5b81516001600160401b0380821115620002da57620002da62000295565b604051601f8301601f19908116603f0116810190828211818310171562000305576200030562000295565b816040528381526020925086838588010111156200032257600080fd5b600091505b8382101562000346578582018301518183018401529082019062000327565b600093810190920192909252949350505050565b600080600080608085870312156200037157600080fd5b84516001600160401b03808211156200038957600080fd5b6200039788838901620002ab565b95506020870151915080821115620003ae57600080fd5b50620003bd87828801620002ab565b60408701516060880151919550935090506001600160a01b0381168114620003e457600080fd5b939692955090935050565b600181811c908216806200040457607f821691505b6020821081036200042557634e487b7160e01b600052602260045260246000fd5b50919050565b601f8211156200047957600081815260208120601f850160051c81016020861015620004545750805b601f850160051c820191505b81811015620004755782815560010162000460565b5050505b505050565b81516001600160401b038111156200049a576200049a62000295565b620004b281620004ab8454620003ef565b846200042b565b602080601f831160018114620004ea5760008415620004d15750858301515b600019600386901b1c1916600185901b17855562000475565b600085815260208120601f198616915b828110156200051b57888601518255948401946001909101908401620004fa565b50858210156200053a5787850151600019600388901b60f8161c191681555b5050505050600190811b01905550565b634e487b7160e01b600052601160045260246000fd5b600181815b80851115620005a15781600019048211156200058557620005856200054a565b808516156200059357918102915b93841c939080029062000565565b509250929050565b600082620005ba5750600162000659565b81620005c95750600062000659565b8160018114620005e25760028114620005ed576200060d565b600191505062000659565b60ff8411156200060157620006016200054a565b50506001821b62000659565b5060208310610133831016604e8410600b841016171562000632575081810a62000659565b6200063e838362000560565b80600019048211156200065557620006556200054a565b0290505b92915050565b60006200067060ff841683620005a9565b9392505050565b80820281158282048414176200065957620006596200054a565b808201808211156200065957620006596200054a565b610e7180620006b76000396000f3fe60806040526004361061010d5760003560e01c806370a082311161009557806395d89b411161006457806395d89b41146102f1578063a9059cbb14610306578063b234de8214610326578063dd62ed3e14610340578063f2fde38b1461038657600080fd5b806370a082311461025e578063715018a61461029457806379cc6790146102a95780638da5cb5b146102c957600080fd5b806323b872dd116100dc57806323b872dd146101cd578063313ce567146101ed5780633ca967f31461020957806340c10f191461021e57806342966c681461023e57600080fd5b8063047e018b1461013157806306fdde0314610153578063095ea7b31461017e57806318160ddd146101ae57600080fd5b3661012c5761011a6103a6565b6007805460ff19166001908117909155005b600080fd5b34801561013d57600080fd5b5061015161014c366004610c80565b6103da565b005b34801561015f57600080fd5b50610168610679565b6040516101759190610c99565b60405180910390f35b34801561018a57600080fd5b5061019e610199366004610d03565b61070b565b6040519015158152602001610175565b3480156101ba57600080fd5b506002545b604051908152602001610175565b3480156101d957600080fd5b5061019e6101e8366004610d2d565b610725565b3480156101f957600080fd5b5060405160128152602001610175565b34801561021557600080fd5b506101bf610749565b34801561022a57600080fd5b50610151610239366004610d03565b61080b565b34801561024a57600080fd5b50610151610259366004610c80565b610821565b34801561026a57600080fd5b506101bf610279366004610d69565b6001600160a01b031660009081526020819052604090205490565b3480156102a057600080fd5b5061015161082b565b3480156102b557600080fd5b506101516102c4366004610d03565b61083d565b3480156102d557600080fd5b506005546040516001600160a01b039091168152602001610175565b3480156102fd57600080fd5b50610168610852565b34801561031257600080fd5b5061019e610321366004610d03565b610861565b34801561033257600080fd5b5060075461019e9060ff1681565b34801561034c57600080fd5b506101bf61035b366004610d8b565b6001600160a01b03918216600090815260016020908152604080832093909416825291909152205490565b34801561039257600080fd5b506101516103a1366004610d69565b61086f565b6005546001600160a01b031633146103d85760405163118cdaa760e01b81523360048201526024015b60405180910390fd5b565b6103e26108aa565b60075460ff1661042d5760405162461bcd60e51b8152602060048201526016602482015275149959195b5c1d1a5bdb881b9bdd08195b98589b195960521b60448201526064016103cf565b3360009081526020819052604090205481111561048c5760405162461bcd60e51b815260206004820152601a60248201527f496e73756666696369656e7420746f6b656e2062616c616e636500000000000060448201526064016103cf565b600081116104dc5760405162461bcd60e51b815260206004820152601d60248201527f416d6f756e74206d7573742062652067726561746572207468616e203000000060448201526064016103cf565b6000471161052c5760405162461bcd60e51b815260206004820152601f60248201527f4e6f2045544820617661696c61626c6520666f7220726564656d7074696f6e0060448201526064016103cf565b6000610536610749565b905060006105448284610dbe565b9050804710156105965760405162461bcd60e51b815260206004820152601c60248201527f496e73756666696369656e742045544820696e20636f6e74726163740000000060448201526064016103cf565b6105a033846108d4565b604051600090339083908381818185875af1925050503d80600081146105e2576040519150601f19603f3d011682016040523d82523d6000602084013e6105e7565b606091505b505090508061062e5760405162461bcd60e51b8152602060048201526013602482015272115512081d1c985b9cd9995c8819985a5b1959606a1b60448201526064016103cf565b604080518581526020810184905233917fd171fb179b26c49e23fe46eddd44d3048a1ad277b62144ac0725fbcf1dbf6d52910160405180910390a25050506106766001600655565b50565b60606003805461068890610de0565b80601f01602080910402602001604051908101604052809291908181526020018280546106b490610de0565b80156107015780601f106106d657610100808354040283529160200191610701565b820191906000526020600020905b8154815290600101906020018083116106e457829003601f168201915b5050505050905090565b60003361071981858561090a565b60019150505b92915050565b60003361073385828561091c565b61073e85858561099a565b506001949350505050565b60008061075560025490565b116107a25760405162461bcd60e51b815260206004820152601860248201527f4e6f20746f6b656e7320696e2063697263756c6174696f6e000000000000000060448201526064016103cf565b600047116107f25760405162461bcd60e51b815260206004820152601f60248201527f4e6f2045544820617661696c61626c6520666f7220726564656d7074696f6e0060448201526064016103cf565b476107fc60025490565b6108069190610dbe565b905090565b6108136103a6565b61081d82826109f9565b5050565b61067633826108d4565b6108336103a6565b6103d86000610a2f565b61084882338361091c565b61081d82826108d4565b60606004805461068890610de0565b60003361071981858561099a565b6108776103a6565b6001600160a01b0381166108a157604051631e4fbdf760e01b8152600060048201526024016103cf565b61067681610a2f565b6002600654036108cd57604051633ee5aeb560e01b815260040160405180910390fd5b6002600655565b6001600160a01b0382166108fe57604051634b637e8f60e11b8152600060048201526024016103cf565b61081d82600083610a81565b6109178383836001610bab565b505050565b6001600160a01b038381166000908152600160209081526040808320938616835292905220546000198114610994578181101561098557604051637dc7a0d960e11b81526001600160a01b038416600482015260248101829052604481018390526064016103cf565b61099484848484036000610bab565b50505050565b6001600160a01b0383166109c457604051634b637e8f60e11b8152600060048201526024016103cf565b6001600160a01b0382166109ee5760405163ec442f0560e01b8152600060048201526024016103cf565b610917838383610a81565b6001600160a01b038216610a235760405163ec442f0560e01b8152600060048201526024016103cf565b61081d60008383610a81565b600580546001600160a01b038381166001600160a01b0319831681179093556040519116919082907f8be0079c531659141344cd1fd0a4f28419497f9722a3daafe3b4186f6b6457e090600090a35050565b6001600160a01b038316610aac578060026000828254610aa19190610e1a565b90915550610b1e9050565b6001600160a01b03831660009081526020819052604090205481811015610aff5760405163391434e360e21b81526001600160a01b038516600482015260248101829052604481018390526064016103cf565b6001600160a01b03841660009081526020819052604090209082900390555b6001600160a01b038216610b3a57600280548290039055610b59565b6001600160a01b03821660009081526020819052604090208054820190555b816001600160a01b0316836001600160a01b03167fddf252ad1be2c89b69c2b068fc378daa952ba7f163c4a11628f55a4df523b3ef83604051610b9e91815260200190565b60405180910390a3505050565b6001600160a01b038416610bd55760405163e602df0560e01b8152600060048201526024016103cf565b6001600160a01b038316610bff57604051634a1406b160e11b8152600060048201526024016103cf565b6001600160a01b038085166000908152600160209081526040808320938716835292905220829055801561099457826001600160a01b0316846001600160a01b03167f8c5be1e5ebec7d5bd14f71427d1e84f3dd0314c0f7b2291e5b200ac8c7c3b92584604051610c7291815260200190565b60405180910390a350505050565b600060208284031215610c9257600080fd5b5035919050565b600060208083528351808285015260005b81811015610cc657858101830151858201604001528201610caa565b506000604082860101526040601f19601f8301168501019250505092915050565b80356001600160a01b0381168114610cfe57600080fd5b919050565b60008060408385031215610d1657600080fd5b610d1f83610ce7565b946020939093013593505050565b600080600060608486031215610d4257600080fd5b610d4b84610ce7565b9250610d5960208501610ce7565b9150604084013590509250925092565b600060208284031215610d7b57600080fd5b610d8482610ce7565b9392505050565b60008060408385031215610d9e57600080fd5b610da783610ce7565b9150610db560208401610ce7565b90509250929050565b600082610ddb57634e487b7160e01b600052601260045260246000fd5b500490565b600181811c90821680610df457607f821691505b602082108103610e1457634e487b7160e01b600052602260045260246000fd5b50919050565b8082018082111561071f57634e487b7160e01b600052601160045260246000fdfea2646970667358221220263c37855133dd274b648c81fe724946214b0b1ef0490497351d31b559a6498564736f6c63430008140033a2646970667358221220d9177d4ab4ee8fd31dae2c2268301d5664786d6c9a64eb762e6a085ad018403564736f6c63430008140033",
  "devdoc": {
    "kind": "dev",
    "methods": {},
    "version": 1
  },
  "userdoc": {
    "kind": "user",
    "methods": {
      "addAdmin(uint256,address)": {
        "notice": "Agrega un administrador a una organizacin"
      },
      "createOrganization(string,string,uint256,uint256,address[],string)": {
        "notice": "Crea una nueva organizacin"
      },
      "getBalanceOfOrg(uint256)": {
        "notice": "Obtiene el balance de una organizacin en su token con los 18 decimales"
      },
      "getOrganizationDetails(uint256)": {
        "notice": "Obtiene los detalles de una organizacin por ID"
      },
      "isAdmin(uint256,address)": {
        "notice": "Verifica si una direccin es administrador de una organizacin"
      },
      "listOrganizations()": {
        "notice": "Lista todas las organizaciones"
      }
    },
    "version": 1
  },
  "storageLayout": {
    "storage": [
      {
        "astId": 13539,
        "contract": "contracts/Organization/OrganizationManager.sol:OrganizationManager",
        "label": "orgCount",
        "offset": 0,
        "slot": "0",
        "type": "t_uint256"
      },
      {
        "astId": 13544,
        "contract": "contracts/Organization/OrganizationManager.sol:OrganizationManager",
        "label": "organizations",
        "offset": 0,
        "slot": "1",
        "type": "t_mapping(t_uint256,t_struct(Organization)13537_storage)"
      },
      {
        "astId": 13548,
        "contract": "contracts/Organization/OrganizationManager.sol:OrganizationManager",
        "label": "orgNameExists",
        "offset": 0,
        "slot": "2",
        "type": "t_mapping(t_string_memory_ptr,t_bool)"
      },
      {
        "astId": 13552,
        "contract": "contracts/Organization/OrganizationManager.sol:OrganizationManager",
        "label": "tokenSymbolExists",
        "offset": 0,
        "slot": "3",
        "type": "t_mapping(t_string_memory_ptr,t_bool)"
      },
      {
        "astId": 13555,
        "contract": "contracts/Organization/OrganizationManager.sol:OrganizationManager",
        "label": "organizationIds",
        "offset": 0,
        "slot": "4",
        "type": "t_array(t_uint256)dyn_storage"
      }
    ],
    "types": {
      "t_address": {
        "encoding": "inplace",
        "label": "address",
        "numberOfBytes": "20"
      },
      "t_array(t_address)dyn_storage": {
        "base": "t_address",
        "encoding": "dynamic_array",
        "label": "address[]",
        "numberOfBytes": "32"
      },
      "t_array(t_uint256)dyn_storage": {
        "base": "t_uint256",
        "encoding": "dynamic_array",
        "label": "uint256[]",
        "numberOfBytes": "32"
      },
      "t_bool": {
        "encoding": "inplace",
        "label": "bool",
        "numberOfBytes": "1"
      },
      "t_mapping(t_address,t_bool)": {
        "encoding": "mapping",
        "key": "t_address",
        "label": "mapping(address => bool)",
        "numberOfBytes": "32",
        "value": "t_bool"
      },
      "t_mapping(t_string_memory_ptr,t_bool)": {
        "encoding": "mapping",
        "key": "t_string_memory_ptr",
        "label": "mapping(string => bool)",
        "numberOfBytes": "32",
        "value": "t_bool"
      },
      "t_mapping(t_uint256,t_struct(Organization)13537_storage)": {
        "encoding": "mapping",
        "key": "t_uint256",
        "label": "mapping(uint256 => struct OrganizationManager.Organization)",
        "numberOfBytes": "32",
        "value": "t_struct(Organization)13537_storage"
      },
      "t_string_memory_ptr": {
        "encoding": "bytes",
        "label": "string",
        "numberOfBytes": "32"
      },
      "t_string_storage": {
        "encoding": "bytes",
        "label": "string",
        "numberOfBytes": "32"
      },
      "t_struct(Organization)13537_storage": {
        "encoding": "inplace",
        "label": "struct OrganizationManager.Organization",
        "members": [
          {
            "astId": 13521,
            "contract": "contracts/Organization/OrganizationManager.sol:OrganizationManager",
            "label": "id",
            "offset": 0,
            "slot": "0",
            "type": "t_uint256"
          },
          {
            "astId": 13523,
            "contract": "contracts/Organization/OrganizationManager.sol:OrganizationManager",
            "label": "name",
            "offset": 0,
            "slot": "1",
            "type": "t_string_storage"
          },
          {
            "astId": 13525,
            "contract": "contracts/Organization/OrganizationManager.sol:OrganizationManager",
            "label": "token",
            "offset": 0,
            "slot": "2",
            "type": "t_address"
          },
          {
            "astId": 13527,
            "contract": "contracts/Organization/OrganizationManager.sol:OrganizationManager",
            "label": "baseURI",
            "offset": 0,
            "slot": "3",
            "type": "t_string_storage"
          },
          {
            "astId": 13531,
            "contract": "contracts/Organization/OrganizationManager.sol:OrganizationManager",
            "label": "adminExists",
            "offset": 0,
            "slot": "4",
            "type": "t_mapping(t_address,t_bool)"
          },
          {
            "astId": 13534,
            "contract": "contracts/Organization/OrganizationManager.sol:OrganizationManager",
            "label": "admins",
            "offset": 0,
            "slot": "5",
            "type": "t_array(t_address)dyn_storage"
          },
          {
            "astId": 13536,
            "contract": "contracts/Organization/OrganizationManager.sol:OrganizationManager",
            "label": "exists",
            "offset": 0,
            "slot": "6",
            "type": "t_bool"
          }
        ],
        "numberOfBytes": "224"
      },
      "t_uint256": {
        "encoding": "inplace",
        "label": "uint256",
        "numberOfBytes": "32"
      }
    }
  }
}