{
  "address": "0x7a0Daf7b7243EDF3381959aeCeBaF27210fDEf71",
  "abi": [
    {
      "inputs": [
        {
          "internalType": "string",
          "name": "name",
          "type": "string"
        },
        {
          "internalType": "string",
          "name": "symbol",
          "type": "string"
        },
        {
          "internalType": "uint256",
          "name": "initialSupply",
          "type": "uint256"
        },
        {
          "internalType": "address",
          "name": "initialRecipient",
          "type": "address"
        }
      ],
      "stateMutability": "nonpayable",
      "type": "constructor"
    },
    {
      "inputs": [
        {
          "internalType": "address",
          "name": "spender",
          "type": "address"
        },
        {
          "internalType": "uint256",
          "name": "allowance",
          "type": "uint256"
        },
        {
          "internalType": "uint256",
          "name": "needed",
          "type": "uint256"
        }
      ],
      "name": "ERC20InsufficientAllowance",
      "type": "error"
    },
    {
      "inputs": [
        {
          "internalType": "address",
          "name": "sender",
          "type": "address"
        },
        {
          "internalType": "uint256",
          "name": "balance",
          "type": "uint256"
        },
        {
          "internalType": "uint256",
          "name": "needed",
          "type": "uint256"
        }
      ],
      "name": "ERC20InsufficientBalance",
      "type": "error"
    },
    {
      "inputs": [
        {
          "internalType": "address",
          "name": "approver",
          "type": "address"
        }
      ],
      "name": "ERC20InvalidApprover",
      "type": "error"
    },
    {
      "inputs": [
        {
          "internalType": "address",
          "name": "receiver",
          "type": "address"
        }
      ],
      "name": "ERC20InvalidReceiver",
      "type": "error"
    },
    {
      "inputs": [
        {
          "internalType": "address",
          "name": "sender",
          "type": "address"
        }
      ],
      "name": "ERC20InvalidSender",
      "type": "error"
    },
    {
      "inputs": [
        {
          "internalType": "address",
          "name": "spender",
          "type": "address"
        }
      ],
      "name": "ERC20InvalidSpender",
      "type": "error"
    },
    {
      "inputs": [
        {
          "internalType": "address",
          "name": "owner",
          "type": "address"
        }
      ],
      "name": "OwnableInvalidOwner",
      "type": "error"
    },
    {
      "inputs": [
        {
          "internalType": "address",
          "name": "account",
          "type": "address"
        }
      ],
      "name": "OwnableUnauthorizedAccount",
      "type": "error"
    },
    {
      "inputs": [],
      "name": "ReentrancyGuardReentrantCall",
      "type": "error"
    },
    {
      "anonymous": false,
      "inputs": [
        {
          "indexed": true,
          "internalType": "address",
          "name": "owner",
          "type": "address"
        },
        {
          "indexed": true,
          "internalType": "address",
          "name": "spender",
          "type": "address"
        },
        {
          "indexed": false,
          "internalType": "uint256",
          "name": "value",
          "type": "uint256"
        }
      ],
      "name": "Approval",
      "type": "event"
    },
    {
      "anonymous": false,
      "inputs": [
        {
          "indexed": true,
          "internalType": "address",
          "name": "previousOwner",
          "type": "address"
        },
        {
          "indexed": true,
          "internalType": "address",
          "name": "newOwner",
          "type": "address"
        }
      ],
      "name": "OwnershipTransferred",
      "type": "event"
    },
    {
      "anonymous": false,
      "inputs": [
        {
          "indexed": false,
          "internalType": "bool",
          "name": "enabled",
          "type": "bool"
        }
      ],
      "name": "RedemptionEnabled",
      "type": "event"
    },
    {
      "anonymous": false,
      "inputs": [
        {
          "indexed": true,
          "internalType": "address",
          "name": "user",
          "type": "address"
        },
        {
          "indexed": false,
          "internalType": "uint256",
          "name": "tokenAmount",
          "type": "uint256"
        },
        {
          "indexed": false,
          "internalType": "uint256",
          "name": "ethAmount",
          "type": "uint256"
        }
      ],
      "name": "TokensRedeemed",
      "type": "event"
    },
    {
      "anonymous": false,
      "inputs": [
        {
          "indexed": true,
          "internalType": "address",
          "name": "from",
          "type": "address"
        },
        {
          "indexed": true,
          "internalType": "address",
          "name": "to",
          "type": "address"
        },
        {
          "indexed": false,
          "internalType": "uint256",
          "name": "value",
          "type": "uint256"
        }
      ],
      "name": "Transfer",
      "type": "event"
    },
    {
      "inputs": [
        {
          "internalType": "address",
          "name": "owner",
          "type": "address"
        },
        {
          "internalType": "address",
          "name": "spender",
          "type": "address"
        }
      ],
      "name": "allowance",
      "outputs": [
        {
          "internalType": "uint256",
          "name": "",
          "type": "uint256"
        }
      ],
      "stateMutability": "view",
      "type": "function"
    },
    {
      "inputs": [
        {
          "internalType": "address",
          "name": "spender",
          "type": "address"
        },
        {
          "internalType": "uint256",
          "name": "value",
          "type": "uint256"
        }
      ],
      "name": "approve",
      "outputs": [
        {
          "internalType": "bool",
          "name": "",
          "type": "bool"
        }
      ],
      "stateMutability": "nonpayable",
      "type": "function"
    },
    {
      "inputs": [
        {
          "internalType": "address",
          "name": "account",
          "type": "address"
        }
      ],
      "name": "balanceOf",
      "outputs": [
        {
          "internalType": "uint256",
          "name": "",
          "type": "uint256"
        }
      ],
      "stateMutability": "view",
      "type": "function"
    },
    {
      "inputs": [
        {
          "internalType": "uint256",
          "name": "value",
          "type": "uint256"
        }
      ],
      "name": "burn",
      "outputs": [],
      "stateMutability": "nonpayable",
      "type": "function"
    },
    {
      "inputs": [
        {
          "internalType": "address",
          "name": "account",
          "type": "address"
        },
        {
          "internalType": "uint256",
          "name": "value",
          "type": "uint256"
        }
      ],
      "name": "burnFrom",
      "outputs": [],
      "stateMutability": "nonpayable",
      "type": "function"
    },
    {
      "inputs": [],
      "name": "decimals",
      "outputs": [
        {
          "internalType": "uint8",
          "name": "",
          "type": "uint8"
        }
      ],
      "stateMutability": "view",
      "type": "function"
    },
    {
      "inputs": [],
      "name": "getCurrentExchangeRate",
      "outputs": [
        {
          "internalType": "uint256",
          "name": "",
          "type": "uint256"
        }
      ],
      "stateMutability": "view",
      "type": "function"
    },
    {
      "inputs": [
        {
          "internalType": "address",
          "name": "to",
          "type": "address"
        },
        {
          "internalType": "uint256",
          "name": "amount",
          "type": "uint256"
        }
      ],
      "name": "mint",
      "outputs": [],
      "stateMutability": "nonpayable",
      "type": "function"
    },
    {
      "inputs": [],
      "name": "name",
      "outputs": [
        {
          "internalType": "string",
          "name": "",
          "type": "string"
        }
      ],
      "stateMutability": "view",
      "type": "function"
    },
    {
      "inputs": [],
      "name": "owner",
      "outputs": [
        {
          "internalType": "address",
          "name": "",
          "type": "address"
        }
      ],
      "stateMutability": "view",
      "type": "function"
    },
    {
      "inputs": [
        {
          "internalType": "uint256",
          "name": "tokenAmount",
          "type": "uint256"
        }
      ],
      "name": "redeemTokensForEth",
      "outputs": [],
      "stateMutability": "nonpayable",
      "type": "function"
    },
    {
      "inputs": [],
      "name": "redemptionEnabled",
      "outputs": [
        {
          "internalType": "bool",
          "name": "",
          "type": "bool"
        }
      ],
      "stateMutability": "view",
      "type": "function"
    },
    {
      "inputs": [],
      "name": "renounceOwnership",
      "outputs": [],
      "stateMutability": "nonpayable",
      "type": "function"
    },
    {
      "inputs": [],
      "name": "symbol",
      "outputs": [
        {
          "internalType": "string",
          "name": "",
          "type": "string"
        }
      ],
      "stateMutability": "view",
      "type": "function"
    },
    {
      "inputs": [],
      "name": "totalSupply",
      "outputs": [
        {
          "internalType": "uint256",
          "name": "",
          "type": "uint256"
        }
      ],
      "stateMutability": "view",
      "type": "function"
    },
    {
      "inputs": [
        {
          "internalType": "address",
          "name": "to",
          "type": "address"
        },
        {
          "internalType": "uint256",
          "name": "value",
          "type": "uint256"
        }
      ],
      "name": "transfer",
      "outputs": [
        {
          "internalType": "bool",
          "name": "",
          "type": "bool"
        }
      ],
      "stateMutability": "nonpayable",
      "type": "function"
    },
    {
      "inputs": [
        {
          "internalType": "address",
          "name": "from",
          "type": "address"
        },
        {
          "internalType": "address",
          "name": "to",
          "type": "address"
        },
        {
          "internalType": "uint256",
          "name": "value",
          "type": "uint256"
        }
      ],
      "name": "transferFrom",
      "outputs": [
        {
          "internalType": "bool",
          "name": "",
          "type": "bool"
        }
      ],
      "stateMutability": "nonpayable",
      "type": "function"
    },
    {
      "inputs": [
        {
          "internalType": "address",
          "name": "newOwner",
          "type": "address"
        }
      ],
      "name": "transferOwnership",
      "outputs": [],
      "stateMutability": "nonpayable",
      "type": "function"
    },
    {
      "stateMutability": "payable",
      "type": "receive"
    }
  ],
  "transactionHash": "0x877384a73c4b31e957f0171b6a694987c5fc0c551d0266433aea2d1b3d0b6d5f",
  "args": [
    "CryptoTrophyToken",
    "CTT",
    100,
    "0x3E02c8f6066e0A046EE9772ffd6E359dAD0745fB"
  ],
  "numDeployments": 1,
  "solcInputHash": "105bc1b44b7c0353cc4b36f9e49e2962",
  "bytecode": "0x60806040523480156200001157600080fd5b50604051620015283803806200152883398101604081905262000034916200035a565b33848460036200004583826200047e565b5060046200005482826200047e565b5050506001600160a01b0381166200008757604051631e4fbdf760e01b8152600060048201526024015b60405180910390fd5b6200009281620000d2565b506001600655620000bd81620000ab6012600a6200065f565b620000b7908562000677565b62000124565b50506007805460ff1916905550620006a79050565b600580546001600160a01b038381166001600160a01b0319831681179093556040519116919082907f8be0079c531659141344cd1fd0a4f28419497f9722a3daafe3b4186f6b6457e090600090a35050565b6001600160a01b038216620001505760405163ec442f0560e01b8152600060048201526024016200007e565b6200015e6000838362000162565b5050565b6001600160a01b0383166200019157806002600082825462000185919062000691565b90915550620002059050565b6001600160a01b03831660009081526020819052604090205481811015620001e65760405163391434e360e21b81526001600160a01b038516600482015260248101829052604481018390526064016200007e565b6001600160a01b03841660009081526020819052604090209082900390555b6001600160a01b038216620002235760028054829003905562000242565b6001600160a01b03821660009081526020819052604090208054820190555b816001600160a01b0316836001600160a01b03167fddf252ad1be2c89b69c2b068fc378daa952ba7f163c4a11628f55a4df523b3ef836040516200028891815260200190565b60405180910390a3505050565b634e487b7160e01b600052604160045260246000fd5b600082601f830112620002bd57600080fd5b81516001600160401b0380821115620002da57620002da62000295565b604051601f8301601f19908116603f0116810190828211818310171562000305576200030562000295565b816040528381526020925086838588010111156200032257600080fd5b600091505b8382101562000346578582018301518183018401529082019062000327565b600093810190920192909252949350505050565b600080600080608085870312156200037157600080fd5b84516001600160401b03808211156200038957600080fd5b6200039788838901620002ab565b95506020870151915080821115620003ae57600080fd5b50620003bd87828801620002ab565b60408701516060880151919550935090506001600160a01b0381168114620003e457600080fd5b939692955090935050565b600181811c908216806200040457607f821691505b6020821081036200042557634e487b7160e01b600052602260045260246000fd5b50919050565b601f8211156200047957600081815260208120601f850160051c81016020861015620004545750805b601f850160051c820191505b81811015620004755782815560010162000460565b5050505b505050565b81516001600160401b038111156200049a576200049a62000295565b620004b281620004ab8454620003ef565b846200042b565b602080601f831160018114620004ea5760008415620004d15750858301515b600019600386901b1c1916600185901b17855562000475565b600085815260208120601f198616915b828110156200051b57888601518255948401946001909101908401620004fa565b50858210156200053a5787850151600019600388901b60f8161c191681555b5050505050600190811b01905550565b634e487b7160e01b600052601160045260246000fd5b600181815b80851115620005a15781600019048211156200058557620005856200054a565b808516156200059357918102915b93841c939080029062000565565b509250929050565b600082620005ba5750600162000659565b81620005c95750600062000659565b8160018114620005e25760028114620005ed576200060d565b600191505062000659565b60ff8411156200060157620006016200054a565b50506001821b62000659565b5060208310610133831016604e8410600b841016171562000632575081810a62000659565b6200063e838362000560565b80600019048211156200065557620006556200054a565b0290505b92915050565b60006200067060ff841683620005a9565b9392505050565b80820281158282048414176200065957620006596200054a565b808201808211156200065957620006596200054a565b610e7180620006b76000396000f3fe60806040526004361061010d5760003560e01c806370a082311161009557806395d89b411161006457806395d89b41146102f1578063a9059cbb14610306578063b234de8214610326578063dd62ed3e14610340578063f2fde38b1461038657600080fd5b806370a082311461025e578063715018a61461029457806379cc6790146102a95780638da5cb5b146102c957600080fd5b806323b872dd116100dc57806323b872dd146101cd578063313ce567146101ed5780633ca967f31461020957806340c10f191461021e57806342966c681461023e57600080fd5b8063047e018b1461013157806306fdde0314610153578063095ea7b31461017e57806318160ddd146101ae57600080fd5b3661012c5761011a6103a6565b6007805460ff19166001908117909155005b600080fd5b34801561013d57600080fd5b5061015161014c366004610c80565b6103da565b005b34801561015f57600080fd5b50610168610679565b6040516101759190610c99565b60405180910390f35b34801561018a57600080fd5b5061019e610199366004610d03565b61070b565b6040519015158152602001610175565b3480156101ba57600080fd5b506002545b604051908152602001610175565b3480156101d957600080fd5b5061019e6101e8366004610d2d565b610725565b3480156101f957600080fd5b5060405160128152602001610175565b34801561021557600080fd5b506101bf610749565b34801561022a57600080fd5b50610151610239366004610d03565b61080b565b34801561024a57600080fd5b50610151610259366004610c80565b610821565b34801561026a57600080fd5b506101bf610279366004610d69565b6001600160a01b031660009081526020819052604090205490565b3480156102a057600080fd5b5061015161082b565b3480156102b557600080fd5b506101516102c4366004610d03565b61083d565b3480156102d557600080fd5b506005546040516001600160a01b039091168152602001610175565b3480156102fd57600080fd5b50610168610852565b34801561031257600080fd5b5061019e610321366004610d03565b610861565b34801561033257600080fd5b5060075461019e9060ff1681565b34801561034c57600080fd5b506101bf61035b366004610d8b565b6001600160a01b03918216600090815260016020908152604080832093909416825291909152205490565b34801561039257600080fd5b506101516103a1366004610d69565b61086f565b6005546001600160a01b031633146103d85760405163118cdaa760e01b81523360048201526024015b60405180910390fd5b565b6103e26108aa565b60075460ff1661042d5760405162461bcd60e51b8152602060048201526016602482015275149959195b5c1d1a5bdb881b9bdd08195b98589b195960521b60448201526064016103cf565b3360009081526020819052604090205481111561048c5760405162461bcd60e51b815260206004820152601a60248201527f496e73756666696369656e7420746f6b656e2062616c616e636500000000000060448201526064016103cf565b600081116104dc5760405162461bcd60e51b815260206004820152601d60248201527f416d6f756e74206d7573742062652067726561746572207468616e203000000060448201526064016103cf565b6000471161052c5760405162461bcd60e51b815260206004820152601f60248201527f4e6f2045544820617661696c61626c6520666f7220726564656d7074696f6e0060448201526064016103cf565b6000610536610749565b905060006105448284610dbe565b9050804710156105965760405162461bcd60e51b815260206004820152601c60248201527f496e73756666696369656e742045544820696e20636f6e74726163740000000060448201526064016103cf565b6105a033846108d4565b604051600090339083908381818185875af1925050503d80600081146105e2576040519150601f19603f3d011682016040523d82523d6000602084013e6105e7565b606091505b505090508061062e5760405162461bcd60e51b8152602060048201526013602482015272115512081d1c985b9cd9995c8819985a5b1959606a1b60448201526064016103cf565b604080518581526020810184905233917fd171fb179b26c49e23fe46eddd44d3048a1ad277b62144ac0725fbcf1dbf6d52910160405180910390a25050506106766001600655565b50565b60606003805461068890610de0565b80601f01602080910402602001604051908101604052809291908181526020018280546106b490610de0565b80156107015780601f106106d657610100808354040283529160200191610701565b820191906000526020600020905b8154815290600101906020018083116106e457829003601f168201915b5050505050905090565b60003361071981858561090a565b60019150505b92915050565b60003361073385828561091c565b61073e85858561099a565b506001949350505050565b60008061075560025490565b116107a25760405162461bcd60e51b815260206004820152601860248201527f4e6f20746f6b656e7320696e2063697263756c6174696f6e000000000000000060448201526064016103cf565b600047116107f25760405162461bcd60e51b815260206004820152601f60248201527f4e6f2045544820617661696c61626c6520666f7220726564656d7074696f6e0060448201526064016103cf565b476107fc60025490565b6108069190610dbe565b905090565b6108136103a6565b61081d82826109f9565b5050565b61067633826108d4565b6108336103a6565b6103d86000610a2f565b61084882338361091c565b61081d82826108d4565b60606004805461068890610de0565b60003361071981858561099a565b6108776103a6565b6001600160a01b0381166108a157604051631e4fbdf760e01b8152600060048201526024016103cf565b61067681610a2f565b6002600654036108cd57604051633ee5aeb560e01b815260040160405180910390fd5b6002600655565b6001600160a01b0382166108fe57604051634b637e8f60e11b8152600060048201526024016103cf565b61081d82600083610a81565b6109178383836001610bab565b505050565b6001600160a01b038381166000908152600160209081526040808320938616835292905220546000198114610994578181101561098557604051637dc7a0d960e11b81526001600160a01b038416600482015260248101829052604481018390526064016103cf565b61099484848484036000610bab565b50505050565b6001600160a01b0383166109c457604051634b637e8f60e11b8152600060048201526024016103cf565b6001600160a01b0382166109ee5760405163ec442f0560e01b8152600060048201526024016103cf565b610917838383610a81565b6001600160a01b038216610a235760405163ec442f0560e01b8152600060048201526024016103cf565b61081d60008383610a81565b600580546001600160a01b038381166001600160a01b0319831681179093556040519116919082907f8be0079c531659141344cd1fd0a4f28419497f9722a3daafe3b4186f6b6457e090600090a35050565b6001600160a01b038316610aac578060026000828254610aa19190610e1a565b90915550610b1e9050565b6001600160a01b03831660009081526020819052604090205481811015610aff5760405163391434e360e21b81526001600160a01b038516600482015260248101829052604481018390526064016103cf565b6001600160a01b03841660009081526020819052604090209082900390555b6001600160a01b038216610b3a57600280548290039055610b59565b6001600160a01b03821660009081526020819052604090208054820190555b816001600160a01b0316836001600160a01b03167fddf252ad1be2c89b69c2b068fc378daa952ba7f163c4a11628f55a4df523b3ef83604051610b9e91815260200190565b60405180910390a3505050565b6001600160a01b038416610bd55760405163e602df0560e01b8152600060048201526024016103cf565b6001600160a01b038316610bff57604051634a1406b160e11b8152600060048201526024016103cf565b6001600160a01b038085166000908152600160209081526040808320938716835292905220829055801561099457826001600160a01b0316846001600160a01b03167f8c5be1e5ebec7d5bd14f71427d1e84f3dd0314c0f7b2291e5b200ac8c7c3b92584604051610c7291815260200190565b60405180910390a350505050565b600060208284031215610c9257600080fd5b5035919050565b600060208083528351808285015260005b81811015610cc657858101830151858201604001528201610caa565b506000604082860101526040601f19601f8301168501019250505092915050565b80356001600160a01b0381168114610cfe57600080fd5b919050565b60008060408385031215610d1657600080fd5b610d1f83610ce7565b946020939093013593505050565b600080600060608486031215610d4257600080fd5b610d4b84610ce7565b9250610d5960208501610ce7565b9150604084013590509250925092565b600060208284031215610d7b57600080fd5b610d8482610ce7565b9392505050565b60008060408385031215610d9e57600080fd5b610da783610ce7565b9150610db560208401610ce7565b90509250929050565b600082610ddb57634e487b7160e01b600052601260045260246000fd5b500490565b600181811c90821680610df457607f821691505b602082108103610e1457634e487b7160e01b600052602260045260246000fd5b50919050565b8082018082111561071f57634e487b7160e01b600052601160045260246000fdfea2646970667358221220263c37855133dd274b648c81fe724946214b0b1ef0490497351d31b559a6498564736f6c63430008140033",
  "devdoc": {
    "errors": {
      "ERC20InsufficientAllowance(address,uint256,uint256)": [
        {
          "details": "Indicates a failure with the `spender`s `allowance`. Used in transfers.",
          "params": {
            "allowance": "Amount of tokens a `spender` is allowed to operate with.",
            "needed": "Minimum amount required to perform a transfer.",
            "spender": "Address that may be allowed to operate on tokens without being their owner."
          }
        }
      ],
      "ERC20InsufficientBalance(address,uint256,uint256)": [
        {
          "details": "Indicates an error related to the current `balance` of a `sender`. Used in transfers.",
          "params": {
            "balance": "Current balance for the interacting account.",
            "needed": "Minimum amount required to perform a transfer.",
            "sender": "Address whose tokens are being transferred."
          }
        }
      ],
      "ERC20InvalidApprover(address)": [
        {
          "details": "Indicates a failure with the `approver` of a token to be approved. Used in approvals.",
          "params": {
            "approver": "Address initiating an approval operation."
          }
        }
      ],
      "ERC20InvalidReceiver(address)": [
        {
          "details": "Indicates a failure with the token `receiver`. Used in transfers.",
          "params": {
            "receiver": "Address to which tokens are being transferred."
          }
        }
      ],
      "ERC20InvalidSender(address)": [
        {
          "details": "Indicates a failure with the token `sender`. Used in transfers.",
          "params": {
            "sender": "Address whose tokens are being transferred."
          }
        }
      ],
      "ERC20InvalidSpender(address)": [
        {
          "details": "Indicates a failure with the `spender` to be approved. Used in approvals.",
          "params": {
            "spender": "Address that may be allowed to operate on tokens without being their owner."
          }
        }
      ],
      "OwnableInvalidOwner(address)": [
        {
          "details": "The owner is not a valid owner account. (eg. `address(0)`)"
        }
      ],
      "OwnableUnauthorizedAccount(address)": [
        {
          "details": "The caller account is not authorized to perform an operation."
        }
      ],
      "ReentrancyGuardReentrantCall()": [
        {
          "details": "Unauthorized reentrant call."
        }
      ]
    },
    "events": {
      "Approval(address,address,uint256)": {
        "details": "Emitted when the allowance of a `spender` for an `owner` is set by a call to {approve}. `value` is the new allowance."
      },
      "Transfer(address,address,uint256)": {
        "details": "Emitted when `value` tokens are moved from one account (`from`) to another (`to`). Note that `value` may be zero."
      }
    },
    "kind": "dev",
    "methods": {
      "allowance(address,address)": {
        "details": "See {IERC20-allowance}."
      },
      "approve(address,uint256)": {
        "details": "See {IERC20-approve}. NOTE: If `value` is the maximum `uint256`, the allowance is not updated on `transferFrom`. This is semantically equivalent to an infinite approval. Requirements: - `spender` cannot be the zero address."
      },
      "balanceOf(address)": {
        "details": "See {IERC20-balanceOf}."
      },
      "burn(uint256)": {
        "details": "Destroys a `value` amount of tokens from the caller. See {ERC20-_burn}."
      },
      "burnFrom(address,uint256)": {
        "details": "Destroys a `value` amount of tokens from `account`, deducting from the caller's allowance. See {ERC20-_burn} and {ERC20-allowance}. Requirements: - the caller must have allowance for ``accounts``'s tokens of at least `value`."
      },
      "decimals()": {
        "details": "Returns the number of decimals used to get its user representation. For example, if `decimals` equals `2`, a balance of `505` tokens should be displayed to a user as `5.05` (`505 / 10 ** 2`). Tokens usually opt for a value of 18, imitating the relationship between Ether and Wei. This is the default value returned by this function, unless it's overridden. NOTE: This information is only used for _display_ purposes: it in no way affects any of the arithmetic of the contract, including {IERC20-balanceOf} and {IERC20-transfer}."
      },
      "name()": {
        "details": "Returns the name of the token."
      },
      "owner()": {
        "details": "Returns the address of the current owner."
      },
      "renounceOwnership()": {
        "details": "Leaves the contract without owner. It will not be possible to call `onlyOwner` functions. Can only be called by the current owner. NOTE: Renouncing ownership will leave the contract without an owner, thereby disabling any functionality that is only available to the owner."
      },
      "symbol()": {
        "details": "Returns the symbol of the token, usually a shorter version of the name."
      },
      "totalSupply()": {
        "details": "See {IERC20-totalSupply}."
      },
      "transfer(address,uint256)": {
        "details": "See {IERC20-transfer}. Requirements: - `to` cannot be the zero address. - the caller must have a balance of at least `value`."
      },
      "transferFrom(address,address,uint256)": {
        "details": "See {IERC20-transferFrom}. Emits an {Approval} event indicating the updated allowance. This is not required by the EIP. See the note at the beginning of {ERC20}. NOTE: Does not update the allowance if the current allowance is the maximum `uint256`. Requirements: - `from` and `to` cannot be the zero address. - `from` must have a balance of at least `value`. - the caller must have allowance for ``from``'s tokens of at least `value`."
      },
      "transferOwnership(address)": {
        "details": "Transfers ownership of the contract to a new account (`newOwner`). Can only be called by the current owner."
      }
    },
    "version": 1
  },
  "userdoc": {
    "kind": "user",
    "methods": {},
    "version": 1
  },
  "storageLayout": {
    "storage": [
      {
        "astId": 5979,
        "contract": "contracts/Organization/OrganizationToken.sol:OrganizationToken",
        "label": "_balances",
        "offset": 0,
        "slot": "0",
        "type": "t_mapping(t_address,t_uint256)"
      },
      {
        "astId": 5985,
        "contract": "contracts/Organization/OrganizationToken.sol:OrganizationToken",
        "label": "_allowances",
        "offset": 0,
        "slot": "1",
        "type": "t_mapping(t_address,t_mapping(t_address,t_uint256))"
      },
      {
        "astId": 5987,
        "contract": "contracts/Organization/OrganizationToken.sol:OrganizationToken",
        "label": "_totalSupply",
        "offset": 0,
        "slot": "2",
        "type": "t_uint256"
      },
      {
        "astId": 5989,
        "contract": "contracts/Organization/OrganizationToken.sol:OrganizationToken",
        "label": "_name",
        "offset": 0,
        "slot": "3",
        "type": "t_string_storage"
      },
      {
        "astId": 5991,
        "contract": "contracts/Organization/OrganizationToken.sol:OrganizationToken",
        "label": "_symbol",
        "offset": 0,
        "slot": "4",
        "type": "t_string_storage"
      },
      {
        "astId": 5680,
        "contract": "contracts/Organization/OrganizationToken.sol:OrganizationToken",
        "label": "_owner",
        "offset": 0,
        "slot": "5",
        "type": "t_address"
      },
      {
        "astId": 6662,
        "contract": "contracts/Organization/OrganizationToken.sol:OrganizationToken",
        "label": "_status",
        "offset": 0,
        "slot": "6",
        "type": "t_uint256"
      },
      {
        "astId": 10079,
        "contract": "contracts/Organization/OrganizationToken.sol:OrganizationToken",
        "label": "redemptionEnabled",
        "offset": 0,
        "slot": "7",
        "type": "t_bool"
      }
    ],
    "types": {
      "t_address": {
        "encoding": "inplace",
        "label": "address",
        "numberOfBytes": "20"
      },
      "t_bool": {
        "encoding": "inplace",
        "label": "bool",
        "numberOfBytes": "1"
      },
      "t_mapping(t_address,t_mapping(t_address,t_uint256))": {
        "encoding": "mapping",
        "key": "t_address",
        "label": "mapping(address => mapping(address => uint256))",
        "numberOfBytes": "32",
        "value": "t_mapping(t_address,t_uint256)"
      },
      "t_mapping(t_address,t_uint256)": {
        "encoding": "mapping",
        "key": "t_address",
        "label": "mapping(address => uint256)",
        "numberOfBytes": "32",
        "value": "t_uint256"
      },
      "t_string_storage": {
        "encoding": "bytes",
        "label": "string",
        "numberOfBytes": "32"
      },
      "t_uint256": {
        "encoding": "inplace",
        "label": "uint256",
        "numberOfBytes": "32"
      }
    }
  }
}