{
  "address": "0x597193232E2304583A8BfC6F8E20453ce43CDa27",
  "abi": [
    {
      "inputs": [
        {
          "internalType": "contract IOrganizationManager",
          "name": "_orgManager",
          "type": "address"
        }
      ],
      "stateMutability": "nonpayable",
      "type": "constructor"
    },
    {
      "anonymous": false,
      "inputs": [
        {
          "indexed": true,
          "internalType": "uint256",
          "name": "prizeId",
          "type": "uint256"
        },
        {
          "indexed": true,
          "internalType": "uint256",
          "name": "orgId",
          "type": "uint256"
        },
        {
          "indexed": false,
          "internalType": "uint256",
          "name": "amount",
          "type": "uint256"
        },
        {
          "indexed": false,
          "internalType": "address",
          "name": "claimer",
          "type": "address"
        },
        {
          "indexed": false,
          "internalType": "uint256",
          "name": "cost",
          "type": "uint256"
        },
        {
          "indexed": false,
          "internalType": "uint256[]",
          "name": "nftIds",
          "type": "uint256[]"
        }
      ],
      "name": "PrizeClaimed",
      "type": "event"
    },
    {
      "anonymous": false,
      "inputs": [
        {
          "indexed": true,
          "internalType": "uint256",
          "name": "prizeId",
          "type": "uint256"
        },
        {
          "indexed": true,
          "internalType": "uint256",
          "name": "orgId",
          "type": "uint256"
        },
        {
          "indexed": false,
          "internalType": "string",
          "name": "name",
          "type": "string"
        },
        {
          "indexed": false,
          "internalType": "string",
          "name": "description",
          "type": "string"
        },
        {
          "indexed": false,
          "internalType": "uint256",
          "name": "price",
          "type": "uint256"
        },
        {
          "indexed": false,
          "internalType": "uint256",
          "name": "stock",
          "type": "uint256"
        },
        {
          "indexed": false,
          "internalType": "address",
          "name": "nftContract",
          "type": "address"
        },
        {
          "indexed": false,
          "internalType": "string",
          "name": "baseURI",
          "type": "string"
        }
      ],
      "name": "PrizeCreated",
      "type": "event"
    },
    {
      "inputs": [
        {
          "internalType": "uint256",
          "name": "orgId",
          "type": "uint256"
        },
        {
          "internalType": "uint256",
          "name": "prizeId",
          "type": "uint256"
        },
        {
          "internalType": "uint256",
          "name": "amount",
          "type": "uint256"
        }
      ],
      "name": "claimPrize",
      "outputs": [],
      "stateMutability": "nonpayable",
      "type": "function"
    },
    {
      "inputs": [
        {
          "internalType": "uint256",
          "name": "orgId",
          "type": "uint256"
        },
        {
          "internalType": "string",
          "name": "name",
          "type": "string"
        },
        {
          "internalType": "string",
          "name": "description",
          "type": "string"
        },
        {
          "internalType": "uint256",
          "name": "price",
          "type": "uint256"
        },
        {
          "internalType": "uint256",
          "name": "stock",
          "type": "uint256"
        },
        {
          "internalType": "string",
          "name": "baseURI",
          "type": "string"
        }
      ],
      "name": "createPrize",
      "outputs": [],
      "stateMutability": "nonpayable",
      "type": "function"
    },
    {
      "inputs": [
        {
          "internalType": "uint256",
          "name": "prizeId",
          "type": "uint256"
        }
      ],
      "name": "getPrize",
      "outputs": [
        {
          "components": [
            {
              "internalType": "string",
              "name": "name",
              "type": "string"
            },
            {
              "internalType": "string",
              "name": "description",
              "type": "string"
            },
            {
              "internalType": "uint256",
              "name": "price",
              "type": "uint256"
            },
            {
              "internalType": "uint256",
              "name": "stock",
              "type": "uint256"
            },
            {
              "internalType": "uint256",
              "name": "orgId",
              "type": "uint256"
            },
            {
              "internalType": "address",
              "name": "nftContract",
              "type": "address"
            },
            {
              "internalType": "string",
              "name": "baseURI",
              "type": "string"
            }
          ],
          "internalType": "struct Prizes.Prize",
          "name": "",
          "type": "tuple"
        }
      ],
      "stateMutability": "view",
      "type": "function"
    },
    {
      "inputs": [
        {
          "internalType": "uint256",
          "name": "orgId",
          "type": "uint256"
        }
      ],
      "name": "listPrizes",
      "outputs": [
        {
          "internalType": "uint256[]",
          "name": "ids",
          "type": "uint256[]"
        },
        {
          "internalType": "string[]",
          "name": "names",
          "type": "string[]"
        },
        {
          "internalType": "string[]",
          "name": "descriptions",
          "type": "string[]"
        },
        {
          "internalType": "uint256[]",
          "name": "prices",
          "type": "uint256[]"
        },
        {
          "internalType": "uint256[]",
          "name": "stocks",
          "type": "uint256[]"
        },
        {
          "internalType": "address[]",
          "name": "nftContracts",
          "type": "address[]"
        },
        {
          "internalType": "string[]",
          "name": "baseURI",
          "type": "string[]"
        }
      ],
      "stateMutability": "view",
      "type": "function"
    },
    {
      "inputs": [],
      "name": "orgManager",
      "outputs": [
        {
          "internalType": "contract IOrganizationManager",
          "name": "",
          "type": "address"
        }
      ],
      "stateMutability": "view",
      "type": "function"
    }
  ],
  "transactionHash": "0x4863c70d4eb280fee08cb07f0bfa5e3b65b1e86fa7391109e129f076eb71ef9a",
  "args": [
    "0x9F1BaFcAf305F9DD8Ae7e409FAbe719c0905E4A6"
  ],
  "numDeployments": 1,
  "solcInputHash": "427be8a3b4ba5f216bf23dbbacd22201",
  "bytecode": "0x608060405234801561001057600080fd5b5060405161308938038061308983398101604081905261002f91610054565b600380546001600160a01b0319166001600160a01b0392909216919091179055610084565b60006020828403121561006657600080fd5b81516001600160a01b038116811461007d57600080fd5b9392505050565b612ff6806100936000396000f3fe60806040523480156200001157600080fd5b50600436106200005e5760003560e01c80632e42b0cd14620000635780635c1a70e114620000985780637d96da0014620000b1578063a1099bf214620000de578063f6c942301462000104575b600080fd5b6200007a62000074366004620012b2565b6200011b565b6040516200008f9796959493929190620013b6565b60405180910390f35b620000af620000a9366004620014d4565b620006ec565b005b600354620000c5906001600160a01b031681565b6040516001600160a01b0390911681526020016200008f565b620000f5620000ef366004620012b2565b6200092a565b6040516200008f919062001597565b620000af620001153660046200162f565b62000b96565b60608060608060608060606000600260008a81526020019081526020016000208054806020026020016040519081016040528092919081815260200182805480156200018757602002820191906000526020600020905b81548152602001906001019080831162000172575b50508351939450839250505067ffffffffffffffff811115620001ae57620001ae6200165c565b604051908082528060200260200182016040528015620001d8578160200160208202803683370190505b5098508067ffffffffffffffff811115620001f757620001f76200165c565b6040519080825280602002602001820160405280156200022c57816020015b6060815260200190600190039081620002165790505b5097508067ffffffffffffffff8111156200024b576200024b6200165c565b6040519080825280602002602001820160405280156200028057816020015b60608152602001906001900390816200026a5790505b5096508067ffffffffffffffff8111156200029f576200029f6200165c565b604051908082528060200260200182016040528015620002c9578160200160208202803683370190505b5095508067ffffffffffffffff811115620002e857620002e86200165c565b60405190808252806020026020018201604052801562000312578160200160208202803683370190505b5094508067ffffffffffffffff8111156200033157620003316200165c565b6040519080825280602002602001820160405280156200035b578160200160208202803683370190505b5093508067ffffffffffffffff8111156200037a576200037a6200165c565b604051908082528060200260200182016040528015620003af57816020015b6060815260200190600190039081620003995790505b50925060005b81811015620006de576000838281518110620003d557620003d562001672565b6020026020010151905060008060008381526020019081526020016000209050818c84815181106200040b576200040b62001672565b602090810291909101015280548190620004259062001688565b80601f0160208091040260200160405190810160405280929190818152602001828054620004539062001688565b8015620004a45780601f106200047857610100808354040283529160200191620004a4565b820191906000526020600020905b8154815290600101906020018083116200048657829003601f168201915b50505050508b8481518110620004be57620004be62001672565b6020026020010181905250806001018054620004da9062001688565b80601f0160208091040260200160405190810160405280929190818152602001828054620005089062001688565b8015620005595780601f106200052d5761010080835404028352916020019162000559565b820191906000526020600020905b8154815290600101906020018083116200053b57829003601f168201915b50505050508a848151811062000573576200057362001672565b6020026020010181905250806002015489848151811062000598576200059862001672565b6020026020010181815250508060030154888481518110620005be57620005be62001672565b6020908102919091010152600581015487516001600160a01b0390911690889085908110620005f157620005f162001672565b60200260200101906001600160a01b031690816001600160a01b031681525050806006018054620006229062001688565b80601f0160208091040260200160405190810160405280929190818152602001828054620006509062001688565b8015620006a15780601f106200067557610100808354040283529160200191620006a1565b820191906000526020600020905b8154815290600101906020018083116200068357829003601f168201915b5050505050868481518110620006bb57620006bb62001672565b602002602001018190525050508080620006d590620016da565b915050620003b5565b505050919395979092949650565b60035460405163146a291160e01b8152600481018b90523360248201528a916001600160a01b03169063146a291190604401602060405180830381865afa1580156200073c573d6000803e3d6000fd5b505050506040513d601f19601f82011682018060405250810190620007629190620016f6565b620007c75760405162461bcd60e51b815260206004820152602a60248201527f5072697a65733a2063616c6c6572206973206e6f7420616e2061646d696e206f604482015269662074686973206f726760b01b60648201526084015b60405180910390fd5b6001805460009182620007da83620016da565b9190505590506000620008598b8b8080601f01602080910402602001604051908101604052809392919081815260200183838082843760009201919091525050604080516020601f8b018190048102820181019092528981528793509150899089908190840183828082843760009201919091525062000f6792505050565b90506200091c828d8d8d8080601f016020809104026020016040519081016040528093929190818152602001838380828437600081840152601f19601f820116905080830192505050505050508c8c8080601f01602080910402602001604051908101604052809392919081815260200183838082843760009201919091525050604080516020601f8e018190048102820181019092528c81528f93508e925089918e908e908190840183828082843760009201919091525062000fe192505050565b505050505050505050505050565b620009746040518060e00160405280606081526020016060815260200160008152602001600081526020016000815260200160006001600160a01b03168152602001606081525090565b60008281526020819052604090819020815160e081019092528054829082906200099e9062001688565b80601f0160208091040260200160405190810160405280929190818152602001828054620009cc9062001688565b801562000a1d5780601f10620009f15761010080835404028352916020019162000a1d565b820191906000526020600020905b815481529060010190602001808311620009ff57829003601f168201915b5050505050815260200160018201805462000a389062001688565b80601f016020809104026020016040519081016040528092919081815260200182805462000a669062001688565b801562000ab75780601f1062000a8b5761010080835404028352916020019162000ab7565b820191906000526020600020905b81548152906001019060200180831162000a9957829003601f168201915b505050918352505060028201546020820152600382015460408201526004820154606082015260058201546001600160a01b0316608082015260068201805460a09092019162000b079062001688565b80601f016020809104026020016040519081016040528092919081815260200182805462000b359062001688565b801562000b865780601f1062000b5a5761010080835404028352916020019162000b86565b820191906000526020600020905b81548152906001019060200180831162000b6857829003601f168201915b5050505050815250509050919050565b6000811162000be85760405162461bcd60e51b815260206004820152601a60248201527f5072697a65733a20616d6f756e74206d757374206265203e20300000000000006044820152606401620007be565b60008281526020819052604090206004810154841462000c4b5760405162461bcd60e51b815260206004820152601f60248201527f5072697a65733a207072697a65206e6f742066726f6d2074686973206f7267006044820152606401620007be565b818160030154101562000ca15760405162461bcd60e51b815260206004820152601860248201527f5072697a65733a206e6f7420656e6f7567682073746f636b00000000000000006044820152606401620007be565b600082826002015462000cb5919062001721565b600354604051631bc7046d60e01b8152600481018890529192506000916001600160a01b0390911690631bc7046d90602401602060405180830381865afa15801562000d05573d6000803e3d6000fd5b505050506040513d601f19601f8201168201806040525081019062000d2b91906200173b565b90506001600160a01b03811662000d855760405162461bcd60e51b815260206004820152601d60248201527f5072697a65733a20696e76616c696420746f6b656e20666f72206f72670000006044820152606401620007be565b6040516323b872dd60e01b8152336004820152306024820152604481018390526001600160a01b038216906323b872dd906064016020604051808303816000875af115801562000dd9573d6000803e3d6000fd5b505050506040513d601f19601f8201168201806040525081019062000dff9190620016f6565b5060008467ffffffffffffffff81111562000e1e5762000e1e6200165c565b60405190808252806020026020018201604052801562000e48578160200160208202803683370190505b50905060005b8581101562000eff5760058501546040516335313c2160e11b81523360048201526001600160a01b0390911690636a627842906024016020604051808303816000875af115801562000ea4573d6000803e3d6000fd5b505050506040513d601f19601f8201168201806040525081019062000eca919062001766565b82828151811062000edf5762000edf62001672565b60209081029190910101528062000ef681620016da565b91505062000e4e565b508484600301600082825462000f16919062001780565b9250508190555086867fb85716fe4d9704daf275d8a712d517c86b008ec56dafe1f9fb03d7fb52e278838733878660405162000f56949392919062001796565b60405180910390a350505050505050565b60008062000f75846200112a565b60405160200162000f879190620017cf565b6040516020818303038152906040529050600085828560405162000fab90620012a4565b62000fb993929190620017fe565b604051809103906000f08015801562000fd6573d6000803e3d6000fd5b509695505050505050565b6040805160e081018252878152602080820188905281830187905260608201869052608082018a90526001600160a01b03851660a083015260c0820184905260008b815290819052919091208151829190819062001040908262001890565b506020820151600182019062001057908262001890565b5060408201516002820155606082015160038201556080820151600482015560a08201516005820180546001600160a01b0319166001600160a01b0390921691909117905560c08201516006820190620010b2908262001890565b5050506000888152600260209081526040808320805460018101825590845291909220018a90555188908a907fcee297ce481efd27dd3a430b155c515baca2f4aa3be3eb0338063214f0e3ff599062001117908b908b908b908b908b908b906200195d565b60405180910390a3505050505050505050565b606060006200113983620011c4565b600101905060008167ffffffffffffffff8111156200115c576200115c6200165c565b6040519080825280601f01601f19166020018201604052801562001187576020820181803683370190505b5090508181016020015b600019016f181899199a1a9b1b9c1cb0b131b232b360811b600a86061a8153600a85049450846200119157509392505050565b60008072184f03e93ff9f4daa797ed6e38ed64bf6a1f0160401b8310620012045772184f03e93ff9f4daa797ed6e38ed64bf6a1f0160401b830492506040015b6d04ee2d6d415b85acef8100000000831062001231576d04ee2d6d415b85acef8100000000830492506020015b662386f26fc1000083106200125057662386f26fc10000830492506010015b6305f5e100831062001269576305f5e100830492506008015b61271083106200127e57612710830492506004015b6064831062001291576064830492506002015b600a83106200129e576001015b92915050565b6115fa80620019c783390190565b600060208284031215620012c557600080fd5b5035919050565b600081518084526020808501945080840160005b83811015620012fe57815187529582019590820190600101620012e0565b509495945050505050565b60005b83811015620013265781810151838201526020016200130c565b50506000910152565b600081518084526200134981602086016020860162001309565b601f01601f19169290920160200192915050565b600081518084526020808501808196508360051b8101915082860160005b85811015620013a9578284038952620013968483516200132f565b988501989350908401906001016200137b565b5091979650505050505050565b60e081526000620013cb60e083018a620012cc565b602083820381850152620013e0828b6200135d565b91508382036040850152620013f6828a6200135d565b915083820360608501526200140c8289620012cc565b91508382036080850152620014228288620012cc565b84810360a0860152865180825282880193509082019060005b81811015620014625784516001600160a01b0316835293830193918301916001016200143b565b505084810360c08601526200147881876200135d565b9c9b505050505050505050505050565b60008083601f8401126200149b57600080fd5b50813567ffffffffffffffff811115620014b457600080fd5b602083019150836020828501011115620014cd57600080fd5b9250929050565b600080600080600080600080600060c08a8c031215620014f357600080fd5b8935985060208a013567ffffffffffffffff808211156200151357600080fd5b620015218d838e0162001488565b909a50985060408c01359150808211156200153b57600080fd5b620015498d838e0162001488565b909850965060608c0135955060808c0135945060a08c01359150808211156200157157600080fd5b50620015808c828d0162001488565b915080935050809150509295985092959850929598565b602081526000825160e06020840152620015b66101008401826200132f565b90506020840151601f1980858403016040860152620015d683836200132f565b92506040860151606086015260608601516080860152608086015160a086015260018060a01b0360a08701511660c086015260c08601519150808584030160e0860152506200162682826200132f565b95945050505050565b6000806000606084860312156200164557600080fd5b505081359360208301359350604090920135919050565b634e487b7160e01b600052604160045260246000fd5b634e487b7160e01b600052603260045260246000fd5b600181811c908216806200169d57607f821691505b602082108103620016be57634e487b7160e01b600052602260045260246000fd5b50919050565b634e487b7160e01b600052601160045260246000fd5b600060018201620016ef57620016ef620016c4565b5060010190565b6000602082840312156200170957600080fd5b815180151581146200171a57600080fd5b9392505050565b80820281158282048414176200129e576200129e620016c4565b6000602082840312156200174e57600080fd5b81516001600160a01b03811681146200171a57600080fd5b6000602082840312156200177957600080fd5b5051919050565b818103818111156200129e576200129e620016c4565b84815260018060a01b0384166020820152826040820152608060608201526000620017c56080830184620012cc565b9695505050505050565b645052495a4560d81b815260008251620017f181600585016020870162001309565b9190910160050192915050565b6060815260006200181360608301866200132f565b82810360208401526200182781866200132f565b90508281036040840152620017c581856200132f565b601f8211156200188b57600081815260208120601f850160051c81016020861015620018665750805b601f850160051c820191505b81811015620018875782815560010162001872565b5050505b505050565b815167ffffffffffffffff811115620018ad57620018ad6200165c565b620018c581620018be845462001688565b846200183d565b602080601f831160018114620018fd5760008415620018e45750858301515b600019600386901b1c1916600185901b17855562001887565b600085815260208120601f198616915b828110156200192e578886015182559484019460019091019084016200190d565b50858210156200194d5787850151600019600388901b60f8161c191681555b5050505050600190811b01905550565b60c0815260006200197260c08301896200132f565b82810360208401526200198681896200132f565b60408401889052606084018790526001600160a01b038616608085015283810360a08501529050620019b981856200132f565b999850505050505050505056fe60806040523480156200001157600080fd5b50604051620015fa380380620015fa8339810160408190526200003491620001c1565b3383836000620000458382620002e1565b506001620000548282620002e1565b5050506001600160a01b0381166200008657604051631e4fbdf760e01b81526000600482015260240160405180910390fd5b6200009181620000aa565b506009620000a08282620002e1565b50505050620003ad565b600780546001600160a01b038381166001600160a01b0319831681179093556040519116919082907f8be0079c531659141344cd1fd0a4f28419497f9722a3daafe3b4186f6b6457e090600090a35050565b634e487b7160e01b600052604160045260246000fd5b600082601f8301126200012457600080fd5b81516001600160401b0380821115620001415762000141620000fc565b604051601f8301601f19908116603f011681019082821181831017156200016c576200016c620000fc565b816040528381526020925086838588010111156200018957600080fd5b600091505b83821015620001ad57858201830151818301840152908201906200018e565b600093810190920192909252949350505050565b600080600060608486031215620001d757600080fd5b83516001600160401b0380821115620001ef57600080fd5b620001fd8783880162000112565b945060208601519150808211156200021457600080fd5b620002228783880162000112565b935060408601519150808211156200023957600080fd5b50620002488682870162000112565b9150509250925092565b600181811c908216806200026757607f821691505b6020821081036200028857634e487b7160e01b600052602260045260246000fd5b50919050565b601f821115620002dc57600081815260208120601f850160051c81016020861015620002b75750805b601f850160051c820191505b81811015620002d857828155600101620002c3565b5050505b505050565b81516001600160401b03811115620002fd57620002fd620000fc565b62000315816200030e845462000252565b846200028e565b602080601f8311600181146200034d5760008415620003345750858301515b600019600386901b1c1916600185901b178555620002d8565b600085815260208120601f198616915b828110156200037e578886015182559484019460019091019084016200035d565b50858210156200039d5787850151600019600388901b60f8161c191681555b5050505050600190811b01905550565b61123d80620003bd6000396000f3fe608060405234801561001057600080fd5b506004361061010b5760003560e01c806370a08231116100a2578063a22cb46511610071578063a22cb4651461021b578063b88d4fde1461022e578063c87b56dd14610241578063e985e9c514610254578063f2fde38b1461026757600080fd5b806370a08231146101e7578063715018a6146101fa5780638da5cb5b1461020257806395d89b411461021357600080fd5b806323b872dd116100de57806323b872dd1461018d57806342842e0e146101a05780636352211e146101b35780636a627842146101c657600080fd5b806301ffc9a71461011057806306fdde0314610138578063081812fc1461014d578063095ea7b314610178575b600080fd5b61012361011e366004610e8b565b61027a565b60405190151581526020015b60405180910390f35b6101406102a5565b60405161012f9190610ef8565b61016061015b366004610f0b565b610337565b6040516001600160a01b03909116815260200161012f565b61018b610186366004610f3b565b610360565b005b61018b61019b366004610f65565b61036f565b61018b6101ae366004610f65565b6103ff565b6101606101c1366004610f0b565b61041f565b6101d96101d4366004610fa1565b61042a565b60405190815260200161012f565b6101d96101f5366004610fa1565b61045d565b61018b6104a5565b6007546001600160a01b0316610160565b6101406104b9565b61018b610229366004610fbc565b6104c8565b61018b61023c36600461100e565b6104d3565b61014061024f366004610f0b565b6104ea565b6101236102623660046110ea565b6105ee565b61018b610275366004610fa1565b61061c565b60006001600160e01b03198216632483248360e11b148061029f575061029f8261065a565b92915050565b6060600080546102b49061111d565b80601f01602080910402602001604051908101604052809291908181526020018280546102e09061111d565b801561032d5780601f106103025761010080835404028352916020019161032d565b820191906000526020600020905b81548152906001019060200180831161031057829003601f168201915b5050505050905090565b6000610342826106aa565b506000828152600460205260409020546001600160a01b031661029f565b61036b8282336106e3565b5050565b6001600160a01b03821661039e57604051633250574960e11b8152600060048201526024015b60405180910390fd5b60006103ab8383336106f0565b9050836001600160a01b0316816001600160a01b0316146103f9576040516364283d7b60e01b81526001600160a01b0380861660048301526024820184905282166044820152606401610395565b50505050565b61041a838383604051806020016040528060008152506104d3565b505050565b600061029f826106aa565b60006104346107e9565b600880546000918261044583611157565b9190505590506104558382610816565b90505b919050565b60006001600160a01b038216610489576040516322718ad960e21b815260006004820152602401610395565b506001600160a01b031660009081526003602052604090205490565b6104ad6107e9565b6104b76000610830565b565b6060600180546102b49061111d565b61036b338383610882565b6104de84848461036f565b6103f984848484610921565b60606104f5826106aa565b506000828152600660205260408120805461050f9061111d565b80601f016020809104026020016040519081016040528092919081815260200182805461053b9061111d565b80156105885780601f1061055d57610100808354040283529160200191610588565b820191906000526020600020905b81548152906001019060200180831161056b57829003601f168201915b505050505090506000610599610a4a565b905080516000036105ab575092915050565b8151156105dd5780826040516020016105c592919061117e565b60405160208183030381529060405292505050919050565b6105e684610a59565b949350505050565b6001600160a01b03918216600090815260056020908152604080832093909416825291909152205460ff1690565b6106246107e9565b6001600160a01b03811661064e57604051631e4fbdf760e01b815260006004820152602401610395565b61065781610830565b50565b60006001600160e01b031982166380ac58cd60e01b148061068b57506001600160e01b03198216635b5e139f60e01b145b8061029f57506301ffc9a760e01b6001600160e01b031983161461029f565b6000818152600260205260408120546001600160a01b03168061045557604051637e27328960e01b815260048101849052602401610395565b61041a8383836001610ac1565b6000828152600260205260408120546001600160a01b039081169083161561071d5761071d818486610bc7565b6001600160a01b0381161561075b5761073a600085600080610ac1565b6001600160a01b038116600090815260036020526040902080546000190190555b6001600160a01b0385161561078a576001600160a01b0385166000908152600360205260409020805460010190555b60008481526002602052604080822080546001600160a01b0319166001600160a01b0389811691821790925591518793918516917fddf252ad1be2c89b69c2b068fc378daa952ba7f163c4a11628f55a4df523b3ef91a4949350505050565b6007546001600160a01b031633146104b75760405163118cdaa760e01b8152336004820152602401610395565b61036b828260405180602001604052806000815250610c2b565b600780546001600160a01b038381166001600160a01b0319831681179093556040519116919082907f8be0079c531659141344cd1fd0a4f28419497f9722a3daafe3b4186f6b6457e090600090a35050565b6001600160a01b0382166108b457604051630b61174360e31b81526001600160a01b0383166004820152602401610395565b6001600160a01b03838116600081815260056020908152604080832094871680845294825291829020805460ff191686151590811790915591519182527f17307eab39ab6107e8899845ad3d59bd9653f200f220920489ca2b5937696c31910160405180910390a3505050565b6001600160a01b0383163b156103f957604051630a85bd0160e11b81526001600160a01b0384169063150b7a02906109639033908890879087906004016111ad565b6020604051808303816000875af192505050801561099e575060408051601f3d908101601f1916820190925261099b918101906111ea565b60015b610a07573d8080156109cc576040519150601f19603f3d011682016040523d82523d6000602084013e6109d1565b606091505b5080516000036109ff57604051633250574960e11b81526001600160a01b0385166004820152602401610395565b805181602001fd5b6001600160e01b03198116630a85bd0160e11b14610a4357604051633250574960e11b81526001600160a01b0385166004820152602401610395565b5050505050565b6060600980546102b49061111d565b6060610a64826106aa565b506000610a6f610a4a565b90506000815111610a8f5760405180602001604052806000815250610aba565b80610a9984610c42565b604051602001610aaa92919061117e565b6040516020818303038152906040525b9392505050565b8080610ad557506001600160a01b03821615155b15610b97576000610ae5846106aa565b90506001600160a01b03831615801590610b115750826001600160a01b0316816001600160a01b031614155b8015610b245750610b2281846105ee565b155b15610b4d5760405163a9fbf51f60e01b81526001600160a01b0384166004820152602401610395565b8115610b955783856001600160a01b0316826001600160a01b03167f8c5be1e5ebec7d5bd14f71427d1e84f3dd0314c0f7b2291e5b200ac8c7c3b92560405160405180910390a45b505b5050600090815260046020526040902080546001600160a01b0319166001600160a01b0392909216919091179055565b610bd2838383610cd5565b61041a576001600160a01b038316610c0057604051637e27328960e01b815260048101829052602401610395565b60405163177e802f60e01b81526001600160a01b038316600482015260248101829052604401610395565b610c358383610d38565b61041a6000848484610921565b60606000610c4f83610d9d565b600101905060008167ffffffffffffffff811115610c6f57610c6f610ff8565b6040519080825280601f01601f191660200182016040528015610c99576020820181803683370190505b5090508181016020015b600019016f181899199a1a9b1b9c1cb0b131b232b360811b600a86061a8153600a8504945084610ca357509392505050565b60006001600160a01b038316158015906105e65750826001600160a01b0316846001600160a01b03161480610d0f5750610d0f84846105ee565b806105e65750506000908152600460205260409020546001600160a01b03908116911614919050565b6001600160a01b038216610d6257604051633250574960e11b815260006004820152602401610395565b6000610d70838360006106f0565b90506001600160a01b0381161561041a576040516339e3563760e11b815260006004820152602401610395565b60008072184f03e93ff9f4daa797ed6e38ed64bf6a1f0160401b8310610ddc5772184f03e93ff9f4daa797ed6e38ed64bf6a1f0160401b830492506040015b6d04ee2d6d415b85acef81000000008310610e08576d04ee2d6d415b85acef8100000000830492506020015b662386f26fc100008310610e2657662386f26fc10000830492506010015b6305f5e1008310610e3e576305f5e100830492506008015b6127108310610e5257612710830492506004015b60648310610e64576064830492506002015b600a83106104555760010192915050565b6001600160e01b03198116811461065757600080fd5b600060208284031215610e9d57600080fd5b8135610aba81610e75565b60005b83811015610ec3578181015183820152602001610eab565b50506000910152565b60008151808452610ee4816020860160208601610ea8565b601f01601f19169290920160200192915050565b602081526000610aba6020830184610ecc565b600060208284031215610f1d57600080fd5b5035919050565b80356001600160a01b038116811461045857600080fd5b60008060408385031215610f4e57600080fd5b610f5783610f24565b946020939093013593505050565b600080600060608486031215610f7a57600080fd5b610f8384610f24565b9250610f9160208501610f24565b9150604084013590509250925092565b600060208284031215610fb357600080fd5b610aba82610f24565b60008060408385031215610fcf57600080fd5b610fd883610f24565b915060208301358015158114610fed57600080fd5b809150509250929050565b634e487b7160e01b600052604160045260246000fd5b6000806000806080858703121561102457600080fd5b61102d85610f24565b935061103b60208601610f24565b925060408501359150606085013567ffffffffffffffff8082111561105f57600080fd5b818701915087601f83011261107357600080fd5b81358181111561108557611085610ff8565b604051601f8201601f19908116603f011681019083821181831017156110ad576110ad610ff8565b816040528281528a60208487010111156110c657600080fd5b82602086016020830137600060208483010152809550505050505092959194509250565b600080604083850312156110fd57600080fd5b61110683610f24565b915061111460208401610f24565b90509250929050565b600181811c9082168061113157607f821691505b60208210810361115157634e487b7160e01b600052602260045260246000fd5b50919050565b60006001820161117757634e487b7160e01b600052601160045260246000fd5b5060010190565b60008351611190818460208801610ea8565b8351908301906111a4818360208801610ea8565b01949350505050565b6001600160a01b03858116825284166020820152604081018390526080606082018190526000906111e090830184610ecc565b9695505050505050565b6000602082840312156111fc57600080fd5b8151610aba81610e7556fea26469706673582212202933f5a01eb37e1e7531a26bcaedbac0b07e7de135130901b816fb540205f41b64736f6c63430008140033a264697066735822122024a184538197f80331f9a85b4a38afa21675faadc0565ff9f5b560423f28bb9c64736f6c63430008140033",
  "devdoc": {
    "kind": "dev",
    "methods": {
      "claimPrize(uint256,uint256,uint256)": {
        "details": "El usuario debe haber aprobado previamente a este contrato (`Prizes`)      para gastar `amount * price` tokens de la organizacin.",
        "params": {
          "amount": "Cantidad de unidades que se reclaman",
          "orgId": "ID de la organizacin",
          "prizeId": "ID del premio "
        }
      },
      "createPrize(uint256,string,string,uint256,uint256,string)": {
        "params": {
          "baseURI": "Image cid in Filebase",
          "description": "Descripcin del premio",
          "name": "Nombre del premio",
          "orgId": "ID de la organizacin",
          "price": "Precio (en tokens de la organizacin) para reclamar 1 unidad",
          "stock": "Cantidad inicial de unidades disponibles de este premio"
        }
      },
      "listPrizes(uint256)": {
        "details": "Retorna un array de structs `Prize` pero en Solidity 0.8.x se puede usar     sin problema mientras las strings sean memoria.     Tambin retornamos el `prizeId` como ndice para que el front lo identifique.",
        "params": {
          "orgId": "ID de la organizacin"
        },
        "returns": {
          "baseURI": "Lista de cids de imgenes de premios",
          "descriptions": "Lista de descripciones",
          "ids": "Lista de IDs (ndices) de cada premio",
          "names": "Lista de nombres",
          "nftContracts": "Lista de direcciones de contratos NFT",
          "prices": "Lista de precios",
          "stocks": "Lista de stocks"
        }
      }
    },
    "version": 1
  },
  "userdoc": {
    "kind": "user",
    "methods": {
      "claimPrize(uint256,uint256,uint256)": {
        "notice": "Reclama `amount` unidades de un premio (paga en tokens de la org)."
      },
      "createPrize(uint256,string,string,uint256,uint256,string)": {
        "notice": "Crea un nuevo premio para la organizacin `orgId`."
      },
      "listPrizes(uint256)": {
        "notice": "Lista todos los premios de una organizacin, incluyendo su ID e informacin."
      }
    },
    "version": 1
  },
  "storageLayout": {
    "storage": [
      {
        "astId": 14708,
        "contract": "contracts/Prizes/Prizes.sol:Prizes",
        "label": "prizes",
        "offset": 0,
        "slot": "0",
        "type": "t_mapping(t_uint256,t_struct(Prize)14703_storage)"
      },
      {
        "astId": 14710,
        "contract": "contracts/Prizes/Prizes.sol:Prizes",
        "label": "nextPrizeId",
        "offset": 0,
        "slot": "1",
        "type": "t_uint256"
      },
      {
        "astId": 14715,
        "contract": "contracts/Prizes/Prizes.sol:Prizes",
        "label": "prizeIdsByOrg",
        "offset": 0,
        "slot": "2",
        "type": "t_mapping(t_uint256,t_array(t_uint256)dyn_storage)"
      },
      {
        "astId": 14718,
        "contract": "contracts/Prizes/Prizes.sol:Prizes",
        "label": "orgManager",
        "offset": 0,
        "slot": "3",
        "type": "t_contract(IOrganizationManager)13510"
      }
    ],
    "types": {
      "t_address": {
        "encoding": "inplace",
        "label": "address",
        "numberOfBytes": "20"
      },
      "t_array(t_uint256)dyn_storage": {
        "base": "t_uint256",
        "encoding": "dynamic_array",
        "label": "uint256[]",
        "numberOfBytes": "32"
      },
      "t_contract(IOrganizationManager)13510": {
        "encoding": "inplace",
        "label": "contract IOrganizationManager",
        "numberOfBytes": "20"
      },
      "t_mapping(t_uint256,t_array(t_uint256)dyn_storage)": {
        "encoding": "mapping",
        "key": "t_uint256",
        "label": "mapping(uint256 => uint256[])",
        "numberOfBytes": "32",
        "value": "t_array(t_uint256)dyn_storage"
      },
      "t_mapping(t_uint256,t_struct(Prize)14703_storage)": {
        "encoding": "mapping",
        "key": "t_uint256",
        "label": "mapping(uint256 => struct Prizes.Prize)",
        "numberOfBytes": "32",
        "value": "t_struct(Prize)14703_storage"
      },
      "t_string_storage": {
        "encoding": "bytes",
        "label": "string",
        "numberOfBytes": "32"
      },
      "t_struct(Prize)14703_storage": {
        "encoding": "inplace",
        "label": "struct Prizes.Prize",
        "members": [
          {
            "astId": 14690,
            "contract": "contracts/Prizes/Prizes.sol:Prizes",
            "label": "name",
            "offset": 0,
            "slot": "0",
            "type": "t_string_storage"
          },
          {
            "astId": 14692,
            "contract": "contracts/Prizes/Prizes.sol:Prizes",
            "label": "description",
            "offset": 0,
            "slot": "1",
            "type": "t_string_storage"
          },
          {
            "astId": 14694,
            "contract": "contracts/Prizes/Prizes.sol:Prizes",
            "label": "price",
            "offset": 0,
            "slot": "2",
            "type": "t_uint256"
          },
          {
            "astId": 14696,
            "contract": "contracts/Prizes/Prizes.sol:Prizes",
            "label": "stock",
            "offset": 0,
            "slot": "3",
            "type": "t_uint256"
          },
          {
            "astId": 14698,
            "contract": "contracts/Prizes/Prizes.sol:Prizes",
            "label": "orgId",
            "offset": 0,
            "slot": "4",
            "type": "t_uint256"
          },
          {
            "astId": 14700,
            "contract": "contracts/Prizes/Prizes.sol:Prizes",
            "label": "nftContract",
            "offset": 0,
            "slot": "5",
            "type": "t_address"
          },
          {
            "astId": 14702,
            "contract": "contracts/Prizes/Prizes.sol:Prizes",
            "label": "baseURI",
            "offset": 0,
            "slot": "6",
            "type": "t_string_storage"
          }
        ],
        "numberOfBytes": "224"
      },
      "t_uint256": {
        "encoding": "inplace",
        "label": "uint256",
        "numberOfBytes": "32"
      }
    }
  }
}