{
  "address": "0x47e828081FCa317d6fE4d88DE34C6CaE271798D3",
  "abi": [
    {
      "inputs": [
        {
          "internalType": "contract IOrganizationManager",
          "name": "_orgManager",
          "type": "address"
        }
      ],
      "stateMutability": "nonpayable",
      "type": "constructor"
    },
    {
      "inputs": [
        {
          "internalType": "uint256",
          "name": "orgId",
          "type": "uint256"
        },
        {
          "internalType": "uint256",
          "name": "prizeId",
          "type": "uint256"
        },
        {
          "internalType": "uint256",
          "name": "amount",
          "type": "uint256"
        }
      ],
      "name": "claimPrize",
      "outputs": [],
      "stateMutability": "nonpayable",
      "type": "function"
    },
    {
      "inputs": [
        {
          "internalType": "uint256",
          "name": "orgId",
          "type": "uint256"
        },
        {
          "internalType": "string",
          "name": "name",
          "type": "string"
        },
        {
          "internalType": "string",
          "name": "description",
          "type": "string"
        },
        {
          "internalType": "uint256",
          "name": "price",
          "type": "uint256"
        },
        {
          "internalType": "uint256",
          "name": "stock",
          "type": "uint256"
        }
      ],
      "name": "createPrize",
      "outputs": [],
      "stateMutability": "nonpayable",
      "type": "function"
    },
    {
      "inputs": [
        {
          "internalType": "uint256",
          "name": "orgId",
          "type": "uint256"
        }
      ],
      "name": "listPrizes",
      "outputs": [
        {
          "internalType": "uint256[]",
          "name": "ids",
          "type": "uint256[]"
        },
        {
          "internalType": "string[]",
          "name": "names",
          "type": "string[]"
        },
        {
          "internalType": "string[]",
          "name": "descriptions",
          "type": "string[]"
        },
        {
          "internalType": "uint256[]",
          "name": "prices",
          "type": "uint256[]"
        },
        {
          "internalType": "uint256[]",
          "name": "stocks",
          "type": "uint256[]"
        }
      ],
      "stateMutability": "view",
      "type": "function"
    },
    {
      "inputs": [],
      "name": "orgManager",
      "outputs": [
        {
          "internalType": "contract IOrganizationManager",
          "name": "",
          "type": "address"
        }
      ],
      "stateMutability": "view",
      "type": "function"
    }
  ],
  "transactionHash": "0x157114b814d3f35e3dca63580552baabf875dc3205d0e307849579de4e96e631",
  "args": [
    "0x3D62f41b126c7722b2019a0c66Cd2540136CcEA4"
  ],
  "numDeployments": 2,
  "solcInputHash": "31ca34f69de545882ca9564f4519173c",
  "bytecode": "0x608060405234801561001057600080fd5b50604051610ef7380380610ef783398101604081905261002f91610054565b600180546001600160a01b0319166001600160a01b0392909216919091179055610084565b60006020828403121561006657600080fd5b81516001600160a01b038116811461007d57600080fd5b9392505050565b610e64806100936000396000f3fe608060405234801561001057600080fd5b506004361061004c5760003560e01c80632e42b0cd146100515780637d96da001461007e57806394119830146100a9578063f6c94230146100be575b600080fd5b61006461005f3660046109c1565b6100d1565b604051610075959493929190610a9d565b60405180910390f35b600154610091906001600160a01b031681565b6040516001600160a01b039091168152602001610075565b6100bc6100b7366004610b53565b61045d565b005b6100bc6100cc366004610bdc565b61062b565b600081815260208190526040902080546060918291829182918291908067ffffffffffffffff81111561010657610106610c08565b60405190808252806020026020018201604052801561012f578160200160208202803683370190505b5096508067ffffffffffffffff81111561014b5761014b610c08565b60405190808252806020026020018201604052801561017e57816020015b60608152602001906001900390816101695790505b5095508067ffffffffffffffff81111561019a5761019a610c08565b6040519080825280602002602001820160405280156101cd57816020015b60608152602001906001900390816101b85790505b5094508067ffffffffffffffff8111156101e9576101e9610c08565b604051908082528060200260200182016040528015610212578160200160208202803683370190505b5093508067ffffffffffffffff81111561022e5761022e610c08565b604051908082528060200260200182016040528015610257578160200160208202803683370190505b50925060005b8181101561045157600083828154811061027957610279610c1e565b906000526020600020906004020190508189838151811061029c5761029c610c1e565b6020908102919091010152805481906102b490610c34565b80601f01602080910402602001604051908101604052809291908181526020018280546102e090610c34565b801561032d5780601f106103025761010080835404028352916020019161032d565b820191906000526020600020905b81548152906001019060200180831161031057829003601f168201915b505050505088838151811061034457610344610c1e565b602002602001018190525080600101805461035e90610c34565b80601f016020809104026020016040519081016040528092919081815260200182805461038a90610c34565b80156103d75780601f106103ac576101008083540402835291602001916103d7565b820191906000526020600020905b8154815290600101906020018083116103ba57829003601f168201915b50505050508783815181106103ee576103ee610c1e565b6020026020010181905250806002015486838151811061041057610410610c1e565b602002602001018181525050806003015485838151811061043357610433610c1e565b6020908102919091010152508061044981610c84565b91505061025d565b50505091939590929450565b60015460405163146a291160e01b81526004810189905233602482015288916001600160a01b03169063146a291190604401602060405180830381865afa1580156104ac573d6000803e3d6000fd5b505050506040513d601f19601f820116820180604052508101906104d09190610c9d565b6105345760405162461bcd60e51b815260206004820152602a60248201527f5072697a65733a2063616c6c6572206973206e6f7420616e2061646d696e206f604482015269662074686973206f726760b01b60648201526084015b60405180910390fd5b600080898152602001908152602001600020604051806080016040528089898080601f016020809104026020016040519081016040528093929190818152602001838380828437600092019190915250505090825250604080516020601f8a018190048102820181019092528881529181019190899089908190840183828082843760009201829052509385525050506020808301889052604090920186905283546001810185559381522081519192600402019081906105f59082610d15565b506020820151600182019061060a9082610d15565b50604082015181600201556060820151816003015550505050505050505050565b6001546040516306652f0360e11b81526004810185905233602482015284916001600160a01b031690630cca5e0690604401602060405180830381865afa15801561067a573d6000803e3d6000fd5b505050506040513d601f19601f8201168201806040525081019061069e9190610c9d565b80610717575060015460405163146a291160e01b8152600481018390523360248201526001600160a01b039091169063146a291190604401602060405180830381865afa1580156106f3573d6000803e3d6000fd5b505050506040513d601f19601f820116820180604052508101906107179190610c9d565b6107765760405162461bcd60e51b815260206004820152602a60248201527f5072697a65733a2063616c6c6572206973206e6f742061206d656d626572206f604482015269662074686973206f726760b01b606482015260840161052b565b600082116107c65760405162461bcd60e51b815260206004820152601a60248201527f5072697a65733a20616d6f756e74206d757374206265203e2030000000000000604482015260640161052b565b60008481526020819052604081208054859081106107e6576107e6610c1e565b90600052602060002090600402019050828160030154101561084a5760405162461bcd60e51b815260206004820152601860248201527f5072697a65733a206e6f7420656e6f7567682073746f636b0000000000000000604482015260640161052b565b600083826002015461085c9190610dd5565b600154604051631bc7046d60e01b8152600481018990529192506000916001600160a01b0390911690631bc7046d90602401602060405180830381865afa1580156108ab573d6000803e3d6000fd5b505050506040513d601f19601f820116820180604052508101906108cf9190610df2565b90506001600160a01b0381166109275760405162461bcd60e51b815260206004820152601d60248201527f5072697a65733a20696e76616c696420746f6b656e20666f72206f7267000000604482015260640161052b565b6040516323b872dd60e01b8152336004820152306024820152604481018390526001600160a01b038216906323b872dd906064016020604051808303816000875af115801561097a573d6000803e3d6000fd5b505050506040513d601f19601f8201168201806040525081019061099e9190610c9d565b50848360030160008282546109b39190610e1b565b909155505050505050505050565b6000602082840312156109d357600080fd5b5035919050565b600081518084526020808501945080840160005b83811015610a0a578151875295820195908201906001016109ee565b509495945050505050565b600082825180855260208086019550808260051b8401018186016000805b85811015610a8f57601f1980888603018b5283518051808752845b81811015610a69578281018901518882018a01528801610a4e565b5086810188018590529b87019b601f019091169094018501935091840191600101610a33565b509198975050505050505050565b60a081526000610ab060a08301886109da565b8281036020840152610ac28188610a15565b90508281036040840152610ad68187610a15565b90508281036060840152610aea81866109da565b90508281036080840152610afe81856109da565b98975050505050505050565b60008083601f840112610b1c57600080fd5b50813567ffffffffffffffff811115610b3457600080fd5b602083019150836020828501011115610b4c57600080fd5b9250929050565b600080600080600080600060a0888a031215610b6e57600080fd5b87359650602088013567ffffffffffffffff80821115610b8d57600080fd5b610b998b838c01610b0a565b909850965060408a0135915080821115610bb257600080fd5b50610bbf8a828b01610b0a565b989b979a5095989597966060870135966080013595509350505050565b600080600060608486031215610bf157600080fd5b505081359360208301359350604090920135919050565b634e487b7160e01b600052604160045260246000fd5b634e487b7160e01b600052603260045260246000fd5b600181811c90821680610c4857607f821691505b602082108103610c6857634e487b7160e01b600052602260045260246000fd5b50919050565b634e487b7160e01b600052601160045260246000fd5b600060018201610c9657610c96610c6e565b5060010190565b600060208284031215610caf57600080fd5b81518015158114610cbf57600080fd5b9392505050565b601f821115610d1057600081815260208120601f850160051c81016020861015610ced5750805b601f850160051c820191505b81811015610d0c57828155600101610cf9565b5050505b505050565b815167ffffffffffffffff811115610d2f57610d2f610c08565b610d4381610d3d8454610c34565b84610cc6565b602080601f831160018114610d785760008415610d605750858301515b600019600386901b1c1916600185901b178555610d0c565b600085815260208120601f198616915b82811015610da757888601518255948401946001909101908401610d88565b5085821015610dc55787850151600019600388901b60f8161c191681555b5050505050600190811b01905550565b8082028115828204841417610dec57610dec610c6e565b92915050565b600060208284031215610e0457600080fd5b81516001600160a01b0381168114610cbf57600080fd5b81810381811115610dec57610dec610c6e56fea2646970667358221220b9d8bfdea1ffe7b92790b5a6d38275027569659cea99711a04d4bc9a1431b3cb64736f6c63430008140033",
  "devdoc": {
    "kind": "dev",
    "methods": {
      "claimPrize(uint256,uint256,uint256)": {
        "details": "El usuario debe haber aprobado previamente a este contrato (`Prizes`)      para gastar `amount * price` tokens de la organización.",
        "params": {
          "amount": "Cantidad de unidades que se reclaman",
          "orgId": "ID de la organización",
          "prizeId": "Índice del premio (retornado por listPrizes)"
        }
      },
      "createPrize(uint256,string,string,uint256,uint256)": {
        "params": {
          "description": "Descripción del premio",
          "name": "Nombre del premio",
          "orgId": "ID de la organización",
          "price": "Precio (en tokens de la organización) para reclamar 1 unidad",
          "stock": "Cantidad inicial de unidades disponibles de este premio"
        }
      },
      "listPrizes(uint256)": {
        "details": "Retorna un array de structs `Prize` pero en Solidity 0.8.x se puede usar     sin problema mientras las strings sean memoria.     También retornamos el `prizeId` como índice para que el front lo identifique.",
        "params": {
          "orgId": "ID de la organización"
        },
        "returns": {
          "descriptions": "Lista de descripciones",
          "ids": "Lista de IDs (índices) de cada premio",
          "names": "Lista de nombres",
          "prices": "Lista de precios",
          "stocks": "Lista de stocks"
        }
      }
    },
    "version": 1
  },
  "userdoc": {
    "kind": "user",
    "methods": {
      "claimPrize(uint256,uint256,uint256)": {
        "notice": "Reclama `amount` unidades de un premio (paga en tokens de la org)."
      },
      "createPrize(uint256,string,string,uint256,uint256)": {
        "notice": "Crea un nuevo premio para la organización `orgId`."
      },
      "listPrizes(uint256)": {
        "notice": "Lista todos los premios de una organización, incluyendo su ID e información."
      }
    },
    "version": 1
  },
  "storageLayout": {
    "storage": [
      {
        "astId": 5066,
        "contract": "contracts/Prizes/Prizes.sol:Prizes",
        "label": "prizesByOrg",
        "offset": 0,
        "slot": "0",
        "type": "t_mapping(t_uint256,t_array(t_struct(Prize)5060_storage)dyn_storage)"
      },
      {
        "astId": 5069,
        "contract": "contracts/Prizes/Prizes.sol:Prizes",
        "label": "orgManager",
        "offset": 0,
        "slot": "1",
        "type": "t_contract(IOrganizationManager)3712"
      }
    ],
    "types": {
      "t_array(t_struct(Prize)5060_storage)dyn_storage": {
        "base": "t_struct(Prize)5060_storage",
        "encoding": "dynamic_array",
        "label": "struct Prizes.Prize[]",
        "numberOfBytes": "32"
      },
      "t_contract(IOrganizationManager)3712": {
        "encoding": "inplace",
        "label": "contract IOrganizationManager",
        "numberOfBytes": "20"
      },
      "t_mapping(t_uint256,t_array(t_struct(Prize)5060_storage)dyn_storage)": {
        "encoding": "mapping",
        "key": "t_uint256",
        "label": "mapping(uint256 => struct Prizes.Prize[])",
        "numberOfBytes": "32",
        "value": "t_array(t_struct(Prize)5060_storage)dyn_storage"
      },
      "t_string_storage": {
        "encoding": "bytes",
        "label": "string",
        "numberOfBytes": "32"
      },
      "t_struct(Prize)5060_storage": {
        "encoding": "inplace",
        "label": "struct Prizes.Prize",
        "members": [
          {
            "astId": 5053,
            "contract": "contracts/Prizes/Prizes.sol:Prizes",
            "label": "name",
            "offset": 0,
            "slot": "0",
            "type": "t_string_storage"
          },
          {
            "astId": 5055,
            "contract": "contracts/Prizes/Prizes.sol:Prizes",
            "label": "description",
            "offset": 0,
            "slot": "1",
            "type": "t_string_storage"
          },
          {
            "astId": 5057,
            "contract": "contracts/Prizes/Prizes.sol:Prizes",
            "label": "price",
            "offset": 0,
            "slot": "2",
            "type": "t_uint256"
          },
          {
            "astId": 5059,
            "contract": "contracts/Prizes/Prizes.sol:Prizes",
            "label": "stock",
            "offset": 0,
            "slot": "3",
            "type": "t_uint256"
          }
        ],
        "numberOfBytes": "128"
      },
      "t_uint256": {
        "encoding": "inplace",
        "label": "uint256",
        "numberOfBytes": "32"
      }
    }
  }
}