{
  "address": "0x73cfda0B00082afd7cfC2bbf5bc6171624616ffc",
  "abi": [
    {
      "inputs": [
        {
          "internalType": "uint256",
          "name": "_subscriptionId",
          "type": "uint256"
        },
        {
          "internalType": "address",
          "name": "_vrfCoordinator",
          "type": "address"
        },
        {
          "internalType": "bytes32",
          "name": "_keyHash",
          "type": "bytes32"
        },
        {
          "internalType": "bytes32",
          "name": "_validatorUID",
          "type": "bytes32"
        }
      ],
      "stateMutability": "nonpayable",
      "type": "constructor"
    },
    {
      "inputs": [
        {
          "internalType": "address",
          "name": "have",
          "type": "address"
        },
        {
          "internalType": "address",
          "name": "want",
          "type": "address"
        }
      ],
      "name": "OnlyCoordinatorCanFulfill",
      "type": "error"
    },
    {
      "inputs": [
        {
          "internalType": "address",
          "name": "have",
          "type": "address"
        },
        {
          "internalType": "address",
          "name": "owner",
          "type": "address"
        },
        {
          "internalType": "address",
          "name": "coordinator",
          "type": "address"
        }
      ],
      "name": "OnlyOwnerOrCoordinator",
      "type": "error"
    },
    {
      "inputs": [],
      "name": "ZeroAddress",
      "type": "error"
    },
    {
      "anonymous": false,
      "inputs": [
        {
          "indexed": false,
          "internalType": "address",
          "name": "vrfCoordinator",
          "type": "address"
        }
      ],
      "name": "CoordinatorSet",
      "type": "event"
    },
    {
      "anonymous": false,
      "inputs": [
        {
          "indexed": true,
          "internalType": "address",
          "name": "from",
          "type": "address"
        },
        {
          "indexed": true,
          "internalType": "address",
          "name": "to",
          "type": "address"
        }
      ],
      "name": "OwnershipTransferRequested",
      "type": "event"
    },
    {
      "anonymous": false,
      "inputs": [
        {
          "indexed": true,
          "internalType": "address",
          "name": "from",
          "type": "address"
        },
        {
          "indexed": true,
          "internalType": "address",
          "name": "to",
          "type": "address"
        }
      ],
      "name": "OwnershipTransferred",
      "type": "event"
    },
    {
      "anonymous": false,
      "inputs": [
        {
          "indexed": false,
          "internalType": "uint256",
          "name": "validationId",
          "type": "uint256"
        },
        {
          "indexed": true,
          "internalType": "address",
          "name": "claimer",
          "type": "address"
        },
        {
          "indexed": true,
          "internalType": "bytes32",
          "name": "requestId",
          "type": "bytes32"
        }
      ],
      "name": "RandomValidatorCalled",
      "type": "event"
    },
    {
      "inputs": [],
      "name": "acceptOwnership",
      "outputs": [],
      "stateMutability": "nonpayable",
      "type": "function"
    },
    {
      "inputs": [
        {
          "internalType": "bytes32",
          "name": "",
          "type": "bytes32"
        }
      ],
      "name": "claims",
      "outputs": [
        {
          "internalType": "uint256",
          "name": "validationId",
          "type": "uint256"
        },
        {
          "internalType": "address",
          "name": "claimer",
          "type": "address"
        },
        {
          "internalType": "enum ITwoStepValidator.ValidationState",
          "name": "state",
          "type": "uint8"
        }
      ],
      "stateMutability": "view",
      "type": "function"
    },
    {
      "inputs": [
        {
          "internalType": "uint256",
          "name": "",
          "type": "uint256"
        }
      ],
      "name": "configs",
      "outputs": [
        {
          "internalType": "bool",
          "name": "exists",
          "type": "bool"
        },
        {
          "internalType": "uint256",
          "name": "successProbability",
          "type": "uint256"
        },
        {
          "internalType": "address",
          "name": "callback",
          "type": "address"
        },
        {
          "internalType": "uint256",
          "name": "requiredPaymentWei",
          "type": "uint256"
        }
      ],
      "stateMutability": "view",
      "type": "function"
    },
    {
      "inputs": [
        {
          "internalType": "uint256",
          "name": "_validationId",
          "type": "uint256"
        }
      ],
      "name": "getConfig",
      "outputs": [
        {
          "internalType": "string",
          "name": "",
          "type": "string"
        }
      ],
      "stateMutability": "view",
      "type": "function"
    },
    {
      "inputs": [
        {
          "internalType": "uint256",
          "name": "validationId",
          "type": "uint256"
        }
      ],
      "name": "getValidationState",
      "outputs": [
        {
          "internalType": "string",
          "name": "",
          "type": "string"
        }
      ],
      "stateMutability": "view",
      "type": "function"
    },
    {
      "inputs": [],
      "name": "owner",
      "outputs": [
        {
          "internalType": "address",
          "name": "",
          "type": "address"
        }
      ],
      "stateMutability": "view",
      "type": "function"
    },
    {
      "inputs": [
        {
          "internalType": "uint256",
          "name": "_validationId",
          "type": "uint256"
        },
        {
          "internalType": "bytes",
          "name": "",
          "type": "bytes"
        }
      ],
      "name": "preValidation",
      "outputs": [
        {
          "internalType": "bytes32",
          "name": "",
          "type": "bytes32"
        }
      ],
      "stateMutability": "payable",
      "type": "function"
    },
    {
      "inputs": [
        {
          "internalType": "uint256",
          "name": "requestId",
          "type": "uint256"
        },
        {
          "internalType": "uint256[]",
          "name": "randomWords",
          "type": "uint256[]"
        }
      ],
      "name": "rawFulfillRandomWords",
      "outputs": [],
      "stateMutability": "nonpayable",
      "type": "function"
    },
    {
      "inputs": [],
      "name": "s_vrfCoordinator",
      "outputs": [
        {
          "internalType": "contract IVRFCoordinatorV2Plus",
          "name": "",
          "type": "address"
        }
      ],
      "stateMutability": "view",
      "type": "function"
    },
    {
      "inputs": [
        {
          "internalType": "uint256",
          "name": "_validationId",
          "type": "uint256"
        },
        {
          "internalType": "uint256",
          "name": "_successProbability",
          "type": "uint256"
        },
        {
          "internalType": "address",
          "name": "_callback",
          "type": "address"
        },
        {
          "internalType": "uint256",
          "name": "_requiredPayment",
          "type": "uint256"
        }
      ],
      "name": "setConfig",
      "outputs": [],
      "stateMutability": "nonpayable",
      "type": "function"
    },
    {
      "inputs": [
        {
          "internalType": "uint256",
          "name": "_validationId",
          "type": "uint256"
        },
        {
          "internalType": "bytes",
          "name": "_params",
          "type": "bytes"
        }
      ],
      "name": "setConfigFromParams",
      "outputs": [],
      "stateMutability": "nonpayable",
      "type": "function"
    },
    {
      "inputs": [
        {
          "internalType": "address",
          "name": "_vrfCoordinator",
          "type": "address"
        }
      ],
      "name": "setCoordinator",
      "outputs": [],
      "stateMutability": "nonpayable",
      "type": "function"
    },
    {
      "inputs": [
        {
          "internalType": "address",
          "name": "to",
          "type": "address"
        }
      ],
      "name": "transferOwnership",
      "outputs": [],
      "stateMutability": "nonpayable",
      "type": "function"
    },
    {
      "inputs": [
        {
          "internalType": "uint256",
          "name": "validationId",
          "type": "uint256"
        },
        {
          "internalType": "bytes",
          "name": "params",
          "type": "bytes"
        }
      ],
      "name": "validate",
      "outputs": [
        {
          "internalType": "bool",
          "name": "",
          "type": "bool"
        }
      ],
      "stateMutability": "view",
      "type": "function"
    },
    {
      "inputs": [
        {
          "internalType": "bytes32",
          "name": "",
          "type": "bytes32"
        }
      ],
      "name": "validationRequest",
      "outputs": [
        {
          "internalType": "bytes32",
          "name": "",
          "type": "bytes32"
        }
      ],
      "stateMutability": "view",
      "type": "function"
    }
  ],
  "transactionHash": "0x16b96d163a4952b05c85eb6019c0f425854adbb7acd882106bfece66a1d8530e",
  "args": [
    297,
    "0x5C210eF41CD1a72de73bF76eC39637bB0d3d7BEE",
    "0xd89b2bf150e3b9e13446986e571fb9cab24b13cea0a43ea20a6049a85cc807cc",
    "0x52616e646f6d56616c696461746f725631000000000000000000000000000000"
  ],
  "numDeployments": 1,
  "solcInputHash": "427be8a3b4ba5f216bf23dbbacd22201",
  "bytecode": "0x6007610140818152664e4f535441544560c81b6101605260c0908152600d6101809081526c282922ab20a624a220aa24a7a760991b6101a05260e0526101c0918252665355434345535360c81b6101e052610100919091526102406040526004610200818152631190525360e21b610220526101205262000083916002916200024c565b503480156200009157600080fd5b5060405162001aa338038062001aa3833981016040819052620000b49162000316565b8233806000816200010c5760405162461bcd60e51b815260206004820152601860248201527f43616e6e6f7420736574206f776e657220746f207a65726f000000000000000060448201526064015b60405180910390fd5b600680546001600160a01b0319166001600160a01b03848116919091179091558116156200013f576200013f81620001a0565b5050506001600160a01b0381166200016a5760405163d92e233d60e01b815260040160405180910390fd5b600880546001600160a01b0319166001600160a01b039290921691909117905560a09190915260809290925250600a55620004d4565b336001600160a01b03821603620001fa5760405162461bcd60e51b815260206004820152601760248201527f43616e6e6f74207472616e7366657220746f2073656c66000000000000000000604482015260640162000103565b600780546001600160a01b0319166001600160a01b03838116918217909255600654604051919216907fed8889f560326eb138920d842192f0eb3dd22b4f139c87a2c57538e05bae127890600090a350565b82600481019282156200028a579160200282015b828111156200028a578251829062000279908262000408565b509160200191906001019062000260565b50620002989291506200029c565b5090565b8082111562000298576000620002b38282620002bd565b506001016200029c565b508054620002cb9062000379565b6000825580601f10620002dc575050565b601f016020900490600052602060002090810190620002fc9190620002ff565b50565b5b8082111562000298576000815560010162000300565b600080600080608085870312156200032d57600080fd5b845160208601519094506001600160a01b03811681146200034d57600080fd5b6040860151606090960151949790965092505050565b634e487b7160e01b600052604160045260246000fd5b600181811c908216806200038e57607f821691505b602082108103620003af57634e487b7160e01b600052602260045260246000fd5b50919050565b601f8211156200040357600081815260208120601f850160051c81016020861015620003de5750805b601f850160051c820191505b81811015620003ff57828155600101620003ea565b5050505b505050565b81516001600160401b0381111562000424576200042462000363565b6200043c8162000435845462000379565b84620003b5565b602080601f8311600181146200047457600084156200045b5750858301515b600019600386901b1c1916600185901b178555620003ff565b600085815260208120601f198616915b82811015620004a55788860151825594840194600190910190840162000484565b5085821015620004c45787850151600019600388901b60f8161c191681555b5050505050600190811b01905550565b60805160a0516115a9620004fa6000396000610482015260006104a501526115a96000f3fe6080604052600436106100e75760003560e01c80638da5cb5b1161008a578063bd90fb4d11610059578063bd90fb4d146102dc578063efbe62e8146102fc578063eff0f5921461032c578063f2fde38b1461038457600080fd5b80638da5cb5b1461023d5780638ea981171461026f5780639eccacf61461028f578063a81b2f8d146102af57600080fd5b8063287a0b2e116100c6578063287a0b2e146101d557806351ca626c146101e8578063601dd6fc1461020857806379ba50971461022857600080fd5b806298fa22146100ec5780630109c5d6146101785780631fe543e3146101b3575b600080fd5b3480156100f857600080fd5b5061013e61010736600461102d565b600960205260009081526040902080546001820154600283015460039093015460ff9092169290916001600160a01b039091169084565b60405161016f9493929190931515845260208401929092526001600160a01b03166040830152606082015260800190565b60405180910390f35b34801561018457600080fd5b506101a561019336600461102d565b60016020526000908152604090205481565b60405190815260200161016f565b3480156101bf57600080fd5b506101d36101ce366004611046565b6103a4565b005b6101a56101e33660046110c5565b6103f9565b3480156101f457600080fd5b506101d3610203366004611153565b610669565b34801561021457600080fd5b506101d36102233660046110c5565b610702565b34801561023457600080fd5b506101d36107b6565b34801561024957600080fd5b506006546001600160a01b03165b6040516001600160a01b03909116815260200161016f565b34801561027b57600080fd5b506101d361028a366004611192565b610864565b34801561029b57600080fd5b50600854610257906001600160a01b031681565b3480156102bb57600080fd5b506102cf6102ca36600461102d565b610956565b60405161016f9190611206565b3480156102e857600080fd5b506102cf6102f736600461102d565b610a2c565b34801561030857600080fd5b5061031c6103173660046110c5565b610b56565b604051901515815260200161016f565b34801561033857600080fd5b5061037561034736600461102d565b600060208190529081526040902080546001909101546001600160a01b03811690600160a01b900460ff1683565b60405161016f9392919061122f565b34801561039057600080fd5b506101d361039f366004611192565b610bd2565b6008546001600160a01b031633146103e95760085460405163073e64fd60e21b81523360048201526001600160a01b0390911660248201526044015b60405180910390fd5b6103f4838383610be6565b505050565b600083815260096020526040812060038101543410156104735760405162461bcd60e51b815260206004820152602f60248201527f4d696e696d756d20455448207061796d656e7420726571756972656420666f7260448201526e103a3434b9903b30b634b230ba37b960891b60648201526084016103e0565b6008546040805160c0810182527f000000000000000000000000000000000000000000000000000000000000000081527f000000000000000000000000000000000000000000000000000000000000000060208083019190915260038284015262030d4060608301526001608083015282519081019092526000808352926001600160a01b031691639b1c385e919060a082019061051090610d51565b8152506040518263ffffffff1660e01b815260040161052f9190611271565b6020604051808303816000875af115801561054e573d6000803e3d6000fd5b505050506040513d601f19601f8201168201806040525081019061057291906112d6565b9050600086336040516020016105899291906112ef565b60408051808303601f190181528282528051602091820120600086815260018084528482208390556060860185528c865233848701908152868601828152848452948390529490912085518155935190840180546001600160a01b031981166001600160a01b039093169283178255935192965091926001600160a81b03191617600160a01b83600381111561062157610621611219565b02179055505060405188815283915033907fed3ce9a05cd0fc38bd4c1c6df58163185269a66e9aa02b7862b4b63076a6c32c9060200160405180910390a39695505050505050565b61271083111561068b5760405162461bcd60e51b81526004016103e09061130f565b60408051608081018252600180825260208083019687526001600160a01b039586168385019081526060840195865260009889526009909152929096209051815460ff191690151517815593519484019490945592516002830180546001600160a01b031916919092161790559051600390910155565b6000808061071284860186611352565b92509250925061271083111561073a5760405162461bcd60e51b81526004016103e09061130f565b60408051608081018252600180825260208083019687526001600160a01b039586168385019081526060840195865260009a8b526009909152929098209051815460ff191690151517815593519684019690965594516002830180546001600160a01b0319169190921617905592516003909301929092555050565b6007546001600160a01b031633146108095760405162461bcd60e51b815260206004820152601660248201527526bab9ba10313290383937b837b9b2b21037bbb732b960511b60448201526064016103e0565b600680546001600160a01b0319808216339081179093556007805490911690556040516001600160a01b03909116919082907f8be0079c531659141344cd1fd0a4f28419497f9722a3daafe3b4186f6b6457e090600090a350565b6006546001600160a01b0316331480159061088a57506008546001600160a01b03163314155b156108db57336108a26006546001600160a01b031690565b60085460405163061db9c160e01b81526001600160a01b03938416600482015291831660248301529190911660448201526064016103e0565b6001600160a01b0381166109025760405163d92e233d60e01b815260040160405180910390fd5b600880546001600160a01b0319166001600160a01b0383169081179091556040519081527fd1a6a14209a385a964d036e404cb5cfb71f4000cdb03c9366292430787261be69060200160405180910390a150565b600081815260096020526040902080546060919060ff166109ea5760405162461bcd60e51b815260206004820152604260248201527f4572726f722e20496e76616c696420636f6e66696775726174696f6e2e204e6f60448201527f7468696e6720636f6e6669677572656420666f722076616c69646174696f6e49606482015261321760f11b608482015260a4016103e0565b6109f78160010154610dc2565b610a048260030154610dc2565b604051602001610a1592919061138a565b604051602081830303815290604052915050919050565b606060008233604051602001610a439291906112ef565b60408051808303601f19018152918152815160209283012060008181529283905290822060010154909250600160a01b900460ff16906002826003811115610a8d57610a8d611219565b60ff1660048110610aa057610aa061141a565b018054610aac90611430565b80601f0160208091040260200160405190810160405280929190818152602001828054610ad890611430565b8015610b255780601f10610afa57610100808354040283529160200191610b25565b820191906000526020600020905b815481529060010190602001808311610b0857829003601f168201915b5050505050905080604051602001610b3d919061146a565b6040516020818303038152906040529350505050919050565b600080610b65838501856114bf565b8051604051919250600091610b7e9188916020016112ef565b60408051601f19818403018152919052805160209091012090506002600082815260208190526040902060010154600160a01b900460ff166003811115610bc757610bc7611219565b149695505050505050565b610bda610e55565b610be381610eaa565b50565b60008381526001602052604090205480610c375760405162461bcd60e51b8152602060048201526012602482015271125b9d985b1a59081c995c5d595cdd08125160721b60448201526064016103e0565b600081815260208181526040808320805484526009909252822060018101549192909190612710908790879081610c7057610c7061141a565b90506020020135610c819190611551565b1015610d335760018201805460ff60a01b1916600160a11b17905560028101546001600160a01b031615610d2e576002810154600a548354600185015460405163347c106760e11b8152600481019390935260248301919091526001600160a01b0390811660448301529091169081906368f820ce90606401600060405180830381600087803b158015610d1457600080fd5b505af1158015610d28573d6000803e3d6000fd5b50505050505b610d49565b60018201805460ff60a01b1916600360a01b1790555b505050505050565b60607f92fd13387c7fe7befbc38d303d6468778fb9731bc4583f17d92989c6fcfdeaaa82604051602401610d8a91511515815260200190565b60408051601f198184030181529190526020810180516001600160e01b03166001600160e01b03199093169290921790915292915050565b60606000610dcf83610f54565b600101905060008167ffffffffffffffff811115610def57610def6114a9565b6040519080825280601f01601f191660200182016040528015610e19576020820181803683370190505b5090508181016020015b600019016f181899199a1a9b1b9c1cb0b131b232b360811b600a86061a8153600a8504945084610e2357509392505050565b6006546001600160a01b03163314610ea85760405162461bcd60e51b815260206004820152601660248201527527b7363c9031b0b63630b1363290313c9037bbb732b960511b60448201526064016103e0565b565b336001600160a01b03821603610f025760405162461bcd60e51b815260206004820152601760248201527f43616e6e6f74207472616e7366657220746f2073656c6600000000000000000060448201526064016103e0565b600780546001600160a01b0319166001600160a01b03838116918217909255600654604051919216907fed8889f560326eb138920d842192f0eb3dd22b4f139c87a2c57538e05bae127890600090a350565b60008072184f03e93ff9f4daa797ed6e38ed64bf6a1f0160401b8310610f935772184f03e93ff9f4daa797ed6e38ed64bf6a1f0160401b830492506040015b6d04ee2d6d415b85acef81000000008310610fbf576d04ee2d6d415b85acef8100000000830492506020015b662386f26fc100008310610fdd57662386f26fc10000830492506010015b6305f5e1008310610ff5576305f5e100830492506008015b612710831061100957612710830492506004015b6064831061101b576064830492506002015b600a8310611027576001015b92915050565b60006020828403121561103f57600080fd5b5035919050565b60008060006040848603121561105b57600080fd5b83359250602084013567ffffffffffffffff8082111561107a57600080fd5b818601915086601f83011261108e57600080fd5b81358181111561109d57600080fd5b8760208260051b85010111156110b257600080fd5b6020830194508093505050509250925092565b6000806000604084860312156110da57600080fd5b83359250602084013567ffffffffffffffff808211156110f957600080fd5b818601915086601f83011261110d57600080fd5b81358181111561111c57600080fd5b8760208285010111156110b257600080fd5b6001600160a01b0381168114610be357600080fd5b803561114e8161112e565b919050565b6000806000806080858703121561116957600080fd5b843593506020850135925060408501356111828161112e565b9396929550929360600135925050565b6000602082840312156111a457600080fd5b81356111af8161112e565b9392505050565b60005b838110156111d15781810151838201526020016111b9565b50506000910152565b600081518084526111f28160208601602086016111b6565b601f01601f19169290920160200192915050565b6020815260006111af60208301846111da565b634e487b7160e01b600052602160045260246000fd5b8381526001600160a01b0383166020820152606081016004831061126357634e487b7160e01b600052602160045260246000fd5b826040830152949350505050565b60208152815160208201526020820151604082015261ffff60408301511660608201526000606083015163ffffffff80821660808501528060808601511660a0850152505060a083015160c0808401526112ce60e08401826111da565b949350505050565b6000602082840312156112e857600080fd5b5051919050565b91825260601b6bffffffffffffffffffffffff1916602082015260340190565b60208082526023908201527f50726f626162696c697479206d757374206265203c3d2031303030302028313060408201526230252960e81b606082015260800190565b60008060006060848603121561136757600080fd5b8335925060208401356113798161112e565b929592945050506040919091013590565b7f7b227375636365737350726f626162696c697479223a220000000000000000008152600083516113c28160178501602088016111b6565b7f222c2272657175697265645061796d656e74576569223a22000000000000000060179184019182015283516113ff81602f8401602088016111b6565b61227d60f01b602f9290910191820152603101949350505050565b634e487b7160e01b600052603260045260246000fd5b600181811c9082168061144457607f821691505b60208210810361146457634e487b7160e01b600052602260045260246000fd5b50919050565b693d9139ba30ba32911d1160b11b8152815160009061149081600a8501602087016111b6565b61227d60f01b600a939091019283015250600c01919050565b634e487b7160e01b600052604160045260246000fd5b600060208083850312156114d257600080fd5b83601f8401126114e157600080fd5b60405181810181811067ffffffffffffffff8211171561151157634e487b7160e01b600052604160045260246000fd5b604052808483018681111561152557600080fd5b855b818110156115455761153881611143565b8352918401918401611527565b50919695505050505050565b60008261156e57634e487b7160e01b600052601260045260246000fd5b50069056fea26469706673582212206920331db40d713e2841b95c7f751d7c7ac88e73c33da62e452cb6fcb6b08ee164736f6c63430008140033",
  "devdoc": {
    "kind": "dev",
    "methods": {
      "constructor": {
        "params": {
          "_keyHash": "- the gas lane to use, which specifies the maximum gas price to bump to",
          "_subscriptionId": "- the subscription ID that this contract uses for funding requests",
          "_validatorUID": "- Unique identifier for this validator",
          "_vrfCoordinator": "- coordinator, check https://docs.chain.link/vrf/v2-5/supported-networks"
        }
      }
    },
    "version": 1
  },
  "userdoc": {
    "kind": "user",
    "methods": {
      "acceptOwnership()": {
        "notice": "Allows an ownership transfer to be completed by the recipient."
      },
      "constructor": {
        "notice": "Constructor inherits VRFConsumerBaseV2Plus"
      },
      "owner()": {
        "notice": "Get the current owner"
      },
      "preValidation(uint256,bytes)": {
        "notice": "Requests randomness Assumes the subscription is funded sufficiently; \"Words\" refers to unit of data in Computer Science"
      },
      "setCoordinator(address)": {
        "notice": "Sets the VRF Coordinator addressThis method should only be callable by the coordinator or contract owner"
      },
      "transferOwnership(address)": {
        "notice": "Allows an owner to begin transferring ownership to a new address."
      }
    },
    "version": 1
  },
  "storageLayout": {
    "storage": [
      {
        "astId": 17333,
        "contract": "contracts/Validator/Support/RandomValidator.sol:RandomValidator",
        "label": "claims",
        "offset": 0,
        "slot": "0",
        "type": "t_mapping(t_bytes32,t_struct(Claim)17328_storage)"
      },
      {
        "astId": 17337,
        "contract": "contracts/Validator/Support/RandomValidator.sol:RandomValidator",
        "label": "validationRequest",
        "offset": 0,
        "slot": "1",
        "type": "t_mapping(t_bytes32,t_bytes32)"
      },
      {
        "astId": 17346,
        "contract": "contracts/Validator/Support/RandomValidator.sol:RandomValidator",
        "label": "states",
        "offset": 0,
        "slot": "2",
        "type": "t_array(t_string_storage)4_storage"
      },
      {
        "astId": 2073,
        "contract": "contracts/Validator/Support/RandomValidator.sol:RandomValidator",
        "label": "s_owner",
        "offset": 0,
        "slot": "6",
        "type": "t_address"
      },
      {
        "astId": 2075,
        "contract": "contracts/Validator/Support/RandomValidator.sol:RandomValidator",
        "label": "s_pendingOwner",
        "offset": 0,
        "slot": "7",
        "type": "t_address"
      },
      {
        "astId": 6617,
        "contract": "contracts/Validator/Support/RandomValidator.sol:RandomValidator",
        "label": "s_vrfCoordinator",
        "offset": 0,
        "slot": "8",
        "type": "t_contract(IVRFCoordinatorV2Plus)6766"
      },
      {
        "astId": 16638,
        "contract": "contracts/Validator/Support/RandomValidator.sol:RandomValidator",
        "label": "configs",
        "offset": 0,
        "slot": "9",
        "type": "t_mapping(t_uint256,t_struct(RandomValidatorConfig)16616_storage)"
      },
      {
        "astId": 16640,
        "contract": "contracts/Validator/Support/RandomValidator.sol:RandomValidator",
        "label": "validatorUID",
        "offset": 0,
        "slot": "10",
        "type": "t_bytes32"
      }
    ],
    "types": {
      "t_address": {
        "encoding": "inplace",
        "label": "address",
        "numberOfBytes": "20"
      },
      "t_array(t_string_storage)4_storage": {
        "base": "t_string_storage",
        "encoding": "inplace",
        "label": "string[4]",
        "numberOfBytes": "128"
      },
      "t_bool": {
        "encoding": "inplace",
        "label": "bool",
        "numberOfBytes": "1"
      },
      "t_bytes32": {
        "encoding": "inplace",
        "label": "bytes32",
        "numberOfBytes": "32"
      },
      "t_contract(IVRFCoordinatorV2Plus)6766": {
        "encoding": "inplace",
        "label": "contract IVRFCoordinatorV2Plus",
        "numberOfBytes": "20"
      },
      "t_enum(ValidationState)15580": {
        "encoding": "inplace",
        "label": "enum ITwoStepValidator.ValidationState",
        "numberOfBytes": "1"
      },
      "t_mapping(t_bytes32,t_bytes32)": {
        "encoding": "mapping",
        "key": "t_bytes32",
        "label": "mapping(bytes32 => bytes32)",
        "numberOfBytes": "32",
        "value": "t_bytes32"
      },
      "t_mapping(t_bytes32,t_struct(Claim)17328_storage)": {
        "encoding": "mapping",
        "key": "t_bytes32",
        "label": "mapping(bytes32 => struct TwoStepValidator.Claim)",
        "numberOfBytes": "32",
        "value": "t_struct(Claim)17328_storage"
      },
      "t_mapping(t_uint256,t_struct(RandomValidatorConfig)16616_storage)": {
        "encoding": "mapping",
        "key": "t_uint256",
        "label": "mapping(uint256 => struct RandomValidatorConfig)",
        "numberOfBytes": "32",
        "value": "t_struct(RandomValidatorConfig)16616_storage"
      },
      "t_string_storage": {
        "encoding": "bytes",
        "label": "string",
        "numberOfBytes": "32"
      },
      "t_struct(Claim)17328_storage": {
        "encoding": "inplace",
        "label": "struct TwoStepValidator.Claim",
        "members": [
          {
            "astId": 17322,
            "contract": "contracts/Validator/Support/RandomValidator.sol:RandomValidator",
            "label": "validationId",
            "offset": 0,
            "slot": "0",
            "type": "t_uint256"
          },
          {
            "astId": 17324,
            "contract": "contracts/Validator/Support/RandomValidator.sol:RandomValidator",
            "label": "claimer",
            "offset": 0,
            "slot": "1",
            "type": "t_address"
          },
          {
            "astId": 17327,
            "contract": "contracts/Validator/Support/RandomValidator.sol:RandomValidator",
            "label": "state",
            "offset": 20,
            "slot": "1",
            "type": "t_enum(ValidationState)15580"
          }
        ],
        "numberOfBytes": "64"
      },
      "t_struct(RandomValidatorConfig)16616_storage": {
        "encoding": "inplace",
        "label": "struct RandomValidatorConfig",
        "members": [
          {
            "astId": 16609,
            "contract": "contracts/Validator/Support/RandomValidator.sol:RandomValidator",
            "label": "exists",
            "offset": 0,
            "slot": "0",
            "type": "t_bool"
          },
          {
            "astId": 16611,
            "contract": "contracts/Validator/Support/RandomValidator.sol:RandomValidator",
            "label": "successProbability",
            "offset": 0,
            "slot": "1",
            "type": "t_uint256"
          },
          {
            "astId": 16613,
            "contract": "contracts/Validator/Support/RandomValidator.sol:RandomValidator",
            "label": "callback",
            "offset": 0,
            "slot": "2",
            "type": "t_address"
          },
          {
            "astId": 16615,
            "contract": "contracts/Validator/Support/RandomValidator.sol:RandomValidator",
            "label": "requiredPaymentWei",
            "offset": 0,
            "slot": "3",
            "type": "t_uint256"
          }
        ],
        "numberOfBytes": "128"
      },
      "t_uint256": {
        "encoding": "inplace",
        "label": "uint256",
        "numberOfBytes": "32"
      }
    }
  }
}