{
  "address": "0xEc96D883B02cDFe149c95585036Ef605aF96DBA4",
  "abi": [
    {
      "inputs": [
        {
          "internalType": "uint256",
          "name": "subscriptionId",
          "type": "uint256"
        },
        {
          "internalType": "address",
          "name": "vrfCoordinator",
          "type": "address"
        },
        {
          "internalType": "bytes32",
          "name": "keyHash",
          "type": "bytes32"
        }
      ],
      "stateMutability": "nonpayable",
      "type": "constructor"
    },
    {
      "inputs": [
        {
          "internalType": "address",
          "name": "have",
          "type": "address"
        },
        {
          "internalType": "address",
          "name": "want",
          "type": "address"
        }
      ],
      "name": "OnlyCoordinatorCanFulfill",
      "type": "error"
    },
    {
      "inputs": [
        {
          "internalType": "address",
          "name": "have",
          "type": "address"
        },
        {
          "internalType": "address",
          "name": "owner",
          "type": "address"
        },
        {
          "internalType": "address",
          "name": "coordinator",
          "type": "address"
        }
      ],
      "name": "OnlyOwnerOrCoordinator",
      "type": "error"
    },
    {
      "inputs": [],
      "name": "ZeroAddress",
      "type": "error"
    },
    {
      "anonymous": false,
      "inputs": [
        {
          "indexed": false,
          "internalType": "address",
          "name": "vrfCoordinator",
          "type": "address"
        }
      ],
      "name": "CoordinatorSet",
      "type": "event"
    },
    {
      "anonymous": false,
      "inputs": [
        {
          "indexed": true,
          "internalType": "address",
          "name": "from",
          "type": "address"
        },
        {
          "indexed": true,
          "internalType": "address",
          "name": "to",
          "type": "address"
        }
      ],
      "name": "OwnershipTransferRequested",
      "type": "event"
    },
    {
      "anonymous": false,
      "inputs": [
        {
          "indexed": true,
          "internalType": "address",
          "name": "from",
          "type": "address"
        },
        {
          "indexed": true,
          "internalType": "address",
          "name": "to",
          "type": "address"
        }
      ],
      "name": "OwnershipTransferred",
      "type": "event"
    },
    {
      "anonymous": false,
      "inputs": [
        {
          "indexed": false,
          "internalType": "uint256[]",
          "name": "randomWords",
          "type": "uint256[]"
        }
      ],
      "name": "ReturnedRandomness",
      "type": "event"
    },
    {
      "inputs": [],
      "name": "acceptOwnership",
      "outputs": [],
      "stateMutability": "nonpayable",
      "type": "function"
    },
    {
      "inputs": [
        {
          "internalType": "bytes32",
          "name": "",
          "type": "bytes32"
        }
      ],
      "name": "claimState",
      "outputs": [
        {
          "internalType": "enum ITwoStepValidator.ValidationState",
          "name": "",
          "type": "uint8"
        }
      ],
      "stateMutability": "view",
      "type": "function"
    },
    {
      "inputs": [
        {
          "internalType": "uint256",
          "name": "",
          "type": "uint256"
        }
      ],
      "name": "getConfig",
      "outputs": [
        {
          "internalType": "string",
          "name": "",
          "type": "string"
        }
      ],
      "stateMutability": "pure",
      "type": "function"
    },
    {
      "inputs": [
        {
          "internalType": "uint256",
          "name": "validationId",
          "type": "uint256"
        }
      ],
      "name": "getValidationState",
      "outputs": [
        {
          "internalType": "string",
          "name": "",
          "type": "string"
        }
      ],
      "stateMutability": "view",
      "type": "function"
    },
    {
      "inputs": [],
      "name": "lastRequestId",
      "outputs": [
        {
          "internalType": "bytes32",
          "name": "",
          "type": "bytes32"
        }
      ],
      "stateMutability": "view",
      "type": "function"
    },
    {
      "inputs": [],
      "name": "owner",
      "outputs": [
        {
          "internalType": "address",
          "name": "",
          "type": "address"
        }
      ],
      "stateMutability": "view",
      "type": "function"
    },
    {
      "inputs": [
        {
          "internalType": "uint256",
          "name": "validationId",
          "type": "uint256"
        },
        {
          "internalType": "bytes",
          "name": "",
          "type": "bytes"
        }
      ],
      "name": "preValidation",
      "outputs": [
        {
          "internalType": "bytes32",
          "name": "",
          "type": "bytes32"
        }
      ],
      "stateMutability": "nonpayable",
      "type": "function"
    },
    {
      "inputs": [
        {
          "internalType": "uint256",
          "name": "requestId",
          "type": "uint256"
        },
        {
          "internalType": "uint256[]",
          "name": "randomWords",
          "type": "uint256[]"
        }
      ],
      "name": "rawFulfillRandomWords",
      "outputs": [],
      "stateMutability": "nonpayable",
      "type": "function"
    },
    {
      "inputs": [],
      "name": "s_vrfCoordinator",
      "outputs": [
        {
          "internalType": "contract IVRFCoordinatorV2Plus",
          "name": "",
          "type": "address"
        }
      ],
      "stateMutability": "view",
      "type": "function"
    },
    {
      "inputs": [
        {
          "internalType": "uint256",
          "name": "validationId",
          "type": "uint256"
        },
        {
          "internalType": "uint256",
          "name": "publicHash",
          "type": "uint256"
        }
      ],
      "name": "setConfig",
      "outputs": [],
      "stateMutability": "nonpayable",
      "type": "function"
    },
    {
      "inputs": [
        {
          "internalType": "address",
          "name": "_vrfCoordinator",
          "type": "address"
        }
      ],
      "name": "setCoordinator",
      "outputs": [],
      "stateMutability": "nonpayable",
      "type": "function"
    },
    {
      "inputs": [
        {
          "internalType": "address",
          "name": "to",
          "type": "address"
        }
      ],
      "name": "transferOwnership",
      "outputs": [],
      "stateMutability": "nonpayable",
      "type": "function"
    },
    {
      "inputs": [
        {
          "internalType": "uint256",
          "name": "validationId",
          "type": "uint256"
        },
        {
          "internalType": "bytes",
          "name": "params",
          "type": "bytes"
        }
      ],
      "name": "validate",
      "outputs": [
        {
          "internalType": "bool",
          "name": "",
          "type": "bool"
        }
      ],
      "stateMutability": "view",
      "type": "function"
    },
    {
      "inputs": [
        {
          "internalType": "bytes32",
          "name": "",
          "type": "bytes32"
        }
      ],
      "name": "validationRequest",
      "outputs": [
        {
          "internalType": "bytes32",
          "name": "",
          "type": "bytes32"
        }
      ],
      "stateMutability": "view",
      "type": "function"
    }
  ],
  "transactionHash": "0x4e060bcec3e8ae2bc5f1ffa11bc90badc8440f418a6850247a7cf88893175721",
  "args": [
    1,
    "0x6090149792dAAeE9D1D568c9f9a6F6B46AA29eFD",
    "0xd89b2bf150e3b9e13446986e571fb9cab24b13cea0a43ea20a6049a85cc807cc"
  ],
  "numDeployments": 1,
  "solcInputHash": "105bc1b44b7c0353cc4b36f9e49e2962",
  "bytecode": "0x60c060405234801561001057600080fd5b50604051610f87380380610f8783398101604081905261002f916101b6565b8133806000816100865760405162461bcd60e51b815260206004820152601860248201527f43616e6e6f7420736574206f776e657220746f207a65726f000000000000000060448201526064015b60405180910390fd5b600380546001600160a01b0319166001600160a01b03848116919091179091558116156100b6576100b68161010c565b5050506001600160a01b0381166100e05760405163d92e233d60e01b815260040160405180910390fd5b600580546001600160a01b0319166001600160a01b039290921691909117905560a052506080526101fc565b336001600160a01b038216036101645760405162461bcd60e51b815260206004820152601760248201527f43616e6e6f74207472616e7366657220746f2073656c66000000000000000000604482015260640161007d565b600480546001600160a01b0319166001600160a01b03838116918217909255600354604051919216907fed8889f560326eb138920d842192f0eb3dd22b4f139c87a2c57538e05bae127890600090a350565b6000806000606084860312156101cb57600080fd5b835160208501519093506001600160a01b03811681146101ea57600080fd5b80925050604084015190509250925092565b60805160a051610d6661022160003960006102d5015260006102f80152610d666000f3fe608060405234801561001057600080fd5b50600436106100ea5760003560e01c80638ea981171161008c578063bd90fb4d11610066578063bd90fb4d1461021f578063efbe62e814610232578063f2fde38b14610255578063fc2a88c31461026857600080fd5b80638ea98117146101b95780639eccacf6146101cc578063a81b2f8d146101df57600080fd5b8063287a0b2e116100c8578063287a0b2e146101495780636f1fdad61461015c57806379ba50971461018c5780638da5cb5b1461019457600080fd5b80630109c5d6146100ef5780631e34c585146101225780631fe543e314610136575b600080fd5b61010f6100fd366004610986565b60016020526000908152604090205481565b6040519081526020015b60405180910390f35b61013461013036600461099f565b5050565b005b6101346101443660046109c1565b610271565b61010f610157366004610a40565b6102c6565b61017f61016a366004610986565b60006020819052908152604090205460ff1681565b6040516101199190610abf565b61013461042d565b6003546001600160a01b03165b6040516001600160a01b039091168152602001610119565b6101346101c7366004610b03565b6104db565b6005546101a1906001600160a01b031681565b6102126101ed366004610986565b5060408051617b7d60f01b602082015281516002818303018152602290910190915290565b6040516101199190610b75565b61021261022d366004610986565b6105cd565b610245610240366004610a40565b610714565b6040519015158152602001610119565b610134610263366004610b03565b610786565b61010f60025481565b6005546001600160a01b031633146102b65760055460405163073e64fd60e21b81523360048201526001600160a01b0390911660248201526044015b60405180910390fd5b6102c183838361079a565b505050565b6005546040805160c0810182527f000000000000000000000000000000000000000000000000000000000000000081527f0000000000000000000000000000000000000000000000000000000000000000602080830191909152600382840152620186a0606083015260016080830152825190810190925260008083529283926001600160a01b0390911691639b1c385e9160a082019061036690610816565b8152506040518263ffffffff1660e01b81526004016103859190610b88565b6020604051808303816000875af11580156103a4573d6000803e3d6000fd5b505050506040513d601f19601f820116820180604052508101906103c89190610bed565b9050600085336040516020016103df929190610c06565b60408051808303601f190181529181528151602092830120600085815260018085528382208390558282529381905291909120805460ff191690921790915560029290925550949350505050565b6004546001600160a01b031633146104805760405162461bcd60e51b815260206004820152601660248201527526bab9ba10313290383937b837b9b2b21037bbb732b960511b60448201526064016102ad565b600380546001600160a01b0319808216339081179093556004805490911690556040516001600160a01b03909116919082907f8be0079c531659141344cd1fd0a4f28419497f9722a3daafe3b4186f6b6457e090600090a350565b6003546001600160a01b0316331480159061050157506005546001600160a01b03163314155b1561055257336105196003546001600160a01b031690565b60055460405163061db9c160e01b81526001600160a01b03938416600482015291831660248301529190911660448201526064016102ad565b6001600160a01b0381166105795760405163d92e233d60e01b815260040160405180910390fd5b600580546001600160a01b0319166001600160a01b0383169081179091556040519081527fd1a6a14209a385a964d036e404cb5cfb71f4000cdb03c9366292430787261be69060200160405180910390a150565b6060600082336040516020016105e4929190610c06565b60408051601f19818403018152918152815160209283012060008181529283905291205490915060ff166060600182600381111561062457610624610aa9565b03610653575060408051808201909152600d81526c282922ab20a624a220aa24a7a760991b60208201526106ea565b600282600381111561066757610667610aa9565b0361069057506040805180820190915260078152665355434345535360c81b60208201526106ea565b60038260038111156106a4576106a4610aa9565b036106ca57506040805180820190915260048152631190525360e21b60208201526106ea565b506040805180820190915260078152664e4f535441544560c81b60208201525b806040516020016106fb9190610c26565b6040516020818303038152906040529350505050919050565b60008061072383850185610c66565b805160405191925060009161073c918891602001610c06565b60408051601f1981840301815291905280516020909101209050600260008281526020819052604090205460ff16600381111561077b5761077b610aa9565b149695505050505050565b61078e610887565b610797816108dc565b50565b600083815260016020526040812054849160029085908590816107bf576107bf610cf8565b905060200201356107d09190610d0e565b6001036107f5576000818152602081905260409020805460ff1916600217905561080f565b6000818152602081905260409020805460ff191660031790555b5050505050565b60607f92fd13387c7fe7befbc38d303d6468778fb9731bc4583f17d92989c6fcfdeaaa8260405160240161084f91511515815260200190565b60408051601f198184030181529190526020810180516001600160e01b03166001600160e01b03199093169290921790915292915050565b6003546001600160a01b031633146108da5760405162461bcd60e51b815260206004820152601660248201527527b7363c9031b0b63630b1363290313c9037bbb732b960511b60448201526064016102ad565b565b336001600160a01b038216036109345760405162461bcd60e51b815260206004820152601760248201527f43616e6e6f74207472616e7366657220746f2073656c6600000000000000000060448201526064016102ad565b600480546001600160a01b0319166001600160a01b03838116918217909255600354604051919216907fed8889f560326eb138920d842192f0eb3dd22b4f139c87a2c57538e05bae127890600090a350565b60006020828403121561099857600080fd5b5035919050565b600080604083850312156109b257600080fd5b50508035926020909101359150565b6000806000604084860312156109d657600080fd5b83359250602084013567ffffffffffffffff808211156109f557600080fd5b818601915086601f830112610a0957600080fd5b813581811115610a1857600080fd5b8760208260051b8501011115610a2d57600080fd5b6020830194508093505050509250925092565b600080600060408486031215610a5557600080fd5b83359250602084013567ffffffffffffffff80821115610a7457600080fd5b818601915086601f830112610a8857600080fd5b813581811115610a9757600080fd5b876020828501011115610a2d57600080fd5b634e487b7160e01b600052602160045260246000fd5b6020810160048310610ae157634e487b7160e01b600052602160045260246000fd5b91905290565b80356001600160a01b0381168114610afe57600080fd5b919050565b600060208284031215610b1557600080fd5b610b1e82610ae7565b9392505050565b60005b83811015610b40578181015183820152602001610b28565b50506000910152565b60008151808452610b61816020860160208601610b25565b601f01601f19169290920160200192915050565b602081526000610b1e6020830184610b49565b60208152815160208201526020820151604082015261ffff60408301511660608201526000606083015163ffffffff80821660808501528060808601511660a0850152505060a083015160c080840152610be560e0840182610b49565b949350505050565b600060208284031215610bff57600080fd5b5051919050565b91825260601b6bffffffffffffffffffffffff1916602082015260340190565b6a3d9139ba30ba32911d101160a91b81528151600090610c4d81600b850160208701610b25565b61227d60f01b600b939091019283015250600d01919050565b60006020808385031215610c7957600080fd5b83601f840112610c8857600080fd5b60405181810181811067ffffffffffffffff82111715610cb857634e487b7160e01b600052604160045260246000fd5b6040528084830186811115610ccc57600080fd5b855b81811015610cec57610cdf81610ae7565b8352918401918401610cce565b50919695505050505050565b634e487b7160e01b600052603260045260246000fd5b600082610d2b57634e487b7160e01b600052601260045260246000fd5b50069056fea2646970667358221220b06ed214327fda6f704256de2bc5bdea4b62a5821654f73ee02f4e6b9d13d91864736f6c63430008140033",
  "devdoc": {
    "kind": "dev",
    "methods": {
      "constructor": {
        "params": {
          "keyHash": "- the gas lane to use, which specifies the maximum gas price to bump to",
          "subscriptionId": "- the subscription ID that this contract uses for funding requests",
          "vrfCoordinator": "- coordinator, check https://docs.chain.link/vrf/v2-5/supported-networks"
        }
      }
    },
    "version": 1
  },
  "userdoc": {
    "kind": "user",
    "methods": {
      "acceptOwnership()": {
        "notice": "Allows an ownership transfer to be completed by the recipient."
      },
      "constructor": {
        "notice": "Constructor inherits VRFConsumerBaseV2Plus"
      },
      "owner()": {
        "notice": "Get the current owner"
      },
      "preValidation(uint256,bytes)": {
        "notice": "Requests randomness Assumes the subscription is funded sufficiently; \"Words\" refers to unit of data in Computer Science"
      },
      "setCoordinator(address)": {
        "notice": "Sets the VRF Coordinator addressThis method should only be callable by the coordinator or contract owner"
      },
      "transferOwnership(address)": {
        "notice": "Allows an owner to begin transferring ownership to a new address."
      }
    },
    "version": 1
  },
  "storageLayout": {
    "storage": [
      {
        "astId": 11099,
        "contract": "contracts/Validator/Support/RandomValidator.sol:RandomValidator",
        "label": "claimState",
        "offset": 0,
        "slot": "0",
        "type": "t_mapping(t_bytes32,t_enum(ValidationState)10450)"
      },
      {
        "astId": 11103,
        "contract": "contracts/Validator/Support/RandomValidator.sol:RandomValidator",
        "label": "validationRequest",
        "offset": 0,
        "slot": "1",
        "type": "t_mapping(t_bytes32,t_bytes32)"
      },
      {
        "astId": 11105,
        "contract": "contracts/Validator/Support/RandomValidator.sol:RandomValidator",
        "label": "lastRequestId",
        "offset": 0,
        "slot": "2",
        "type": "t_bytes32"
      },
      {
        "astId": 1286,
        "contract": "contracts/Validator/Support/RandomValidator.sol:RandomValidator",
        "label": "s_owner",
        "offset": 0,
        "slot": "3",
        "type": "t_address"
      },
      {
        "astId": 1288,
        "contract": "contracts/Validator/Support/RandomValidator.sol:RandomValidator",
        "label": "s_pendingOwner",
        "offset": 0,
        "slot": "4",
        "type": "t_address"
      },
      {
        "astId": 4549,
        "contract": "contracts/Validator/Support/RandomValidator.sol:RandomValidator",
        "label": "s_vrfCoordinator",
        "offset": 0,
        "slot": "5",
        "type": "t_contract(IVRFCoordinatorV2Plus)4698"
      }
    ],
    "types": {
      "t_address": {
        "encoding": "inplace",
        "label": "address",
        "numberOfBytes": "20"
      },
      "t_bytes32": {
        "encoding": "inplace",
        "label": "bytes32",
        "numberOfBytes": "32"
      },
      "t_contract(IVRFCoordinatorV2Plus)4698": {
        "encoding": "inplace",
        "label": "contract IVRFCoordinatorV2Plus",
        "numberOfBytes": "20"
      },
      "t_enum(ValidationState)10450": {
        "encoding": "inplace",
        "label": "enum ITwoStepValidator.ValidationState",
        "numberOfBytes": "1"
      },
      "t_mapping(t_bytes32,t_bytes32)": {
        "encoding": "mapping",
        "key": "t_bytes32",
        "label": "mapping(bytes32 => bytes32)",
        "numberOfBytes": "32",
        "value": "t_bytes32"
      },
      "t_mapping(t_bytes32,t_enum(ValidationState)10450)": {
        "encoding": "mapping",
        "key": "t_bytes32",
        "label": "mapping(bytes32 => enum ITwoStepValidator.ValidationState)",
        "numberOfBytes": "32",
        "value": "t_enum(ValidationState)10450"
      }
    }
  }
}