{
  "address": "0xEd81fB756fb3A16b072732C17E30df2Bde107B15",
  "abi": [
    {
      "inputs": [
        {
          "internalType": "address",
          "name": "_groth16Addr",
          "type": "address"
        }
      ],
      "stateMutability": "nonpayable",
      "type": "constructor"
    },
    {
      "inputs": [
        {
          "internalType": "uint256",
          "name": "",
          "type": "uint256"
        },
        {
          "internalType": "uint256",
          "name": "",
          "type": "uint256"
        }
      ],
      "name": "config",
      "outputs": [
        {
          "internalType": "bool",
          "name": "",
          "type": "bool"
        }
      ],
      "stateMutability": "view",
      "type": "function"
    },
    {
      "inputs": [
        {
          "internalType": "bytes",
          "name": "params",
          "type": "bytes"
        }
      ],
      "name": "decodeParams",
      "outputs": [
        {
          "internalType": "uint256[2]",
          "name": "_pA",
          "type": "uint256[2]"
        },
        {
          "internalType": "uint256[2][2]",
          "name": "_pB",
          "type": "uint256[2][2]"
        },
        {
          "internalType": "uint256[2]",
          "name": "_pC",
          "type": "uint256[2]"
        },
        {
          "internalType": "uint256",
          "name": "publicHash",
          "type": "uint256"
        }
      ],
      "stateMutability": "pure",
      "type": "function"
    },
    {
      "inputs": [],
      "name": "description",
      "outputs": [
        {
          "internalType": "string",
          "name": "",
          "type": "string"
        }
      ],
      "stateMutability": "view",
      "type": "function"
    },
    {
      "inputs": [
        {
          "internalType": "address",
          "name": "sender",
          "type": "address"
        }
      ],
      "name": "getAddressAsField",
      "outputs": [
        {
          "internalType": "uint256",
          "name": "",
          "type": "uint256"
        }
      ],
      "stateMutability": "pure",
      "type": "function"
    },
    {
      "inputs": [
        {
          "internalType": "uint256",
          "name": "validationId",
          "type": "uint256"
        }
      ],
      "name": "getConfig",
      "outputs": [
        {
          "internalType": "string",
          "name": "",
          "type": "string"
        }
      ],
      "stateMutability": "pure",
      "type": "function"
    },
    {
      "inputs": [
        {
          "internalType": "uint256",
          "name": "publicHash",
          "type": "uint256"
        }
      ],
      "name": "getPublicSignals",
      "outputs": [
        {
          "internalType": "uint256",
          "name": "",
          "type": "uint256"
        },
        {
          "internalType": "uint256",
          "name": "",
          "type": "uint256"
        },
        {
          "internalType": "uint256",
          "name": "",
          "type": "uint256"
        }
      ],
      "stateMutability": "view",
      "type": "function"
    },
    {
      "inputs": [],
      "name": "groth16Addr",
      "outputs": [
        {
          "internalType": "address",
          "name": "",
          "type": "address"
        }
      ],
      "stateMutability": "view",
      "type": "function"
    },
    {
      "inputs": [
        {
          "internalType": "address",
          "name": "",
          "type": "address"
        }
      ],
      "name": "nonces",
      "outputs": [
        {
          "internalType": "uint256",
          "name": "",
          "type": "uint256"
        }
      ],
      "stateMutability": "view",
      "type": "function"
    },
    {
      "inputs": [
        {
          "internalType": "uint256",
          "name": "validationId",
          "type": "uint256"
        },
        {
          "internalType": "uint256[]",
          "name": "_hashes",
          "type": "uint256[]"
        }
      ],
      "name": "setConfig",
      "outputs": [],
      "stateMutability": "nonpayable",
      "type": "function"
    },
    {
      "inputs": [
        {
          "internalType": "uint256",
          "name": "_validationId",
          "type": "uint256"
        },
        {
          "internalType": "bytes",
          "name": "_params",
          "type": "bytes"
        }
      ],
      "name": "setConfigFromParams",
      "outputs": [],
      "stateMutability": "nonpayable",
      "type": "function"
    },
    {
      "inputs": [
        {
          "internalType": "uint256",
          "name": "",
          "type": "uint256"
        },
        {
          "internalType": "uint256",
          "name": "",
          "type": "uint256"
        }
      ],
      "name": "usedHashes",
      "outputs": [
        {
          "internalType": "bool",
          "name": "",
          "type": "bool"
        }
      ],
      "stateMutability": "view",
      "type": "function"
    },
    {
      "inputs": [
        {
          "internalType": "uint256",
          "name": "validationId",
          "type": "uint256"
        },
        {
          "internalType": "bytes",
          "name": "params",
          "type": "bytes"
        }
      ],
      "name": "validate",
      "outputs": [
        {
          "internalType": "bool",
          "name": "",
          "type": "bool"
        }
      ],
      "stateMutability": "nonpayable",
      "type": "function"
    }
  ],
  "transactionHash": "0x0ca8f5bd384dd78ddd3d8a331fe31e0cbe1653b083bd289d92e3222a4fc2eb25",
  "args": [
    "0x987cc9ed0A5b5CA52B004023628A39185454d1F9"
  ],
  "numDeployments": 2,
  "solcInputHash": "d9392d1df9407e1acd45ca5ff3d8e6e1",
  "bytecode": "0x610100604052600e60c09081526d5a4b502076616c696461746f722160901b60e0526000906200003090826200011d565b503480156200003e57600080fd5b5060405162000fd338038062000fd38339810160408190526200006191620001e9565b6001600160a01b0316608081905260a0526200021b565b634e487b7160e01b600052604160045260246000fd5b600181811c90821680620000a357607f821691505b602082108103620000c457634e487b7160e01b600052602260045260246000fd5b50919050565b601f8211156200011857600081815260208120601f850160051c81016020861015620000f35750805b601f850160051c820191505b818110156200011457828155600101620000ff565b5050505b505050565b81516001600160401b0381111562000139576200013962000078565b62000151816200014a84546200008e565b84620000ca565b602080601f831160018114620001895760008415620001705750858301515b600019600386901b1c1916600185901b17855562000114565b600085815260208120601f198616915b82811015620001ba5788860151825594840194600190910190840162000199565b5085821015620001d95787850151600019600388901b60f8161c191681555b5050505050600190811b01905550565b600060208284031215620001fc57600080fd5b81516001600160a01b03811681146200021457600080fd5b9392505050565b60805160a051610d9262000241600039600061054b015260006101fd0152610d926000f3fe608060405234801561001057600080fd5b50600436106100b45760003560e01c8063a81b2f8d11610071578063a81b2f8d14610181578063acd082de14610194578063b0771ab0146101b7578063efbe62e8146101e5578063f4ca4ea4146101f8578063fe4939d41461023757600080fd5b8063338b9109146100b9578063601dd6fc146100fc5780637284e416146101115780637ecebe00146101265780638ee4aa7f146101545780639cc9f2491461016e575b600080fd5b6100e76100c73660046107c5565b600360209081526000928352604080842090915290825290205460ff1681565b60405190151581526020015b60405180910390f35b61010f61010a366004610830565b610277565b005b6101196102f2565b6040516100f3919061087c565b6101466101343660046108ca565b60016020526000908152604090205481565b6040519081526020016100f3565b6101466101623660046108ca565b6001600160a01b031690565b61010f61017c3660046108fa565b610380565b61011961018f366004610979565b6103e8565b6101a76101a2366004610992565b6103f9565b6040516100f39493929190610a25565b6100e76101c53660046107c5565b600260209081526000928352604080842090915290825290205460ff1681565b6100e76101f3366004610830565b61042f565b61021f7f000000000000000000000000000000000000000000000000000000000000000081565b6040516001600160a01b0390911681526020016100f3565b61025c610245366004610979565b336000818152600160205260409020549092909190565b604080519384526020840192909252908201526060016100f3565b60008061028683850185610ace565b9150915060005b828110156102ea5760008282815181106102a9576102a9610b80565b6020908102919091018101516000898152600283526040808220928252919092529020805460ff1916600117905550806102e281610b96565b91505061028d565b505050505050565b600080546102ff90610bbd565b80601f016020809104026020016040519081016040528092919081815260200182805461032b90610bbd565b80156103785780601f1061034d57610100808354040283529160200191610378565b820191906000526020600020905b81548152906001019060200180831161035b57829003601f168201915b505050505081565b60005b818110156103e257600083838381811061039f5761039f610b80565b6000888152600260209081526040808320938202959095013582529190915291909120805460ff19166001179055508190506103da81610b96565b915050610383565b50505050565b60606103f38261060f565b92915050565b61040161077a565b610409610798565b61041161077a565b600061041f85870187610c47565b9299919850965090945092505050565b60008080808061044186880188610c47565b60008c81526002602090815260408083208484529091529020549397509195509350915060ff166104a85760405162461bcd60e51b815260206004820152600c60248201526b092dcecc2d8d2c840d0c2e6d60a31b60448201526064015b60405180910390fd5b600088815260036020908152604080832084845290915290205460ff16156105065760405162461bcd60e51b815260206004820152601160248201527012185cda08185b1c9958591e481d5cd959607a1b604482015260640161049f565b6000888152600360209081526040808320848452825291829020805460ff191660011790558151908101825282815290516343753b4d60e01b81526001600160a01b037f000000000000000000000000000000000000000000000000000000000000000016916343753b4d9161058491889188918891600401610cdd565b602060405180830381865afa1580156105a1573d6000803e3d6000fd5b505050506040513d601f19601f820116820180604052508101906105c59190610d3a565b6106015760405162461bcd60e51b815260206004820152600d60248201526c24b73b30b634b210383937b7b360991b604482015260640161049f565b506001979650505050505050565b6060600061061c836106a2565b600101905060008167ffffffffffffffff81111561063c5761063c610a5e565b6040519080825280601f01601f191660200182016040528015610666576020820181803683370190505b5090508181016020015b600019016f181899199a1a9b1b9c1cb0b131b232b360811b600a86061a8153600a850494508461067057509392505050565b60008072184f03e93ff9f4daa797ed6e38ed64bf6a1f0160401b83106106e15772184f03e93ff9f4daa797ed6e38ed64bf6a1f0160401b830492506040015b6d04ee2d6d415b85acef8100000000831061070d576d04ee2d6d415b85acef8100000000830492506020015b662386f26fc10000831061072b57662386f26fc10000830492506010015b6305f5e1008310610743576305f5e100830492506008015b612710831061075757612710830492506004015b60648310610769576064830492506002015b600a83106103f35760010192915050565b60405180604001604052806002906020820280368337509192915050565b60405180604001604052806002905b6107af61077a565b8152602001906001900390816107a75790505090565b600080604083850312156107d857600080fd5b50508035926020909101359150565b60008083601f8401126107f957600080fd5b50813567ffffffffffffffff81111561081157600080fd5b60208301915083602082850101111561082957600080fd5b9250929050565b60008060006040848603121561084557600080fd5b83359250602084013567ffffffffffffffff81111561086357600080fd5b61086f868287016107e7565b9497909650939450505050565b600060208083528351808285015260005b818110156108a95785810183015185820160400152820161088d565b506000604082860101526040601f19601f8301168501019250505092915050565b6000602082840312156108dc57600080fd5b81356001600160a01b03811681146108f357600080fd5b9392505050565b60008060006040848603121561090f57600080fd5b83359250602084013567ffffffffffffffff8082111561092e57600080fd5b818601915086601f83011261094257600080fd5b81358181111561095157600080fd5b8760208260051b850101111561096657600080fd5b6020830194508093505050509250925092565b60006020828403121561098b57600080fd5b5035919050565b600080602083850312156109a557600080fd5b823567ffffffffffffffff8111156109bc57600080fd5b6109c8858286016107e7565b90969095509350505050565b8060005b60028110156103e25781518452602093840193909101906001016109d8565b8060005b60028110156103e257610a0f8483516109d4565b60409390930192602091909101906001016109fb565b6101208101610a3482876109d4565b610a4160408301866109f7565b610a4e60c08301856109d4565b8261010083015295945050505050565b634e487b7160e01b600052604160045260246000fd5b6040805190810167ffffffffffffffff81118282101715610a9757610a97610a5e565b60405290565b604051601f8201601f1916810167ffffffffffffffff81118282101715610ac657610ac6610a5e565b604052919050565b60008060408385031215610ae157600080fd5b8235915060208084013567ffffffffffffffff80821115610b0157600080fd5b818601915086601f830112610b1557600080fd5b813581811115610b2757610b27610a5e565b8060051b9150610b38848301610a9d565b8181529183018401918481019089841115610b5257600080fd5b938501935b83851015610b7057843582529385019390850190610b57565b8096505050505050509250929050565b634e487b7160e01b600052603260045260246000fd5b600060018201610bb657634e487b7160e01b600052601160045260246000fd5b5060010190565b600181811c90821680610bd157607f821691505b602082108103610bf157634e487b7160e01b600052602260045260246000fd5b50919050565b600082601f830112610c0857600080fd5b610c10610a74565b806040840185811115610c2257600080fd5b845b81811015610c3c578035845260209384019301610c24565b509095945050505050565b6000806000806101208587031215610c5e57600080fd5b610c688686610bf7565b9350604086605f870112610c7b57600080fd5b610c83610a74565b8060c0880189811115610c9557600080fd5b8389015b81811015610cba57610cab8b82610bf7565b84526020909301928401610c99565b50819650610cc88a82610bf7565b979a9699509697610100013596505050505050565b6101208101610cec82876109d4565b610cf960408301866109f7565b610d0660c08301856109d4565b61010082018360005b6001811015610d2e578151835260209283019290910190600101610d0f565b50505095945050505050565b600060208284031215610d4c57600080fd5b815180151581146108f357600080fdfea2646970667358221220f3b35fff01f9cd1767c7e577ddc289959e431397ba0a97844e0626df24ef2c6764736f6c63430008140033",
  "devdoc": {
    "kind": "dev",
    "methods": {
      "setConfig(uint256,uint256[])": {
        "details": "This function is only callable by the owner of the validator",
        "params": {
          "_hashes": "The list of hashes to add"
        }
      }
    },
    "version": 1
  },
  "userdoc": {
    "kind": "user",
    "methods": {
      "setConfig(uint256,uint256[])": {
        "notice": "Add a list of hashes to the validator"
      }
    },
    "version": 1
  },
  "storageLayout": {
    "storage": [
      {
        "astId": 17130,
        "contract": "contracts/Validator/Support/SecretValidator.sol:SecretValidator",
        "label": "description",
        "offset": 0,
        "slot": "0",
        "type": "t_string_storage"
      },
      {
        "astId": 17139,
        "contract": "contracts/Validator/Support/SecretValidator.sol:SecretValidator",
        "label": "nonces",
        "offset": 0,
        "slot": "1",
        "type": "t_mapping(t_address,t_uint256)"
      },
      {
        "astId": 17145,
        "contract": "contracts/Validator/Support/SecretValidator.sol:SecretValidator",
        "label": "config",
        "offset": 0,
        "slot": "2",
        "type": "t_mapping(t_uint256,t_mapping(t_uint256,t_bool))"
      },
      {
        "astId": 17151,
        "contract": "contracts/Validator/Support/SecretValidator.sol:SecretValidator",
        "label": "usedHashes",
        "offset": 0,
        "slot": "3",
        "type": "t_mapping(t_uint256,t_mapping(t_uint256,t_bool))"
      }
    ],
    "types": {
      "t_address": {
        "encoding": "inplace",
        "label": "address",
        "numberOfBytes": "20"
      },
      "t_bool": {
        "encoding": "inplace",
        "label": "bool",
        "numberOfBytes": "1"
      },
      "t_mapping(t_address,t_uint256)": {
        "encoding": "mapping",
        "key": "t_address",
        "label": "mapping(address => uint256)",
        "numberOfBytes": "32",
        "value": "t_uint256"
      },
      "t_mapping(t_uint256,t_bool)": {
        "encoding": "mapping",
        "key": "t_uint256",
        "label": "mapping(uint256 => bool)",
        "numberOfBytes": "32",
        "value": "t_bool"
      },
      "t_mapping(t_uint256,t_mapping(t_uint256,t_bool))": {
        "encoding": "mapping",
        "key": "t_uint256",
        "label": "mapping(uint256 => mapping(uint256 => bool))",
        "numberOfBytes": "32",
        "value": "t_mapping(t_uint256,t_bool)"
      },
      "t_string_storage": {
        "encoding": "bytes",
        "label": "string",
        "numberOfBytes": "32"
      },
      "t_uint256": {
        "encoding": "inplace",
        "label": "uint256",
        "numberOfBytes": "32"
      }
    }
  }
}