{
  "address": "0xE12b8FDD2059bbEa13EAe4f123f1Afd0C7a98c26",
  "abi": [
    {
      "inputs": [
        {
          "internalType": "address",
          "name": "_organizationManagerAddr",
          "type": "address"
        },
        {
          "internalType": "address",
          "name": "_challangeManagerAddr",
          "type": "address"
        }
      ],
      "stateMutability": "nonpayable",
      "type": "constructor"
    },
    {
      "inputs": [],
      "name": "challangeManager",
      "outputs": [
        {
          "internalType": "contract IChallengeManager",
          "name": "",
          "type": "address"
        }
      ],
      "stateMutability": "view",
      "type": "function"
    },
    {
      "inputs": [],
      "name": "organizationManager",
      "outputs": [
        {
          "internalType": "contract IOrganizationManager",
          "name": "",
          "type": "address"
        }
      ],
      "stateMutability": "view",
      "type": "function"
    },
    {
      "inputs": [
        {
          "internalType": "bytes32",
          "name": "_validatorUID",
          "type": "bytes32"
        },
        {
          "internalType": "address",
          "name": "_validatorAddress",
          "type": "address"
        }
      ],
      "name": "registerValidator",
      "outputs": [],
      "stateMutability": "nonpayable",
      "type": "function"
    },
    {
      "inputs": [
        {
          "internalType": "uint256",
          "name": "_challengeId",
          "type": "uint256"
        },
        {
          "internalType": "bytes32",
          "name": "_validatorUID",
          "type": "bytes32"
        },
        {
          "internalType": "uint256",
          "name": "_validationId",
          "type": "uint256"
        }
      ],
      "name": "setChallengeValidator",
      "outputs": [],
      "stateMutability": "nonpayable",
      "type": "function"
    },
    {
      "inputs": [
        {
          "internalType": "bytes32",
          "name": "",
          "type": "bytes32"
        }
      ],
      "name": "validators",
      "outputs": [
        {
          "internalType": "address",
          "name": "",
          "type": "address"
        }
      ],
      "stateMutability": "view",
      "type": "function"
    }
  ],
  "transactionHash": "0x47a046937f2f313be1d32c4e8252604b2073340d2042f30ae5b4a1a1407e112c",
  "args": [
    "0xd6DFF585b2C99605dCc787F8974e8a674AFfE768",
    "0xF6EF10c9b2aE603b6a5a6D06bB3479c774F4E816"
  ],
  "numDeployments": 3,
  "solcInputHash": "6a7a04fc73320e906a291255894636d2",
  "bytecode": "0x608060405234801561001057600080fd5b506040516104ed3803806104ed83398101604081905261002f9161007f565b600080546001600160a01b039283166001600160a01b031991821617909155600180549390921692169190911790556100b2565b80516001600160a01b038116811461007a57600080fd5b919050565b6000806040838503121561009257600080fd5b61009b83610063565b91506100a960208401610063565b90509250929050565b61042c806100c16000396000f3fe608060405234801561001057600080fd5b50600436106100575760003560e01c80639bdafcb31461005c5780639f4ed105146100a1578063ac0e8964146100b4578063cac49628146100f2578063e3e5e1d214610105575b600080fd5b61008561006a366004610333565b6002602052600090815260409020546001600160a01b031681565b6040516001600160a01b03909116815260200160405180910390f35b600154610085906001600160a01b031681565b6100f06100c236600461034c565b60009182526002602052604090912080546001600160a01b0319166001600160a01b03909216919091179055565b005b600054610085906001600160a01b031681565b6100f0610113366004610388565b600080546040516308f8513960e21b8152600481018690526001600160a01b03909116906323e144e490602401602060405180830381865afa15801561015d573d6000803e3d6000fd5b505050506040513d601f19601f8201168201806040525081019061018191906103b4565b60015460405163146a291160e01b8152600481018390523360248201529192506001600160a01b03169063146a291190604401602060405180830381865afa1580156101d1573d6000803e3d6000fd5b505050506040513d601f19601f820116820180604052508101906101f591906103cd565b6102355760405162461bcd60e51b815260206004820152600c60248201526b2737ba1030b71030b236b4b760a11b60448201526064015b60405180910390fd5b6000838152600260205260409020546001600160a01b0316806102b85760405162461bcd60e51b815260206004820152603560248201527f496e76616c6964205f76616c696461746f725549442c20706c6561736520726560448201527433b4b9ba32b9103a3432903b30b634b230ba37b91760591b606482015260840161022c565b6000546040516331941c9f60e11b8152600481018790526001600160a01b038381166024830152604482018790526064820186905290911690636328393e90608401600060405180830381600087803b15801561031457600080fd5b505af1158015610328573d6000803e3d6000fd5b505050505050505050565b60006020828403121561034557600080fd5b5035919050565b6000806040838503121561035f57600080fd5b8235915060208301356001600160a01b038116811461037d57600080fd5b809150509250929050565b60008060006060848603121561039d57600080fd5b505081359360208301359350604090920135919050565b6000602082840312156103c657600080fd5b5051919050565b6000602082840312156103df57600080fd5b815180151581146103ef57600080fd5b939250505056fea26469706673582212209c27b7dc8e2ddb74556b6407604b0784182d5ba2d6e1f699904df7826ef4c54964736f6c63430008140033",
  "devdoc": {
    "kind": "dev",
    "methods": {},
    "version": 1
  },
  "userdoc": {
    "kind": "user",
    "methods": {},
    "version": 1
  },
  "storageLayout": {
    "storage": [
      {
        "astId": 11857,
        "contract": "contracts/Validator/ValidatorRegistry.sol:ValidatorRegistry",
        "label": "challangeManager",
        "offset": 0,
        "slot": "0",
        "type": "t_contract(IChallengeManager)8263"
      },
      {
        "astId": 11860,
        "contract": "contracts/Validator/ValidatorRegistry.sol:ValidatorRegistry",
        "label": "organizationManager",
        "offset": 0,
        "slot": "1",
        "type": "t_contract(IOrganizationManager)8338"
      },
      {
        "astId": 11864,
        "contract": "contracts/Validator/ValidatorRegistry.sol:ValidatorRegistry",
        "label": "validators",
        "offset": 0,
        "slot": "2",
        "type": "t_mapping(t_bytes32,t_address)"
      }
    ],
    "types": {
      "t_address": {
        "encoding": "inplace",
        "label": "address",
        "numberOfBytes": "20"
      },
      "t_bytes32": {
        "encoding": "inplace",
        "label": "bytes32",
        "numberOfBytes": "32"
      },
      "t_contract(IChallengeManager)8263": {
        "encoding": "inplace",
        "label": "contract IChallengeManager",
        "numberOfBytes": "20"
      },
      "t_contract(IOrganizationManager)8338": {
        "encoding": "inplace",
        "label": "contract IOrganizationManager",
        "numberOfBytes": "20"
      },
      "t_mapping(t_bytes32,t_address)": {
        "encoding": "mapping",
        "key": "t_bytes32",
        "label": "mapping(bytes32 => address)",
        "numberOfBytes": "32",
        "value": "t_address"
      }
    }
  }
}